:020000040800F2
:10000000C06F0020410100086B0100081162000868
:1000100000000000000000000000000000000000E0
:10002000000000000000000000000000E99D000842
:100030000000000000000000FF0000088DB1000873
:1000400075010008750100087501000875010008B8
:1000500075010008750100082D30000875010008C1
:1000600075010008A5200008B1200008F52000084F
:100070007501000875010008750100087501000888
:100080007501000875010008750100087501000878
:100090007501000875010008750100087501000868
:1000A00015620008750100087501000849BA0008CA
:1000B00059BA000869BA0008750100080348854666
:1000C00000F0D2FD0048004771FE0008C06F00201C
:1000D000064B19680868203080F30988022080F3F5
:1000E00014883FBCAE4662B600BD00004406002046
:1000F000EFF3108072B6704780F310887047EFF30B
:1001000009800E4B1A6820381060F0C044464D46F6
:1001100056465F46F0C008B572B612F00AFF62B6E6
:100120000CBC116808681030F0C8A046A946B24659
:10013000BB4680F309882038F0C8184744060020E1
:100140000D480E49026800608A4203D00C4880477F
:100150000C4800470C480D4901600D480B490160EF
:100160000C4801688D4640680047FEE7FEE7FEE761
:10017000FEE7FEE7FEE70000F07F0020EFBEADDE09
:100180003DB20008BD000008181002400100000048
:100190000000014000D8FF1F30B50B46014600208B
:1001A0002022012409E00D46D5409D4205D31D467D
:1001B0009540491B2546954040191546521E002D75
:1001C000F1DC30BD70B500242546002801DA012499
:1001D0004042002901DA01254942FFF7DDFFAC4228
:1001E00000D04042002C00D0494270BDF0B51FB491
:1001F00086B000200090019002900698069980B287
:1002000004900798090C020400141143079000277A
:10021000089D099806913E463C4603900398A9B272
:100220000204000C039004982D0C15434843002150
:10023000224600F091FAC719714110340E46402C45
:10024000ECDB3846029A00F087FA009A019B80188E
:100250000090594102980191103002904028CCDB67
:1002600000980BB0F0BD10B5202A04DB0846203AF8
:10027000D040002110BD0B46D340D0402024A21A0C
:1002800091400843194610BD00487047E03F0108FF
:1002900010B50446FFF7F8FF0068005DC007C00F07
:1002A00010BD01464139192900D820307047034656
:1002B0000B439B0703D009E008C9121F08C0042A9A
:1002C000FAD203E00B780370401C491C521EF9D28D
:1002D0007047D2B201E00270401C491EFBD2704749
:1002E0000022F6E710B513460A4604461946FFF702
:1002F000F0FF204610BD421E5378521C002BFBD14C
:100300000B781370491C521C002BF9D1704710B5A3
:10031000044605E00B780370401C002B00D0491CFC
:10032000521EF7D2204610BDCAB2401E4178401C72
:100330008A4202D00029F9D100207047421C01787E
:10034000401C0029FBD1801A704710B5002200E044
:10035000521C835C8C5CA34201D1002BF8D1D8B233
:10036000E1B2401A10BD30B504460020034600E05B
:100370005B1C934203D2E05CCD5C401BF8D030BDE7
:1003800003460A780270401C491C002AF9D118461D
:10039000704730B505460020034600E05B1C9342E1
:1003A00005D2EC5CC85C201A01D1002CF6D130BD1E
:1003B00070B5104D002800D12868002414E00A46CA
:1003C00002E09E4203D0521C1378002BF9D1DAB21E
:1003D000224307D0002B06D0002C04D0002101704E
:1003E000401C04E00446401C0678002EE7D128603B
:1003F000204670BD3406002070B506460EF048F960
:10040000046805460A220021304600F007FA2C60F5
:1004100070BD70B506460EF03BF9046805460A2229
:100420000021304600F0FAF92C6070BDF8B50246A4
:100430004A40D40F42004B0052085B089A4202D255
:100440000246084611464A0023D0C30D4A00DDB2D9
:10045000120EAD1A202D35DA49020126490AF60599
:100460008A19002C00D0524220214F1B1146B9405E
:100470002A411018C20D9A4221D0002C17D0012D0C
:1004800008DCDA05801AD20F8019D207DBB200F03F
:1004900005FAF8BDDA05801A012340001B06C018D2
:1004A00080185A428018CA0F1043490007E04908D3
:1004B000C2071143DA05801A80194008801800F03D
:1004C000E5F9F8BD61000122511A001BF7E701228E
:1004D000D2075140AAE70122D2075040A6E770B5E3
:1004E00002464A40D50F40004A00ED074008520836
:1004F000002814D0002A12D0C40DD30D41020120CF
:10050000C0055202490A520AE41A091812187D3429
:10051000914201D3641C00E04900002C01DA002064
:1005200070BD0023914201D3891A0343400849005A
:100530000028F7D100290AD0914202D10121C90730
:1005400005E0914201D2012101E00121C943E0050A
:10055000C018401900F09AF970BD0000F0B50C46C3
:100560005C4085B0E40FE40703944C000026640867
:1005700059009446490802460296224321D0624619
:100580000A431ED06200570D4A000E032303550D87
:10059000012402462C492405781B1B0B360B4018FE
:1005A00023432643614600901C46501AB44103D3AE
:1005B0000098401C009002E0921800985B410028CF
:1005C00003DA0020014605B0F0BD00200121090535
:1005D0000746864611E064461D46141BB54106D306
:1005E0006546521BB341744607430C43A646CD07EC
:1005F00040084908284392185B4105460D43EAD15B
:100600001046184313D060461946504071400843C5
:1006100006D06046101AB34106D20122002306E03C
:1006200000220123DB0702E00122D243531000988D
:1006300074460105381C6141029C039D0019694103
:1006400000F065F9BFE70000FD030000C217C10F0D
:10065000504010B54018CA079623002100F01EF93B
:1006600010BD10B500229623114600F017F910BDF9
:10067000C20FD207400040080BD0C10D0723DB0199
:10068000C91840020905400A1143C2084007114336
:100690007047002001467047CB0FDB07490010B5BB
:1006A000490802460A4307D00A0D07240903E4015A
:1006B000090B121B002A01DC002010BDC900440FE9
:1006C0000C43C100E018D205801800F0DFF810BD1F
:1006D0000122D207002800DB101A002900DB511A82
:1006E000814270470122D207002800DB101A00293E
:1006F00000DB511A88427047F0B51FB4064600204F
:1007000082B005464024019100901BE001992246E9
:100710000F463046FFF7A7FD049A059B801A9941C2
:1007200010D310461946224600F016F8361A8F41AB
:100730000197224601200021009F00F00DF8381893
:100740004D4100902046641E0028DFDC019B00988C
:100750002946324607B0F0BD10B5202A04DB014619
:10076000203A9140002010BD914020239C1A03465E
:10077000E3401943904010BD0FB400B589B00CA9F7
:1007800000910B990023CB60204B214A06930792DE
:10079000042201921F4A02921F4A089202466B46A7
:1007A000002000F016FB09B008BC04B0184770B573
:1007B00086B006460020C0430190002015460C4636
:1007C0000091029104903246694604A8FFF7D4FFD5
:1007D000024604982118002D05D0002801D00846B3
:1007E00000E020462860049800280DD0002A02DD91
:1007F0000098884208D0081B019000943246694650
:10080000029404A8FFF7B8FF06B070BD29100008D5
:1008100049100008FFFFFF7F91020008F7B5009C18
:100820000F4600262578641C002D05D0FFF72CFD0F
:100830000068405DC007F5D12B2D02D02D2D18D0BA
:10084000641E39462046029A00F010FC002F04D0A6
:100850003968A14201D1009939607105022400294B
:100860000BDA4042002803DD0DF012FF0460A00700
:10087000FEBD012080020643E3E70028F8DA0DF010
:1008800007FF04600048FEBDFFFFFF7F002904DA78
:10089000401C490001D140084000704770B400245A
:1008A000050C05D11024000402D1002921D0112407
:1008B000050E01D100020834050F01D10001241DED
:1008C000850F01D18000A41C002801DB4000641CBE
:1008D000002908D020252E1B0D46F540A14000D050
:1008E00001212943084301061B1B000ADB1D02D519
:1008F000002070BC7047DB05181880180029F8DA52
:10090000401C4900F5D170BC40084000704710B54C
:10091000002B08DA0024401C614192185B411A4305
:1009200001D14008400010BDF0B51FB482B00546AB
:100930000C0003D008460DF087FE02E00DF084FEA7
:1009400020300246009021462846FFF705FF049B11
:10095000059A04460F4618431143084314D018461D
:1009600010431BD0009840210A1A18460599FFF73A
:100970007AFC05460E46009A05990498FFF7ECFEAE
:10098000084305D0012004E02046394607B0F0BDF9
:100990000020C11705430E432C43374300990E989E
:1009A0006305401A7905E40A00220C43FD0A0A3067
:1009B00002D500200146E9E70105101969410C9CA8
:1009C0000D9D00196941FFF7A2FFDFE7F0B507466B
:1009D0000846584087B0C00F049048000E465900A2
:1009E00040084908BC1A884105D2384631461E469F
:1009F00017460B4602465800400810434CD0300DB5
:100A0000039040055900400D490D0590401A029091
:100A1000402872DA18030121000B090508430190F0
:100A200004980092002805D0019952420020884184
:100A300000920190029840210A1A01990098FFF74C
:100A40008BFE05460C466B4607CB00F01FF9C0191C
:100A50007141039A0E0D0023D71756401A467A406B
:100A6000164344D0049A002A2DD0029A012A039AF0
:100A700015DC1205C01A914101263605001C714192
:100A8000D20F059ED2070093019202962A46234672
:100A9000FFF74AFF07B0F0BD38463146FAE71605C2
:100AA000224A0F46B218C01AB74101210905001C9D
:100AB0004F4100187F41114618187941E20F104349
:100AC0006D19644113E0E2076D0815436408C2071D
:100AD0001443039A01261205C01A91413605001CE1
:100AE0007141CE07400830434908C01851412A4699
:100AF0002346FFF70CFFCDE7FFE7049801224000F3
:100B0000C117121A00238B4104983146C417381AB2
:100B1000A141EEE730B40124E407634030BC55E75F
:100B200030B40124E407614030BC4FE70000E0FF2F
:100B3000F0B51FB488B00B99099800244840099972
:100B4000C00F490049080991C0070B99009049005E
:100B500049080B9109990898A64608431CD00B999F
:100B60000A98084318D0099801244000420D480013
:100B7000410D099824050003000B204309900B98B0
:100B80000003000B20430B9050181C494018002212
:100B900001901446104605E0002001460DB0F0BD5E
:100BA000032801DA034600E003239C46C11A0AAE7B
:100BB0000AE05F0008ADED5B4F00F75B7D43002767
:100BC000AA187C41491C5B1E6145F2DD410004AB63
:100BD0005A522104120C0A43240C401C0828DFDB63
:100BE000019802900099704601910090059B049A2B
:100BF00007990698FFF798FED0E700000DFCFFFF6D
:100C00004A0009030123090B1B0519430A4B10B5C0
:100C1000520D9A4202DA0020014610BD064B3433D1
:100C20009A4203DC9A1AFFF71EFB10BD034BD21841
:100C3000FFF792FD10BD0000FF030000CDFBFFFF9A
:100C400010B5002904DB0124E40740428C41214611
:100C5000002B04DB1C460123DB075242A3419942CF
:100C600000D1904210BD0000064C0125064E05E063
:100C7000E36807CC2B430C3C98471034B442F7D3BD
:100C8000FFF720FA88610108A861010810B5202A41
:100C900006DBCB170846203A1041C1170B4306E08C
:100CA0000B461341D0402024A21A91400843194614
:100CB00010BD0000FFB5087889B01546FF2805D0A3
:100CC000491C2D2804D00022002407E000240BE05A
:100CD0000122F9E70A235C430419491C0878FF281C
:100CE000F8D1002A00D06442002004902A780146FE
:100CF0002D2A01D02B2A0FD16D1C2D2A02D00022C3
:100D0000049209E00122FBE700260A2233466D1C0B
:100D1000FFF76CFA381871412F78FF2FF4D10C9A35
:100D2000A218069202460A4304D0FF23069A913382
:100D3000DA4205DA002109980A4606C00DB0F0BD76
:100D40000024B74AB54D2646079200F0F1F902900B
:100D500006980391002801DA474200E0074639056A
:100D60000020AF4A001C51410191009012E0F807A9
:100D700007D022462B4630460799FFF7D9FE064694
:100D8000079122462B4610461946FFF7D1FE04462E
:100D90000D467F10002FEAD10698019B0028009A8B
:100DA0000399029806DAFFF7D9FB3246079BFFF753
:100DB000D5FB05E0FFF7BCFE3246079BFFF7B8FE08
:100DC000049A002A02D00122D2075140099A03C294
:100DD000B4E7FFB591B0002009900025ED432E2027
:100DE0009E685C681F460190B9696D1C129888471F
:100DF0000090396A88470028F6D10098401C0AD034
:100E00000D20C0018443002E12DD00982B2809D04C
:100E10002D280DD103E00020C04315B0F0BD012006
:100E200080020443B9696D1C12988847761E0090B1
:100E300003A9600501D52D2000E02B206A46107320
:100E4000491C0CA80F9102900AE0B9696D1C129818
:100E5000884700900120400204431398761E0560E5
:100E6000002E02DD00983028EFD0019900988842CA
:100E700046D18020044308E00998401E09900120D3
:100E8000400204431399681C0860B9696D1C761E02
:100E90001298884700903028EED031E001998842BE
:100EA00005D1200603D480200443761E1EE000985E
:100EB0000DF01EFD002826D001204002044307A9A2
:100EC0000F980331761E88420BD200980F99303864
:100ED00008700F98401C0F90200607D50998401EF7
:100EE00003E0200602D40998401C0990A00502D511
:100EF0001399681C0860B9696D1C129888470090A6
:100F0000002ECBDC59E0002E57DD0098652801D07B
:100F1000452852D1A00550D5032000028443B96969
:100F20006D1C761E129888470090002E0CDD2B2831
:100F300004D02D2808D1FF2001300443B9696D1C6D
:100F400012988847761E0090E00501D52D2100E01B
:100F50002B21029801700298401C0290019025E01C
:100F60000120400204430EA902980131761E8842F6
:100F70000ED20098029930380006000E087003D196
:100F80000299019881420AD90298401C029006E019
:100F9000E00501D5234801E0224840420990B969A3
:100FA0006D1C12988847009013980560002E04DD90
:100FB00000980DF09DFC0028D2D1F969129888475D
:100FC0000F99FF200870029903AA087000200A9068
:100FD0000B900CA90AA8099BFFF76CFEA00502D490
:100FE0000120C04319E72420044209D0E00713D1AF
:100FF00038680B9A0A99031D3B60006806C00BE035
:101000000B990A98FFF748FB0146E00704D13868BE
:10101000021D3A60006801602846FEE600001440A8
:101020000000F03FF1D8FFFF4268002A08D00168B5
:101030000B78491C002B03D0521E06C0184670477F
:101040000121C160881E70474268002A0BD0C36826
:101050000168002B07D183688B4204D0491E521CC3
:1010600006C0002070470020C0437047F7B582B02B
:10107000029C00272078641C15460197302802D076
:10108000002D15D015E020780127641C782804D0A5
:10109000582802D0002D09D00BE0002D01D0102DD2
:1010A00007D1002710252078641C02E0082500E005
:1010B0000A250026009610E00099012769430818C8
:1010C000020C294680B2714300908E183804864283
:1010D00001D3012001902078641C294600F019F802
:1010E0000028E9DA0398002805D0002F01D0641EFB
:1010F00000E0029C04600198002806D00DF0C8FAB8
:1011000002210160C81E05B0F0BD009930040843FB
:10111000F9E73A2800D23038202302469A43412A80
:1011200001D310463738884201D30020C0437047AE
:101130000EB5054A02920022009213460192FFF773
:10114000F3FB03B000BD00003304000070B58C1841
:101150000578401C6B075B0F01D10378401C2A11F6
:1011600006D10278401C03E006780E70401C491C32
:101170005B1EF9D12B0705D40023521E0DD40B7032
:10118000491CFAE70378401CCB1A921C03E01D7837
:101190000D70491C5B1C521EF9D5A142D8D300200A
:1011A00070BD0000F3B581B0002100910024334EE2
:1011B000401E45000A20604381190298FFF7C5F8D8
:1011C000002811D0641C0A2CF4DB00242C4FA00052
:1011D000C1190298FFF7B9F800280DD0641C042C3F
:1011E000F5DB0124274F13E0274A0120515BA04083
:1011F000014351530098FEBD0620FEBD0A2023493D
:10120000604341180298FFF7A0F8002806D0641C3C
:1012100078788442F2DB1E48B86310E00720FEBDF8
:10122000006804682046FFF789F8024621460298C4
:10123000FFF7AFF8002817D0B86B4068B863B86BF9
:101240000028EDD1002420460A214843305C0028C4
:101250000CD0641C0A2CF6DB0B4A0120515BA04029
:10126000014351530098FEBD0820FEBD0A20604393
:1012700080190299FFF784F8EEE700003208002099
:10128000B23C0108180000203E0C0020390B002061
:1012900054030020F3B58DB00C4600200B90414E56
:1012A000B07A002808D04048A50040590EF068FEEA
:1012B0003E4840590EF064FE3D4904200855B07A7E
:1012C000002804D0204602F00FFB04F046FB02A8E1
:1012D000009004AB03AA05A9204602F077FA6846FD
:1012E000808906900120079000250895099506A998
:1012F000059803F0CBF86846008906900795022010
:10130000089006A9049803F0C1F8E100294A611881
:1013100089180D984870601E85002E46EC36B0B2D4
:1013200001A901F0F9FD0D9A210312021143B21C2B
:10133000771CEF3589B20C92002813D00191B0B21E
:1013400001F05EFEB8B2002101F05AFE0C980021B7
:1013500080B201F055FEA8B2002101F051FE0B98B9
:101360000FB0F0BD68468088000A0209A24206D18B
:1013700002070D98120F824201D10020F0E701917F
:10138000B0B201F03DFEB8B2002101F039FE0C9878
:10139000002180B201F034FEA8B2002101F030FE3D
:1013A000DDE7000018000020001500201C150020BB
:1013B000CA010020390F0020F8B50F4601280FD0D0
:1013C0002C4E2D4D31781422491E514349190228C3
:1013D0000AD0032846D10120087408F0D7FD41E067
:1013E000384606F075F9F8BDC868002823D0FEF726
:1013F000A5FF04463846FEF7A1FF011930781422F4
:10140000401E50434019891CC0680FF03BFB3178E7
:101410001422491E51434919C860611C40183946BD
:10142000FEF7AEFF30781422401E132150434019BE
:10143000C06801550EE03846FEF780FF401C0DF0F5
:101440005DF931781422491E51434919C860394663
:10145000FEF796FF30781421401E48434019C168BA
:10146000002901D00020F8BD1421FEF739FF0E201D
:10147000F8BD0000680200209C120020F0B587B083
:101480000E9E0F9D0D9C7D273F01D21B6F46FA7665
:101490007876B9763B76002206A91D4804F0E4F878
:1014A000002802D0FF2007B0F0BD69460E714C71D4
:1014B0000C988871002005901822164C0C2E00D92B
:1014C00062730C21012D0BD0022D0DD0627300220E
:1014D00001A90F4804F038F900280AD0FF20E2E7FC
:1014E0006A4610736173F2E740206A4610736173B5
:1014F000EDE7607B010220790143FF201B3001F002
:101500007FFD054A0121024804F009F80020CAE7DE
:101510007011002064100020F2320000F8B507F0CE
:101520008BFC02F0ADF901F0DFFA02F063F800F095
:101530003FFE09F025FF00F0A5FA09F0F3FE05F0E3
:1015400085F9002803D001F0BFFA05F0D7FF05F0B8
:10155000EFF90127344D002813D02F73322009F002
:101560000BFC05F015FFE120304E4002B060012475
:101570002046B1680AF002FB641CE4B2062CF7D9DD
:1015800004E0322009F0F8FB05F002FF05F058FCFA
:101590000AF0FEFA09F008FBA87801260924F602F1
:1015A000E406002831D001223146204603F025F818
:1015B000FF20F53009F0E0FB00223146204603F021
:1015C0001CF8642009F0D8FB01223146204603F0C4
:1015D00014F8642009F0D0FB00223146204603F0C5
:1015E0000CF8642009F0C8FB01223146204603F0C4
:1015F00004F8642009F0C0FB00223146204602F0C6
:10160000FCFF08F0D1FBAF72F8BD01223146204645
:1016100002F0F3FFFF20F53009F0AEFB0022314667
:10162000204602F0EAFFECE71800002064100020DA
:101630008CB00025002000900124B748005D0128EF
:1016400001D000287ED1B548001920380B90C67F04
:101650003CE03F2E0ADA601E8101B1480818815D26
:10166000482903D1801940785A2802D03F2E02D051
:101670000CE035462CE0601EA9498001421820325A
:10168000D27F482A02D1085C5A2802D03F2E02D0CD
:101690001BE03F251CE00B98C07FA14B611E8A0117
:1016A000D1180EE00F5C0D2F0AD13F2803DA0F1876
:1016B0007F78002F12D03F2802D19F5C002F0DD0E1
:1016C000401C4028EEDB01200090761C402EC0DB41
:1016D0000098002816D00020009015E100220A543E
:1016E0000B99401CC8778F498B480B78C254032252
:1016F00002550C708C48002302221946806910F0B4
:1017000039FCE0E73D2D23D03E2D2AD03F2D2FD0B0
:10171000601E81018248081840198678E81C0190F3
:10172000AF19FF1C3F2F00DD403FBD427CD00A2097
:1017300002F0E4FDBD4223DA601E810178480818FA
:10174000411900E0C9E0F21C7848FEF7B0FD2CE03A
:10175000601E8101724808182030C67F0020019069
:10176000DEE7601E81016E48465C01200190D7E7EC
:10177000601E81016A480818467802200190CFE770
:101780004020421B601E810165480A920918099198
:1017900049196648FEF78BFD0A9A6448B31ADB1CA8
:1017A00010181A460999FEF782FDF01CC117890F1F
:1017B0000818821008905D495D4802F026F95A49E0
:1017C0000870F01C80070AD0089801228108574849
:1017D00089000918564802F0EBF85349087038217F
:1017E0005248FEF77DFD601E4D4982015118079158
:1017F000CA5D4D4909788A424CD1474901220A55B0
:101800004C4909192039CE7701993F22511AB1422A
:101810000BDB019A0799891838225043464A8018F1
:101820003246FEF744FD15E034E0019A40218A1A61
:101830000692019B0799C918382358433E4BC0189C
:101840000590FEF734FD069A059807998018B21A9C
:10185000FEF72DFDBD4205DA0798311D4019FEF750
:101860003FFD0CE04020411B079804914019FEF712
:1018700037FD04990798711A091DFEF731FD0B9881
:101880007F1CC77728498888401C8880204605F03F
:101890009FFE39E0BD4208DA601E81012048081829
:1018A0004019311DFEF71CFD10E04020411B601E59
:1018B00082011B480391101802904019FEF710FD99
:1018C00003990298711A091DFEF70AFD0B987F1CF7
:1018D000C77715484188491C4180184800192038AD
:1018E000C17F012910D10021C1770B48025D052A73
:1018F00000D10155204601F0F7FF611E8A01084919
:101900005118402204F0A8FA641CE4B2062C00D856
:1019100093E610F02BFA8FE6CA0100208002002027
:1019200000130020210000209002002080140020DD
:10193000801C0020C4010020700C002086020020C2
:101940001FB50A460123991E019102910224044900
:10195000009403938B78194609F020FA04B010BD67
:101960001800002038B51C460D4B0125DD7019719B
:10197000FF290CD013460146FE220020009408F0F7
:1019800001FD21460748FEF7ABFC002038BD134699
:101990000146FF220020009408F0F4FCF1E700006B
:1019A00018000020F80D002038B500240A4A002352
:1019B000D3701071FF2807D00091FE2219461846F7
:1019C00008F0E0FC204638BD00230091FF221946B4
:1019D000184608F0D7FCF5E71800002070B5002382
:1019E00055080AE09C000C5B5E002404761C76001F
:1019F0008E5B3443066834605B1C9D42F2D8D2078C
:101A000003D09A00895A026811800068006870BD8E
:101A1000F0B5002397080EE09D006C184D5DE67848
:101A20002D062E436578A4782D04240225430468EE
:101A30002E4326605B1C9F42EED894071FD094076C
:101A4000A40F012C03D19D0006684D5D3570022C5A
:101A500007D19C000D5D2D0264186478254304684D
:101A60002580D24392070AD19A008B5C1B02511841
:101A70004A781343026813800268897811700068FD
:101A80000068F0BD10B50848064901601021C1602A
:101A9000002141710171416181610321016201F005
:101AA000E5FF10BD00300240801C0020F0B587B07B
:101AB0000020019000250124E0002018DF4F06904F
:101AC000C6197078002876D0DD48407B002802D106
:101AD00006980021395402A8009004AB03AA05A976
:101AE000204601F073FE684681890022059802F0C5
:101AF00084FD0A2009F02EF968460189049802F055
:101B000071FD00280ED1684681890122059802F0F6
:101B100074FD0A2009F01EF968460189049802F054
:101B200061FD0190684681890022059802F065FDFB
:101B30007078012806D002280FD0032818D0042876
:101B40002BD120E00198012803D00198002802D071
:101B500023E0042521E003251FE00198012803D09C
:101B60000198002802D018E0042516E0032514E0AF
:101B70000198012803D00198002802D00DE0022529
:101B80000BE0012509E00198012803D00198002805
:101B900002D002E0012500E00225042D01D0022D33
:101BA0000CD1A64AA0003F321158A64B994203D24D
:101BB000491C115002E0C7E000211150032D01D053
:101BC000012D21D19D4AA0005B3211589D4B9942B5
:101BD00002D2491C115001E000211150984B987D10
:101BE000022808D19849994A085D5279904202D852
:101BF000401C085508E0944994480A5D40798242A7
:101C000002D90020987508558C489049A7003F30AC
:101C10000988C0598C46884242D3604507D1874A1B
:101C200006990723535411463F31401CC85183483D
:101C3000864B5B30C259624501D90021C1517F48B2
:101C400059883F30C0591A4688421BD9FF21F531C7
:101C5000884217D27A49887D002802D0022803D012
:101C60001EE0012088751BE0774B1179185D8842D2
:101C700016D95179884213D2714803218175002009
:101C800018550DE0FF387249F538884208D26C4883
:101C9000817D002901D000218175204600F0FEF8E9
:101CA00066486A495B300A88C0599446904238D3E6
:101CB000604507D1614A06990823535411465B31A8
:101CC000401CC8515D4A61493F32D059604501D935
:101CD0000020D051594849885B30C059884218D9F2
:101CE000FF21F531884214D25549887D012802D060
:101CF000032807D015E0514A069805231354022003
:101D000088750EE04D4A0698062313540020887506
:101D100007E0FF384E49F538884202D2204600F0ED
:101D2000E1F8464F0698385C401F03000CF0A3FC16
:101D30000A1421060D2E3B495764727F20460DF090
:101D400027FB06990020785471E020460DF022FB15
:101D50000699002078546AE03948417B002966D111
:101D6000317AC90763D00121417320460DF00EFB83
:101D70005DE03348417B002959D1317A890756D536
:101D80000121417320460DF002FB50E02C48417BBD
:101D900000294CD1317A490749D5012141732046A8
:101DA0000DF0F7FA43E02648417B00293FD1317A14
:101DB00009073CD501214173022120460DF0E9FAC3
:101DC00035E01F48417B002931D1317AC9062ED533
:101DD00001214173032120460DF0DBFA27E018486A
:101DE000417B002923D1317A890620D50121417315
:101DF00020460DF0D0FA1AE01148417B002916D197
:101E0000317A490613D501214173022120460DF094
:101E1000C2FA0CE00A48417B002908D1317A090650
:101E200005D501214173032120460DF0B4FA641C4D
:101E3000E4B2062C00D83FE607B0F0BD390F002011
:101E400018000020FFFF0000D101002064100020D6
:101E50000BFE000008B500200D490E4A0978491E06
:101E6000890189180A5C0D2A04D0401CC0B24028A0
:101E7000F8D308BD00220A5407484270027100924C
:101E800000231A460321806911F056FC08BD0000AA
:101E90002100002000130020C8020020F0B5002619
:101EA000C1000F4B4118CA189478D57812797D2754
:101EB000FF007C437D437A43870018463F30C0597A
:101EC000A04202D10920585407E00A24A84201D1B7
:101ED0005C5402E0904200D15C543046F0BD0000FA
:101EE000390F0020F0B50026C1000F4B4118CA1869
:101EF00054799579D2797D27FF007C437D437A43DD
:101F0000870018465B30C059A04202D10C205854BB
:101F100007E00D24A84201D15C5402E0904200D1B8
:101F20005C543046F0BD0000390F002038B5142154
:101F3000484330490A5C4118012A04D0022A56D08D
:101F4000032A54D10BE08878C978C20080182A4A45
:101F5000105C814201D1012038BD002038BDC87815
:101F60000C22401E5043254A10580468C8886A460F
:101F7000108008895080487803000CF07CFB0738FB
:101F8000050C131D242E380020460099FEF7A0FBF7
:101F90002DD1012038BD20460099FEF7A3FB26D2A3
:101FA000012038BD20460099FEF792FB1FD2600049
:101FB000000E1CD0012038BD20460099FEF792FB90
:101FC00015D8012038BD20460099FEF781FB0ED8B8
:101FD0006000000E0BD0012038BD20460099FEF7AE
:101FE00077FB04D06000000E01D0012038BD002036
:101FF00038BD00009C120020390F0020340300205F
:10200000F8B5002532210D48FEF76AF901240B4E80
:102010000B4F0DE0601E4000315A002902D0601CB9
:1020200000F0EEFFA01C1C2800D30A25641CE4B2BB
:1020300078788442EED92846F8BD0000BC0A00201A
:102040001800002010B506490648FEF749F9064871
:10205000012141700021817007F098FF10BD000040
:1020600026020000960800201800002010B509493B
:10207000097801290AD0022907D1FEF7F9FA064AA0
:10208000064BFEF76BFAFEF707FB10BD0449FEF79F
:1020900026FA10BDC802002066666666666639408C
:1020A0000000204110B5012000F056F810BD0000DE
:1020B00010B50D480068C043C00603D4052000F0E9
:1020C0004BF810BD09480168C943C90503D4022073
:1020D00000F042F810BD0068C043C006FAD40448BE
:1020E00001F02CFD10BD0000000402400000024081
:1020F000881A002010B515480168C943C90303D4E4
:10210000032000F029F810BD0168C943C90203D4B7
:10211000042000F021F810BD0D490968C943C90524
:1021200003D4062000F018F810BD0168C943C904A3
:1021300003D4084801F002FD10BD0068C043C0018F
:10214000FAD40448383001F0F9FC10BD0000024018
:1021500000040240C01A002070B504461048611EF9
:10216000005D0D4638225143022804D00D4808185E
:1021700001F0E4FC70BD0C48081801F0DFFC0B48CE
:10218000A9000A4A4058183A002802D053585B1C4C
:10219000535051588142EDD3204608F0C9FE70BD1E
:1021A000CA01002038190020301B0020E81400204C
:1021B00008B521484169012211434161416911403B
:1021C0000091426902210A4342614069084000903F
:1021D0001A491B4800F03AF8184919482831383094
:1021E00000F034F8154916485031703000F02EF8E0
:1021F000124913486431A83000F028F810481149FA
:10220000E03000F023F80F490F48143100F01EF8B9
:102210000A490D481431383000F042F807490A489D
:102220003C31703000F03CF8044907487831A83060
:1022300000F036F808BD000000100240080002401F
:10224000381900201C040240501A002010B501600B
:102250000021416081608022C260016141612021D2
:1022600081610902C16101F0F7FF10BD70B504463C
:102270000D462946204606F077FE0021284608F044
:102280008DFB204601F074FA401E0449800141187C
:102290004022204603F0E0FD70BD00000013002046
:1022A00010B5016010214160002181608022C26070
:1022B0000161416181619101C16101F0CDFF10BDFA
:1022C00010B502460E48416A002908D0C06D0028AA
:1022D00007D00B4880304069002805D006E0084C44
:1022E00004E0074C383401E0054C703421461046B8
:1022F00007F092F90021204608F050FB10BD0000C5
:10230000881A002010B50446206E09F0C3FB216E28
:1023100000204862206610BD10B5016000214160B8
:102320008160C1600161416120218161C901C16198
:1023300001F092FF10BD0000F8B504460D461646A8
:10234000204601F015FA401E382148430949471834
:102350003946204606F008FE0121384608F01EFBEB
:10236000012169200155296832462831204603F0B1
:1023700073FDF8BD301B002010B50468636043682E
:10238000102B04D0036899600068C26010BD036818
:102390009A600068C16010BDF1B582B001F07AF8B2
:1023A0000190019800250570714C72A1A2787848BF
:1023B0000CF036F976490198FDF79DFF627A75A118
:1023C00073480CF02DF972490198FDF794FF022330
:1023D000002277A16E4800950CF022F96C49019813
:1023E000FDF789FF7AA27DA169480CF019F96849C7
:1023F0000198FDF780FF7FA281A165480CF010F9DC
:1024000063490198FDF777FF84A161480CF008F952
:102410005F490198FDF76FFF0124854D224685A194
:102420005B480CF0FDF85A490198FDF764FF285D00
:1024300003000CF020F90504090E13181C007FA1FD
:1024400053480CF0EDF812E07EA151480CF0E8F88A
:102450000DE082A14E480CF0E3F808E082A14C4860
:102460000CF0DEF803E087A149480CF0D9F84849A0
:102470000198FDF740FF641CE4B2062CCED989A177
:1024800043480CF0CDF842490198FDF734FF012490
:102490008A4E601E014638225043054630580028B7
:1024A0005BD088008649085801F062F90746A819F0
:1024B000406A01F05DF90346224682A13448009744
:1024C0000CF0AEF832490198FDF715FF641CE4B238
:1024D000062CDED955A10198FDF70DFF85A10198C5
:1024E000FDF709FF0198FDF729FF85B20124204E71
:1024F000884FB078401E4000395A621E0120C00348
:10250000D040014208D0224683A121480CF088F82F
:102510001F490198FDF7EFFE641CE4B2062CE8D9D0
:102520000198FDF70BFFA84203D17DA10198FDF7AB
:10253000E2FE3EA10198FDF7DEFE029800280BD0D6
:102540000198FDF7FBFE82B20020C04300903223C9
:10255000019902980FF0D4FCFEBD224672A10C48EE
:102560000CF05EF80A490198FDF7C5FEAEE70000E1
:10257000180000200A0D2A2A2A204D6F64756C6508
:1025800020256420537461747573202A2A2A0A0056
:10259000141000200A0D436F6E6E6563746564202D
:1025A00076696120706F72743A205025640A0D00BC
:1025B0000A0D4669726D776172652076657273697E
:1025C0006F6E3A2025642E25642E256400000000DD
:1025D0004D61722031312032303230000A0D4669AF
:1025E000726D7761726520646174653A20202020E5
:1025F0002573000031353A30363A32390000000098
:102600000A0D4669726D776172652074696D653A6D
:102610002020202025730A0D000000000A0D506FB5
:10262000727473205374617475733A0A0A0D000052
:10263000CA0100205025643A2000000046726565FA
:102640000A0D0000526563656976696E67206D65E5
:102650007373616765730A0D00000000537472653F
:10266000616D696E670A0D00526563656976696E12
:1026700067207573657220636F6D6D616E64730A98
:102680000D000000436F6E6E656374656420746FA7
:10269000206120627574746F6E2F7377697463683C
:1026A0000A0D00000A0D444D412053747265616D9E
:1026B00073205374617475733A0A0D00301B002047
:1026C000B81400200A0D53747265616D696E67203D
:1026D000444D412025642069732073747265616DD7
:1026E000696E672066726F6D2050256420746F20BC
:1026F000502564000A0D546865736520706F72740C
:1027000073206172652072657665727365643A2024
:1027100000000000BC0A00205025642000000000DA
:102720004E6F6E65000000000A0D53747265616D96
:10273000696E6720444D41202564206973206672CC
:1027400065650000F1B582B022A129480BF068FF51
:102750002748FDF7F3FD002782B2FF4332232449C7
:10276000009702980FF0CCFB012520E00124681EA1
:1027700046002048621E815B0120C003D040014218
:102780000FD023462A461CA119480BF049FF1848D0
:10279000FDF7D4FD82B232231549009702980FF05D
:1027A000AFFB641CE4B20A2CE3D96D1CEDB21748F0
:1027B00040788542DAD916A10D480BF031FF0C485C
:1027C000FDF7BCFD82B232230949009702980FF051
:1027D00097FBFEBD0A0D546865736520706F7274B7
:1027E00073206172652072657665727365643A0064
:1027F00014100020BC0A00200A0D4D6F64756C6532
:10280000202564203A205025640000001800002094
:102810000A0A0D416C6C206F7468657220706F72CB
:10282000747320617265206E6F726D616C0A0D00A9
:10283000F1B582B049A14E480BF0F2FE4C48FDF7CD
:102840007DFD002682B2F643322349490096029864
:102850000FF056FB0124224646A145480BF0E0FE4E
:102860004348FDF76BFD82B232234149009602983E
:102870000FF046FB641CE4B2062CECD93223032291
:102880003EA1009602980FF03BFB002551E06A1C28
:102890003BA137480BF0C4FE3548FDF74FFD00243F
:1028A00082B2E44332233249009402980FF028FBAD
:1028B00016202F46354E4743F05B062148433449E6
:1028C000052241182A48FDF722FD32230522284916
:1028D000009402980FF014FB3223012223A10094EC
:1028E00002980FF00DFB01243046A61E3F18600031
:1028F000385A00282BD04307C2085B0F25A11C487B
:102900000BF08EFE1A48FDF719FD82B232231849EA
:10291000009602980FF0F4FA641CE4B2062CE6D993
:10292000322302221DA1009602980FF0E9FA6D1CD5
:10293000EDB21B4840788542A9D30020C0430090E7
:102940003223012217A102980FF0DAFAFEBD00220D
:1029500015A107480BF064FED4E700000A0D284DCE
:102960006F64756C653A506F727429090900000034
:102970001410002050256409000000000A0A0D0010
:102980004D6F64756C652025643A09009608002037
:10299000343C010825643A25640900000A0D000052
:1029A000180000200A000000256409001349098866
:1029B000134A1288002816D0012801D00020704741
:1029C0001048002A03D0002907D0AB20704781426D
:1029D00001D10020704702207047824201D10220BD
:1029E000704700207047002903D0002A03D0AB2095
:1029F00070470020704702207047000000E0010887
:102A000000F00108EEEE0000F8B501F01FFD274FC1
:102A1000384600F093FB264D284600F0C9FB254CB4
:102A2000002802D0E06980B2F8BD234800F086FBA0
:102A3000284600F0BDFB002802D0E06980B2F8BD56
:102A40001E4E306902218843306100221346394608
:102A5000012001F0B9FC284600F0AAFB002802D0B2
:102A6000E06980B2F8BD3069400840003061144828
:102A700000F064FB284600F09BFB002802D0E069D0
:102A800080B2F8BD0F4800F059FB284600F090FBDB
:102A90000546002D02D0E06980B2F8BD30694008DB
:102AA0004000306101F086FC2846F8BD00E00108D6
:102AB00050C30000B007002000E8010800200240D9
:102AC00000F0010800F8010870B5054C054D206BB9
:102AD000A84204D0FFF798FF002800D1256370BDFD
:102AE000C07F0020ADDEEFBEF8B50025ED4301F05C
:102AF000ADFCBB480188BB480088BB4E2A0CBB4FCD
:102B0000002979D0BA4BC91866D0BA4AD14210D13F
:102B1000002819D05942884254D1B14800F00EFB28
:102B2000B54C204600F044FB002829D0F06980B263
:102B3000F8BDFFF769FFB04800F03AFB0028F7D175
:102B400001F038FC0020F8BDA54800F0F7FAAA4CC7
:102B5000204600F02DFB002802D0F06980B2F8BDBD
:102B6000A64800F0EBFA204600F022FB002802D035
:102B7000F06980B2F8BD3869022188433861DFE727
:102B80009E4800F0DBFA204600F012FB002802D03D
:102B9000F06980B2F8BD39690220814339610022B1
:102BA00013469049012001F00FFC204600F000FB85
:102BB000002802D0F06980B2F8BD386940084000B2
:102BC0003861BDE7FFF720FF8B4800F0F1FA0028DD
:102BD000B6D0F06980B2F8BD00280ED090427ED108
:102BE000804800F0ABFA844C204600F0E1FA00285F
:102BF00052D0F06980B2F8BD7BE001247848C088EB
:102C0000A04200D125B2AC4212D07D49204600F04E
:102C100083F901280CD07A480188204600F0A0F9F9
:102C20000090754800F0C4FA002801D00098E2E74F
:102C3000641CA4B2012080028442DFD90022134622
:102C40006749012001F0C0FB6B4C204600F0B0FA50
:102C5000002802D0F06980B2CDE738694008400012
:102C60003861604800F06AFA204600F0A1FA0028B6
:102C700002D0F06980B2BEE7624800F05FFA2046F9
:102C800000F096FA002802D0F06980B2B3E7386904
:102C900002218843386153E75A4800F04FFA204632
:102CA00000F086FA002802D0F06980B2A3E7396903
:102CB000022081433961002213464949012001F075
:102CC00083FB204600F074FA002803D0F06980B23C
:102CD00091E704E0386940084000386130E7FFF7C9
:102CE00093FE454800F064FA0028D4D0F06980B221
:102CF00081E700280DD0904223D13A4800F01EFA17
:102D00003D4C204600F054FA00280AD0F06980B209
:102D100071E7FFF779FE384800F04AFA002886D1BB
:102D20000EE7384800F00AFA204600F041FA002881
:102D300002D0F06980B25EE73869022188433861C9
:102D4000FEE601242748C088A04200D125B2AC424B
:102D500012D02B49204600F0DFF801280CD028487B
:102D60000188204600F0FCF80090234800F020FA8B
:102D7000002801D000983EE7641CA4B20120800224
:102D80008442DFD9002213461649012001F01CFBC2
:102D9000194C204600F00CFA002802D0F06980B2ED
:102DA00029E738694008400038610D4800F0C6F94D
:102DB000204600F0FDF9002802D0F06980B21AE741
:102DC0000E4800F0BBF9204600F0F2F9002802D0CE
:102DD000F06980B20FE73969022081433961AFE6BB
:102DE00000E0010800F00108B007002000200240C8
:102DF0001211FFFFEFEEFFFF50C3000000E80108D3
:102E00008C02002000F80108F3B581B00C4601F0F7
:102E10001DFB0020FFF7CAFD3849394D022803D0B9
:102E2000002803D0AB20FEBD0F4601E02F460D4623
:102E3000344A00233946012001F0C6FA324800F036
:102E4000B7F9324E002802D0F06980B2FEBD30489A
:102E500001694908490001612146019800F080F8A4
:102E60000028F3D10124019884420CD0294920463E
:102E700000F052F8012806D026480188204600F0CC
:102E80006FF80028E2D1641CA4B2012080028442C1
:102E9000E9D9284600F052F91B4C204600F088F989
:102EA000002802D0F06980B2FEBD0120C0022818BF
:102EB00000F044F9204600F07BF9002802D0F069C8
:102EC00080B2FEBD124D286902218843286100228C
:102ED00013463946012001F077FA204600F068F9E0
:102EE0000446002C02D0F06980B2FEBD286940087B
:102EF0004000286101F05EFA2046FEBD00E00108B6
:102F000000F00108EEEE000050C30000B007002002
:102F1000002002408C02002070B505460E460124B8
:102F20000020FFF743FDAB2808D00C4AC1028918E6
:102F3000801CC002921E8218891C0AE0AB2070BD62
:102F40001088A84204D1403AD08F3080002402E09B
:102F5000121F8A42F4D8204670BD000000E001082C
:102F6000F8B505460E4601F071FA0120FFF71EFD87
:102F7000AB2807D01E4AC1028C18801CC002911ECB
:102F8000411805E0AB20F8BD2068401C06D0241D88
:102F90008C42F9D301F00EFA8020F8BD32460023AE
:102FA0002146012001F010FA124800F001F9124EFA
:102FB000002802D0F06980B2F8BD104F386940088F
:102FC000400038612A460023A11C012001F0FCF9D1
:102FD000084800F0EDF8002802D0F06980B2F8BD92
:102FE0003869400840003861F06980B2F8BD0000DF
:102FF00000E0010850C30000B0070020002002409C
:1030000070B505460E4601F021FA31462846FFF715
:10301000A7FF0446802C04D131462846FFF7F4FE72
:10302000044601F0C7F9204670BD000010B5042029
:1030300001F020FA01490C20087010BDCD020020DB
:10304000FEB500200190002400F024FA00901D4FEE
:1030500031E014206043C519287C002829D0E0B253
:10306000FEF764FF002824D0174920208871992694
:10307000B60017E0134832463238009900F03EFAA5
:103080000028F7D10098FDF759F901460098FDF79F
:1030900027F90C483238FDF751F901460948323812
:1030A000FDF71EF90749E868323904F0D7FA00281D
:1030B000E0D1641CA4B2054800788442C9D30198C9
:1030C000FEBD00009C120020641000206802002059
:1030D000FEB505460020019001240D4F0D4EAC4277
:1030E0000FD0788B010A31707070B4700320002209
:1030F00000900A231146204607F044F90A200CF0FC
:1031000019FF641CE4B2062CE9D90198FEBD000049
:1031100018000020F80D002006490020C86106486C
:1031200001690422114301610169402211430161D7
:1031300070470000B007002000200240064A00212E
:10314000D16106490A6902231A430A614861086984
:103150004022104308617047B00700200020024061
:1031600010B5054B0022DA61044A13690124234398
:103170001361018010BD0000B00700200020024054
:103180000949C868C206094803D5C26902231A431F
:10319000C261CA68520703D5C26901231A43C261DA
:1031A0001420C8607047000000200240B0070020D3
:1031B00070B5044601F036FA0546104E0AE0601C70
:1031C00008D0002C04D001F02DFA401BA04201D9F8
:1031D000032070BDF068C007F1D1F068800601D50A
:1031E0002020F060F068C00602D4F068400703D5E4
:1031F000FFF7C6FF012070BD002070BD0020024017
:10320000FEB504460020009000250026384F78784F
:103210000BF074FA002305E0435536496A008B52DF
:103220006D1CEDB2324949788D42F5D3761C0119F7
:103230002039CE77761CF3B20121641EA4461622F3
:1032400054432C4A9632A218964672464C00125BA2
:10325000002A0DD064466400264D4E1E01272D5BCA
:10326000B740244E3D433553D2081218203AD37745
:10327000491CC9B20629E8D900245B1CDBB2002234
:103280002BE0855C591E8D4225D10121194E162552
:1032900096365543AD190195019D4E00AD5B002D4D
:1032A00015D0ED082D18203DAC46ED7F002D0ED138
:1032B0005700104DBE46ED5B4E1E0127B7403D4303
:1032C0000C4E7746F5536546EB77641CE4B2491C17
:1032D000C9B20629E0D9521CD2B2054949788A42BE
:1032E000CFD3002CC8D1009C0BF0D6F92046FEBDF0
:1032F0001800002000080020F0B58FB007460E46E9
:1033000034216846FCF7ECFF0024002519215148C0
:10331000FCF7E6FF4F4900203239C9192039C87738
:103320004C491939C9192039C8770120791E16224C
:103330005143494A89180E91464932398919203931
:103340000D910E994300C95A00290AD0C908B1420B
:1033500007D10D9A0121D1773E490E70C0B20FB04E
:10336000F0BD401C0628ECDD01203C494A780EE007
:10337000B8420BD03749FF23323909182039CB77AF
:10338000344B0021193B1B18203BD977401C90423D
:10339000EEDD36E02F48694632380CF075FD401CF2
:1033A000C4B2B44232D06946012009192039C87725
:1033B000611E16225143284A89188C4661464200F4
:1033C000895A002919D04905090E6A465218203A2F
:1033D000D27F002A11D11F4B323B1A19203AD27FDB
:1033E000521CD2B25B18203BDF7F974205D9DA77B7
:1033F000184A193A51182039CC77401CC0B2062817
:10340000DCD9684605F056FC0028C3D0114A1146A5
:10341000193904E02B466D1CEDB2D454044608194A
:103420002038C07F0028F5D101200A4A521E0E998B
:103430004300C95A002907D0CB080D99C97F895C80
:103440008B4201D1C0B28AE7401C0628EFDD002084
:1034500085E70000200B00209608002018000020BF
:10346000F8B5044609480026C670611E382251434B
:10347000074A555C80782946FFF73EFF00232A461D
:103480001946009406F07EFF3046F8BD1800002073
:10349000700C002000487047E01C002030B500236D
:1034A00000250024146025E0401C00240457002C53
:1034B00003D0202CF8D100E0401C00240457002C3D
:1034C00001D0202CF8D00478002C15D05B1C8B4246
:1034D00010D1054603E01168491C1160401C002111
:1034E0004156002901D02029F5D11068002803D1C8
:1034F000002501E08B42D8D3284630BDF7B50646FB
:1035000001242A4DA86800281AD128461430A86042
:1035100013E0006807683846FCF710FF0246B05613
:10352000202801D0002805D139463046FCF731FF6C
:10353000002817D0A8684068A860A8680028E8D1CB
:10354000A8680027002801D0002C1DD0002824D016
:103550000068324683680299019898470446200023
:1035600019D020E0A8680C21006841560029E7DB4B
:1035700030460DF0E3F80146A8680C220068825638
:103580009142DDD00024DBE70949029A0198FCF75B
:10359000BEFEAF6007E0AF6005E00649029A019801
:1035A000FCF7B5FE00242046FEBD000040030020CD
:1035B000E06001083861010870B50546002D12D0A1
:1035C000082010F0ABFA0446002C0ED00EF0B4FB2D
:1035D000256000206060064841684C6044600EF041
:1035E000B7FB012070BD72B6FEE772B6FEE70000C1
:1035F0004003002008B5154842690121C9040A4367
:10360000426142690A400092426989100A4342615C
:1036100042690A4000924269C9000A434261426914
:103620000A400092426989100A43426142690A4095
:103630000092426909010A434261406908400090D2
:1036400003F0A2F803F0B2F808BD00000010024039
:103650001CB51E200BF052F804461E212046FCF734
:103660003FFE0849088B4A7D00920190087D8B7DC2
:10367000401E054980000A58044920460AF0D0FF40
:1036800020461CBD641000202C020020943E01083E
:10369000F8B50546002426A12846FCF756FE254E1F
:1036A00000280AD024A12846FCF74FFE002806D0A7
:1036B0002878232805D0214F22E0B078F8BDFF20DC
:1036C000F8BD681CFCF7A5FEC0B2002802D07178D6
:1036D0008842F5D9B178884201D10846F8BD662004
:1036E000F8BD0A206043C1192846FCF72EFE0028C9
:1036F00004D12878002801D02046F8BD641CE4B22B
:1037000070788442EDD300240D4E0A206043811965
:103710002846FCF71AFE002805D0641CE4B20A2CE7
:10372000F3D36420F8BD2002FE3000B2F8BD0000E3
:103730006D65000018000020616C6C00390B0020E2
:103740003208002000B587B06946084808F09CFCA4
:10375000002802D0002007B000BD0021034808F077
:1037600081FA68460089FCF77CFFF4E7D81700204F
:1037700000681049884201D1012070470E498842F3
:1037800001D1022070470D49884201D103207047C2
:103790000B49884201D1042070470A49884201D16F
:1037A000052070470849884201D106207047002053
:1037B00070470000004C00400044004000140140ED
:1037C000004800400038014000500040F0B5059D21
:1037D0001C46002600F088F8224F0923DB06B84279
:1037E00007D10B6001204002108023604000288038
:1037F00035E01D4FB84206D10B60042010802360D5
:10380000082028802BE0194FB84208D118480860DA
:103810000121890211802060480028801FE0154F97
:10382000B84206D10B60012010802360022028805E
:1038300015E0114FB84207D10D48086008211180EA
:103840002060102028800AE00C4FB84206D10B609F
:103850001020108023602020288000E0FF263046C2
:10386000F0BD000038150020A81500201816002013
:103870000004004888160020F81600206817002071
:1038800000B587B0002201A9154801F071FE0022A1
:1038900006A9134801F04AFE6946087BC109114890
:1038A000491CC1740299C903090CC181694689790F
:1038B0000174694649794174694609798174694698
:1038C000897E41756946497E81756946097E017523
:1038D0006946C97E7D2212018918018307B000BDA7
:1038E000701100206410002000B503000AF0C3FE30
:1038F00007110507090B0D0F1100074800BD074808
:1039000000BD074800BD074800BD074800BD074887
:1039100000BD002000BD000088160020A815002072
:10392000681700201816002038150020F81600200F
:1039300000B50179002907D0C268816800F010F84D
:10394000002809D0012000BD0268044951610068C7
:103950008168182291438160002000BDB71DC10419
:1039600030B51F2301252C469C400C4202D15B1E22
:103970005C1CF8D1002A11D0082A0BD0102A05D0DF
:10398000182A0BD1072B09D3012030BD082B05D3F2
:10399000012030BD102B01D3012030BD03685961D7
:1039A000006881681823994311438160002030BD6D
:1039B00070B5044600200023257F012D0BD0012582
:1039C000257702266677266A012E10D0022E13D0A4
:1039D000032E15D106E0022070BD83002668CB5867
:1039E0003360401C9042F8D32068036808E020460A
:1039F000FEF70EF8034603E02046FDF7EFFF03460F
:103A0000657700202077184670BDF8B50446002081
:103A10000023257F012D0FD001252577022666770B
:103A20002668B7682F43B760266A012E10D0022E91
:103A300013D0032E15D106E00220F8BD83002668BE
:103A4000CB583360401C9042F8D32068036808E0EC
:103A50002046FDF7DDFF034603E02046FDF7BEFFED
:103A600003466577002020771846F8BD10B5044658
:103A7000002C03D0607F002802D006E0012010BD9A
:103A800000202077204600F027F8022060772046AB
:103A9000FFF74EFF002801D0012010BD60790028FB
:103AA00014D02168206908612068816860229143F0
:103AB0006269114381602068816880229143A26914
:103AC0001143816001206077002010BD0020216833
:103AD000C0430861E8E7000008B504484269402196
:103AE0000A43426140690840009008BD001002404E
:103AF000F8B504462068016849084900016000F0F3
:103B000091FD06460027254620350EE000F08AFD8F
:103B1000811B7D20C000814207D9606B20210843B2
:103B20006063032068702F70F8BD20680068C007CC
:103B3000ECD1012068702F700020F8BDF8B5044664
:103B4000F749F74DF64EF64F2068CB14783D643EAA
:103B5000503F88423FD9F3490A68A84201D1082161
:103B600037E0B04201D1802133E0B84201D119469B
:103B70002FE0EB493C39884202D10121C90328E0FA
:103B8000E7492839884202D10121C90421E0E449EA
:103B90001439884202D10121C9051AE0E1490831EE
:103BA000884201D1082114E0DE491C31884201D14C
:103BB00080210EE0DB493031884201D1194608E00E
:103BC000D8494431884202D10121C90301E00121D1
:103BD000C9040A4044E0D24980390A68A84201D1A8
:103BE00008213CE0B04201D1802138E0B84201D147
:103BF000194634E0CA493C39884202D10121C9033F
:103C00002DE0C7492839884202D10121C90426E0A4
:103C1000C3491439884202D10121C9051FE0C049B6
:103C2000884201D101051AE0BE490831884201D11C
:103C3000082114E0BB491C31884201D180210EE0EB
:103C4000B8493031884201D1194608E0B5494431BC
:103C5000884202D10121C90301E00121C9040A40BF
:103C6000214620310091002A70D00168C94309071C
:103C70006CD40168082291430160A94920688842F8
:103C80003ED9A84201D1082037E0B04201D18020BE
:103C900033E0B84201D118462FE0A1493C398842AF
:103CA00002D10120C00328E09D492839884202D171
:103CB0000120C00421E09A491439884202D1012030
:103CC000C0051AE097490831884201D1082014E064
:103CD00094491C31884201D180200EE09149303155
:103CE000884201D1184608E08E494431884202D109
:103CF0000120C00301E00120C0048A49486044E07B
:103D0000A84201D108203DE0B04201D1802039E035
:103D1000B84201D1184635E0814A3C3A904202D17E
:103D20000120C0032EE07E4A283A904202D10120B1
:103D3000C00427E07A4A143A904202D10120C0051B
:103D400020E0884203D10120C0061BE02CE0754929
:103D50000831884201D1082014E072491C318842A0
:103D600001D180200EE06F493031884201D11846E0
:103D700008E06C494431884202D10120C00301E0CF
:103D80000120C004664980394860606B0121084306
:103D90006063009904204870009900200870216B2E
:103DA000002901D0204688475D4920680B158842CC
:103DB0003FD95C490A68A84201D1042137E0B042EA
:103DC00001D1402133E0B84201D119462FE05449D6
:103DD0003C39884202D10121890328E05049283921
:103DE000884202D10121890421E04D4914398842D9
:103DF00002D1012189051AE04A490831884201D1DE
:103E0000042114E047491C31884201D140210EE0D1
:103E100044493031884201D1194608E041494431D2
:103E2000884202D10121890301E0012189040A406D
:103E300044E03B4980390A68A84201D104213CE0B2
:103E4000B04201D1402138E0B84201D1194634E0F6
:103E500033493C39884202D1012189032DE03049A0
:103E60002839884202D10121890426E02C491439DD
:103E7000884202D1012189051FE02949884201D1E8
:103E8000C1041AE027490831884201D1042114E015
:103E900024491C31884201D140210EE021493031B2
:103EA000884201D1194608E01E494431884202D1B6
:103EB0000121890301E0012189040A40002A71D00F
:103EC0000168C94349076DD40168890603D40168B4
:103ED00004229143016012492068884242D9A842D5
:103EE00001D104203AE0B04201D1402036E0B8428E
:103EF00001D1184632E00A493C39884202D10120FA
:103F000080032BE006492839884202D10120800431
:103F100024E003491439884206D1012080051DE0C0
:103F20008000024000040240C949884201D10420B7
:103F300014E0C7491431884201D140200EE0C44941
:103F40002831884201D1184608E0C1493C318842F5
:103F500002D10120800301E001208004BC4908391E
:103F6000486042E0A84201D104203BE0B04201D1C8
:103F7000402037E0B84201D1184633E0B54A9042BC
:103F800002D1012080032DE0B24A1432904202D1C6
:103F90000120800426E0AF4A2832904203D101205C
:103FA00080051FE029E0884202D10120800619E047
:103FB000A749884201D1042014E0A5491431884260
:103FC00001D140200EE0A2492831884201D1184693
:103FD00008E09F493C31884202D10120800301E082
:103FE000012080049B4944394860009811214170A8
:103FF000E16A002901D020468847964A20683C3271
:1040000090423FD9924908390B68A84201D1022158
:1040100036E0B04201D1202132E0B84202D1012184
:1040200049022DE08B49884202D10121490327E052
:1040300088491431884202D10121490420E0854990
:104040002831884202D10121490519E0804988427E
:1040500001D1022114E07E491431884201D120218E
:104060000EE07B492831884201D1411508E07849AA
:104070003C31884202D10121490301E00121490478
:104080000B4043E0734944390B68A84201D1022137
:104090003BE0B04201D1202137E0B84202D10121FA
:1040A000490232E06B49884202D1012149032CE0E8
:1040B00068491431884202D10121490425E065494B
:1040C0002831884202D1012149051EE0904202D1E7
:1040D0000121490619E05E49884201D1022114E01C
:1040E0005B491431884201D120210EE05849283122
:1040F000884201D1411508E055493C31884202D13E
:104100000121490301E0012149040B40002B72D039
:104110000168C94389076ED40168890603D4016820
:10412000022399430160206890423ED9A84201D100
:10413000022036E0B04201D1202032E0B84202D164
:10414000012040022DE04349884202D10120400372
:1041500027E040491431884202D10120400420E088
:104160003C492831884202D10120400519E03849F4
:10417000884201D1022014E035491431884201D12E
:1041800020200EE032492831884201D1401508E054
:104190002F493C31884202D10120400301E0012037
:1041A00040042B490839486043E0A84201D102206D
:1041B0003CE0B04201D1202038E0B84202D10120D9
:1041C000400233E02349884202D1012040032DE020
:1041D00020491431884202D10120400426E01D49C3
:1041E0002831884202D1012040051FE0904203D1CE
:1041F000012040061AE029E01549884201D1022039
:1042000014E013491431884201D120200EE01049F6
:104210002831884201D1401508E00D493C318842DF
:1042200002D10120400301E0012040040949443942
:104230004860606B6063009901204870009900201D
:104240000870A16A002901D020468847F8BD000007
:104250000804024044000240F0B5002806D00146A0
:1042600020314A780025002A02D002E00120F0BD6A
:104270000D7002224A70026814680B4B1C4086685D
:10428000436807693343C6683E4333434669334353
:1042900086693343C6693343234313604563012072
:1042A00048700020F0BD00000FC0FFFFF8B50446C5
:1042B000204620300578012D1ED0012505700226EC
:1042C000467020680768AF4307602046FEF754F841
:1042D00020680168314301602068016804221143AD
:1042E00001602068016808221143016020680168AC
:1042F000294301600020F8BD0220F8BD31B500F06F
:1043000091F9044600F08EF90099001B8842F9D318
:1043100038BD0000F8B505460F4601262248017E4B
:1043200001290BD0012101762868204C012807D0F3
:104330002046FEF73DFF002813D030E00220F8BDF4
:104340002046FEF735FF002829D1FEF7E5FE20467E
:10435000FEF72EFF064616480169042291430161CB
:104360001DE00020C04338606C6812E02046FEF774
:10437000E5FE0E48FEF71CFF06460D4801690222C5
:1043800091430161300001D03C6008E00120C0028F
:104390002418A9686868C9024018A042E6D80248F3
:1043A000002101763046F8BDB007002050C3000060
:1043B000002002400348016980221143016100206E
:1043C0007047000000200240F0B51FB407461546B4
:1043D0001E4600241A48017E012907D001210176DA
:1043E0001848FEF7E5FE002803D025E0022005B0BE
:1043F000F0BD012F03D0022F03D004271AE00127BC
:1044000018E0022716E0220128463146FBF72BFF71
:1044100081B2019862001018FEF7A2FE0948FEF76B
:10442000C7FE09490A69520852000A61002803D1EF
:10443000641CE4B2BC42E6D3014900220A76D6E706
:10444000B007002050C30000002002400548016969
:10445000090605D5044941600449416000207047C0
:10446000012070470020024023016745AB89EFCD52
:104470007047000010B504494A69024202D0486101
:10448000FFF7F6FF10BD000000040140F8B5002260
:1044900093E001249440A4462340002B7ED04C6836
:1044A000022C01D0122C0CD1D408A40027183D6A8C
:1044B0005407E40E0F26A640B5430E69A6402E43CE
:1044C0003E62076855000324AC40A7430E79B60747
:1044D000B60FAE403E4306604E68012E05D0022E58
:1044E00003D0112E01D0122E0ED18768A743CE68BB
:1044F000AE403E43866047686646B7430E79F6068F
:10450000F60F96403E434660C668A6438C68AC40B2
:104510003443C4604C68E4004ED52B4CA569012699
:104520003543A561A469344000949508274CAD003B
:104530002F19BD689407240F0F26A640B5430926FE
:10454000F606B04201D1002614E0214EB04201D15E
:1045500001260FE01F4EB04201D102260AE01E4E96
:10456000B04201D1032605E01C4EB04201D1042621
:1045700000E00526A6402E43BE60194D2C689C43E2
:104580004E68F60300D51C432C606C689C434E6853
:10459000B60300D51C436C60AC6800E00CE09C43A3
:1045A0004E68F60200D51C43AC60EC689C434E6834
:1045B000B60200D51C43EC60521C0B681C46D4406C
:1045C00000D066E7F8BD0000001002400000014086
:1045D0000004004800080048000C00480010004893
:1045E000000401400069084201D00120704700200A
:1045F000704742694A4042617047002A01D0816198
:104600007047816270470000024800680005000D95
:10461000704700000058014001480068000C7047D6
:104620000058014001480068704700001400002055
:1046300070B502462032537D022B27D0537D122BBA
:1046400024D0537D222B21D0537D322B1ED0537D7D
:10465000422B1BD0137D012B1AD001241475022389
:10466000537503681D68A5431D6003681D68260314
:10467000B5431D6003681D680D431D600068016837
:104680002143016054750020107570BD022070BD7B
:10469000022070BD70B502462032537D022B26D019
:1046A000537D122B23D0537D222B20D0537D322BD0
:1046B0001DD0537D422B1AD0137D012B19D001241C
:1046C00014750223537503681D68A5431D600368B4
:1046D0001D680F263602B543090229431960006898
:1046E00001682143016054750020107570BD0220DF
:1046F00070BD022070BD10B501688A69D243D30530
:104700000122002B08DB0B68DB431B0604D4836B00
:10471000134383631302CB6101688B69DB435B0541
:1047200009D40B68DB431B0605D4836B08242343A1
:104730008363E301CB6101688B69DB439B0509D48B
:104740000B68DB431B0605D4836B0224234383637E
:104750002302CB61816B0B23194203D035210A540C
:1047600000F092F810BD70B50546296888692C469E
:10477000C04380072034002813DA8869C04300064C
:104780000FD58869C04340060BD58869C0438006B1
:1047900007D58869C043C00603D58869C0430007B0
:1047A00009D409687A20884305D1607D322802D176
:1047B000284601F0F9FE28688169C94389070FD5A9
:1047C0008169C94309060BD58169C943490607D5E3
:1047D0008169C943890603D58169C943C9060CD4D7
:1047E00001687220884308D1607D122802D0607D64
:1047F000522802D1284601F0FBFD29688869C04390
:10480000400713D58869C04300060FD58869C043A7
:1048100040060BD58869C043800607D58869C04328
:10482000C00603D58869C04300070AD40868C0439E
:104830004006C00E05D1607D422802D1284601F015
:1048400069FE28688169C94349070FD58169C94351
:1048500009060BD58169C943490607D58169C94352
:10486000890603D58169C943C9060CD4016874203F
:10487000884308D1607D222802D0607D622802D161
:10488000284601F023FD70BD7047000070B5044656
:10489000002C06D025462035687D0026002802D051
:1048A00005E0012070BD2E75204600F079F9022048
:1048B0006875206801684908490001600F21606837
:1048C0000906884321680861206882680121C903BC
:1048D0008A438260A068002807D0E268012A08D0D5
:1048E00021218902084321688860E068022804D0F9
:1048F00007E0084321688860F7E701202168C002CB
:104900004860206841680C4A114341606169206930
:104910000843A169090208432168C860216AE06967
:104920000843216808602068026801210A43026088
:10493000A6636975002070BD008000027047704753
:10494000FFB583B0064617461C463046203002901D
:10495000407D012802D0022007B0F0BD002F08D012
:10496000002C06D030688069C043000403D40220C4
:10497000F2E70120F0E70298007D012815D00299A6
:10498000012008750298222141750020B06309209A
:104990008002FF2C0BD9012300901B06FF2230461A
:1049A000049901F051FEFF250AE00220D4E701231B
:1049B0000090E2B25B063046049901F045FE2546C0
:1049C0000022042130460C9B01F050FE002801D04B
:1049D0000320C1E73068406A38707F1C6D1E641E7A
:1049E000A4B2002D22D1002C20D0002280213046FC
:1049F0000C9B01F03BFE002801D00320ACE7FF2C0C
:104A00000AD90020012300901B06FF22304604999A
:104A100001F01AFEFF2509E0002001230090E2B218
:104A20005B063046049901F00FFE2546002CC7D1E5
:104A30001921304601F056FE002806D0B06B04283C
:104A400001D0032088E7012086E731682020C86173
:104A500030684168044A114041600299012048755C
:104A600002990020087577E700E800FEFFB583B0E3
:104A7000064617461C46304620300290407D0128ED
:104A800002D0022007B0F0BD002F08D0002C06D0C5
:104A900030688069C043000403D40220F2E701209B
:104AA000F0E70298007D012814D0029901200875D2
:104AB0000298122141750020B06301204003FF2CB1
:104AC0000AD9C3020090FF223046049901F0BCFDD0
:104AD000FF250AE00220D5E701230090E2B25B0641
:104AE0003046049901F0B0FD254630460C9901F09E
:104AF00021FE002806D0B06B042801D00320C1E7B6
:104B00000120BFE7387831687F1C88626D1E641E03
:104B1000A4B2002D22D1002C20D0002280213046CA
:104B20000C9B01F0A3FD002801D00320AAE7FF2C75
:104B30000AD90020012300901B06FF223046049969
:104B400001F082FDFF2509E0002001230090E2B280
:104B50005B063046049901F077FD2546002CC4D150
:104B600030460C9901F0BEFD002806D0B06B042839
:104B700001D0032086E7012084E731682020C86146
:104B800030684168044A114041600299012048752B
:104B900002990020087575E700E800FE704770472D
:104BA000704770477047000002480168491C016067
:104BB000704700001400002010B50648016810225C
:104BC00011430160002000F007F800F016F8002003
:104BD00010BD00000020024010B5044600F0C8F9E6
:104BE0007D21C900FBF7D8FA00F052FE00222146D1
:104BF000501E00F017F8002010BD7047C106C90E06
:104C000001208840014908607047000080E100E011
:104C1000C106C90E012088400149086070470000A4
:104C200000E100E010B502F047FC10BD0248016849
:104C3000821511430160704700700040F8B50446CA
:104C400020683C4DC00344D5296A032000026268F5
:104C50000140024091423CD0E86929040843E861E0
:104C6000E86908400090344F3868091508433860F7
:104C7000FFF7D8FC064606E0FFF7D4FC801B64284B
:104C800001D90320F8BD3868C005F5D5286A032787
:104C90003F02B8432A6A012109040A432A622A6AA8
:104CA0008A432A62286280070ED5FFF7BBFC0646BE
:104CB00007E0FFF7B7FC811B2048814201D90320A0
:104CC000F8BD286A8007F4D5286A6168B8430843AC
:104CD00028622078C00705D0286BA1688008800072
:104CE000084328632078800706D5286B0321090430
:104CF0008843E168084328632068400306D5286B91
:104D000003218904884321690843286320788006A9
:104D100005D5286B102188436169084328632088E2
:104D2000400505D5286B40218843A16908432863C5
:104D30000020F8BD00100240007000408813000001
:104D4000F8B504460F4687480068F021C007C00F39
:104D5000854EB8427DD283480268520852003A43D9
:104D600002600068C007C00FB84201D00120F8BD42
:104D70002078800704D570688843A1680843706074
:104D80002078C00739D06068012808D002280BD0ED
:104D900003280ED03168890710D40120F8BD31688E
:104DA00089030BD40120F8BD3168890106D40120A4
:104DB000F8BD716BC90301D40120F8BD7168890881
:104DC000890001437160FFF72DFC054660680128EA
:104DD00005D0022812D003281FD0644F34E0634F5F
:104DE00006E0FFF71FFC401BB84201D90320F8BDC5
:104DF00070680007800F0128F3D1A3E05B4F06E045
:104E0000FFF710FC401BB84201D90320F8BD7068C1
:104E10000007800F0228F3D194E0544F06E0FFF71B
:104E200001FC401BB84201D90320F8BD706800079F
:104E3000800F0328F3D185E00BE0FFF7F3FB401B65
:104E4000B84201D90320F8BD70680007800FF4D183
:104E500078E02078800704D570688843A16808430B
:104E600070602078C00760D06068012808D00228F0
:104E70000BD003280ED03168890710D40120F8BD6B
:104E8000316889030BD40120F8BD3168890106D44B
:104E90000120F8BD716BC90301D40120F8BD716810
:104EA0008908890001437160FFF7BCFB0546606813
:104EB00001280CD0022818D0032824D031E0FFF7B5
:104EC000B1FB411B2948814201D90320F8BD70681C
:104ED0000007800F0128F2D127E0FFF7A3FB411B59
:104EE0002248814201D90320F8BD70680007800F75
:104EF0000228F2D119E0FFF795FB411B1B488142C4
:104F000001D90320F8BD70680007800F0328F2D193
:104F10000BE0FFF787FB411B1448814201D90320B6
:104F2000F8BD70680007800FF3D10E48016849088A
:104F30004900394301600068C007C00FB84201D082
:104F40000120F8BD2078400706D5706807210902C6
:104F50008843E168084370600020FFF73DFE0020B1
:104F6000F8BD00000020024000100240881300003D
:104F700010B500F021F805494968054A0906090FEE
:104F8000515CC8400349086010BD00000010024099
:104F9000243C01080000002010B5FFF7E9FF044998
:104FA0004968044A4905490F515CC84010BD0000DA
:104FB00000100240243C010830B589B01CA0014615
:104FC0000EC9C06805AC0EC408901DA001460EC9EC
:104FD000C06801AC0EC404901D4D6A680C201146D7
:104FE00001401C48042905D01B4B082904D00C297A
:104FF00000D1184609B030BD9102090F05AC645CC0
:10500000E96A01AD0907090F695CD203920F022A10
:1050100005D0032A07D0FBF7BFF86043EAE7FBF7A8
:10502000BBF86043E6E71846FBF7B6F86043E1E7F4
:1050300002030405060708090A0B0C0D0E0F1010D9
:105040000102030405060708090A0B0C0D0E0F10D8
:105050000010024000127A00006CDC02F8B5044631
:105060002078FA4DC00775D068680007800F0128C6
:1050700016D068680007800F022804D16868C00352
:10508000800F02280CD0286801263604B04328601F
:105090002968B00081432960FFF7C4FA07460EE093
:1050A0002868800356D56068002853D10120F8BDD8
:1050B000FFF7B8FAC01B642801D90320F8BD28689F
:1050C0008003F5D46068012813D0002815D0052886
:1050D0001DD029682846B143296001680122920445
:1050E000914301606068002826D0FFF79BFA0646CE
:1050F0001EE0296831432960F4E729682846B14356
:1051000029600268012189048A430260EAE72A686B
:105110002846012189040A432A600168314301605D
:10512000E0E7FFF77FFA801B642801D90320F8BD70
:1051300028688003F5D50DE0FFF774FA064606E00F
:10514000FFF770FA801B642801D90320F8BD286896
:105150008003F5D420780126800700284BDA6868A0
:105160000007800F13D068680007800F022804D161
:105170006868C003800F012809D0E068002828D0A3
:10518000286830432860FFF74DFA074616E0286884
:10519000800704D5E068012801D00120F8BD286807
:1051A000F82188432169C9000843286023E0FFF7FC
:1051B00039FAC01B642801D90320F8BD286880078C
:1051C000F5D52868F82188432169C900084328607B
:1051D00011E02868400840002860FFF723FA0746DE
:1051E00006E0FFF71FFAC01B642801D90320F8BDB1
:1051F00028688007F5D42078000726D5206A002883
:1052000011D0686A30436862FFF70CFA074606E07F
:10521000FFF708FAC01B642801D90320F8BD686AAB
:105220008007F5D511E0686A400840006862FFF722
:10523000F9F9074606E0FFF7F5F9C01B642801D924
:105240000320F8BD686A8007F5D4207840077BD535
:10525000E969012000070143E961E9690140009122
:105260007B480168821511430160FFF7DBF90746AF
:1052700006E0FFF7D7F9C01B642801D90320F8BD69
:1052800073480068C005F4D5286A400840002862C9
:10529000296A042081432962FFF7C4F9074607E021
:1052A000FFF7C0F9C11B6B48814201D90320F8BD4B
:1052B000286A8007F4D4A068012813D0002815D0EC
:1052C00005281DD0296A2846490849002962026A32
:1052D00004218A430262A068002826D0FFF7A2F9C1
:1052E00007461EE0296A31432962F4E7296A284605
:1052F000490849002962026A04218A430262EAE7F6
:10530000296A2846042211432962016A3143016255
:10531000E1E7FFF787F9C11B4E48814201D903201D
:10532000F8BD286A8007F4D50EE0FFF77BF9074641
:1053300007E0FFF777F9C11B4648814201D90320F6
:10534000F8BD286A8007F4D42078C00643D5606988
:1053500001280DD0401D28D0686B042108436863E4
:10536000686B400840006863FFF75CF906462FE071
:10537000686B042108436863686B30436863FFF718
:1053800051F9064606E0FFF74DF9801B642801D964
:105390000320F8BD686B8007F5D5686BF82188435A
:1053A000A169C9000843686315E0686B042188435C
:1053B0006863686BF8218843A169C9000843686382
:1053C00009E0FFF72FF9801B642801D90320F8BDFD
:1053D000686B8007F5D42078800647D56868000799
:1053E000800F032815D068680007800F022804D1B9
:1053F0006868C003800F03280BD0E06900281BD029
:10540000686B0121090408436863FFF70BF906463E
:105410000EE0686BC00329D5E069012826D0012081
:10542000F8BDFFF7FFF8801B642801D90320F8BD01
:10543000686BC003F5D519E0686B01210904884346
:105440006863FFF7EFF806460DE000000010024029
:105450000070004088130000FFF7E4F8801B642808
:1054600001D90320F8BD686BC003F5D4606A002839
:105470004BD069680907890F022948D001273F06E8
:10548000022806D02868B8432860FFF7CBF8044606
:1054900038E02868B8432860FFF7C4F8064606E0FD
:1054A000FFF7C0F8801B642801D90320F8BD2868E5
:1054B0008001F5D4E86A216B000900010843E86225
:1054C000A16AE06A084369687B22D20391430843DA
:1054D0006860286838432860FFF7A4F8044606E0AF
:1054E000FFF7A0F8001B642801D90320F8BD286845
:1054F0008001F5D509E0FFF795F8001B642801D974
:105500000320F8BD28688001F5D40020F8BD0120F3
:10551000F8BD0068503089000818006870470068BE
:1055200050308900081802607047000010B50B4623
:10553000006841680D480140080CD870CC04E40EA6
:105540005C708C06A40E9C700904490F1970002A27
:105550000AD103F0BFFBD870587803F0BBFB58703A
:10556000987803F0B7FB9870002010BD3FFFFF0054
:1055700010B50B460168896A5960006801680F48D8
:1055800001408802800E18704C04640E5C704C065A
:10559000640E9C70090C402421401972002A0AD123
:1055A00003F098FB1870587803F094FB58709878C3
:1055B00003F090FB9870002010BD00007F7F7F00FB
:1055C00070B50446002C03D0607F002802D006E0AE
:1055D000012070BD00202077204600F043F8022013
:1055E00060772168CA2048622168532048622046BB
:1055F00003F006FCFF21002805D02068416204204A
:105600006077012070BD20688268154B1A40826067
:1056100020688268636865691A4323692B431A43CB
:1056200082602268E06810612068026923891B0497
:105630001A4302612068C26880239A43C2602068CE
:10564000026CDB029A4302642068026CA3691A436D
:1056500002642068416201206077002070BD000074
:10566000BFFF8FFF70470000F8B504460B46207F50
:10567000012806D00120207702206077002A02D07E
:1056800008E00220F8BD5878C10603D5EF21084094
:105690000A305870002A23D0587803F01BFB987802
:1056A00003F018FBD8789D780004054358781978E2
:1056B00000024903084305432168CA204862216863
:1056C00053204862204603F09BFB0026FF2700285A
:1056D00017D0206847620420607726770120F8BD44
:1056E000D87803F0FFFA0504587803F0FBFA0002BB
:1056F0000543987803F0F6FA05431878400305430C
:10570000DAE710480540206845602068C1688022BB
:105710009143C1602068806880060BD4204600F069
:105720008FF8002806D0206847620420607726772B
:105730000120F8BD206847620120607726770020AD
:10574000F8BD00003FFFFF00F8B504460D46207F7E
:1057500001280ED001202077022060770026002A41
:1057600009D02068806840061BD5287803F0B2FA7B
:1057700018E00220F8BD20688068400600D42E7230
:10578000287803F0AFFA0704687803F0ABFA000258
:105790000743A87803F0A6FA0743287A00040743D2
:1057A0000AE02E722878AF78000407436878297AD7
:1057B00000020904084307432168CA20486221689F
:1057C00053204862204603F01BFB002807D02168C5
:1057D000FF2048620420607726770120F8BD174833
:1057E0000740206807602068816801229204914385
:1057F0008160E968286901432068826811438160FB
:105800002068C16880229143C1602068806880065A
:105810000CD4204600F014F8002807D02168FF209F
:1058200048620420607726770120F8BD2168FF20B8
:1058300048620120607726770020F8BD7F7F7F00D7
:1058400070B505462868C168A0229143C160FEF783
:10585000E9FE04467D26F60006E0FEF7E3FE001BA7
:10586000B04201D9032070BD2868C0688006F4D515
:10587000002070BD04220549042803D00869904324
:1058800008617047086910430861704700E000E054
:1058900010B50949401E884201D9012010BD074CAE
:1058A00060610321081F01F007FE0020A0610720AE
:1058B0002061002010BD0000FFFFFF0000E000E0BD
:1058C00070B502462032137E012B1BD001241476C2
:1058D0000223537603685D687026B5435D600368F4
:1058E0005D680E6835435D6003689D688026B5433A
:1058F0009D600068836849680B438360547600208C
:10590000107670BD022070BD70B50446002C05D025
:1059100025462035687E002802D006E0012070BDB3
:1059200000202876204600F00AF802206876211D23
:10593000206805F0B1FC01206876002070BD70473A
:105940000222014620314A7600680368012213438F
:1059500003604A7600207047704770B50446002CFB
:1059600017D0022026466036707220680168490808
:1059700049000160206800250560206845602068B6
:105980008560204600F0D9F8E56675723572002012
:1059900070BD012070BD000070B50446012569206E
:1059A00005552046FDF7E4FE0B49095C022904D0A9
:1059B0000A4908182038C57770BD616E09684968C2
:1059C000401E8AB2064980000858016820462831E6
:1059D00000F042FA70BD0000CA01002086020020DB
:1059E000B8140020F8B504462068C1692546C907E7
:1059F00001266035002907D00168C90504D5066273
:105A0000E06E3043E0666E722068C16904228B0745
:105A10000221002B07DA8368DB0704D00162E06E05
:105A20001043E0666E722068C3695B0707D5836820
:105A3000DB0704D00262E06E0843E0666E72206805
:105A4000C16908270907002907DA8168C90704D056
:105A50000762E06E3843E0666E72E06E002802D0A6
:105A60002046FFF799FF2068C169C90209D58168FE
:105A7000490206D50121090501626E722046FFF731
:105A80006BFF2068C169890609D50068800606D5C4
:105A9000204605F0FBFD206881693943816120685B
:105AA000C169090605D50068000602D5204605F043
:105AB0002FFF2068C169490605D50068400602D558
:105AC000204605F0CAFDF8BD70B50446002C05D08F
:105AD00025466035687A002802D006E0012070BDB6
