:020000040800F2
:1000000068700020410100086B010008C1740008FD
:1000100000000000000000000000000000000000E0
:1000200000000000000000000000000075C500088E
:100030000000000000000000FF00000839DD00089B
:1000400075010008750100087501000875010008B8
:100050007501000875010008693200087501000883
:100060007501000869210008A12100080D2200087F
:100070007501000875010008750100087501000888
:100080007501000875010008750100087501000878
:100090007501000875010008750100087501000868
:1000A000C57400087501000875010008DDE6000848
:1000B000FDE600081DE700087501000803488546B5
:1000C00000F0D2FD00480047E936010868700020C2
:1000D000064B19680868203080F30988022080F3F5
:1000E00014883FBCAE4662B600BD0000400600204A
:1000F000EFF3108072B6704780F310887047EFF30B
:1001000009800E4B1A6820381060F0C044464D46F6
:1001100056465F46F0C008B572B616F015FF62B6D7
:100120000CBC116808681030F0C8A046A946B24659
:10013000BB4680F309882038F0C8184740060020E5
:100140000D480E49026800608A4203D00C4880477F
:100150000C4800470C480D4901600D480B490160EF
:100160000C4801688D4640680047FEE7FEE7FEE761
:10017000FEE7FEE7FEE70000F07F0020EFBEADDE09
:1001800015DE0008BD000008181002400100000044
:100190000000014000D8FF1F30B50B46014600208B
:1001A0002022012409E00D46D5409D4205D31D467D
:1001B0009540491B2546954040191546521E002D75
:1001C000F1DC30BD70B500242546002801DA012499
:1001D0004042002901DA01254942FFF7DDFFAC4228
:1001E00000D04042002C00D0494270BDF0B51FB491
:1001F00086B000200090019002900698069980B287
:1002000004900798090C020400141143079000277A
:10021000089D099806913E463C4603900398A9B272
:100220000204000C039004982D0C15434843002150
:10023000224600F091FAC719714110340E46402C45
:10024000ECDB3846029A00F087FA009A019B80188E
:100250000090594102980191103002904028CCDB67
:1002600000980BB0F0BD10B5202A04DB0846203AF8
:10027000D040002110BD0B46D340D0402024A21A0C
:1002800091400843194610BD00487047C4830108D7
:1002900010B50446FFF7F8FF0068005DC007C00F07
:1002A00010BD01464139192900D820307047034656
:1002B0000B439B0703D009E008C9121F08C0042A9A
:1002C000FAD203E00B780370401C491C521EF9D28D
:1002D0007047D2B201E00270401C491EFBD2704749
:1002E0000022F6E710B513460A4604461946FFF702
:1002F000F0FF204610BD421E5378521C002BFBD14C
:100300000B781370491C521C002BF9D1704710B5A3
:10031000044605E00B780370401C002B00D0491CFC
:10032000521EF7D2204610BDCAB2401E4178401C72
:100330008A4202D00029F9D100207047421C01787E
:10034000401C0029FBD1801A704710B5002200E044
:10035000521C835C8C5CA34201D1002BF8D1D8B233
:10036000E1B2401A10BD30B504460020034600E05B
:100370005B1C934203D2E05CCD5C401BF8D030BDE7
:1003800003460A780270401C491C002AF9D118461D
:10039000704730B505460020034600E05B1C9342E1
:1003A00005D2EC5CC85C201A01D1002CF6D130BD1E
:1003B00070B5104D002800D12868002414E00A46CA
:1003C00002E09E4203D0521C1378002BF9D1DAB21E
:1003D000224307D0002B06D0002C04D0002101704E
:1003E000401C04E00446401C0678002EE7D128603B
:1003F000204670BD3006002070B5064611F018FC8E
:10040000046805460A220021304600F007FA2C60F5
:1004100070BD70B5064611F00BFC046805460A2253
:100420000021304600F0FAF92C6070BDF8B50246A4
:100430004A40D40F42004B0052085B089A4202D255
:100440000246084611464A0023D0C30D4A00DDB2D9
:10045000120EAD1A202D35DA49020126490AF60599
:100460008A19002C00D0524220214F1B1146B9405E
:100470002A411018C20D9A4221D0002C17D0012D0C
:1004800008DCDA05801AD20F8019D207DBB200F03F
:1004900005FAF8BDDA05801A012340001B06C018D2
:1004A00080185A428018CA0F1043490007E04908D3
:1004B000C2071143DA05801A80194008801800F03D
:1004C000E5F9F8BD61000122511A001BF7E701228E
:1004D000D2075140AAE70122D2075040A6E770B5E3
:1004E00002464A40D50F40004A00ED074008520836
:1004F000002814D0002A12D0C40DD30D41020120CF
:10050000C0055202490A520AE41A091812187D3429
:10051000914201D3641C00E04900002C01DA002064
:1005200070BD0023914201D3891A0343400849005A
:100530000028F7D100290AD0914202D10121C90730
:1005400005E0914201D2012101E00121C943E0050A
:10055000C018401900F09AF970BD0000F0B50C46C3
:100560005C4085B0E40FE40703944C000026640867
:1005700059009446490802460296224321D0624619
:100580000A431ED06200570D4A000E032303550D87
:10059000012402462C492405781B1B0B360B4018FE
:1005A00023432643614600901C46501AB44103D3AE
:1005B0000098401C009002E0921800985B410028CF
:1005C00003DA0020014605B0F0BD00200121090535
:1005D0000746864611E064461D46141BB54106D306
:1005E0006546521BB341744607430C43A646CD07EC
:1005F00040084908284392185B4105460D43EAD15B
:100600001046184313D060461946504071400843C5
:1006100006D06046101AB34106D20122002306E03C
:1006200000220123DB0702E00122D243531000988D
:1006300074460105381C6141029C039D0019694103
:1006400000F065F9BFE70000FD030000C217C10F0D
:10065000504010B54018CA079623002100F01EF93B
:1006600010BD10B500229623114600F017F910BDF9
:10067000C20FD207400040080BD0C10D0723DB0199
:10068000C91840020905400A1143C2084007114336
:100690007047002001467047CB0FDB07490010B5BB
:1006A000490802460A4307D00A0D07240903E4015A
:1006B000090B121B002A01DC002010BDC900440FE9
:1006C0000C43C100E018D205801800F0DFF810BD1F
:1006D0000122D207002800DB101A002900DB511A82
:1006E000814270470122D207002800DB101A00293E
:1006F00000DB511A88427047F0B51FB4064600204F
:1007000082B005464024019100901BE001992246E9
:100710000F463046FFF7A7FD049A059B801A9941C2
:1007200010D310461946224600F016F8361A8F41AB
:100730000197224601200021009F00F00DF8381893
:100740004D4100902046641E0028DFDC019B00988C
:100750002946324607B0F0BD10B5202A04DB014619
:10076000203A9140002010BD914020239C1A03465E
:10077000E3401943904010BD0FB400B589B00CA9F7
:1007800000910B990023CB60204B214A06930792DE
:10079000042201921F4A02921F4A089202466B46A7
:1007A000002000F016FB09B008BC04B0184770B573
:1007B00086B006460020C0430190002015460C4636
:1007C0000091029104903246694604A8FFF7D4FFD5
:1007D000024604982118002D05D0002801D00846B3
:1007E00000E020462860049800280DD0002A02DD91
:1007F0000098884208D0081B019000943246694650
:10080000029404A8FFF7B8FF06B070BD29100008D5
:1008100049100008FFFFFF7F91020008F7B5009C18
:100820000F4600262578641C002D05D0FFF72CFD0F
:100830000068405DC007F5D12B2D02D02D2D18D0BA
:10084000641E39462046029A00F010FC002F04D0A6
:100850003968A14201D1009939607105022400294B
:100860000BDA4042002803DD11F0E2F90460A00732
:10087000FEBD012080020643E3E70028F8DA11F00C
:10088000D7F904600048FEBDFFFFFF7F002904DAAE
:10089000401C490001D140084000704770B400245A
:1008A000050C05D11024000402D1002921D0112407
:1008B000050E01D100020834050F01D10001241DED
:1008C000850F01D18000A41C002801DB4000641CBE
:1008D000002908D020252E1B0D46F540A14000D050
:1008E00001212943084301061B1B000ADB1D02D519
:1008F000002070BC7047DB05181880180029F8DA52
:10090000401C4900F5D170BC40084000704710B54C
:10091000002B08DA0024401C614192185B411A4305
:1009200001D14008400010BDF0B51FB482B00546AB
:100930000C0003D0084611F055F902E011F052F90D
:1009400020300246009021462846FFF705FF049B11
:10095000059A04460F4618431143084314D018461D
:1009600010431BD0009840210A1A18460599FFF73A
:100970007AFC05460E46009A05990498FFF7ECFEAE
:10098000084305D0012004E02046394607B0F0BDF9
:100990000020C11705430E432C43374300990E989E
:1009A0006305401A7905E40A00220C43FD0A0A3067
:1009B00002D500200146E9E70105101969410C9CA8
:1009C0000D9D00196941FFF7A2FFDFE7F0B507466B
:1009D0000846584087B0C00F049048000E465900A2
:1009E00040084908BC1A884105D2384631461E469F
:1009F00017460B4602465800400810434CD0300DB5
:100A0000039040055900400D490D0590401A029091
:100A1000402872DA18030121000B090508430190F0
:100A200004980092002805D0019952420020884184
:100A300000920190029840210A1A01990098FFF74C
:100A40008BFE05460C466B4607CB00F01FF9C0191C
:100A50007141039A0E0D0023D71756401A467A406B
:100A6000164344D0049A002A2DD0029A012A039AF0
:100A700015DC1205C01A914101263605001C714192
:100A8000D20F059ED2070093019202962A46234672
:100A9000FFF74AFF07B0F0BD38463146FAE71605C2
:100AA000224A0F46B218C01AB74101210905001C9D
:100AB0004F4100187F41114618187941E20F104349
:100AC0006D19644113E0E2076D0815436408C2071D
:100AD0001443039A01261205C01A91413605001CE1
:100AE0007141CE07400830434908C01851412A4699
:100AF0002346FFF70CFFCDE7FFE7049801224000F3
:100B0000C117121A00238B4104983146C417381AB2
:100B1000A141EEE730B40124E407634030BC55E75F
:100B200030B40124E407614030BC4FE70000E0FF2F
:100B3000F0B51FB488B00B99099800244840099972
:100B4000C00F490049080991C0070B99009049005E
:100B500049080B9109990898A64608431CD00B999F
:100B60000A98084318D0099801244000420D480013
:100B7000410D099824050003000B204309900B98B0
:100B80000003000B20430B9050181C494018002212
:100B900001901446104605E0002001460DB0F0BD5E
:100BA000032801DA034600E003239C46C11A0AAE7B
:100BB0000AE05F0008ADED5B4F00F75B7D43002767
:100BC000AA187C41491C5B1E6145F2DD410004AB63
:100BD0005A522104120C0A43240C401C0828DFDB63
:100BE000019802900099704601910090059B049A2B
:100BF00007990698FFF798FED0E700000DFCFFFF6D
:100C00004A0009030123090B1B0519430A4B10B5C0
:100C1000520D9A4202DA0020014610BD064B3433D1
:100C20009A4203DC9A1AFFF71EFB10BD034BD21841
:100C3000FFF792FD10BD0000FF030000CDFBFFFF9A
:100C400010B5002904DB0124E40740428C41214611
:100C5000002B04DB1C460123DB075242A3419942CF
:100C600000D1904210BD0000064C0125064E05E063
:100C7000E36807CC2B430C3C98471034B442F7D3BD
:100C8000FFF720FA8CA50108ACA5010810B5202AB1
:100C900006DBCB170846203A1041C1170B4306E08C
:100CA0000B461341D0402024A21A91400843194614
:100CB00010BD0000FFB5087889B01546FF2805D0A3
:100CC000491C2D2804D00022002407E000240BE05A
:100CD0000122F9E70A235C430419491C0878FF281C
:100CE000F8D1002A00D06442002004902A780146FE
:100CF0002D2A01D02B2A0FD16D1C2D2A02D00022C3
:100D0000049209E00122FBE700260A2233466D1C0B
:100D1000FFF76CFA381871412F78FF2FF4D10C9A35
:100D2000A218069202460A4304D0FF23069A913382
:100D3000DA4205DA002109980A4606C00DB0F0BD76
:100D40000024B74AB54D2646079200F0F1F902900B
:100D500006980391002801DA474200E0074639056A
:100D60000020AF4A001C51410191009012E0F807A9
:100D700007D022462B4630460799FFF7D9FE064694
:100D8000079122462B4610461946FFF7D1FE04462E
:100D90000D467F10002FEAD10698019B0028009A8B
:100DA0000399029806DAFFF7D9FB3246079BFFF753
:100DB000D5FB05E0FFF7BCFE3246079BFFF7B8FE08
:100DC000049A002A02D00122D2075140099A03C294
:100DD000B4E7FFB591B0002009900025ED432E2027
:100DE0009E685C681F460190B9696D1C129888471F
:100DF0000090396A88470028F6D10098401C0AD034
:100E00000D20C0018443002E12DD00982B2809D04C
:100E10002D280DD103E00020C04315B0F0BD012006
:100E200080020443B9696D1C12988847761E0090B1
:100E300003A9600501D52D2000E02B206A46107320
:100E4000491C0CA80F9102900AE0B9696D1C129818
:100E5000884700900120400204431398761E0560E5
:100E6000002E02DD00983028EFD0019900988842CA
:100E700046D18020044308E00998401E09900120D3
:100E8000400204431399681C0860B9696D1C761E02
:100E90001298884700903028EED031E001998842BE
:100EA00005D1200603D480200443761E1EE000985E
:100EB00010F0EEFF002826D001204002044307A9CD
:100EC0000F980331761E88420BD200980F99303864
:100ED00008700F98401C0F90200607D50998401EF7
:100EE00003E0200602D40998401C0990A00502D511
:100EF0001399681C0860B9696D1C129888470090A6
:100F0000002ECBDC59E0002E57DD0098652801D07B
:100F1000452852D1A00550D5032000028443B96969
:100F20006D1C761E129888470090002E0CDD2B2831
:100F300004D02D2808D1FF2001300443B9696D1C6D
:100F400012988847761E0090E00501D52D2100E01B
:100F50002B21029801700298401C0290019025E01C
:100F60000120400204430EA902980131761E8842F6
:100F70000ED20098029930380006000E087003D196
:100F80000299019881420AD90298401C029006E019
:100F9000E00501D5234801E0224840420990B969A3
:100FA0006D1C12988847009013980560002E04DD90
:100FB000009810F06DFF0028D2D1F9691298884787
:100FC0000F99FF200870029903AA087000200A9068
:100FD0000B900CA90AA8099BFFF76CFEA00502D490
:100FE0000120C04319E72420044209D0E00713D1AF
:100FF00038680B9A0A99031D3B60006806C00BE035
:101000000B990A98FFF748FB0146E00704D13868BE
:10101000021D3A60006801602846FEE600001440A8
:101020000000F03FF1D8FFFF4268002A08D00168B5
:101030000B78491C002B03D0521E06C0184670477F
:101040000121C160881E70474268002A0BD0C36826
:101050000168002B07D183688B4204D0491E521CC3
:1010600006C0002070470020C0437047F7B582B02B
:10107000029C00272078641C15460197302802D076
:10108000002D15D015E020780127641C782804D0A5
:10109000582802D0002D09D00BE0002D01D0102DD2
:1010A00007D1002710252078641C02E0082500E005
:1010B0000A250026009610E00099012769430818C8
:1010C000020C294680B2714300908E183804864283
:1010D00001D3012001902078641C294600F019F802
:1010E0000028E9DA0398002805D0002F01D0641EFB
:1010F00000E0029C04600198002806D010F098FDE2
:1011000002210160C81E05B0F0BD009930040843FB
:10111000F9E73A2800D23038202302469A43412A80
:1011200001D310463738884201D30020C0437047AE
:101130000EB5054A02920022009213460192FFF773
:10114000F3FB03B000BD00003304000070B58C1841
:101150000578401C6B075B0F01D10378401C2A11F6
:1011600006D10278401C03E006780E70401C491C32
:101170005B1EF9D12B0705D40023521E0DD40B7032
:10118000491CFAE70378401CCB1A921C03E01D7837
:101190000D70491C5B1C521EF9D5A142D8D300200A
:1011A00070BD0000F3B583B0064600200290002415
:1011B000002500BF18E00B2060433D4A81180498C9
:1011C000FFF7C3F800280ED1701E40003949085AB5
:1011D0000121A140084381B2701E4000354A1152DE
:1011E000029805B0F0BD641C0A2CE4DB00250AE07F
:1011F000A800314A81180498FFF7A7F8002801D108
:101200000620EEE76D1C042DF2DB01250BE00B2020
:1012100068432A4A81180498FFF797F8002801D1FB
:101220000720DEE76D1C264800788542EFDB254865
:101230002549086015E024480068006807683846BA
:10124000FFF77CF801903946019A0498FFF7A1F85E
:10125000002801D10820C4E71B48006840681A49EB
:101260000860194800680028E5D100240EE00B2032
:1012700060430F49085C002807D10B2161430C4AE9
:1012800088180499FFF77CF802E0641C0A2CEEDB56
:1012900000BF701E40000749085A0121A1400843C1
:1012A00081B2701E4000034A1152029899E7000073
:1012B000E20800202A0D0020C8800108F30B00205E
:1012C000840000203C030020F0000020F0B58DB029
:1012D00005460C4600200C9000275748007800284F
:1012E00009D0A100554A505812F0AAFAA100544A58
:1012F000505812F0A5FA0420524908554E4800787B
:10130000002805D0204602F093FF019005F085FBF0
:1013100003A805AB04AA06A90090204602F0D4FE5B
:101320006846008A079001200890002009900A90E2
:1013300007A9069803F0BAFD684680890790002047
:1013400008900220099007A9059803F0AFFDE0007E
:1013500020183D4940184570611E8900EC31490054
:101360003A4A505A02A901F0D7FE0646002E37D15C
:101370006846008907123811A04206D13807000FCD
:10138000A84202D100200DB0F0BD2003290208437D
:1013900080B20290611E8900EC3149002B4A505AFC
:1013A0006946098901F04AFF611E8900ED31490053
:1013B000264A505A002101F041FF611E8900EE319A
:1013C0004900224A505A002101F038FF611E89006D
:1013D000EF3149001D4A505A002101F02FFF29E04A
:1013E00020032902084381B20291611E8900EC3179
:1013F0004900164A505A6946098901F01FFF611ECB
:101400008900ED314900114A505A002101F016FFC0
:10141000611E8900EE3149000C4A505A002101F04A
:101420000DFF611E8900EF314900084A505A002122
:1014300001F004FF0C98A6E79C000020601A002031
:101440007C1A002086000020B0140020A017002085
:10145000F8B505460E46012D0FD0022D11D0032DF3
:101460007ED1012146480078401E14225043454A4F
:10147000801801740BF088F97EE0304607F0F8FD23
:10148000F8BD3F480078401E142148433D494018AC
:10149000C06800283BD03A490978491E14225143BC
:1014A000384A8918C868FEF749FF04463046FEF7F7
:1014B00045FF0019871C32490978491E14225143FF
:1014C000304A8918C868394612F0DAFF01462C48BC
:1014D0000078401E142250432A4A8018C1602849CF
:1014E0000978491E14225143264A8918C9680919E6
:1014F000481C3146FEF744FF132121480078401E66
:10150000142250431F4A8018C06801551AE0304623
:10151000FEF714FF441C204610F0C0FB014618489B
:101520000078401E14225043164A8018C1601449A6
:101530000978491E14225143124A8918C868314655
:10154000FEF71EFF0E480078401E142148430D4947
:101550004018C06800280DD109490978491E00E0EB
:1015600009E014225143074A88181421FEF7B8FEF7
:101570000E2085E700E000BF00BF002080E70000EC
:1015800058020020FC150020F0B587B004460D4637
:1015900016461F467D200001301AC1B26846C1764A
:1015A000447685760776002206A9254805F03AF8A4
:1015B000002802D0FF2007B0F0BD69460E980871E0
:1015C00068460D99417169460C9888710020059014
:1015D0000E980C2802DD18201A4948730F9801282C
:1015E00006D10020694608730C20164948730CE0A8
:1015F0000F98022806D14020694608730C20114933
:10160000487302E018200F494873002201A90C48D2
:1016100005F096F8002801D0FF20CCE7094A527B5C
:101620001202084B1B791A431146074A908E01F0AB
:1016300005FE064A0121024804F02BFF0020BAE70C
:101640002815002018080020A0190020F232000000
:1016500010B50AF021FE02F0AFFD01F0A7FA07F085
:101660006BF907F011F807F02FFA06F049FB002894
:1016700003D001F089FA07F0E3FB06F0D3FB002862
:1016800014D032200CF00AF807F004FBE1204002ED
:1016900033498860012406E03148816820460DF016
:1016A0005DF8601CC4B2062CF6DD04E032200BF0BD
:1016B000F5FF07F0EFFA06F017FF0DF05DF8294887
:1016C0000078002811D10122D1020920C00603F0C0
:1016D000F8FCFF20F5300BF0E1FF00220121C902E8
:1016E0000920C00603F0EDFC36E00122D1020920FA
:1016F000C00603F0E6FCFF20F5300BF0CFFF002220
:101700000121C9020920C00603F0DBFC64200BF0B4
:10171000C5FF0122D1020920C00603F0D2FC6420DB
:101720000BF0BCFF00220121C9020920C00603F012
:10173000C8FC64200BF0B2FF0122D1020920C006D0
:1017400003F0BFFC64200BF0A9FF00220121C902B5
:101750000920C00603F0B5FC01200349087010BD44
:1017600018080020850000209C000020FFB583B0F1
:101770000D461C460020029000270026FF2D21DA8E
:10178000012718E0781E40004349085A2841C00745
:10179000C00F00280DD0701CC6B2A019401C2D2807
:1017A00004DAA019401E3D490F5402E0692007B039
:1017B000F0BD781CC7B23A4800788742E2DDA01934
:1017C00036490E54FF2D0BD1601C2D2808DA354800
:1017D0000078401CC0B2334908703049085518E001
:1017E000FF2D01D16920E2E7FF2D0EDAA019801C40
:1017F0002D280ADA2B480078401CC1B22948017014
:10180000A019401C254A115403E0FF2D01DA69207C
:10181000CDE7FF2D03D1A01DC0B2029004E0701CE3
:101820002018801DC0B20290039802F0FBF801203E
:10183000019027E01C480078401E41001B48415A97
:101840000198401E0141C807C00F002816D0FF2D87
:101850000AD10298401F80B20090FF22059B039995
:1018600001980BF0EDF909E00298401F80B200905A
:10187000FE22059B039901980BF0E2F90198401CA8
:10188000C0B2019001980628D4DD611C0348FEF720
:1018900027FD00208BE700002A0D0020880E002085
:1018A000840000209A00002085000020B00800205D
:1018B000F0B585B007460C460020039000BF00BF7E
:1018C00000BF601E2A490D5C601E32214843294931
:1018D000401840780290601E322148432549401844
:1018E00080780102601E32225043224A8018C0785C
:1018F000081880B201906A1F601E322358431D4BA6
:10190000C018011D1C48FEF7D2FC029802F08AF8AC
:10191000012624E019480078401E40001849085A62
:10192000711E0841C007C00F002816D0FF2F09D133
:10193000681F80B20090FF223046019B02990BF095
:101940007FF90AE0FE2F08D1681F80B20090FE22C6
:101950003046019B02990BF073F9701CC6B2062E3B
:10196000D8DD691F0448FEF7BBFC039805B0F0BD45
:101970008D0000205C0D0020880E002085000020D6
:10198000B008002070B586B000250026012455E27D
:10199000E0002018FE4940184078002876D0FD4825
:1019A0000078002803D1E1006118F94A505402A8D8
:1019B00004AB03AA05A90090204602F085FB002293
:1019C00068468189059803F07CFB0A200BF03EFEF7
:1019D00068460189049803F067FB00280ED10122B4
:1019E00068468189059803F06CFB0A200BF02EFEF7
:1019F00068460189049803F057FB054600226846B3
:101A00008189059803F05DFBE0002018E04940184B
:101A10004078012806D002280CD0032812D00428D0
:101A200020D117E0012D01D1042602E0002D00D1C4
:101A3000032618E0012D01D1042602E0002D00D17B
:101A4000032610E0012D01D1022602E0002D00D175
:101A5000012608E0012D01D1012602E0002D00D170
:101A6000022600E000BF00BF042E01D0022E12D1DA
:101A7000A000C9490858C949884208D2A000C649EF
:101A80000858401CA100C44A505004E0D4E1002092
:101A9000A100C14A5050032E01D0012E2CD1A0002C
:101AA000BF490858BD49884207D2A000BC49085820
:101AB000401CA100BA4A505003E00020A100B84ADF
:101AC0005050B848007802280BD1B748005DB7499C
:101AD0004979884205DCB448005D401CB24908558C
:101AE0000AE0B148005DB1494979884204DD00202F
:101AF000AC490870AC490855A000A7490858AB4943
:101B00000988884261D3A000A3490858A7490988D9
:101B100088420BD10720E10061189D4A5054A00073
:101B20009D490858401CA1009B4A5050A0009C4968
:101B300008589E490988884203D90020A100984A84
:101B40005050A0009449085898494988884225D99E
:101B5000A00091490858FF21F53188421ED29148D2
:101B60000078002803D101208E4908702DE08D48AF
:101B70000078022829D18C48005D8C490979884277
:101B800023DD8948005D8949497988421DDA0320AF
:101B90008449087000208449085516E0A0007E4959
:101BA0000858FF21F53188420FD3A0007A49085820
:101BB0007A49884209D27B480078002802D0002068
:101BC00078490870204600F061F9A000744908586F
:101BD00076490988884255D3A0007149085873494D
:101BE000098888420BD10820E1006118684A5054E6
:101BF000A0006B490858401CA100694A5050A00041
:101C00006549085869490988884203D90020A1001C
:101C1000614A5050A0006249085864494988884286
:101C200020D9A0005E490858FF21F531884219D219
:101C30005C480078012808D10520E1006118544A69
:101C400050540220574908701CE056480078032879
:101C500018D10620E10061184D4A50540020514926
:101C600008700FE0A0004E490858FF21F531884266
:101C700008D3A0004A4908584849884202D2204661
:101C800000F03EF9E00020184149085C401F0300C5
:101C90000FF0BFFF0A182C060F40556A91A6BBD063
:101CA000204610F04BFE0020E1006118384A5054E5
:101CB000C1E0204610F044FE0020E1006118344AE3
:101CC0005054B8E03348007800280ED1E0002018C6
:101CD0002F494018007AC007C00F002805D0012006
:101CE0002C490870204610F027FEA4E0294800780F
:101CF00000280ED1E000201825494018007A022162
:101D00000840002805D0012022490870204610F024
:101D100014FE90E01F48007800280FD1E000201842
:101D20001B494018007A04210840002806D00120F1
:101D3000184908700121204610F001FE7BE015488B
:101D4000007800280FD1E000201811494018007ACF
:101D500008210840002806D001200E490870022101
:101D6000204610F0ECFD66E00A480078002821D1FA
:101D7000E000201806494018007A10210840002889
:101D800018D00120034908700321204610E000000C
:101D9000B0140020B1000020F0140020FFFF00006C
:101DA0000C150020E7000020A900002018080020E2
:101DB00010F0C5FD3FE02448007800280FD1E00076
:101DC000201822494018007A20210840002806D017
:101DD00001201D4908700121204610F0B2FD2AE0C3
:101DE0001948007800280FD1E00020181749401842
:101DF000007A40210840002806D0012012490870CE
:101E00000221204610F09DFD15E00F4800780028C3
:101E10000FD1E00020180D494018007A80210840B9
:101E2000002806D00120084908700321204610F040
:101E300088FD00E000BF00BF601CC4B2062C00DCBF
:101E4000A6E506B070BD0000B1000020B01400206F
:101E500038B501F097FF04466420FF23F5330122D3
:101E6000214600900648007812F0DEFA20780D280E
:101E700004D10020034908700349087038BD0000F0
:101E80009B000020A4020020DE020020F0B50146E5
:101E90000020CD004D19184EAD19AA78CD004D196E
:101EA000AD19EB78CD004D19AD192C797D25ED00DC
:101EB0006A436B436C438D00104E7559954205D1B2
:101EC0000925CE008E190C4FBD5514E08D000B4E28
:101ED00075599D4205D10A25CE008E19064FBD5574
:101EE00009E08D00054E7559A54204D10A25CE00A2
:101EF0008E19014FBD55F0BDB0140020F014002024
:101F0000F0B501460020CD004D19184EAD196A7983
:101F1000CD004D19AD19AB79CD004D19AD19EC7946
:101F20007D25ED006A436B436C438D00104E75595F
:101F3000954205D10C25CE008E190C4FBD5514E0ED
:101F40008D000B4E75599D4205D10D25CE008E1981
:101F5000064FBD5509E08D00054E7559A54204D1C7
:101F60000D25CE008E19014FBD55F0BDB0140020D7
:101F70000C150020F8B50446142060434349085C62
:101F8000012806D0022817D0032816D0042879D1BA
:101F900077E0142060433D49401885781420604361
:101FA0004018C078E9006918394A515C884201D16B
:101FB0000120F8BD0020FCE765E0142060433349B0
:101FC0004018C078401E0C21484332490858066822
:101FD000142060432D494018C28869460A80008950
:101FE00048801420604329494018407803000FF0CE
:101FF00010FE0745050D15222A3745003046009989
:10200000FEF766FB01D10120D3E738E030460099A6
:10201000FEF768FB01D20120CBE730E030460099A3
:10202000FEF756FB06D200213046FEF751FB01D0E9
:102030000120BEE723E030460099FEF753FB01D8AC
:102040000120B6E71BE030460099FEF741FB06D8B9
:1020500000213046FEF73CFB01D00120A9E70EE04D
:1020600030460099FEF734FB07D000213046FEF7DA
:102070002FFB02D001209CE704E000E000BF00BF7E
:1020800001E000E000BF00BF002092E7FC15002047
:10209000B0140020AC02002070B500253221104899
:1020A000FEF71EF9012415E0601E40000C49085A95
:1020B000002809D0621E52000B46995A621C520039
:1020C000084B985A01F0BAF8A01C1C2800DB0A251E
:1020D000601CC4B2044800788442E5DD284670BD27
:1020E000760B0020A01700208400002010B50649C0
:1020F0000648FEF7F5F8012005490870002005495B
:1021000008700AF041FB10BD2602000050090020B3
:102110008400002085000020FEB5044627460E48B6
:102120000078012805D10D492046FEF7D8F9074669
:1021300010E00948007802280CD12046FEF798FAF2
:102140000546074A074BFEF709FA01910090FEF792
:10215000A3FA07463846FEBD9C020020000020413D
:10216000666666666666394010B50A4802F0B6F8DB
:1021700009480068002804D008480068401C074946
:1021800008600648006804490968884201D30BF0DA
:10219000FBFB10BDE01F00202C03002020030020CB
:1021A00010B514480068202108404009002803D0D9
:1021B000114802F093F81BE0104800680121490221
:1021C0000840400A002813D00D4802F087F80D4857
:1021D0000068002804D00C480068401C0A490860C8
:1021E0000948006807490968884201D30BF002FCDE
:1021F00010BD000000040240A81F002000000240A3
:1022000018200020300300202403002010B51A48B5
:102210000068012149040840400C002803D01748F9
:1022200002F05CF827E014480068012149050840E5
:10223000400D002803D0124802F050F81BE011486E
:102240000068012149020840400A002813D00E48C6
:1022500002F044F80D480068002804D00C480068DB
:10226000401C0B4908600A48006808490968884210
:1022700001D30BF0F5FB10BD00000240381F002019
:10228000701F002000040240502000203403002072
:102290002803002010B5046863604468102C04D142
:1022A0000468A2600468E16003E00468A160046857
:1022B000E26010BDF8B50646002701F063FD054653
:1022C0008DA0007828708D4802788DA193480FF07A
:1022D00075FC92492846FEF70EF89148027891A1C4
:1022E0008E480FF06BFC8D492846FEF704F8052058
:1022F0000123002292A1009088480FF05FFC8749DB
:102300002846FDF7F8FF96A298A184480FF056FCE6
:1023100082492846FDF7EFFF9AA29DA17F480FF062
:102320004DFC7E492846FDF7E6FFA0A17B480FF053
:1023300045FC7A492846FDF7DEFF012432E02246BB
:102340009FA176480FF03AFC74492846FDF7D3FF69
:102350009D48005D03000FF05CFC0504090E131896
:102360001D009AA16D480FF029FC14E099A16B485B
:102370000FF024FC0FE09DA168480FF01FFC0AE05D
:102380009DA166480FF01AFC05E0A2A163480FF07A
:1023900015FC00E000BF00BF60492846FDF7ABFF19
:1023A000601CC4B2062CCADDA2A15C480FF006FC7A
:1023B0005A492846FDF79FFFA64800684068002854
:1023C00004D1A5A155480FF0F9FB0FE0AA49086810
:1023D00001F046FE04469F49486A01F041FE23464B
:1023E0000246A6A100904D480FF0E8FB4B49284655
:1023F000FDF781FFAE4800684068002804D1ADA118
:1024000046480FF0DBFB0FE09B49486801F028FECF
:102410000446A749486A01F023FE23460246ADA1BF
:1024200000903E480FF0CAFB3C492846FDF763FF89
:10243000B54800684068002804D1B4A137480FF0BF
:10244000BDFB0FE08C49886801F00AFE0446AE49E6
:10245000486A01F005FE23460246B4A100902F48C9
:102460000FF0ACFB2D492846FDF745FF53A1284648
:10247000FDF741FFBAA12846FDF73DFF2846FDF7CD
:102480005DFF87B2012417E01C480078401E400021
:10249000BB49085A611E0122D2030A41104000289C
:1024A00008D02246B7A11D480FF088FB1B492846DB
:1024B000FDF721FF601CC4B2062CE5DD2846FDF7C0
:1024C0003DFFB84203D1B1A12846FDF714FF3BA15F
:1024D0002846FDF710FF002E0CD02846FDF72EFFF2
:1024E00084B20020C0433223224629460090304661
:1024F00013F032FBF8BD0000000000008500002052
:102500000A0D2A2A2A204D6F64756C6520256420E7
:10251000537461747573202A2A2A0A00C8070020A0
:102520009B0000200A0D436F6E6E65637465642026
:1025300076696120706F72743A205025640A0D002C
:102540000A0D4669726D77617265207665727369EE
:102550006F6E3A2025642E25642E2564000000004D
:102560004A756E2031302032303139000A0D46690B
:10257000726D7761726520646174653A2020202055
:102580002573000031313A31323A31300000000019
:102590000A0D4669726D776172652074696D653ADE
:1025A0002020202025730A0D000000000A0D506F26
:1025B000727473205374617475733A0A0A0D0000C3
:1025C0005025643A200000008600002046726565B0
:1025D0000A0D0000526563656976696E67206D6556
:1025E0007373616765730A0D0000000053747265B0
:1025F000616D696E670A0D00526563656976696E83
:1026000067207573657220636F6D6D616E64730A08
:102610000D000000436F6E6E656374656420746F17
:10262000206120627574746F6E2F737769746368AC
:102630000A0D00000A0D506F72742D746F2D706FAB
:10264000727420444D4173205374617475733A0A57
:102650000D000000E01F00200A0D506F72742D74F1
:102660006F2D706F727420444D41203120697320AA
:102670006672656500000000882000200A0D506F1A
:1026800072742D746F2D706F727420444D4120311F
:102690002069732073747265616D696E672066725C
:1026A0006F6D2050256420746F2050256400000059
:1026B000182000200A0D506F72742D746F2D706FEA
:1026C000727420444D412032206973206672656522
:1026D000000000000A0D506F72742D746F2D706F22
:1026E000727420444D4120322069732073747265E6
:1026F000616D696E672066726F6D2050256420746D
:102700006F20502564000000502000200A0D506FFB
:1027100072742D746F2D706F727420444D4120338C
:102720002069732066726565000000000A0D506F15
:1027300072742D746F2D706F727420444D4120336C
:102740002069732073747265616D696E67206672AB
:102750006F6D2050256420746F20502564000000A8
:102760000A0D546865736520706F7274732061720E
:10277000652072657665727365643A20000000001A
:10278000760B002050256420000000004E6F6E651F
:1027900000000000F8B5064627A12E480FF00EFAFB
:1027A0002C48FDF7CBFD84B20020C04332232246E3
:1027B00028490090304613F0CFF9012425E0012587
:1027C0001FE0601E40002449085A691E0122D203FE
:1027D0000A411040002812D02B4622461FA11D4856
:1027E0000FF0ECF91B48FDF7A9FD87B20020C043AC
:1027F00032233A4617490090304613F0ADF9681C71
:10280000C5B20A2DDDDD601CC4B2194800788442CF
:10281000D5DD18A10F480FF0D1F90E48FDF78EFD58
:1028200084B20020C043322322460A490090304639
:1028300013F092F9F8BD00000A0D54686573652025
:10284000706F727473206172652072657665727341
:1028500065643A00C8070020760B00200A0D4D6F12
:1028600064756C65202564203A20502564000000C2
:10287000840000200A0A0D416C6C206F7468657238
:1028800020706F72747320617265206E6F726D615B
:102890006C0A0D00F8B5064658A15D480FF08EF998
:1028A0005B48FDF74BFD84B20020C0433223224633
:1028B00057490090304613F04FF9012413E02246A7
:1028C00054A153480FF07AF95148FDF737FD85B20E
:1028D0000020C04332232A464D490090304613F071
:1028E0003BF9601CC4B2062CE9DD0020C043322352
:1028F00003224AA10090304613F02EF900246EE026
:10290000621C47A142480FF059F94148FDF716FDF6
:1029100085B20020C04332232A463D49009030460C
:1029200013F01AF916206043404A105A0622504309
:102930003F4A811805223648FDF7E9FC0020C043D4
:102940003223052232490090304613F005F9002069
:10295000C043322301222DA10090304613F0FCF831
:1029600001252FE016206043304940186900405A85
:10297000002805D100222FA125480FF01FF912E0F1
:1029800016206043294940186900405C43075B0FEB
:1029900016206043254940186900405AC21026A1FC
:1029A0001B480FF00BF91A48FDF7C8FC87B200204E
:1029B000C04332233A4616490090304613F0CCF813
:1029C000681CC5B2062DCDDD0020C0433223022293
:1029D0001BA10090304613F0BFF8601CC4B2194828
:1029E000007884428CDB0020C0433223012216A1F0
:1029F0000090304613F0B0F8F8BD00000A0D284DE5
:102A00006F64756C653A506F727429090900000093
:102A1000C807002050256409000000000A0A0D00C4
:102A20004D6F64756C652025643A090050090020DB
:102A30005C8001082564090025643A2564090000CA
:102A40000A0D0000840000200A0000000346062151
:102A500006221448018814480288002B15D0012B47
:102A60001DD1002A06D11148814201D100207047B2
:102A70000220FCE7002906D10C48824201D1022045
:102A8000F5E70020F3E7AB20F1E7002901D10020B2
:102A9000EDE7002A01D10220E9E7AB20E7E70020BB
:102AA000E5E7000000E0010800F00108EEEE00009C
:102AB00010B5002402F0D2F92C4800F039FF2C4860
:102AC00000F07CFF0446002C03D02A48C06980B285
:102AD00010BD294800F02CFF254800F06FFF044688
:102AE000002C03D02348C06980B2F1E72348006975
:102AF0000221884321490861002213461B49012015
:102B000002F04EF91A4800F059FF0446002C03D099
:102B10001848C06980B2DBE71848006940084000E7
:102B200016490861164800F003FF114800F046FFFF
:102B30000446002C03D00F48C06980B2C8E7114892
:102B400000F0F6FE0A4800F039FF0446002C03D0DE
:102B50000848C06980B2BBE70848006940084000E7
:102B60000649086102F012F92046B1E700E00108C9
:102B700050C30000A807002000E801080020024020
:102B800000F0010800F8010810B50648006B06497E
:102B9000884206D0FFF78CFF002802D10248014985
:102BA000086310BDC07F0020ADDEEFBEFEB506207D
:102BB000029006260025002001900027401E00906C
:102BC000012402F04BF9012003E04200EC4B985243
:102BD000401CFF2137318842F7DDEA480088029027
:102BE000E94806880298002872D0E8494018002871
:102BF00072D0E749401800286CD1002E20D1E1485E
:102C000000F096FEE34800F0D9FE0446002C03D005
:102C1000E148C06980B2FEBDE04800F089FEDD48B1
:102C200000F0CCFE0446002C03D0DB48C06980B223
:102C3000F1E7DB48006902218843D94908614AE08D
:102C4000D2484042864236D1CE4800F071FED1488B
:102C500000F0B4FE0446002C03D0CF48C06980B217
:102C6000D9E7CE4800F064FECA4800F0A7FE04464B
:102C7000002C03D0C848C06980B2CCE7C8480069BE
:102C800002218843C649086100221346BE4901203B
:102C900002F086F8BF4800F091FE0446002C03D0F5
:102CA000BD48C06980B2B6E7BD4800694008400031
:102CB000BB4908610FE0FFF7FBFE0446B54800F092
:102CC0007DFE0446002C06D0B348C06980B2A2E75E
:102CD000B0E001E043E14EE1002E63D1002526E0A3
:102CE000A848C0886900A64A515A884201D128B232
:102CF00000900098854218D06900A14A505AA9490D
:102D000000F00AFA0746012F0FD069009C4A505A7A
:102D1000A449098800F032FA01909E4800F04EFE66
:102D20000446002C01D0019875E7681C85B2FF208D
:102D300037308542D4DB002213469249012002F04D
:102D40002FF8944800F03AFE0446002C03D0924835
:102D5000C06980B25FE7924800694008400090492E
:102D60000861894800F0E4FD8A4800F027FE044627
:102D7000002C03D08848C06980B24CE78A4800F034
:102D8000D7FD844800F01AFE0446002C03D0824888
:102D9000C06980B23FE782480069022188438049C8
:102DA000086146E08148864236D1774800F0C0FD90
:102DB000784800F003FE0446002C03D07648C06932
:102DC00080B228E7784800F0B3FD724800F0F6FDC5
:102DD0000446002C03D07048C06980B21BE77048DD
:102DE0000069022188436E49086100221346654943
:102DF000012001F0D5FF674800F0E0FD0446002CFB
:102E000003D06548C06980B205E76548006940089D
:102E10004000634908610CE0FFF74AFE04465D4844
:102E200000F0CCFD0446002C03D05B48C06980B2A2
:102E3000F1E6A0E0002E0AD1FFF73AFE044655481D
:102E400000F0BCFD0446002C24D02046E3E65748A1
:102E5000864220D14C4800F06BFD4E4800F0AEFD9C
:102E60000446002C03D04C48C06980B2D3E64E48DB
:102E700000F05EFD474800F0A1FD0446002C03D0A1
:102E80004548C06980B2C6E64548006902218843CA
:102E90004349086162E0002526E03B48C08869009C
:102EA000374A515A884201D128B200900098854291
:102EB00018D06900324A505A3A4900F02DF90746B5
:102EC000012F0FD069002E4A505A3649098800F068
:102ED00055F901902F4800F071FD0446002C01D0F7
:102EE000019898E6681C85B2FF2037308542D4DB14
:102EF000002213462449012001F052FF254800F02A
:102F00005DFD0446002C03D02348C06980B282E6F0
:102F1000234800694008400021490861194800F031
:102F200007FD1C4800F04AFD0446002C03D01A4857
:102F3000C06980B26FE6194800F0FAFC154800F04D
:102F40003DFD0446002C03D01348C06980B262E600
:102F50001348006902218843114908610BE0FFF71B
:102F6000A7FD04460B4800F029FD0446002C01D0C3
:102F7000204650E600BF00BF01F008FF00204AE6EF
:102F8000A017002000E0010800F001081211FFFF67
:102F9000EFEEFFFF50C30000A807002000E8010883
:102FA000002002407002002000F80108FFFF00002E
:102FB000F3B585B0074600240020049003900290EA
:102FC00000250026019001F049FF0020FFF73EFD9B
:102FD00002900298022804D1474804904748039081
:102FE0000AE00298002804D1444804904248039023
:102FF00002E0AB2007B0F0BD414A00230120049954
:1030000001F0CEFE3F4800F0D9FC0446002C03D06E
:103010003D48C06980B2EDE73C4800694008400087
:103020003A4908613846069900F0A8F80646002E8D
:1030300001D03046DEE700251CE068003449085A1C
:10304000B84215D06900324A505A324900F064F84B
:103050000190019801280BD069002D4A505A2D4942
:10306000098800F08BF80646002E01D03046C1E7F3
:10307000681C85B2FF2037308542DEDB039800F004
:1030800057FC204800F09AFC0446002C03D01E4850
:10309000C06980B2AEE70121C9020398401800F070
:1030A00047FC184800F08AFC0446002C03D0164860
:1030B000C06980B29EE71548006902218843134920
:1030C0000861002213460120049901F069FE0D48B1
:1030D00000F074FC0446002C03D00B48C06980B299
:1030E00088E70A480069400840000849086101F083
:1030F0004DFE20467EE7000000E0010800F00108D8
:10310000EEEE000050C30000A8070020002002409F
:10311000A017002070020020FEB506460F460025CD
:103120001448029001200190002400200090FFF735
:103130008DFC0546AB2D00D1FEBDE8020E494018BE
:103140000090A81CC002891E44180CE02088029040
:103150000298B04206D120464038C08F3880002007
:10316000019004E0241F0098801C8442EED800BF28
:103170000198E1E75555000000E00108FEB505465D
:103180000E460020019000270024009001F066FE0A
:103190000120FFF75BFC0746AB2F00D1FEBDF80214
:1031A00022494418B81CC002891E4018009036E01D
:1031B0002068401C002831D13246002321460120DE
:1031C00001F0EEFD1A4800F0F9FB0190019800288B
:1031D00003D01848C06980B2E0E71748006940088A
:1031E0004000154908612A460023A11C012001F076
:1031F000D7FD0F4800F0E2FB01900198002803D0B2
:103200000C48C06980B2C9E70B480069400840001B
:10321000094908610748C06980B2BFE7241D0098CA
:103220008442C5D301F0B2FD8020B7E700E0010879
:1032300050C30000A80700200020024070B50546DA
:103240000E46002401F00AFE31462846FFF796FF9D
:103250000446802C04D131462846FFF7A9FE0446D7
:1032600001F094FD204670BD10B50024042001F04B
:103270000DFE0C2004490870002C03D0012000072B
:103280000249486010BD0000DF02002000ED00E0B0
:10329000F8B50027002400F075FD064600BF35E0B4
:1032A000142060431C494018007C00282CD0E0B258
:1032B000FEF760FE002827D040201849887119E0E9
:1032C00000BF992292003146154800F093FD054653
:1032D000002DF6D13046FDF731F80146009030461A
:1032E000FCF7FEFF0E48FDF729F8014600900C4858
:1032F000FCF7F6FF14216143074A8918C86808499A
:1033000005F066FE0028DBD1601C84B20548007819
:103310008442C5DB3846F8BDFC15002018080020A3
:103320001E17002058020020F0B589B00020089038
:1033300000270790069005900024002504900026A1
:1033400003900120FE49087002900FE0FD490978C2
:103350000298884206D0029800F06AFF012101908D
:103360000AF0A8FC0298401CC0B2029002980628FD
:10337000ECDDF448007800F0A1FA0220F249087070
:103380000127012625E0701E8000F049085A002818
:103390001DD0781CC0B20746ED494870ED48077053
:1033A00000200870032010230022114600903046B0
:1033B00009F046FC3902701E8000E44A105C0818CF
:1033C00081B2701E800011520A2010F00DFA701C9C
:1033D000C6B2062ED7DDE0480088E0490880012605
:1033E00031E0701E8000D949085A002829D0701E8B
:1033F0008000085A0390039800120690701E800007
:10340000085C05900698C100059801437000D34AF6
:103410001152701E8000CD49401841880698401E08
:1034200016225043CD4A1152C5480078C10031439D
:103430000698401E16225043C84A8218059840003C
:103440001152701CC6B2062ECBDD022412E00B20F6
:1034500078434200C149BE48FCF729FF0B2078435E
:1034600042001121204609F0A9FC3C2010F0BCF9D3
:10347000601CC4B2BC42EADDC0E007970224BAE097
:10348000012005E00122411EB14B5A54411CC8B233
:103490000A28F7DD0020AE4988720B220E21204653
:1034A00009F08CFC0A2010F09FF900220C21204624
:1034B00009F084FC642010F097F901252DE0681EC6
:1034C0008000A749085A03900398001206900398B9
:1034D000002820D0069800281DD1781CC0B20746CD
:1034E0009B4948709B4807703902681E80009C4ABF
:1034F000105C081881B2681E8000115201209449A6
:1035000008700846857003221021204609F056FCF9
:103510000A2010F069F9681CC5B20A2DCFDD01251B
:103520004AE0681E80008E49085A002842D0681E72
:103530008000085A0390039800120690681E8000CD
:10354000085C05900698012834D0601E1621484377
:10355000824940186900405A00280AD10698C100E3
:1035600005980143601E162250437C4A80186A0069
:1035700081520698401E1621484378494118059803
:103580004000085A002815D1681E80007449401870
:1035900041880698401E16225043704A1152E1009D
:1035A00029430698401E162250436C4A82180598FB
:1035B00040001152681CC5B20A2DB2DD28216848AE
:1035C000FCF78EFE022512E00B207843420063498F
:1035D0005F48FCF76CFE0B2078434200112128461F
:1035E00009F0ECFB3C2010F0FFF8681CC5B2BD42AE
:1035F000EADD601CC4B2BC4200DC41E70798B84277
:1036000000D03AE74F48007800F058F9012411E063
:10361000601E80004D49085A0390039800120690DE
:103620000398002804D00698002801D105200890AE
:10363000601CC4B2062CEBDD02241FE000220C212A
:10364000204609F0BBFB642010F0CEF8012511E004
:10365000681E80004249085A0390039800120690A1
:103660000398002804D00698002801D1052008906E
:10367000681CC5B20A2DEBDD601CC4B2BC42DDDDA6
:103680000898002870D101260AE036480188701E8B
:103690000122D2030241914332480180701CC6B21C
:1036A000062EF2DD3C46A9E0012004907CE0601E7D
:1036B000162148432949411804984000085A002817
:1036C00013D100210498401E214A1154601E40006D
:1036D0002449095A0498401E0122D2030241914311
:1036E000601E40001F4A11525AE0601E16214843D6
:1036F0001A49411804984000085A0390039840055D
:10370000000E069003984007400F05900698401E53
:1037100040001449095A0598401E0122D203024173
:103720001140002929D101210498401E084A115452
:10373000601E40000B49095A0498401E012214E003
:10374000850000209B00002036000020700800202B
:10375000880E002084000020340000205009002042
:1037600088080020760B00205CE0D2030241114360
:10377000601E4000494A115212E000210498401E88
:10378000474A1154601E40004449095A0498421E99
:103790000120C00310418143601E40003F4A115286
:1037A0000498401CC0B2049004980A2800DC7EE70C
:1037B0002146012000F0D6F9601E3A49085C401EFF
:1037C0003949085C06902046069900F0CBF905902F
:1037D0000698A04205D00598401E3149085C012892
:1037E00002D101202E4988720B220E21204609F0B9
:1037F000E5FA0A200FF0F8FF601EC4B2022C00DBCD
:1038000052E701260CE029480078864206D030466F
:1038100000F00EFD002102900AF04CFA701CC6B2B6
:10382000062EF0DD0898002826D164200FF0DCFF7A
:1038300040201F49887102241AE0002201212046FD
:1038400009F0BCFA611E174A515CFF222D32514328
:1038500008460FF0C9FF17480088002801D10890DA
:1038600004E014480088022800D10890601CC4B20B
:10387000114800788442E0DD089800280BD108F058
:1038800083FF08F01BFF64200FF0AEFF002215211C
:10389000FF2009F093FA089809B0F0BD760B0020DC
:1038A000880E0020A80B0020DA0B00209B000020CF
:1038B000180800209800002084000020F8B5054674
:1038C0000026012418E0AC4214D00D4800880012F4
:1038D0000C4908700A480078487008468470032034
:1038E0000A23002211460090204609F0A9F90A2077
:1038F0000FF07AFF601CC4B2062CE4DD3046F8BD40
:1039000034000020880E002000200749C8610748C5
:1039100000690421084305490861084600694021FF
:103920000843024908617047A807002000200240B0
:103930000021084AD1610849096902221143064A57
:10394000116111464861096940221143024A11611F
:1039500070470000A8070020002002400022054B0D
:10396000DA61054A126901231A43034B1A61018087
:1039700070470000A8070020002002400D48C068E2
:1039800010210840102805D10B48C06902210843C6
:103990000949C8610748C06804210840042805D1C6
:1039A0000548C069012108430349C8611420014941
:1039B000C860704700200240A807002070B5044688
:1039C00001F094FB05460BE0601C002808D0002C99
:1039D00004D001F08BFB401BA04201D9032070BD35
:1039E0000F48C068C007C00F0028EDD10C48C06860
:1039F00020210840202801D10949C8600848C06832
:103A000010210840102805D00548C068042108404E
:103A1000042803D1FFF7B2FF0120E0E70020DEE732
:103A200000200240F1B584B0002001900025002460
:103A30000027009048480078029002980EF02EF976
:103A4000064600BF06E0002030556100434A505250
:103A5000601CC4B2404800788442F4DB781CC1B2D8
:103A60000F460498401E3154781CC7B2012525E04A
:103A70000498401E16214843394940186900405AAD
:103A8000002819D00498401E40003449085A691E85
:103A900001228A40104381B20498401E40002F4A00
:103AA00011520498401E162148432D4940186900C0
:103AB000405AC010401E3754681CC5B2062DD7DDD1
:103AC00000BF00200090781CC7B2002435E0315DB3
:103AD000781E81422FD101252BE01620604320491A
:103AE00040186900405A002821D0162060431C4924
:103AF00040186900405AC010401E305C002816D1A2
:103B000060001649085A691E01228A40104361006C
:103B1000124A505216206043114940186900405A19
:103B2000C010401E37540098401CC0B20090681C62
:103B3000C5B2062DD1DD601CC4B2074800788442AE
:103B4000C5DB00980028BCD10198039030460EF0E8
:103B500073F8039805B0F0BD84000020B008002081
:103B600050090020F0B58FB005460E46342102A85A
:103B7000FCF7B6FB002001900024002700901921DB
:103B80005648FCF7ADFB0021681E554A1154554AB2
:103B9000115401211CE0681E16225043524A80181D
:103BA0004A00805A002812D0681E162250434E4AFE
:103BB00080184A00805AC010B04208D10122701EFD
:103BC000474B1A5445480670C8B20FB0F0BD491CA7
:103BD0000629E0DD012009E0A84206D0FF22411EAF
:103BE0003F4B5A5400223F4B5A54401C3F490978DE
:103BF0008842F1DD3BE002A939480FF081FD401C0D
:103C0000C4B2B44200D138E00121601E02AA1154AE
:103C100001202AE0611E16225143334A89184200CE
:103C2000895A00291FD0611E162251432E4A891835
:103C30004200895A49050F0E791E02AA515C0029DB
:103C400011D1611E264A515C491CC9B20191791EED
:103C5000525C01998A4206DD7A1E214B01999954E2
:103C6000791E204A5454411CC8B20628D2DD02A84D
:103C700008F042FA0028BED000BF08E00098411CBE
:103C8000C9B2009115490C54601E16490C5C601EA7
:103C90001449085C0028F1D101211BE0681E16229E
:103CA0005043114A80184A00805A002811D0681EDB
:103CB000162250430C4A80184A00805AC210701EC7
:103CC000074B185C401E054B185C824201D1C8B2FC
:103CD0007BE7491C0629E1DD002076E7DA0B0020AE
:103CE000A80B0020C10B00205009002084000020F8
:103CF000FEB50446002600BF00BF00BF00BF601E27
:103D00001C490D5C322148431B4940184778601E0E
:103D1000322148431849401880780102601E32223F
:103D20005043154A8018C078081880B201906A1F65
:103D3000601E32235843104BC018011D0F48FCF77A
:103D4000B6FA601E322250430B4A115C0C480078D0
:103D5000FFF708FF0290681F80B20090601E3221BA
:103D6000484305490A5C3946019B029808F068FF00
:103D70003046FEBD8D0000205C0D0020880E002026
:103D800085000020004870477021002030B50346B0
:103D9000002400200025156027E000E05B1C1D7852
:103DA000002D02D01D78202DF8D100E05B1C1D787D
:103DB000002D02D01D78202DF8D01D78002D13D0B5
:103DC000641C8C4211D1184603E015686D1C156007
:103DD0005B1C1D78002D02D01D78202DF5D11568B3
:103DE000002D00D1002002E001E08C42D5D300BFBD
:103DF00030BD0000F7B505460126314800680028AF
:103E000035D130482E4908602CE02D480068006804
:103E100007683846FCF792FA0446285D202802D04D
:103E2000285D002819D1224639462846FCF7B1FA08
:103E3000002812D12248006800680C214156002950
:103E40000ADB28460FF01EFE1D49096809680C228E
:103E50008A56904200D0002608E019480068406861
:103E600017490860164800680028CED100BF1448E2
:103E7000006800280AD0002E08D11349029A019840
:103E8000FCF745FA00200E49086017E00C4800686E
:103E900000280DD00A48006800682A468368029905
:103EA000019898470646002E08D10549086005E0AC
:103EB0000649029A0198FCF72AFA00263046FEBD10
:103EC000480300203C03002060A40108B8A40108B6
:103ED00070B505460026002D02D172B600BFFEE780
:103EE000082013F0DDFF0446002C02D172B600BF9B
:103EF000FEE7002C0CD011F003FD2560002060606F
:103F00000448006844600348046011F007FD01267E
:103F1000304670BD440300201CB51E200DF0BEFECF
:103F200004461E212046FCF7DBF90948008B0849AE
:103F3000497D009101900648837D007D401E8000F0
:103F400004490A58044920460DF038FE20461CBD9D
:103F500018080020680000207882010870B5054626
:103F6000002600242BA12846FCF7EFF9002802D1F7
:103F70002948007870BD29A12846FCF7E6F90028F9
:103F800001D1FF20F6E72878232815D1681CFCF71B
:103F900040FAC6B2002E05DD21480078864201DCD9
:103FA0003046E7E71C480078864202D11A4800787C
:103FB000E0E70120C043DDE700240FE00B20604371
:103FC000184A81182846FCF7C0F9002804D128783F
:103FD000002801D0601CCDE7601CC4B210480078F6
:103FE0008442EBDB00240FE00B2060430E4A811873
:103FF0002846FCF7AAF9002804D12002FE21084334
:1040000000B2B7E7601CC4B20A2CEDDB0020C0434D
:10401000B0E700006D65000085000020616C6C0059
:1040200084000020F30B0020E208002010B588B0C7
:10403000002401A909480AF095FE0446002C0AD183
:10404000002106480AF006FC044669468889FCF708
:1040500008FB08B010BD0020FBE70000881D002011
:104060000146134A0868904201D101207047114A65
:104070000868904201D10220F8E70F4A0868904290
:1040800001D10320F2E70D4A0868904201D10420D3
:10409000ECE70B4A0868904201D10520E6E7094A9F
:1040A0000868904201D10620E0E70020DEE700002A
:1040B000004C004000440040001401400048004013
:1040C0000038014000500040FFB581B00C461D464D
:1040D0000A9E00200090019800F0AAF807462C489C
:1040E00087420CD10920C0062060012040021080C8
:1040F0000920C006286001208002308045E0254864
:1041000087420AD10920C0062060042010800920BF
:10411000C00628600820308037E01F4887420AD157
:104120001E4820600120800210801C482860012069
:10413000C002308029E01A4887420AD10920C0060F
:104140002060012010800920C006286002203080F5
:104150001BE01448874208D11048206008201080D6
:104160000E482860102030800FE00F4887420AD1A7
:104170000920C0062060102010800920C006286099
:104180002020308001E0FF200090009805B0F0BDB5
:10419000E81A0020581B0020C81B0020000400481B
:1041A000381C0020A81C0020181D002001480078A1
:1041B000704700009C02002000B587B0002201A9D2
:1041C000194802F09DF9002206A9174802F06AF981
:1041D0006846007BC011401C1449C8740298C00393
:1041E000000CC8816846817910480174684641799D
:1041F0000E484174684601790C4881746846817E96
:104200000A4841756846417E084881756846007EC7
:10421000064908756846C07E7D210901411803489A
:10422000018307B000BD00002815002018080020F9
:1042300000B501460B000DF0ECFC07110507090B5A
:104240000D0F1100064800BD0648FCE70648FAE7D6
:104250000648F8E70648F6E70648F4E70020F2E7E4
:10426000381C0020581B0020181D0020C81B0020EF
:10427000E81A0020A81C002070B50446002520681C
:104280000068400840002168086000F02FFF0546E4
:1042900014E000F02BFF401B7D21C90088420DD99E
:1042A000606B20210843606303212120015500BF7A
:1042B00000212020015500BF032070BD2068006848
:1042C000C007C00F0028E4D101212120015500BF03
:1042D00000212020015500BF0020EEE710B5044664
:1042E000F8492068884255D9F7480068F54A783A75
:1042F0002168914201D108214AE0F24A643A2168DA
:10430000914201D1802143E0EE4A503A2168914226
:1043100001D1C9143CE0EB4A3C3A2168914202D1F8
:104320000121C90334E0E74A283A2168914202D1C9
:104330000121C9042CE0E34A143A2168914202D1D8
:104340000121C90524E0DF4A2168914201D1090514
:104350001EE0DD4A08322168914201D1082117E0B0
:10436000D94A1C322168914201D1802110E0D64AFD
:1043700030322168914201D1C91409E0D24A443255
:104380002168914202D10121C90301E00121C90440
:10439000084055E0CB4880380068CA4A783A21681E
:1043A000914201D108214AE0C64A643A216891420B
:1043B00001D1802143E0C34A503A2168914201D1A2
:1043C000C9143CE0BF4A3C3A2168914202D1012124
:1043D000C90334E0BB4A283A2168914202D1012145
:1043E000C9042CE0B74A143A2168914202D1012154
:1043F000C90524E0B34A2168914201D109051EE0B4
:10440000B14A08322168914201D1082117E0AE4A31
:104410001C322168914201D1802110E0AA4A303239
:104420002168914201D1C91409E0A74A44322168A8
:10443000914202D10121C90301E00121C9040840D0
:10444000002872D02068006808210840C0080028B1
:10445000F7D020680068884321680860994920687F
:10446000884254D9974978392068884201D1082078
:104470004AE0944964392068884201D1802043E0B1
:10448000904950392068884201D1C0143CE08D49E0
:104490003C392068884202D10120C00334E08949B8
:1044A00028392068884202D10120C0042CE08549C7
:1044B00014392068884202D10120C00524E08149D6
:1044C0002068884201D100051EE07F49083120683C
:1044D000884201D1082017E07B491C3120688842BE
:1044E00001D1802010E0784930312068884201D124
:1044F000C01409E0744944312068884202D1012087
:10450000C00301E00120C0046F49486055E06D49D7
:1045100078392068884201D108204BE06949643924
:104520002068884202D1802044E058E06549503933
:104530002068884201D1C0143CE062493C392068BF
:10454000884202D10120C00334E05E492839206846
:10455000884202D10120C0042CE05A491439206855
:10456000884202D10120C00524E0564920688842D3
:1045700001D100051EE0544908312068884201D16C
:10458000082017E050491C312068884201D1802062
:1045900010E04D4930312068884201D1C01409E053
:1045A000494944312068884202D10120C00301E01A
:1045B0000120C004434980394860606B01210843F1
:1045C000606304212120015500BF002120200155F6
:1045D00000BF206B002802D02046216B8847394954
:1045E0002068884255D938480068364A783A2168A8
:1045F000914201D104214AE0324A643A2168914251
:1046000001D1402143E02F4A503A2168914201D123
:1046100009153CE02B4A3C3A2168914202D1012124
:10462000890334E0274A283A2168914202D10121C6
:1046300089042CE0234A143A2168914202D10121D5
:10464000890524E01F4A2168914201D1C9041EE076
:104650001D4A08322168914201D1042117E01A4A0B
:104660001C322168914201D1402110E0164A3032BB
:104670002168914201D1091509E0134A44322168A9
:10468000914202D10121890301E0012189040840FE
:1046900059E00C48803800680A4A783A216891420B
:1046A00001D104214EE0074A643A2168914201D1C8
:1046B000402147E0034A503A2168914206D109154A
:1046C00040E000008000024000040240F74A2168F8
:1046D000914202D10121890334E0F44A1432216865
:1046E000914202D1012189042CE0F04A283221684C
:1046F000914202D10121890524E0EC4A3C32216833
:10470000914201D1C9041DE0E94A2168914201D1D9
:10471000042117E0E64A14322168914201D1402178
:1047200010E0E34A28322168914201D1091509E0DD
:10473000DF4A3C322168914202D10121890301E024
:10474000012189040840002873D0206800680421F2
:104750000840800800286CD02068006820210840AC
:10476000002805D12068006804218843216808607A
:10477000CE493C312068884254D9CC493C39206824
:10478000884201D1042049E0C8492839206888427C
:1047900001D1402042E0C54914392068884201D146
:1047A00000153BE0C1492068884202D10120800306
:1047B00034E0BE4914312068884202D101208004CF
:1047C0002CE0BA4928312068884202D101208005B6
:1047D00024E0B6493C312068884201D1C0041DE084
:1047E000B3492068884201D1042017E0B049143150
:1047F0002068884201D1402010E0AD49283120686E
:10480000884201D1001509E0A9493C31206888425D
:1048100002D10120800301E001208004A44908396D
:10482000486054E0A1493C392068884202D1042004
:104830004AE055E09D4928392068884201D140204E
:1048400042E09A4914392068884201D100153BE0C2
:1048500096492068884202D10120800334E09349C0
:1048600014312068884202D1012080042CE08F4955
:1048700028312068884202D10120800524E08B493C
:104880003C312068884201D1C0041DE0884920687D
:10489000884201D1042017E08549143120688842FC
:1048A00001D1402010E0824928312068884201D19E
:1048B000001509E07E493C312068884202D1012080
:1048C000800301E0012080047849443948601121C7
:1048D00021200155E06A002802D02046E16A88477D
:1048E00072493C312068884255D9714808380068BF
:1048F0006E4A3C3A2168914201D1022149E06B4A5B
:10490000283A2168914201D1202142E0674A143AB5
:104910002168914201D149153BE0644A21689142E6
:1049200002D10121490334E0604A143221689142E6
:1049300002D1012149042CE05C4A283221689142CD
:1049400002D10121490524E0584A3C3221689142B4
:1049500001D189041DE0564A2168914201D102210A
:1049600017E0534A14322168914201D1202110E00E
:104970004F4A28322168914201D1491509E04C4A39
:104980003C322168914202D10121490301E0012119
:104990004904084054E0454844380068434A3C3ADA
:1049A0002168914201D1022149E0404A283A216818
:1049B000914201D1202142E03C4A143A21689142BF
:1049C00001D149153BE0394A2168914202D10121C8
:1049D000490334E0354A14322168914202D1012161
:1049E00049042CE0314A28322168914202D1012148
:1049F000490524E02D4A3C322168914201D18904C5
:104A00001DE02B4A2168914201D1022117E0284A7A
:104A100014322168914201D1202110E0244A283229
:104A20002168914201D1491509E0214A3C322168AF
:104A3000914202D10121490301E0012149040840CA
:104A400000286FD020680068022108404008002834
:104A500068D02068006820210840002805D120681F
:104A60000068022188432168086010493C312068B1
:104A7000884258D90D493C392068884201D102202A
:104A80004CE00A4928392068884201D1202045E0BD
:104A9000064914392068884201D140153EE0034997
:104AA0002068884206D10120400337E044000240DC
:104AB000080402404E492068884202D10120400487
:104AC0002CE04B4914312068884202D10120400576
:104AD00024E0474928312068884201D180041DE044
:104AE00044492068884201D1022017E0414914312D
:104AF0002068884201D1202010E03E4928312068FA
:104B0000884201D1401509E03A493C312068884289
:104B100002D10120400301E0012040043549083959
:104B2000486054E063E0324950392068884201D13E
:104B3000022049E02E493C392068884201D12020DA
:104B400042E02B4928392068884201D140153BE0DA
:104B5000274914392068884202D10120400333E0FC
:104B600023492068884202D1012040042CE02049DA
:104B700014312068884202D10120400524E01C49FC
:104B800028312068884201D180041DE0194920683D
:104B9000884201D1022017E016491431206888426A
:104BA00001D1202010E0134928312068884201D12A
:104BB000401509E00F493C312068884202D10120AC
:104BC000400301E001204004094958394860606B06
:104BD000606301212120015500BF002120200155E3
:104BE00000BFA06A002802D02046A16A884710BDF5
:104BF000580002400804024001460022002901D169
:104C0000012070472120405C002802D10023202091
:104C10004354022321204354086802680C48024090
:104C20008B6848681843CB6818430B6918434B6975
:104C300018438B691843CB69184302430868026024
:104C4000002048630123212043540020D9E70000BD
:104C50000FC0FFFFF8B504460D4616461F4600BFBD
:104C60002020005D012801D10220F8BD0121202073
:104C7000015500BF0221212001552068006840082D
:104C80004000216808603B46324629462046FDF731
:104C900001FB206800680221084321680860206841
:104CA0000068042108432168086020680068082122
:104CB00008432168086020680068012108432168D2
:104CC00008600020D1E731B5002400F00FFA044657
:104CD00000BF00F00BFA001B00998842F9D338BDE1
:104CE000F8B504460E460127002500BF2448007E83
:104CF000012801D10220F8BD01202149087600BF1A
:104D00002068012811D11F48FEF758FE002830D135
:104D1000FEF7FAFD1B48FEF751FE07461A480069E8
:104D2000042188431849086123E01648FEF746FE2F
:104D300000281ED1401E3060656813E02846FEF74B
:104D4000F7FD1048FEF73AFE07460F4800690221BA
:104D500088430D490861002F01D0356008E001202B
:104D6000C0022D18A168C90260684018A842E5D8A1
:104D700000BF00BF00200249087600BF3846BAE7EE
:104D8000A807002050C3000000200240034800692B
:104D9000802108430149086100207047002002403B
:104DA000F0B51FB486B0074615461E460120039095
:104DB00000240020029000BF2548007E012802D177
:104DC00002200BB0F0BD01202149087600BF214828
:104DD000FEF7F4FD03900398002831D1012F02D192
:104DE0000120029006E0022F02D10220029001E091
:104DF0000420029000241FE0220128463146049638
:104E00000595FBF730FA80B2610001900798081809
:104E100000900199FEF7A2FD0E48FEF7CFFD03902A
:104E20000D480069400840000B49086103980028BC
:104E300000D004E0601CC4B202988442DCDB00BFF6
:104E400000BF00200249087600BF0398B9E70000C0
:104E5000A807002050C30000002002400748006956
:104E600080210840002805D00548044948600548CD
:104E7000486001E0012070470020FCE7002002406C
:104E800023016745AB89EFCD7047000010B504469C
:104E9000054840692040002804D00348446120466A
:104EA000FFF7F2FF10BD00000004014078B5034693
:104EB000002200240020E3E0012696400D683540E2
:104EC0002C46002C7ED04D68022D02D04D68122D4C
:104ED00015D1D508AE001D462035A8595507EE0E50
:104EE0000F25B5400646AE4330465607F60E0D690F
:104EF000B5402843D508AD001E46203670511868CD
:104F000056000325B5400646AE4330460D79AD0741
:104F1000AD0F5600B540284318604D68012D08D0EC
:104F20004D68022D05D04D68112D02D04D68122D0F
:104F300018D1986856000325B5400646AE43304662
:104F40005600CD68B54028439860586801259540C3
:104F50000646AE43304610264D6835402D09954033
:104F600028435860D86856000325B5400646AE432E
:104F7000304656008D68B5402843D8600126360774
:104F80004D683540B5427AD100BF404DAD6901262C
:104F900035433E4EB5613546AD69ED07ED0F0095E1
:104FA00000BF00BF3A4D9608B600A85995072E0FCE
:104FB0000F25B5400646AE4330460925ED06AB4207
:104FC00003D100E05BE0002514E0324DAB4201D19B
:104FD00001250FE0304DAB4201D102250AE02F4DF3
:104FE000AB4201D1032505E02D4DAB4201D1042593
:104FF00000E005259607360FB5402843244D960856
:10500000B600A851274D28680546A5432846012625
:1050100036044D683540B54202D105462543284641
:10502000204D286068680546A54328460126760479
:105030004D683540B54202D1054625432846194DF5
:105040006860A8680546A5432846012636054D68D0
:105050003540B54202D1054625432846114DA8608A
:10506000E8680546A5432846012676054D68354083
:10507000B54202D10546254328460A4DE860521C38
:105080000D68D540002D00D016E778BD0010024015
:10509000080001400004004800080048000C0048D7
:1050A0000010004800040140024613690B40002B29
:1050B00001D0012000E00020704742694A4042616F
:1050C0007047002A01D0816100E0816270470000D2
:1050D000024800680005000D7047000000580140BC
:1050E00001480068000C7047005801400148006802
:1050F000704700001400002002463520805C022822
:105100000FD03520805C12280BD03520805C2228FF
:1051100007D03520805C322803D03520805C4228BF
:1051200001D10220704700BF3420805C012801D1EA
:105130000220F7E701233420835400BF02233520E7
:1051400083541068006840084000136818601068B5
:10515000006801231B0398431368186010680068F7
:105160000843136818601068006801231843136827
:10517000186001233520835400BF0023342083545A
:1051800000BF0020CEE710B502460B4600213520B7
:10519000805C02280FD03520805C12280BD035208F
:1051A000805C222807D03520805C322803D035204F
:1051B000805C422801D1022010BD00BF3420805CF9
:1051C000012801D10220F7E701243420845400BFD4
:1051D0000224352084541068006840084000146898
:1051E0002060106801680F2424020846A04301468D
:1051F0001802014310680160106800680124204310
:105200001468206001243520845400BF0024342019
:10521000845400BF0020CFE710B5044620688069A1
:10522000FF2101310840000A00280DD020680068E5
:1052300080210840C009002806D0A06B0121084346
:10524000A06308022168C861206880690121890281
:105250000840800A00280DD020680068802108409E
:10526000C009002806D0A06B08210843A063C8012C
:105270002168C86120688069012149020840400A0C
:1052800000280DD02068006880210840C00900284F
:1052900006D0A06B02210843A06308022168C86100
:1052A000A06B0B210840002805D0012135200155B5
:1052B000204600F0EEF810BD10B504462068806965
:1052C000022108404008002822D1206880698021FE
:1052D0000840C00900281BD120688069402108408F
:1052E0008009002814D120688069202108404009E5
:1052F00000280DD12068806910210840000900288D
:1053000006D12068806908210840C008002811D013
:10531000206800687A2108407A2801D1012000E045
:105320000020012806D13520005D322802D1204618
:1053300002F035FB206880690221084040080028FF
:105340001BD12068806980210840C009002814D141
:105350002068806940210840800900280DD120681C
:105360008069202108404009002806D12068806912
:10537000102108400009002815D02068006872211B
:105380000840722801D1012000E0002001280AD144
:105390003520005D122803D03520005D522802D14F
:1053A000204602F0CDF92068806904210840800879
:1053B000002822D12068806980210840C009002887
:1053C0001BD120688069402108408009002814D141
:1053D0002068806920210840400900280DD12068FC
:1053E0008069102108400009002806D120688069E2
:1053F00008210840C008002811D0206800687C21DE
:1054000008407C2801D1012000E00020012806D1BD
:105410003520005D422802D1204602F053FA206870
:10542000806904210840800800281BD12068806919
:1054300080210840C009002814D1206880694021DB
:105440000840800900280DD120688069202108408B
:105450004009002806D12068806910210840000911
:10546000002815D02068006874210840742801D1F4
:10547000012000E0002001280AD13520005D22280B
:1054800003D03520005D622802D1204602F096F854
:1054900010BD704710B50446002C01D1012010BD8D
:1054A0003520005D002805D100213420015520461B
:1054B00000F0A4F902213520015520680068400859
:1054C0004000216808600F21090660688843216850
:1054D0000861206880680121C903884321688860C9
:1054E000A06800280FD0E068012806D10121C90377
:1054F000A06808432168886005E021218902A0682E
:10550000084321688860E068022802D1800221688F
:105510004860206840680F49084321684860616915
:1055200020690843A169090208432168C860216A0B
:10553000E069084321680860206800680121084389
:10554000216808600020A06301213520015500205A
:10555000A5E700000080000270477047FFB581B0EA
:10556000044616461D4600273520005D01287DD1E2
:10557000002E01D0002D02D1012005B0F0BD206821
:1055800080690121C9030840C00B002801D0022016
:10559000F3E700BF3420005D012801D10220ECE7D1
:1055A00001213420015500BF222135200155002062
:1055B000A063FF2D0BDD0920800201231B06FF22C3
:1055C00000902046029902F061FAFF270AE00920C4
:1055D0008002EAB201235B0600902046029902F0A5
:1055E00055FA2F4600BF0022042120460A9B02F0F4
:1055F00065FA002801D00320BFE72068406A3070B8
:10560000761C7F1E681E85B2002F22D1002D20D06F
:105610000022802120460A9B02F050FA002801D087
:105620000320AAE7FF2D0ADD002001231B06FF222D
:1056300000902046029902F029FAFF2709E0002095
:10564000EAB201235B0600902046029902F01EFA9E
:105650002F46002DC7DC1921204602F084FA0028CD
:1056600007D0A06B042802D1012086E714E00320B4
:1056700083E720202168C861206840680749084006
:105680002168486001213520015500BF00213420E8
:10569000015500BF002070E702206EE700E800FE21
:1056A000FFB583B0044616461D460C9F00200290AD
:1056B0003520005D01287DD1002E01D0002D02D1C2
:1056C000012007B0F0BD206880690121C9030840AE
:1056D000C00B002801D00220F3E700BF3420005D9A
:1056E000012801D10220ECE701213420015500BF3F
:1056F0001221352001550020A063FF2D0BDD012074
:105700004003C302FF2200902046049902F0BEF934
:10571000FF20029009E001204003EAB20303009059
:105720002046049902F0B2F9029500BF394620469E
:1057300002F047FA002806D0A06B042801D101200E
:10574000BFE70320BDE7307821688862761C0298A5
:10575000401E0290681E85B20298002823D1002DB9
:1057600021D03B4600228021204602F0A7F90028E4
:1057700001D00320A5E7FF2D0BDD002001231B0630
:10578000FF2200902046049902F080F9FF20029049
:1057900009E00020EAB201235B060090204604994C
:1057A00002F074F90295002DC0DC3946204602F063
:1057B000DAF900E01BE0002806D0A06B042801D134
:1057C00001207EE703207CE720202168C861206853
:1057D000406808490840216848600121352001558A
:1057E00000BF00213420015500BF002069E70220DE
:1057F00067E7000000E800FE704770477047704799
:105800007047000002480068401C0149086070476A
:105810001400002010B50648006810210843044910
:105820000860002000F006F800F017F8002010BD16
:105830000020024070B5044600F054FA06467D216F
:10584000C900FAF7A9FC054601F04CF800222146F0
:10585000501E00F00FF8002070BD704700BFC20658
:10586000D20E01219140024A116000BF7047000032
:1058700000E100E070B504460D4616462946204674
:1058800003F0A2FA70BD000003480068FF21013157
:10589000084301490860704700700040F8B50446AD
:1058A000002500260121090420680840884266D1AD
:1058B0005648006A03210902084003221202616867
:1058C000114088425BD000BF5048C06901210907E0
:1058D00008434E49C8610846C06909040840009061
:1058E00000BF00BF4A4800680915084348490860DE
:1058F000FFF7FCFB054606E0FFF7F8FB401B6428BA
:1059000001D90320F8BD42480068FF210131084059
:105910000028F1D03D48006A032109028843064669
:105920003A48006A012109040843384908620846D8
:10593000006A012109048843344908620846066266
:1059400002203040002811D0FFF7D0FB054607E0C9
:10595000FFF7CCFB401B2F49884201D90320D1E738
:105960002A48006A022108400028F1D02748006A2E
:1059700003210902884361680843244908622078AA
:10598000C007C00F002807D02048006B80088000A7
:10599000A16808431D4908630221206808400228C5
:1059A00008D11A48006B032109048843E1680843C1
:1059B000164908630121890420680840884208D1FB
:1059C0001248006B032189048843216908430F4969
:1059D0000863202120680840202807D10B48006B6D
:1059E000102188436169084308490863012189023D
:1059F00020680840884207D10448006B4021884352
:105A0000A16908430149086300207BE700100240B8
:105A1000007000408813000070B504460E46002553
:105A2000AD480068C007C00FB0426ED2AA480068F7
:105A3000400840003043A849086008460068C00795
:105A4000C00FB04201D0012070BD02212068084083
:105A5000022807D1A1484068F0218843A168084383
:105A60009E4948602078C007C00F002848D0606871
:105A7000012808D1994800680121490408400028FC
:105A800021D10120E0E76068022808D1934800682E
:105A9000012149060840002815D10120D4E760689B
:105AA000032808D18D48406B0121090408400028D3
:105AB00009D10120C8E78948006802210840002870
:105AC00001D10120C0E785484068800880006168F6
:105AD000084382494860FFF709FB054660680128D2
