:020000040800F2
:10000000C86F0020410100086B010008516600081C
:1000100000000000000000000000000000000000E0
:1000200000000000000000000000000029A20008FD
:100030000000000000000000FF000008CDB500082F
:1000400075010008750100087501000875010008B8
:1000500075010008750100081130000875010008DD
:10006000750100088920000895200008D9200008A3
:100070007501000875010008750100087501000888
:100080007501000875010008750100087501000878
:100090007501000875010008750100087501000868
:1000A00055660008750100087501000889BE000842
:1000B00099BE0008A9BE00087501000803488546DE
:1000C00000F0D2FD0048004739030108C86F002046
:1000D000064B19680868203080F30988022080F3F5
:1000E00014883FBCAE4662B600BD00004C0600203E
:1000F000EFF3108072B6704780F310887047EFF30B
:1001000009800E4B1A6820381060F0C044464D46F6
:1001100056465F46F0C008B572B613F04AF962B6AB
:100120000CBC116808681030F0C8A046A946B24659
:10013000BB4680F309882038F0C818474C060020D9
:100140000D480E49026800608A4203D00C4880477F
:100150000C4800470C480D4901600D480B490160EF
:100160000C4801688D4640680047FEE7FEE7FEE761
:10017000FEE7FEE7FEE70000F07F0020EFBEADDE09
:100180007DB60008BD000008181002400100000004
:100190000000014000D8FF1F30B50B46014600208B
:1001A0002022012409E00D46D5409D4205D31D467D
:1001B0009540491B2546954040191546521E002D75
:1001C000F1DC30BD70B500242546002801DA012499
:1001D0004042002901DA01254942FFF7DDFFAC4228
:1001E00000D04042002C00D0494270BDF0B51FB491
:1001F00086B000200090019002900698069980B287
:1002000004900798090C020400141143079000277A
:10021000089D099806913E463C4603900398A9B272
:100220000204000C039004982D0C15434843002150
:10023000224600F091FAC719714110340E46402C45
:10024000ECDB3846029A00F087FA009A019B80188E
:100250000090594102980191103002904028CCDB67
:1002600000980BB0F0BD10B5202A04DB0846203AF8
:10027000D040002110BD0B46D340D0402024A21A0C
:1002800091400843194610BD00487047504401088A
:1002900010B50446FFF7F8FF0068005DC007C00F07
:1002A00010BD01464139192900D820307047034656
:1002B0000B439B0703D009E008C9121F08C0042A9A
:1002C000FAD203E00B780370401C491C521EF9D28D
:1002D0007047D2B201E00270401C491EFBD2704749
:1002E0000022F6E710B513460A4604461946FFF702
:1002F000F0FF204610BD421E5378521C002BFBD14C
:100300000B781370491C521C002BF9D1704710B5A3
:10031000044605E00B780370401C002B00D0491CFC
:10032000521EF7D2204610BDCAB2401E4178401C72
:100330008A4202D00029F9D100207047421C01787E
:10034000401C0029FBD1801A704710B5002200E044
:10035000521C835C8C5CA34201D1002BF8D1D8B233
:10036000E1B2401A10BD30B504460020034600E05B
:100370005B1C934203D2E05CCD5C401BF8D030BDE7
:1003800003460A780270401C491C002AF9D118461D
:10039000704730B505460020034600E05B1C9342E1
:1003A00005D2EC5CC85C201A01D1002CF6D130BD1E
:1003B00070B5104D002800D12868002414E00A46CA
:1003C00002E09E4203D0521C1378002BF9D1DAB21E
:1003D000224307D0002B06D0002C04D0002101704E
:1003E000401C04E00446401C0678002EE7D128603B
:1003F000204670BD3C06002070B506460EF068FB36
:10040000046805460A220021304600F007FA2C60F5
:1004100070BD70B506460EF05BFB046805460A2207
:100420000021304600F0FAF92C6070BDF8B50246A4
:100430004A40D40F42004B0052085B089A4202D255
:100440000246084611464A0023D0C30D4A00DDB2D9
:10045000120EAD1A202D35DA49020126490AF60599
:100460008A19002C00D0524220214F1B1146B9405E
:100470002A411018C20D9A4221D0002C17D0012D0C
:1004800008DCDA05801AD20F8019D207DBB200F03F
:1004900005FAF8BDDA05801A012340001B06C018D2
:1004A00080185A428018CA0F1043490007E04908D3
:1004B000C2071143DA05801A80194008801800F03D
:1004C000E5F9F8BD61000122511A001BF7E701228E
:1004D000D2075140AAE70122D2075040A6E770B5E3
:1004E00002464A40D50F40004A00ED074008520836
:1004F000002814D0002A12D0C40DD30D41020120CF
:10050000C0055202490A520AE41A091812187D3429
:10051000914201D3641C00E04900002C01DA002064
:1005200070BD0023914201D3891A0343400849005A
:100530000028F7D100290AD0914202D10121C90730
:1005400005E0914201D2012101E00121C943E0050A
:10055000C018401900F09AF970BD0000F0B50C46C3
:100560005C4085B0E40FE40703944C000026640867
:1005700059009446490802460296224321D0624619
:100580000A431ED06200570D4A000E032303550D87
:10059000012402462C492405781B1B0B360B4018FE
:1005A00023432643614600901C46501AB44103D3AE
:1005B0000098401C009002E0921800985B410028CF
:1005C00003DA0020014605B0F0BD00200121090535
:1005D0000746864611E064461D46141BB54106D306
:1005E0006546521BB341744607430C43A646CD07EC
:1005F00040084908284392185B4105460D43EAD15B
:100600001046184313D060461946504071400843C5
:1006100006D06046101AB34106D20122002306E03C
:1006200000220123DB0702E00122D243531000988D
:1006300074460105381C6141029C039D0019694103
:1006400000F065F9BFE70000FD030000C217C10F0D
:10065000504010B54018CA079623002100F01EF93B
:1006600010BD10B500229623114600F017F910BDF9
:10067000C20FD207400040080BD0C10D0723DB0199
:10068000C91840020905400A1143C2084007114336
:100690007047002001467047CB0FDB07490010B5BB
:1006A000490802460A4307D00A0D07240903E4015A
:1006B000090B121B002A01DC002010BDC900440FE9
:1006C0000C43C100E018D205801800F0DFF810BD1F
:1006D0000122D207002800DB101A002900DB511A82
:1006E000814270470122D207002800DB101A00293E
:1006F00000DB511A88427047F0B51FB4064600204F
:1007000082B005464024019100901BE001992246E9
:100710000F463046FFF7A7FD049A059B801A9941C2
:1007200010D310461946224600F016F8361A8F41AB
:100730000197224601200021009F00F00DF8381893
:100740004D4100902046641E0028DFDC019B00988C
:100750002946324607B0F0BD10B5202A04DB014619
:10076000203A9140002010BD914020239C1A03465E
:10077000E3401943904010BD0FB400B589B00CA9F7
:1007800000910B990023CB60204B214A06930792DE
:10079000042201921F4A02921F4A089202466B46A7
:1007A000002000F016FB09B008BC04B0184770B573
:1007B00086B006460020C0430190002015460C4636
:1007C0000091029104903246694604A8FFF7D4FFD5
:1007D000024604982118002D05D0002801D00846B3
:1007E00000E020462860049800280DD0002A02DD91
:1007F0000098884208D0081B019000943246694650
:10080000029404A8FFF7B8FF06B070BD29100008D5
:1008100049100008FFFFFF7F91020008F7B5009C18
:100820000F4600262578641C002D05D0FFF72CFD0F
:100830000068405DC007F5D12B2D02D02D2D18D0BA
:10084000641E39462046029A00F010FC002F04D0A6
:100850003968A14201D1009939607105022400294B
:100860000BDA4042002803DD0EF032F90460A007E5
:10087000FEBD012080020643E3E70028F8DA0EF00F
:1008800027F904600048FEBDFFFFFF7F002904DA5E
:10089000401C490001D140084000704770B400245A
:1008A000050C05D11024000402D1002921D0112407
:1008B000050E01D100020834050F01D10001241DED
:1008C000850F01D18000A41C002801DB4000641CBE
:1008D000002908D020252E1B0D46F540A14000D050
:1008E00001212943084301061B1B000ADB1D02D519
:1008F000002070BC7047DB05181880180029F8DA52
:10090000401C4900F5D170BC40084000704710B54C
:10091000002B08DA0024401C614192185B411A4305
:1009200001D14008400010BDF0B51FB482B00546AB
:100930000C0003D008460EF0A7F802E00EF0A4F871
:1009400020300246009021462846FFF705FF049B11
:10095000059A04460F4618431143084314D018461D
:1009600010431BD0009840210A1A18460599FFF73A
:100970007AFC05460E46009A05990498FFF7ECFEAE
:10098000084305D0012004E02046394607B0F0BDF9
:100990000020C11705430E432C43374300990E989E
:1009A0006305401A7905E40A00220C43FD0A0A3067
:1009B00002D500200146E9E70105101969410C9CA8
:1009C0000D9D00196941FFF7A2FFDFE7F0B507466B
:1009D0000846584087B0C00F049048000E465900A2
:1009E00040084908BC1A884105D2384631461E469F
:1009F00017460B4602465800400810434CD0300DB5
:100A0000039040055900400D490D0590401A029091
:100A1000402872DA18030121000B090508430190F0
:100A200004980092002805D0019952420020884184
:100A300000920190029840210A1A01990098FFF74C
:100A40008BFE05460C466B4607CB00F01FF9C0191C
:100A50007141039A0E0D0023D71756401A467A406B
:100A6000164344D0049A002A2DD0029A012A039AF0
:100A700015DC1205C01A914101263605001C714192
:100A8000D20F059ED2070093019202962A46234672
:100A9000FFF74AFF07B0F0BD38463146FAE71605C2
:100AA000224A0F46B218C01AB74101210905001C9D
:100AB0004F4100187F41114618187941E20F104349
:100AC0006D19644113E0E2076D0815436408C2071D
:100AD0001443039A01261205C01A91413605001CE1
:100AE0007141CE07400830434908C01851412A4699
:100AF0002346FFF70CFFCDE7FFE7049801224000F3
:100B0000C117121A00238B4104983146C417381AB2
:100B1000A141EEE730B40124E407634030BC55E75F
:100B200030B40124E407614030BC4FE70000E0FF2F
:100B3000F0B51FB488B00B99099800244840099972
:100B4000C00F490049080991C0070B99009049005E
:100B500049080B9109990898A64608431CD00B999F
:100B60000A98084318D0099801244000420D480013
:100B7000410D099824050003000B204309900B98B0
:100B80000003000B20430B9050181C494018002212
:100B900001901446104605E0002001460DB0F0BD5E
:100BA000032801DA034600E003239C46C11A0AAE7B
:100BB0000AE05F0008ADED5B4F00F75B7D43002767
:100BC000AA187C41491C5B1E6145F2DD410004AB63
:100BD0005A522104120C0A43240C401C0828DFDB63
:100BE000019802900099704601910090059B049A2B
:100BF00007990698FFF798FED0E700000DFCFFFF6D
:100C00004A0009030123090B1B0519430A4B10B5C0
:100C1000520D9A4202DA0020014610BD064B3433D1
:100C20009A4203DC9A1AFFF71EFB10BD034BD21841
:100C3000FFF792FD10BD0000FF030000CDFBFFFF9A
:100C400010B5002904DB0124E40740428C41214611
:100C5000002B04DB1C460123DB075242A3419942CF
:100C600000D1904210BD0000064C0125064E05E063
:100C7000E36807CC2B430C3C98471034B442F7D3BD
:100C8000FFF720FAE86601080867010810B5202A76
:100C900006DBCB170846203A1041C1170B4306E08C
:100CA0000B461341D0402024A21A91400843194614
:100CB00010BD0000FFB5087889B01546FF2805D0A3
:100CC000491C2D2804D00022002407E000240BE05A
:100CD0000122F9E70A235C430419491C0878FF281C
:100CE000F8D1002A00D06442002004902A780146FE
:100CF0002D2A01D02B2A0FD16D1C2D2A02D00022C3
:100D0000049209E00122FBE700260A2233466D1C0B
:100D1000FFF76CFA381871412F78FF2FF4D10C9A35
:100D2000A218069202460A4304D0FF23069A913382
:100D3000DA4205DA002109980A4606C00DB0F0BD76
:100D40000024B74AB54D2646079200F0F1F902900B
:100D500006980391002801DA474200E0074639056A
:100D60000020AF4A001C51410191009012E0F807A9
:100D700007D022462B4630460799FFF7D9FE064694
:100D8000079122462B4610461946FFF7D1FE04462E
:100D90000D467F10002FEAD10698019B0028009A8B
:100DA0000399029806DAFFF7D9FB3246079BFFF753
:100DB000D5FB05E0FFF7BCFE3246079BFFF7B8FE08
:100DC000049A002A02D00122D2075140099A03C294
:100DD000B4E7FFB591B0002009900025ED432E2027
:100DE0009E685C681F460190B9696D1C129888471F
:100DF0000090396A88470028F6D10098401C0AD034
:100E00000D20C0018443002E12DD00982B2809D04C
:100E10002D280DD103E00020C04315B0F0BD012006
:100E200080020443B9696D1C12988847761E0090B1
:100E300003A9600501D52D2000E02B206A46107320
:100E4000491C0CA80F9102900AE0B9696D1C129818
:100E5000884700900120400204431398761E0560E5
:100E6000002E02DD00983028EFD0019900988842CA
:100E700046D18020044308E00998401E09900120D3
:100E8000400204431399681C0860B9696D1C761E02
:100E90001298884700903028EED031E001998842BE
:100EA00005D1200603D480200443761E1EE000985E
:100EB0000DF03EFF002826D001204002044307A980
:100EC0000F980331761E88420BD200980F99303864
:100ED00008700F98401C0F90200607D50998401EF7
:100EE00003E0200602D40998401C0990A00502D511
:100EF0001399681C0860B9696D1C129888470090A6
:100F0000002ECBDC59E0002E57DD0098652801D07B
:100F1000452852D1A00550D5032000028443B96969
:100F20006D1C761E129888470090002E0CDD2B2831
:100F300004D02D2808D1FF2001300443B9696D1C6D
:100F400012988847761E0090E00501D52D2100E01B
:100F50002B21029801700298401C0290019025E01C
:100F60000120400204430EA902980131761E8842F6
:100F70000ED20098029930380006000E087003D196
:100F80000299019881420AD90298401C029006E019
:100F9000E00501D5234801E0224840420990B969A3
:100FA0006D1C12988847009013980560002E04DD90
:100FB00000980DF0BDFE0028D2D1F969129888473B
:100FC0000F99FF200870029903AA087000200A9068
:100FD0000B900CA90AA8099BFFF76CFEA00502D490
:100FE0000120C04319E72420044209D0E00713D1AF
:100FF00038680B9A0A99031D3B60006806C00BE035
:101000000B990A98FFF748FB0146E00704D13868BE
:10101000021D3A60006801602846FEE600001440A8
:101020000000F03FF1D8FFFF4268002A08D00168B5
:101030000B78491C002B03D0521E06C0184670477F
:101040000121C160881E70474268002A0BD0C36826
:101050000168002B07D183688B4204D0491E521CC3
:1010600006C0002070470020C0437047F7B582B02B
:10107000029C00272078641C15460197302802D076
:10108000002D15D015E020780127641C782804D0A5
:10109000582802D0002D09D00BE0002D01D0102DD2
:1010A00007D1002710252078641C02E0082500E005
:1010B0000A250026009610E00099012769430818C8
:1010C000020C294680B2714300908E183804864283
:1010D00001D3012001902078641C294600F019F802
:1010E0000028E9DA0398002805D0002F01D0641EFB
:1010F00000E0029C04600198002806D00DF0E8FC96
:1011000002210160C81E05B0F0BD009930040843FB
:10111000F9E73A2800D23038202302469A43412A80
:1011200001D310463738884201D30020C0437047AE
:101130000EB5054A02920022009213460192FFF773
:10114000F3FB03B000BD00003304000070B58C1841
:101150000578401C6B075B0F01D10378401C2A11F6
:1011600006D10278401C03E006780E70401C491C32
:101170005B1EF9D12B0705D40023521E0DD40B7032
:10118000491CFAE70378401CCB1A921C03E01D7837
:101190000D70491C5B1C521EF9D5A142D8D300200A
:1011A00070BD0000F3B581B0002100910024334EE2
:1011B000401E45000A20604381190298FFF7C5F8D8
:1011C000002811D0641C0A2CF4DB00242C4FA00052
:1011D000C1190298FFF7B9F800280DD0641C042C3F
:1011E000F5DB0124274F13E0274A0120515BA04083
:1011F000014351530098FEBD0620FEBD0A2023493D
:10120000604341180298FFF7A0F8002806D0641C3C
:1012100078788442F2DB1E48B86310E00720FEBDF8
:10122000006804682046FFF789F8024621460298C4
:10123000FFF7AFF8002817D0B86B4068B863B86BF9
:101240000028EDD1002420460A214843305C0028C4
:101250000CD0641C0A2CF6DB0B4A0120515BA04029
:10126000014351530098FEBD0820FEBD0A20604393
:1012700080190299FFF784F8EEE700003A08002091
:101280003241010818000020460C0020410B0020CC
:101290005C030020F3B58DB00C4600200B90414E4E
:1012A000B07A002808D04048A50040590FF0CEF889
:1012B0003E4840590FF0CAF83D4904200855B07A1D
:1012C000002804D0204602F02FFD04F066FD02A89D
:1012D000009004AB03AA05A9204602F097FC6846DB
:1012E000808906900120079000250895099506A998
:1012F000059803F0EBFA68460089069007950220EE
:10130000089006A9049803F0E1FAE100294A61185F
:1013100089180D984870601E85002E46EC36B0B2D4
:1013200001A901F0EBFD0D9A210312021143B21C39
:10133000771CEF3589B20C92002813D00191B0B21E
:1013400001F050FEB8B2002101F04CFE0C980021D3
:1013500080B201F047FEA8B2002101F043FE0B98D5
:101360000FB0F0BD68468088000A0209A24206D18B
:1013700002070D98120F824201D10020F0E701917F
:10138000B0B201F02FFEB8B2002101F02BFE0C9894
:10139000002180B201F026FEA8B2002101F022FE59
:1013A000DDE70000180000200815002024150020AB
:1013B000D2010020410F0020F8B50F4601280FD0C0
:1013C0002C4E2D4D31781422491E514349190228C3
:1013D0000AD0032846D10120087408F0F7FF41E045
:1013E000384606F095FBF8BDC868002823D0FEF704
:1013F000A5FF04463846FEF7A1FF011930781422F4
:10140000401E50434019891CC0680FF0A1FD31787F
:101410001422491E51434919C860611C40183946BD
:10142000FEF7AEFF30781422401E132150434019BE
:10143000C06801550EE03846FEF780FF401C0DF0F5
:101440007DFB31781422491E51434919C860394641
:10145000FEF796FF30781421401E48434019C168BA
:10146000002901D00020F8BD1421FEF739FF0E201D
:10147000F8BD000070020020A4120020F0B587B073
:101480000E9E0F9D0D9C7D273F01D21B6F46FA7665
:101490007876B9763B76002206A91D4804F004FB55
:1014A000002802D0FF2007B0F0BD69460E714C71D4
:1014B0000C988871002005901822164C0C2E00D92B
:1014C00062730C21012D0BD0022D0DD0627300220E
:1014D00001A90F4804F058FB00280AD0FF20E2E7DA
:1014E0006A4610736173F2E740206A4610736173B5
:1014F000EDE7607B010220790143FF201B3001F002
:1015000071FD054A0121024804F029FA0020CAE7CA
:10151000781100206C100020F2320000F8B507F0BE
:10152000ABFE02F0CDFB01F0D1FA02F083FA00F03D
:1015300031FE0AF045F900F097FA0AF013F905F0C8
:10154000A5FB002803D001F0B1FA06F0F7F905F089
:101550000FFC0127344D002813D02F73322009F0DF
:101560002BFE06F035F9E120304E4002B060012438
:101570002046B1680AF022FD641CE4B2062CF7D9BB
:1015800004E0322009F018FE06F022F905F078FE9A
:101590000AF01EFD09F028FDA87801260924F602AC
:1015A000E406002831D001223146204603F045FAF6
:1015B000FF20F53009F000FE00223146204603F0FE
:1015C0003CFA642009F0F8FD01223146204603F080
:1015D00034FA642009F0F0FD00223146204603F081
:1015E0002CFA642009F0E8FD01223146204603F080
:1015F00024FA642009F0E0FD00223146204603F081
:101600001CFA08F0F1FDAF72F8BD01223146204608
:1016100003F013FAFF20F53009F0CEFD0022314629
:10162000204603F00AFAECE7180000206C100020B6
:101630008CB00025002000900124B048005D0128F6
:1016400001D0002874D1AE48001920380B90C67F15
:1016500031E03F2E0ADA601E8101AA480818815D38
:10166000482903D1801940785A2802D03F2E02D051
:101670000CE0354621E0601EA2498001421820326C
:10168000D27F482A02D1085C5A2802D03F2E02D0CD
:1016900010E03F2511E00B98C07F9A49621E92012D
:1016A000511803E00A5C0D2A0DD0401C4028F9DBDC
:1016B00001200090761C402ECBDB0098002816D02D
:1016C0000020009011E100220A540B99401CC877B9
:1016D0008D498A480B78C254032202550C708B48FE
:1016E000002302221946806910F084FEE0E73D2DB8
:1016F0001FD03E2D26D03F2D2BD0601E810181486A
:10170000081840198678E81C0190AF19FF1C3F2F7C
:1017100000DD403FBD4278D0BD4222DA601E81012B
:101720007848F21C081841197948FEF7C0FD2DE0F1
:10173000C4E0601E8101734808182030C67F002075
:101740000190E2E7601E81016E48465C0120019035
:10175000DBE7601E81016B48081846780220019083
:10176000D3E74020421B601E810166480A92091897
:10177000099149196648FEF79AFD0A9A6448B31A16
:10178000DB1C10181A460999FEF791FDF01CC117D1
:10179000890F0818821008905D495E4802F055FBD9
:1017A0005A490870F01C80070AD008980122810865
:1017B000574889000918574802F01AFB5349087026
:1017C00038215348FEF78CFD601E4E4982015118A6
:1017D0000791CA5D4D4909788A424CD14749012297
:1017E0000A554D4909192039CE7701993F22511ADE
:1017F000B1420BDB019A0799891838225043474AB6
:1018000080183246FEF753FD15E034E0019A40217E
:101810008A1A0692019B0799C918382358433F4BEF
:10182000C0180590FEF743FD069A059807998018A1
:10183000B21AFEF73CFDBD4205DA0798311D40198A
:10184000FEF74EFD0CE04020411B07980491401923
:10185000FEF746FD04990798711A091DFEF740FD31
:101860000B987F1CC77729498888401C88802046B0
:1018700006F0CEF839E0BD4208DA601E8101214849
:1018800008184019311DFEF72BFD10E04020411BC8
:10189000601E82011B480391101802904019FEF748
:1018A0001FFD03990298711A091DFEF719FD0B9887
:1018B0007F1CC77715484188491C4180184800198A
:1018C0002038C17F012910D10021C1770B48025D6A
:1018D000052A00D10155204602F026FA611E8A0130
:1018E00008495118402204F0D7FC641CE4B2062CCD
:1018F00000D8A2E610F07AFC9EE60000D20100209B
:1019000088020020081300202100002098020020F7
:1019100088140020881C0020CC010020780C0020B6
:101920008E0200201FB50A460123991E01910291E3
:1019300002240449009403938B78194609F04EFC65
:1019400004B010BD1800002038B51C460D4B012511
:10195000DD701971FF290CD013460146FE220020CC
:10196000009408F02FFF21460748FEF7B9FC00203D
:1019700038BD13460146FF220020009408F022FFE4
:10198000F1E7000018000020000E002038B5002408
:101990000A4A0023D3701071FF2807D00091FE225D
:1019A0001946184608F00EFF204638BD0023009166
:1019B000FF221946184608F005FFF5E71800002039
:1019C00070B5002355080AE09C000C5B5E002404FF
:1019D000761C76008E5B3443066834605B1C9D4247
:1019E000F2D8D20703D09A00895A026811800068A1
:1019F000006870BDF0B5002397080EE09D006C18DC
:101A00004D5DE6782D062E436578A4782D042402DA
:101A1000254304682E4326605B1C9F42EED8940742
:101A20001FD09407A40F012C03D19D0006684D5DC3
:101A30003570022C07D19C000D5D2D02641864786E
:101A4000254304682580D24392070AD19A008B5C13
:101A50001B0251184A781343026813800268897880
:101A6000117000680068F0BD10B5084806490160B3
:101A70001021C16000214171017141618161032127
:101A8000016202F013FA10BD00300240881C0020F1
:101A9000F0B587B00020019000250124E000201857
:101AA000DF4F0690C6197078002876D0DD48407B5D
:101AB000002802D106980021395402A8009004ABF6
:101AC00003AA05A9204602F0A1F8684681890022F0
:101AD000059802F0B2FF0A2009F05CFB6846018914
:101AE000049802F09FFF00280ED1684681890122E8
:101AF000059802F0A2FF0A2009F04CFB6846018914
:101B0000049802F08FFF01906846818900220598B1
:101B100002F093FF7078012806D002280FD0032826
:101B200018D004282BD120E00198012803D0019877
:101B3000002802D023E0042521E003251FE00198BE
:101B4000012803D00198002802D018E0042516E0EF
:101B5000032514E00198012803D00198002802D041
:101B60000DE002250BE0012509E00198012803D0D2
:101B70000198002802D002E0012500E00225042D92
:101B800001D0022D0CD1A64AA0003F321158A64B1D
:101B9000994203D2491C115002E0C7E000211150C4
:101BA000032D01D0012D21D19D4AA0005B32115897
:101BB0009D4B994202D2491C115001E00021115065
:101BC000984B987D022808D19849994A085D527926
:101BD000904202D8401C085508E0944994480A5D98
:101BE0004079824202D90020987508558C48904966
:101BF000A7003F300988C0598C46884242D36045CF
:101C000007D1874A06990723535411463F31401C98
:101C1000C8518348864B5B30C259624501D90021C7
:101C2000C1517F4859883F30C0591A4688421BD954
:101C3000FF21F531884217D27A49887D002802D0E9
:101C4000022803D01EE0012088751BE0774B117934
:101C5000185D884216D95179884213D27148032100
:101C60008175002018550DE0FF387249F53888421B
:101C700008D26C48817D002901D000218175204661
:101C800000F0FEF866486A495B300A88C0599446FD
:101C9000904238D3604507D1614A069908235354CE
:101CA00011465B31401CC8515D4A61493F32D059F1
:101CB000604501D90020D051594849885B30C0594E
:101CC000884218D9FF21F531884214D25549887DC0
:101CD000012802D0032807D015E0514A06980523B1
:101CE0001354022088750EE04D4A069806231354BB
:101CF0000020887507E0FF384E49F538884202D247
:101D0000204600F0E1F8464F0698385C401F03007B
:101D10000CF0D1FE0A1421060D2E3B495764727F48
:101D200020460DF053FD06990020785471E02046BE
:101D30000DF04EFD0699002078546AE03948417B49
:101D4000002966D1317AC90763D001214173204649
:101D50000DF03AFD5DE03348417B002959D1317ADD
:101D6000890756D50121417320460DF02EFD50E024
:101D70002C48417B00294CD1317A490749D50121B2
:101D8000417320460DF023FD43E02648417B0029A6
:101D90003FD1317A09073CD5012141730221204608
:101DA0000DF015FD35E01F48417B002931D1317A16
:101DB000C9062ED501214173032120460DF007FDF0
:101DC00027E01848417B002923D1317A890620D5A4
:101DD0000121417320460DF0FCFC1AE01148417BC3
:101DE000002916D1317A490613D501214173022108
:101DF00020460DF0EEFC0CE00A48417B002908D19A
:101E0000317A090605D501214173032120460DF0E1
:101E1000E0FC641CE4B2062C00D83FE607B0F0BD3D
:101E2000410F002018000020FFFF0000D901002012
:101E30006C1000200BFE000008B500200D490E4A72
:101E40000978491E890189180A5C0D2A04D0401CB2
:101E5000C0B24028F8D308BD00220A540748427097
:101E60000271009200231A460321806911F0A4FE3A
:101E700008BD00002100002008130020D00200202F
:101E8000F0B50026C1000F4B4118CA189478D578D8
:101E900012797D27FF007C437D437A4387001846F3
:101EA0003F30C059A04202D10920585407E00A240B
:101EB000A84201D15C5402E0904200D15C5430460B
:101EC000F0BD0000410F0020F0B50026C1000F4B0F
:101ED0004118CA1854799579D2797D27FF007C433F
:101EE0007D437A43870018465B30C059A04202D137
:101EF0000C20585407E00D24A84201D15C5402E0A4
:101F0000904200D15C543046F0BD0000410F0020EB
:101F100038B51421484330490A5C4118012A04D0DD
:101F2000022A56D0032A54D10BE08878C978C2001F
:101F300080182A4A105C814201D1012038BD00205E
:101F400038BDC8780C22401E5043254A10580468FA
:101F5000C8886A46108008895080487803000CF0D1
:101F6000AAFD0738050C131D242E380020460099C1
:101F7000FEF7AEFB2DD1012038BD20460099FEF7BB
:101F8000B1FB26D2012038BD20460099FEF7A0FB08
:101F90001FD26000000E1CD0012038BD20460099E1
:101FA000FEF7A0FB15D8012038BD20460099FEF7AA
:101FB0008FFB0ED86000000E0BD0012038BD2046EC
:101FC0000099FEF785FB04D06000000E01D00120CF
:101FD00038BD002038BD0000A4120020410F0020B1
:101FE0003C030020F8B5002532210D48FEF778F9B2
:101FF00001240B4E0B4F0DE0601E4000315A0029AA
:1020000002D0601C00F0EEFFA01C1C2800D30A25A3
:10201000641CE4B278788442EED92846F8BD00000A
:10202000C40A00201800002010B506490648FEF733
:1020300057F90648012141700021817008F0C6F966
:1020400010BD0000260200009E080020180000209D
:1020500010B50949097801290AD0022907D1FEF7EC
:1020600007FB064A064BFEF779FAFEF715FB10BD93
:102070000449FEF734FA10BDD00200206666666699
:10208000666639400000204110B5012000F056F886
:1020900010BD000010B50D480068C043C00603D451
:1020A000052000F04BF810BD09480168C943C90577
:1020B00003D4022000F042F810BD0068C043C006FF
:1020C000FAD4044801F05AFF10BD00000004024099
:1020D00000000240901A002010B515480168C9435D
:1020E000C90303D4032000F029F810BD0168C943D7
:1020F000C90203D4042000F021F810BD0D4909687D
:10210000C943C90503D4062000F018F810BD0168C2
:10211000C943C90403D4084801F030FF10BD00686A
:10212000C043C001FAD40448383001F027FF10BD85
:102130000000024000040240C81A002070B50446A6
:102140001048611E005D0D4638225143022804D01C
:102150000D48081801F012FF70BD0C48081801F076
:102160000DFF0B48A9000A4A4058183A002802D02F
:1021700053585B1C535051588142EDD3204609F00F
:10218000F7F870BDD201002040190020381B002054
:10219000F014002008B52148416901221143416132
:1021A000416911400091426902210A43426140693C
:1021B000084000901A491B4800F03AF8184919489D
:1021C0002831383000F034F8154916485031703055
:1021D00000F02EF8124913486431A83000F028F8B6
:1021E00010481149E03000F023F80F490F4814312E
:1021F00000F01EF80A490D481431383000F042F85A
:1022000007490A483C31703000F03CF8044907485F
:102210007831A83000F036F808BD00000010024008
:1022200008000240401900201C040240581A0020F7
:1022300010B501600021416081608022C2600161AF
:102240004161202181610902C16102F025FA10BDBE
:1022500070B504460D462946204607F0A5F8002132
:10226000284608F0BBFD204601F0A2FC401E0449B0
:10227000800141184022204604F00EF870BD000095
:102280000813002010B50160102141600021816019
:102290008022C2600161416181619101C16102F0EE
:1022A000FBF910BD10B502460E48416A002908D05E
:1022B000C06D002807D00B4880304069002805D049
:1022C00006E0084C04E0074C383401E0054C70345B
:1022D0002146104607F0C0FB0021204608F07EFD95
:1022E00010BD0000901A002010B50446206E09F0C1
:1022F000F1FD216E00204862206610BD10B501601E
:10230000002141608160C1600161416120218161E2
:10231000C901C16102F0C0F910BD0000F8B5044662
:102320000D461646204601F043FC401E3821484326
:10233000094947183946204607F036F80121384642
:1023400008F04CFD012169200155296832462831E9
:10235000204603F0A1FFF8BD381B002010B504682B
:1023600063604368102B04D0036899600068C26002
:1023700010BD03689A600068C16010BDF1B582B0FD
:1023800001F0A8FA0190019800250570714C72A126
:10239000A27878480CF064FB76490198FDF7ABFF12
:1023A000627A75A173480CF05BFB72490198FDF7E6
:1023B000A2FF0223002277A16E4800950CF050FB8B
:1023C0006C490198FDF797FF7AA27DA169480CF04E
:1023D00047FB68490198FDF78EFF7FA281A1654800
:1023E0000CF03EFB63490198FDF785FF84A161482D
:1023F0000CF036FB5F490198FDF77DFF0124854D08
:10240000224685A15B480CF02BFB5A490198FDF749
:1024100072FF285D03000CF04EFB0504090E131833
:102420001C007FA153480CF01BFB12E07EA1514819
:102430000CF016FB0DE082A14E480CF011FB08E0F9
:1024400082A14C480CF00CFB03E087A149480CF03A
:1024500007FB48490198FDF74EFF641CE4B2062CC7
:10246000CED989A143480CF0FBFA42490198FDF707
:1024700042FF01248A4E601E014638225043054621
:10248000305800285BD088008649085801F090FB3E
:102490000746A819406A01F08BFB0346224682A139
:1024A000344800970CF0DCFA32490198FDF723FF1D
:1024B000641CE4B2062CDED955A10198FDF71BFF80
:1024C00085A10198FDF717FF0198FDF737FF85B249
:1024D0000124204E884FB078401E4000395A621EB9
:1024E0000120C003D040014208D0224683A12148E8
:1024F0000CF0B6FA1F490198FDF7FDFE641CE4B22A
:10250000062CE8D90198FDF719FFA84203D17DA157
:102510000198FDF7F0FE3EA10198FDF7ECFE029850
:1025200000280BD00198FDF709FF82B20020C043BC
:1025300000903223019902980FF022FFFEBD22463F
:1025400072A10C480CF08CFA0A490198FDF7D3FEF1
:10255000AEE70000180000200A0D2A2A2A204D6F3D
:1025600064756C6520256420537461747573202A2A
:102570002A2A0A001C1000200A0D436F6E6E656344
:102580007465642076696120706F72743A205025FA
:10259000640A0D000A0D4669726D776172652076D6
:1025A000657273696F6E3A2025642E25642E25644A
:1025B000000000004F637420323420323031390083
:1025C0000A0D4669726D7761726520646174653ABF
:1025D000202020202573000031383A31373A353336
:1025E000000000000A0D4669726D77617265207403
:1025F000696D653A2020202025730A0D0000000037
:102600000A0D506F727473205374617475733A0AB3
:102610000A0D0000D20100205025643A200000007D
:10262000467265650A0D0000526563656976696EDC
:1026300067206D657373616765730A0D00000000A4
:1026400053747265616D696E670A0D00526563654A
:102650006976696E67207573657220636F6D6D6151
:102660006E64730A0D000000436F6E6E65637465DF
:102670006420746F206120627574746F6E2F73779D
:10268000697463680A0D00000A0D444D41205374BB
:102690007265616D73205374617475733A0A0D002D
:1026A000381B0020C01400200A0D53747265616D40
:1026B000696E6720444D412025642069732073743E
:1026C0007265616D696E672066726F6D205025645A
:1026D00020746F20502564000A0D546865736520CE
:1026E000706F7274732061726520726576657273A3
:1026F00065643A2000000000C40A002050256420D0
:10270000000000004E6F6E65000000000A0D53745B
:102710007265616D696E6720444D412025642069B2
:102720007320667265650000F1B582B022A1294868
:102730000CF096F92748FDF701FE002782B2FF430F
:1027400032232449009702980FF01AFE012520E059
:102750000124681E46002048621E815B0120C003E0
:10276000D04001420FD023462A461CA119480CF044
:1027700077F91848FDF7E2FD82B232231549009738
:1027800002980FF0FDFD641CE4B20A2CE3D96D1C25
:10279000EDB2174840788542DAD916A10D480CF001
:1027A0005FF90C48FDF7CAFD82B232230949009750
:1027B00002980FF0E5FDFEBD0A0D546865736520B3
:1027C000706F7274732061726520726576657273C2
:1027D00065643A001C100020C40A00200A0D4D6FE9
:1027E00064756C65202564203A2050256400000043
:1027F000180000200A0A0D416C6C206F7468657225
:1028000020706F72747320617265206E6F726D61DB
:102810006C0A0D00F1B582B049A14E480CF020F9C8
:102820004C48FDF78BFD002682B2F643322349491E
:10283000009602980FF0A4FD0124224646A14548C7
:102840000CF00EF94348FDF779FD82B2322341497D
:10285000009602980FF094FD641CE4B2062CECD9AB
:10286000322303223EA1009602980FF089FD002535
:1028700051E06A1C3BA137480CF0F2F83548FDF7EF
:102880005DFD002482B2E443322332490094029871
:102890000FF076FD16202F46354E4743F05B06219C
:1028A00048433449052241182A48FDF730FD3223B8
:1028B00005222849009402980FF062FD322301227C
:1028C00023A1009402980FF05BFD01243046A61E60
:1028D0003F186000385A00282BD04307C2085B0F0E
:1028E00025A11C480CF0BCF81A48FDF727FD82B260
:1028F00032231849009602980FF042FD641CE4B29E
:10290000062CE6D9322302221DA1009602980FF070
:1029100037FD6D1CEDB21B4840788542A9D30020DD
:10292000C04300903223012217A102980FF028FD26
:10293000FEBD002215A107480CF092F8D4E7000074
:102940000A0D284D6F64756C653A506F72742909D1
:10295000090000001C100020502564090000000040
:102960000A0A0D004D6F64756C652025643A0900F4
:102970009E080020B440010825643A25640900003F
:102980000A0D0000180000200A000000256409005C
:1029900013490988134A1288002816D0012801D04B
:1029A000002070471048002A03D0002907D0AB2030
:1029B0007047814201D10020704702207047824257
:1029C00001D10220704700207047002903D0002A5F
:1029D00003D0AB20704700207047022070470000F2
:1029E00000E0010800F00108EEEE0000F8B501F08B
:1029F0004DFF274F384600F0C1FD264D284600F018
:102A0000F7FD254C002802D0E06980B2F8BD2348CC
:102A100000F0B4FD284600F0EBFD002802D0E0698C
:102A200080B2F8BD1E4E3069022188433061002219
:102A300013463946012001F0E7FE284600F0D8FD94
:102A4000002802D0E06980B2F8BD3069400840003B
:102A50003061144800F092FD284600F0C9FD0028BE
:102A600002D0E06980B2F8BD0F4800F087FD28462B
:102A700000F0BEFD0546002D02D0E06980B2F8BD31
:102A8000306940084000306101F0B4FE2846F8BDCE
:102A900000E0010850C30000B807002000E801086A
:102AA0000020024000F0010800F8010870B5054C54
:102AB000054D206BA84204D0FFF798FF002800D1F5
:102AC000256370BDC07F0020ADDEEFBEF8B50025E8
:102AD000ED4301F0DBFEBB480188BB480088BB4EDC
:102AE0002A0CBB4F002979D0BA4BC91866D0BA4A14
:102AF000D14210D1002819D05942884254D1B1484E
:102B000000F03CFDB54C204600F072FD002829D0B5
:102B1000F06980B2F8BDFFF769FFB04800F068FDCA
:102B20000028F7D101F066FE0020F8BDA54800F0AE
:102B300025FDAA4C204600F05BFD002802D0F0697C
:102B400080B2F8BDA64800F019FD204600F050FD07
:102B5000002802D0F06980B2F8BD386902218843AC
:102B60003861DFE79E4800F009FD204600F040FD97
:102B7000002802D0F06980B2F8BD39690220814393
:102B80003961002213469049012001F03DFE2046A4
:102B900000F02EFD002802D0F06980B2F8BD38693F
:102BA000400840003861BDE7FFF720FF8B4800F088
:102BB0001FFD0028B6D0F06980B2F8BD00280ED005
:102BC00090427ED1804800F0D9FC844C204600F031
:102BD0000FFD002852D0F06980B2F8BD7BE00124DF
:102BE0007848C088A04200D125B2AC4212D07D49BD
:102BF000204600F083F901280CD07A48018820464D
:102C000000F0A0F90090754800F0F2FC002801D017
:102C10000098E2E7641CA4B2012080028442DFD95C
:102C2000002213466749012001F0EEFD6B4C20465F
:102C300000F0DEFC002802D0F06980B2CDE73869F0
:102C4000400840003861604800F098FC204600F0E1
:102C5000CFFC002802D0F06980B2BEE7624800F0E5
:102C60008DFC204600F0C4FC002802D0F06980B240
:102C7000B3E7386902218843386153E75A4800F0C6
:102C80007DFC204600F0B4FC002802D0F06980B240
:102C9000A3E739690220814339610022134649497B
:102CA000012001F0B1FD204600F0A2FC002803D075
:102CB000F06980B291E704E038694008400038616B
:102CC00030E7FFF793FE454800F092FC0028D4D08F
:102CD000F06980B281E700280DD0904223D13A48B4
:102CE00000F04CFC3D4C204600F082FC00280AD04D
:102CF000F06980B271E7FFF779FE384800F078FCA0
:102D0000002886D10EE7384800F038FC204600F055
:102D10006FFC002802D0F06980B25EE738690221BA
:102D200088433861FEE601242748C088A04200D1CC
:102D300025B2AC4212D02B49204600F0DFF8012822
:102D40000CD028480188204600F0FCF80090234869
:102D500000F04EFC002801D000983EE7641CA4B2AD
:102D6000012080028442DFD9002213461649012047
:102D700001F04AFD194C204600F03AFC002802D030
:102D8000F06980B229E738694008400038610D4891
:102D900000F0F4FB204600F02BFC002802D0F06984
:102DA00080B21AE70E4800F0E9FB204600F020FC54
:102DB000002802D0F06980B20FE739690220814310
:102DC0003961AFE600E0010800F00108B807002013
:102DD000002002401211FFFFEFEEFFFF50C3000082
:102DE00000E801089402002000F80108F3B581B062
:102DF0000C4601F04BFD0020FFF7CAFD3849394D64
:102E0000022803D0002803D0AB20FEBD0F4601E00E
:102E10002F460D46344A00233946012001F0F4FCC8
:102E2000324800F0E5FB324E002802D0F06980B253
:102E3000FEBD3048016949084900016121460198F9
:102E400000F080F80028F3D10124019884420CD0CE
:102E50002949204600F052F8012806D0264801886A
:102E6000204600F06FF80028E2D1641CA4B20120D3
:102E700080028442E9D9284600F080FB1B4C2046A2
:102E800000F0B6FB002802D0F06980B2FEBD012040
:102E9000C002281800F072FB204600F0A9FB0028B1
:102EA00002D0F06980B2FEBD124D2869022188432C
:102EB0002861002213463946012001F0A5FC204676
:102EC00000F096FB0446002C02D0F06980B2FEBDF3
:102ED000286940084000286101F08CFC2046FEBDB6
:102EE00000E0010800F00108EEEE000050C3000011
:102EF000B8070020002002409402002070B505466B
:102F00000E4601240020FFF743FDAB2808D00C4AF1
:102F1000C1028918801CC002921E8218891C0AE016
:102F2000AB2070BD1088A84204D1403AD08F3080C9
:102F3000002402E0121F8A42F4D8204670BD00002F
:102F400000E00108F8B505460E4601F09FFC01209F
:102F5000FFF71EFDAB2807D01E4AC1028C18801C4B
:102F6000C002911E411805E0AB20F8BD2068401C4E
:102F700006D0241D8C42F9D301F03CFC8020F8BD22
:102F8000324600232146012001F03EFC124800F0A9
:102F90002FFB124E002802D0F06980B2F8BD104F0E
:102FA00038694008400038612A460023A11C0120EE
:102FB00001F02AFC084800F01BFB002802D0F06951
:102FC00080B2F8BD3869400840003861F06980B2CD
:102FD000F8BD000000E0010850C30000B807002061
:102FE0000020024070B505460E4601F04FFC314608
:102FF0002846FFF7A7FF0446802C04D13146284617
:10300000FFF7F4FE044601F0F5FB204670BD00001A
:1030100010B5042001F04EFC01490C20087010BDD1
:10302000D5020020FEB500200190002400F052FCE3
:1030300000901D4F31E014206043C519287C002802
:1030400029D0E0B2FEF764FF002824D017492020E1
:1030500088719926B60017E0134832463238009935
:1030600000F06CFC0028F7D10098FDF767F90146E5
:103070000098FDF735F90C483238FDF75FF9014645
:1030800009483238FDF72CF90749E868323904F06D
:1030900005FD0028E0D1641CA4B2054800788442F4
:1030A000C9D30198FEBD0000A41200206C100020BE
:1030B00070020020F0B587B0002600200190F94D85
:1030C0000120A8700124687A844205D0204600F0CF
:1030D0002BFE012108F004FA641CE4B2062CF2D99C
:1030E000F04C607A00F014FA0220207001240125CF
:1030F000681E8700EC48C05B002817D0641CEB49B1
:10310000E4B24C70E74844700020087003200022AD
:10311000009010231146284607F054FBE248210294
:10312000C25D8918C1530A200DF06AF96D1CEDB219
:10313000062DDDD9DB48418BDB48C63001800120FC
:10314000411ED94A8900525A8C46002A18D0110AC9
:10315000D2B2CB00D44D13434700C635EB53634680
:10316000C63D5B19491E16256943CF4D5B88C635A0
:103170006B52CC4B49199B78DB00034352008B52B6
:10318000401CC0B20628DBD902251620274647433B
:103190000FE0C5493A46C631C448FDF788F83A46BB
:1031A0001121284607F08EFC3C200DF029F96D1CFA
:1031B000EDB2A542EDD9A1E0019402259BE00120EA
:1031C000BA4901220B18203BDA77401CC0B20A280A
:1031D000F7D9B649002088720B220E21284607F045
:1031E00071FC0A200DF00CF900220C21284607F092
:1031F00069FC64200DF004F90127781E8100AA48BB
:103200001830405A020A002818D0002A16D1641C2F
:10321000A64AE4B25470A34B5C702302C0B21818E3
:10322000A14B1833585201201070977003221021BF
:10323000284607F047FC0A200DF0E2F87F1CFFB299
:103240000A2FDAD90120411E974B890018330691C5
:103250005A5A002A2CD0110AD2B29446012927D0FA
:103260006A1E16235A43904BC633D3184200059367
:103270009B5A002B04D1CB0067463B43059FBB52B2
:10328000491E16225143884AC6328B1862465200A4
:1032900004939B5A002B0BD1834F069B1837DB19E5
:1032A0005F88814BC6335F52E900049B014399520A
:1032B000401CC0B20A28C6D97B4818211830FDF737
:1032C0000FF8022720461621484303900FE0764965
:1032D0007648C631039AFCF7EAFF11213846039A73
:1032E00007F0F0FB3C200DF08BF87F1CFFB2A742EB
:1032F000EDD96D1CEDB2A54200D860E70198A0425F
:1033000000D059E76748407A00F002F90120664B87
:10331000411E8900595A0A0A002902D0002A00D108
:103320000526401CC0B20628F2D902255E4F183788
:1033300017E000220C21284607F0C4FB64200DF0A2
:103340005FF80120411E8900795A0A0A002902D03B
:10335000002A00D10526401CC0B20A28F2D96D1CF3
:10336000EDB2A542E5D9002E71D10120504D411E8C
:1033700001222B88D203CA4093432B80401CC0B249
:103380000628F3D970E00120474A611E16230291F6
:10339000C632594389188C460299444D4900624609
:1033A0004300D25A002A44D053051B0E5207520F35
:1033B0005B1E5F003E4B521EDB5B0127FF03D740C5
:1033C0003B420DD101222B18203BDA77384A0123EA
:1033D000575A421EDB03D340354A1F4357520CE075
:1033E00000222B18203BDA77314A0123575A421E1C
:1033F000DB03D3402E4A9F435752401CC0B20A28D9
:10340000CDD92146012000F097F929483230001922
:103410002038C17F264863300F5C2046394600F0D3
:103420008BF9A74214D028182038C07F01280FD06C
:1034300010E000222B18203BDA771D4A0123575A4F
:10344000421EDB03D3401A4A9F435752D5E71CE084
:103450000120A8720B220E21204607F033FB0A2020
:103460000CF0CEFF0298C4B2022C8CD201240D4D78
:10347000687A844205D0204600F056FC002108F00E
:103480002FF8641CE4B2062CF2D9002E2FD1642050
:103490000CF0B6FF0749202088710224044F014D2B
:1034A000323721E018000020D8070020000E00204D
:1034B000C40A00206C10002000220121204607F0E1
:1034C00001FB38192038C07FFF212D3148430CF013
:1034D00097FFE879002802D0022802D002E00026F7
:1034E00000E00226641CE4B268788442E4D9002E2D
:1034F0000BD106F06BFF06F017FF64200CF080FF85
:1035000000221521FF2007F0DDFA304607B0F0BD9C
:10351000FEB505460020019001240D4F0D4EAC4232
:103520000FD0788B010A31707070B47003200022C4
:1035300000900A231146204607F044F90A200CF0B7
:103540005FFF641CE4B2062CE9D90198FEBD0000BF
:1035500018000020000E002006490020C86106481F
:103560000169042211430161016940221143016193
:1035700070470000B807002000200240064A0021E2
:10358000D16106490A6902231A430A614861086940
:103590004022104308617047B80700200020024015
:1035A00010B5054B0022DA61044A13690124234354
:1035B0001361018010BD0000B80700200020024008
:1035C0000949C868C206094803D5C26902231A43DB
:1035D000C261CA68520703D5C26901231A43C26196
:1035E0001420C8607047000000200240B807002087
:1035F00070B5044601F036FA0546104E0AE0601C2C
:1036000008D0002C04D001F02DFA401BA04201D9B3
:10361000032070BDF068C007F1D1F068800601D5C5
:103620002020F060F068C00602D4F068400703D59F
:10363000FFF7C6FF012070BD002070BD00200240D2
:10364000FEB504460020009000250026384F78780B
:103650000BF074FA002305E0435536496A008B529B
:103660006D1CEDB2324949788D42F5D3761C0119B3
:103670002039CE77761CF3B20121641EA4461622AF
:1036800054432C4A9632A218964672464C00125B5E
:10369000002A0DD064466400264D4E1E01272D5B86
:1036A000B740244E3D433553D2081218203AD37701
:1036B000491CC9B20629E8D900245B1CDBB20022F0
:1036C0002BE0855C591E8D4225D10121194E16250E
:1036D00096365543AD190195019D4E00AD5B002D09
:1036E00015D0ED082D18203DAC46ED7F002D0ED1F4
:1036F0005700104DBE46ED5B4E1E0127B7403D43BF
:103700000C4E7746F5536546EB77641CE4B2491CD2
:10371000C9B20629E0D9521CD2B2054949788A4279
:10372000CFD3002CC8D1009C0BF0D6F92046FEBDAB
:103730001800002008080020F0B58FB007460E469C
:1037400034216846FCF7CCFD00240025192151489E
:10375000FCF7C6FD4F4900203239C9192039C87716
:103760004C491939C9192039C8770120791E162208
:103770005143494A89180E914649323989192039ED
:103780000D910E994300C95A00290AD0C908B142C7
:1037900007D10D9A0121D1773E490E70C0B20FB00A
:1037A000F0BD401C0628ECDD01203C494A780EE0C3
:1037B000B8420BD03749FF23323909182039CB776B
:1037C000344B0021193B1B18203BD977401C9042F9
:1037D000EEDD36E02F48694632380CF0B9FD401C6A
:1037E000C4B2B44232D06946012009192039C877E1
:1037F000611E16225143284A89188C4661464200B0
:10380000895A002919D04905090E6A465218203AEA
:10381000D27F002A11D11F4B323B1A19203AD27F96
:10382000521CD2B25B18203BDF7F974205D9DA7772
:10383000184A193A51182039CC77401CC0B20628D2
:10384000DCD9684605F056FC0028C3D0114A114661
:10385000193904E02B466D1CEDB2D4540446081906
:103860002038C07F0028F5D101200A4A521E0E9947
:103870004300C95A002907D0CB080D99C97F895C3C
:103880008B4201D1C0B28AE7401C0628EFDD002040
:1038900085E70000280B00209E080020180000206B
:1038A000F8B5044609480026C670611E3822514307
:1038B000074A555C80782946FFF73EFF00232A46D9
:1038C0001946009406F07EFF3046F8BD180000202F
:1038D000780C002000487047E81C002030B5002319
:1038E00000250024146025E0401C00240457002C0F
:1038F00003D0202CF8D100E0401C00240457002CF9
:1039000001D0202CF8D00478002C15D05B1C8B4201
:1039100010D1054603E01168491C1160401C0021CC
:103920004156002901D02029F5D11068002803D183
:10393000002501E08B42D8D3284630BDF7B50646B6
:1039400001242A4DA86800281AD128461430A860FE
:1039500013E0006807683846FCF7F0FC0246B056F2
:10396000202801D0002805D139463046FCF711FD4A
:10397000002817D0A8684068A860A8680028E8D187
:10398000A8680027002801D0002C1DD0002824D0D2
:1039900000683246836802990198984704462000DF
:1039A00019D020E0A8680C21006841560029E7DB07
:1039B00030460DF029F90146A8680C2200688256AD
:1039C0009142DDD00024DBE70949029A0198FCF717
:1039D0009EFCAF6007E0AF6005E00649029A0198DF
:1039E000FCF795FC00242046FEBD000048030020A3
:1039F000406601089866010870B50546002D12D092
:103A0000082010F0CBFA0446002C0ED00EF0D4FBA8
:103A1000256000206060064841684C6044600EF0FC
:103A2000D7FB012070BD72B6FEE772B6FEE700005C
:103A30004803002008B5154842690121C9040A431A
:103A4000426142690A400092426989100A43426118
:103A500042690A4000924269C9000A4342614269D0
:103A60000A400092426989100A43426142690A4051
:103A70000092426909010A4342614069084000908E
:103A800003F0A2F803F0B2F808BD000000100240F5
:103A90001CB51E200BF052F804461E212046FCF7F0
:103AA0001FFC0849088B4A7D00920190087D8B7DA0
:103AB000401E054980000A58044920460AF0D0FFFC
:103AC00020461CBD6C100020340200200443010875
:103AD000F8B50546002426A12846FCF736FC254EFD
:103AE00000280AD024A12846FCF72FFC002806D085
:103AF0002878232805D0214F22E0B078F8BDFF2098
:103B0000F8BD681CFCF785FCC0B2002802D07178B3
:103B10008842F5D9B178884201D10846F8BD6620BF
:103B2000F8BD0A206043C1192846FCF70EFC0028A6
:103B300004D12878002801D02046F8BD641CE4B2E6
:103B400070788442EDD300240D4E0A206043811921
:103B50002846FCF7FAFB002805D0641CE4B20A2CC6
:103B6000F3D36420F8BD2002FE3000B2F8BD00009F
:103B70006D65000018000020616C6C00410B002096
:103B80003A08002000B587B06946084808F09CFC58
:103B9000002802D0002007B000BD0021034808F033
:103BA00081FA68460089FCF75CFDF4E7E017002025
:103BB00000681049884201D1012070470E498842AF
:103BC00001D1022070470D49884201D1032070477E
:103BD0000B49884201D1042070470A49884201D12B
:103BE000052070470849884201D10620704700200F
:103BF00070470000004C00400044004000140140A9
:103C0000004800400038014000500040F0B5059DDC
:103C10001C46002600F088F8224F0923DB06B84234
:103C200007D10B60012040021080236040002880F3
:103C300035E01D4FB84206D10B6004201080236090
:103C4000082028802BE0194FB84208D11848086096
:103C50000121890211802060480028801FE0154F53
:103C6000B84206D10B60012010802360022028801A
:103C700015E0114FB84207D10D48086008211180A6
:103C80002060102028800AE00C4FB84206D10B605B
:103C90001020108023602020288000E0FF2630467E
:103CA000F0BD000040150020B015002020160020B7
:103CB0000004004890160020001700207017002014
:103CC00000B587B0002201A9154801F071FE00225D
:103CD00006A9134801F04AFE6946087BC10911484C
:103CE000491CC1740299C903090CC18169468979CB
:103CF0000174694649794174694609798174694654
:103D0000897E41756946497E81756946097E0175DE
:103D10006946C97E7D2212018918018307B000BD62
:103D2000781100206C10002000B503000AF0C3FEDB
:103D300007110507090B0D0F1100074800BD0748C3
:103D400000BD074800BD074800BD074800BD074843
:103D500000BD002000BD000090160020B01500201E
:103D600070170020201600204015002000170020AA
:103D700000B50179002907D0C268816800F010F809
:103D8000002809D0012000BD026804495161006883
:103D90008168182291438160002000BDB71DC104D5
:103DA00030B51F2301252C469C400C4202D15B1EDE
:103DB0005C1CF8D1002A11D0082A0BD0102A05D09B
:103DC000182A0BD1072B09D3012030BD082B05D3AE
:103DD000012030BD102B01D3012030BD0368596193
:103DE000006881681823994311438160002030BD29
:103DF00070B5044600200023257F012D0BD001253E
:103E0000257702266677266A012E10D0022E13D05F
:103E1000032E15D106E0022070BD83002668CB5822
:103E20003360401C9042F8D32068036808E02046C5
:103E3000FDF7E0FD034603E02046FDF7C1FD034624
:103E4000657700202077184670BDF8B5044600203D
:103E50000023257F012D0FD00125257702266677C7
:103E60002668B7682F43B760266A012E10D0022E4D
:103E700013D0032E15D106E00220F8BD830026687A
:103E8000CB583360401C9042F8D32068036808E0A8
:103E90002046FDF7AFFD034603E02046FDF790FD09
:103EA00003466577002020771846F8BD10B5044614
:103EB000002C03D0607F002802D006E0012010BD56
:103EC00000202077204600F027F802206077204667
:103ED000FFF74EFF002801D0012010BD60790028B7
:103EE00014D02168206908612068816860229143AC
:103EF0006269114381602068816880229143A269D0
:103F00001143816001206077002010BD00202168EE
:103F1000C0430861E8E7000008B504484269402151
:103F20000A43426140690840009008BD0010024009
:103F3000F8B504462068016849084900016000F0AE
:103F400091FD06460027254620350EE000F08AFD4B
:103F5000811B7D20C000814207D9606B202108436E
:103F60006063032068702F70F8BD20680068C00788
:103F7000ECD1012068702F700020F8BDF8B5044620
:103F8000F749F74DF64EF64F2068CB14783D643E66
:103F9000503F88423FD9F3490A68A84201D108211D
:103FA00037E0B04201D1802133E0B84201D1194657
:103FB0002FE0EB493C39884202D10121C90328E0B6
:103FC000E7492839884202D10121C90421E0E449A6
:103FD0001439884202D10121C9051AE0E1490831AA
:103FE000884201D1082114E0DE491C31884201D108
:103FF00080210EE0DB493031884201D1194608E0CA
:10400000D8494431884202D10121C90301E001218C
:10401000C9040A4044E0D24980390A68A84201D163
:1040200008213CE0B04201D1802138E0B84201D102
:10403000194634E0CA493C39884202D10121C903FA
:104040002DE0C7492839884202D10121C90426E060
:10405000C3491439884202D10121C9051FE0C04972
:10406000884201D101051AE0BE490831884201D1D8
:10407000082114E0BB491C31884201D180210EE0A7
:10408000B8493031884201D1194608E0B549443178
:10409000884202D10121C90301E00121C9040A407B
:1040A000214620310091002A70D00168C9430907D8
:1040B0006CD40168082291430160A94920688842B4
:1040C0003ED9A84201D1082037E0B04201D180207A
:1040D00033E0B84201D118462FE0A1493C3988426B
:1040E00002D10120C00328E09D492839884202D12D
:1040F0000120C00421E09A491439884202D10120EC
:10410000C0051AE097490831884201D1082014E01F
:1041100094491C31884201D180200EE09149303110
:10412000884201D1184608E08E494431884202D1C4
:104130000120C00301E00120C0048A49486044E036
:10414000A84201D108203DE0B04201D1802039E0F1
:10415000B84201D1184635E0814A3C3A904202D13A
:104160000120C0032EE07E4A283A904202D101206D
:10417000C00427E07A4A143A904202D10120C005D7
:1041800020E0884203D10120C0061BE02CE07549E5
:104190000831884201D1082014E072491C3188425C
:1041A00001D180200EE06F493031884201D118469C
:1041B00008E06C494431884202D10120C00301E08B
:1041C0000120C004664980394860606B01210843C2
:1041D0006063009904204870009900200870216BEA
:1041E000002901D0204688475D4920680B15884288
:1041F0003FD95C490A68A84201D1042137E0B042A6
:1042000001D1402133E0B84201D119462FE0544991
:104210003C39884202D10121890328E050492839DC
:10422000884202D10121890421E04D491439884294
:1042300002D1012189051AE04A490831884201D199
:10424000042114E047491C31884201D140210EE08D
:1042500044493031884201D1194608E0414944318E
:10426000884202D10121890301E0012189040A4029
:1042700044E03B4980390A68A84201D104213CE06E
:10428000B04201D1402138E0B84201D1194634E0B2
:1042900033493C39884202D1012189032DE030495C
:1042A0002839884202D10121890426E02C49143999
:1042B000884202D1012189051FE02949884201D1A4
:1042C000C1041AE027490831884201D1042114E0D1
:1042D00024491C31884201D140210EE0214930316E
:1042E000884201D1194608E01E494431884202D172
:1042F0000121890301E0012189040A40002A71D0CB
:104300000168C94349076DD40168890603D401686F
:1043100004229143016012492068884242D9A84290
:1043200001D104203AE0B04201D1402036E0B84249
:1043300001D1184632E00A493C39884202D10120B5
:1043400080032BE006492839884202D101208004ED
:1043500024E003491439884206D1012080051DE07C
:104360008000024000040240C949884201D1042073
:1043700014E0C7491431884201D140200EE0C449FD
:104380002831884201D1184608E0C1493C318842B1
:1043900002D10120800301E001208004BC490839DA
:1043A000486042E0A84201D104203BE0B04201D184
:1043B000402037E0B84201D1184633E0B54A904278
:1043C00002D1012080032DE0B24A1432904202D182
:1043D0000120800426E0AF4A2832904203D1012018
:1043E00080051FE029E0884202D10120800619E003
:1043F000A749884201D1042014E0A549143188421C
:1044000001D140200EE0A2492831884201D118464E
:1044100008E09F493C31884202D10120800301E03D
:10442000012080049B494439486000981121417063
:10443000E16A002901D020468847964A20683C322C
:1044400090423FD9924908390B68A84201D1022114
:1044500036E0B04201D1202132E0B84202D1012140
:1044600049022DE08B49884202D10121490327E00E
:1044700088491431884202D10121490420E085494C
:104480002831884202D10121490519E0804988423A
:1044900001D1022114E07E491431884201D120214A
:1044A0000EE07B492831884201D1411508E0784966
:1044B0003C31884202D10121490301E00121490434
:1044C0000B4043E0734944390B68A84201D10221F3
:1044D0003BE0B04201D1202137E0B84202D10121B6
:1044E000490232E06B49884202D1012149032CE0A4
:1044F00068491431884202D10121490425E0654907
:104500002831884202D1012149051EE0904202D1A2
:104510000121490619E05E49884201D1022114E0D7
:104520005B491431884201D120210EE058492831DD
:10453000884201D1411508E055493C31884202D1F9
:104540000121490301E0012149040B40002B72D0F5
:104550000168C94389076ED40168890603D40168DC
:10456000022399430160206890423ED9A84201D1BC
:10457000022036E0B04201D1202032E0B84202D120
:10458000012040022DE04349884202D1012040032E
:1045900027E040491431884202D10120400420E044
:1045A0003C492831884202D10120400519E03849B0
:1045B000884201D1022014E035491431884201D1EA
:1045C00020200EE032492831884201D1401508E010
:1045D0002F493C31884202D10120400301E00120F3
:1045E00040042B490839486043E0A84201D1022029
:1045F0003CE0B04201D1202038E0B84202D1012095
:10460000400233E02349884202D1012040032DE0DB
:1046100020491431884202D10120400426E01D497E
:104620002831884202D1012040051FE0904203D189
:10463000012040061AE029E01549884201D10220F4
:1046400014E013491431884201D120200EE01049B2
:104650002831884201D1401508E00D493C3188429B
:1046600002D10120400301E00120400409494439FE
:104670004860606B606300990120487000990020D9
:104680000870A16A002901D020468847F8BD0000C3
:104690000804024044000240F0B5002806D001465C
:1046A00020314A780025002A02D002E00120F0BD26
:1046B0000D7002224A70026814680B4B1C40866819
:1046C000436807693343C6683E433343466933430F
:1046D00086693343C669334323431360456301202E
:1046E00048700020F0BD00000FC0FFFFF8B5044681
:1046F000204620300578012D1ED0012505700226A8
:10470000467020680768AF4307602046FDF726FE25
:104710002068016831430160206801680422114368
:104720000160206801680822114301602068016867
:10473000294301600020F8BD0220F8BD31B500F02A
:1047400091F9044600F08EF90099001B8842F9D3D4
:1047500038BD0000F8B505460F4601262248017E07
:1047600001290BD0012101762868204C012807D0AF
:104770002046FEF73DFF002813D030E00220F8BDB0
:104780002046FEF735FF002829D1FEF7E5FE20463A
:10479000FEF72EFF06461648016904229143016187
:1047A0001DE00020C04338606C6812E02046FEF730
:1047B000E5FE0E48FEF71CFF06460D480169022281
:1047C00091430161300001D03C6008E00120C0024B
:1047D0002418A9686868C9024018A042E6D80248AF
:1047E000002101763046F8BDB807002050C3000014
:1047F000002002400348016980221143016100202A
:104800007047000000200240F0B51FB4074615466F
:104810001E4600241A48017E012907D00121017695
:104820001848FEF7E5FE002803D025E0022005B079
:10483000F0BD012F03D0022F03D004271AE0012777
:1048400018E0022716E0220128463146FBF70BFD4F
:1048500081B2019862001018FEF7A2FE0948FEF727
:10486000C7FE09490A69520852000A61002803D1AB
:10487000641CE4B2BC42E6D3014900220A76D6E7C2
:10488000B807002050C3000000200240054801691D
:10489000090605D50449416004494160002070477C
:1048A000012070470020024023016745AB89EFCD0E
:1048B0007047000010B504494A69024202D04861BD
:1048C000FFF7F6FF10BD000000040140F8B500221C
:1048D00093E001249440A4462340002B7ED04C68F2
:1048E000022C01D0122C0CD1D408A40027183D6A48
:1048F0005407E40E0F26A640B5430E69A6402E438A
:104900003E62076855000324AC40A7430E79B60702
:10491000B60FAE403E4306604E68012E05D0022E13
:1049200003D0112E01D0122E0ED18768A743CE6876
:10493000AE403E43866047686646B7430E79F6064A
:10494000F60F96403E434660C668A6438C68AC406E
:104950003443C4604C68E4004ED52B4CA569012655
:104960003543A561A469344000949508274CAD00F7
:104970002F19BD689407240F0F26A640B5430926BA
:10498000F606B04201D1002614E0214EB04201D11A
:1049900001260FE01F4EB04201D102260AE01E4E52
:1049A000B04201D1032605E01C4EB04201D10426DD
:1049B00000E00526A6402E43BE60194D2C689C439E
:1049C0004E68F60300D51C432C606C689C434E680F
:1049D000B60300D51C436C60AC6800E00CE09C435F
:1049E0004E68F60200D51C43AC60EC689C434E68F0
:1049F000B60200D51C43EC60521C0B681C46D44028
:104A000000D066E7F8BD0000001002400000014041
:104A10000004004800080048000C0048001000484E
:104A2000000401400069084201D0012070470020C5
:104A3000704742694A4042617047002A01D0816153
:104A40007047816270470000024800680005000D51
:104A5000704700000058014001480068000C704792
:104A60000058014001480068704700001400002011
:104A700070B502462032537D022B27D0537D122B76
:104A800024D0537D222B21D0537D322B1ED0537D39
:104A9000422B1BD0137D012B1AD001241475022345
:104AA000537503681D68A5431D6003681D682603D0
:104AB000B5431D6003681D680D431D6000680168F3
:104AC0002143016054750020107570BD022070BD37
:104AD000022070BD70B502462032537D022B26D0D5
:104AE000537D122B23D0537D222B20D0537D322B8C
:104AF0001DD0537D422B1AD0137D012B19D00124D8
:104B000014750223537503681D68A5431D6003686F
:104B10001D680F263602B543090229431960006853
:104B200001682143016054750020107570BD02209A
:104B300070BD022070BD10B501688A69D243D305EB
:104B40000122002B08DB0B68DB431B0604D4836BBC
:104B5000134383631302CB6101688B69DB435B05FD
:104B600009D40B68DB431B0605D4836B082423435D
:104B70008363E301CB6101688B69DB439B0509D447
:104B80000B68DB431B0605D4836B0224234383633A
:104B90002302CB61816B0B23194203D035210A54C8
:104BA00000F092F810BD70B50546296888692C465A
:104BB000C04380072034002813DA8869C043000608
:104BC0000FD58869C04340060BD58869C04380066D
:104BD00007D58869C043C00603D58869C04300076C
:104BE00009D409687A20884305D1607D322802D132
:104BF000284601F0F9FE28688169C94389070FD565
:104C00008169C94309060BD58169C943490607D59E
:104C10008169C943890603D58169C943C9060CD492
:104C200001687220884308D1607D122802D0607D1F
:104C3000522802D1284601F0FBFD29688869C0434B
:104C4000400713D58869C04300060FD58869C04363
:104C500040060BD58869C043800607D58869C043E4
:104C6000C00603D58869C04300070AD40868C0435A
:104C70004006C00E05D1607D422802D1284601F0D1
:104C800069FE28688169C94349070FD58169C9430D
:104C900009060BD58169C943490607D58169C9430E
:104CA000890603D58169C943C9060CD401687420FB
:104CB000884308D1607D222802D0607D622802D11D
:104CC000284601F023FD70BD7047000070B5044612
:104CD000002C06D025462035687D0026002802D00D
:104CE00005E0012070BD2E75204600F079F9022004
:104CF0006875206801684908490001600F216068F3
:104D00000906884321680861206882680121C90377
:104D10008A438260A068002807D0E268012A08D090
:104D200021218902084321688860E068022804D0B4
:104D300007E0084321688860F7E701202168C00286
:104D40004860206841680C4A1143416061692069EC
:104D50000843A169090208432168C860216AE06923
:104D60000843216808602068026801210A43026044
:104D7000A6636975002070BD00800002704770470F
:104D8000FFB583B0064617461C46304620300290D9
:104D9000407D012802D0022007B0F0BD002F08D0CE
:104DA000002C06D030688069C043000403D4022080
:104DB000F2E70120F0E70298007D012815D0029962
:104DC000012008750298222141750020B063092056
:104DD0008002FF2C0BD9012300901B06FF223046D6
:104DE000049901F051FEFF250AE00220D4E70123D7
:104DF0000090E2B25B063046049901F045FE25467C
:104E00000022042130460C9B01F050FE002801D006
:104E10000320C1E73068406A38707F1C6D1E641E35
:104E2000A4B2002D22D1002C20D0002280213046B7
:104E30000C9B01F03BFE002801D00320ACE7FF2CC7
:104E40000AD90020012300901B06FF223046049956
:104E500001F01AFEFF2509E0002001230090E2B2D4
:104E60005B063046049901F00FFE2546002CC7D1A1
:104E70001921304601F056FE002806D0B06B0428F8
:104E800001D0032088E7012086E731682020C8612F
:104E900030684168044A1140416002990120487518
:104EA00002990020087577E700E800FEFFB583B09F
:104EB000064617461C46304620300290407D0128A9
:104EC00002D0022007B0F0BD002F08D0002C06D081
:104ED00030688069C043000403D40220F2E7012057
:104EE000F0E70298007D012814D00299012008758E
:104EF0000298122141750020B06301204003FF2C6D
:104F00000AD9C3020090FF223046049901F0BCFD8B
:104F1000FF250AE00220D5E701230090E2B25B06FC
:104F20003046049901F0B0FD254630460C9901F059
:104F300021FE002806D0B06B042801D00320C1E771
:104F40000120BFE7387831687F1C88626D1E641EBF
:104F5000A4B2002D22D1002C20D000228021304686
:104F60000C9B01F0A3FD002801D00320AAE7FF2C31
:104F70000AD90020012300901B06FF223046049925
:104F800001F082FDFF2509E0002001230090E2B23C
:104F90005B063046049901F077FD2546002CC4D10C
:104FA00030460C9901F0BEFD002806D0B06B0428F5
:104FB00001D0032086E7012084E731682020C86102
:104FC00030684168044A11404160029901204875E7
:104FD00002990020087575E700E800FE70477047E9
:104FE000704770477047000002480168491C016023
:104FF000704700001400002010B506480168102218
:1050000011430160002000F007F800F016F80020BE
:1050100010BD00000020024010B5044600F0C8F9A1
:105020007D21C900FBF7B8F800F052FE00222146AE
:10503000501E00F017F8002010BD7047C106C90EC1
:1050400001208840014908607047000080E100E0CD
:10505000C106C90E01208840014908607047000060
:1050600000E100E010B502F047FC10BD0248016805
:10507000821511430160704700700040F8B5044686
:1050800020683C4DC00344D5296A032000026268B1
:105090000140024091423CD0E86929040843E8619C
:1050A000E86908400090344F3868091508433860B3
:1050B000FFF7D8FC064606E0FFF7D4FC801B642807
:1050C00001D90320F8BD3868C005F5D5286A032743
:1050D0003F02B8432A6A012109040A432A622A6A64
:1050E0008A432A62286280070ED5FFF7BBFC06467A
:1050F00007E0FFF7B7FC811B2048814201D903205C
:10510000F8BD286A8007F4D5286A6168B843084367
:1051100028622078C00705D0286BA168800880002D
:10512000084328632078800706D5286B03210904EB
:105130008843E168084328632068400306D5286B4C
:105140000321890488432169084328632078800665
:1051500005D5286B1021884361690843286320889E
:10516000400505D5286B40218843A1690843286381
:105170000020F8BD001002400070004088130000BD
:10518000F8B504460F4687480068F021C007C00FF5
:10519000854EB8427DD283480268520852003A4395
:1051A00002600068C007C00FB84201D00120F8BDFE
:1051B0002078800704D570688843A1680843706030
:1051C0002078C00739D06068012808D002280BD0A9
:1051D00003280ED03168890710D40120F8BD31684A
:1051E00089030BD40120F8BD3168890106D4012060
:1051F000F8BD716BC90301D40120F8BD716889083D
:10520000890001437160FFF72DFC054660680128A5
:1052100005D0022812D003281FD0644F34E0634F1A
:1052200006E0FFF71FFC401BB84201D90320F8BD80
:1052300070680007800F0128F3D1A3E05B4F06E000
:10524000FFF710FC401BB84201D90320F8BD70687D
:105250000007800F0228F3D194E0544F06E0FFF7D7
:1052600001FC401BB84201D90320F8BD706800075B
:10527000800F0328F3D185E00BE0FFF7F3FB401B21
:10528000B84201D90320F8BD70680007800FF4D13F
:1052900078E02078800704D570688843A1680843C7
:1052A00070602078C00760D06068012808D00228AC
:1052B0000BD003280ED03168890710D40120F8BD27
:1052C000316889030BD40120F8BD3168890106D407
:1052D0000120F8BD716BC90301D40120F8BD7168CC
:1052E0008908890001437160FFF7BCFB05466068CF
:1052F00001280CD0022818D0032824D031E0FFF771
:10530000B1FB411B2948814201D90320F8BD7068D7
:105310000007800F0128F2D127E0FFF7A3FB411B14
:105320002248814201D90320F8BD70680007800F30
:105330000228F2D119E0FFF795FB411B1B4881427F
:1053400001D90320F8BD70680007800F0328F2D14F
:105350000BE0FFF787FB411B1448814201D9032072
:10536000F8BD70680007800FF3D10E480168490846
:105370004900394301600068C007C00FB84201D03E
:105380000120F8BD2078400706D570680721090282
:105390008843E168084370600020FFF73DFE00206D
:1053A000F8BD0000002002400010024088130000F9
:1053B00010B500F021F805494968054A0906090FAA
:1053C000515CC8400349086010BD00000010024055
:1053D000A44001080000002010B5FFF7E9FF0449D0
:1053E0004968044A4905490F515CC84010BD000096
:1053F00000100240A440010830B589B01CA001464D
:105400000EC9C06805AC0EC408901DA001460EC9A7
:10541000C06801AC0EC404901D4D6A680C20114692
:1054200001401C48042905D01B4B082904D00C2935
:1054300000D1184609B030BD9102090F05AC645C7B
:10544000E96A01AD0907090F695CD203920F022ACC
:1054500005D0032A07D0FAF79FFE6043EAE7FAF780
:105460009BFE6043E6E71846FAF796FE6043E1E7E5
:1054700002030405060708090A0B0C0D0E0F101095
:105480000102030405060708090A0B0C0D0E0F1094
:105490000010024000127A00006CDC02F8B50446ED
:1054A0002078FA4DC00775D068680007800F012882
:1054B00016D068680007800F022804D16868C0030E
:1054C000800F02280CD0286801263604B0432860DB
:1054D0002968B00081432960FFF7C4FA07460EE04F
:1054E0002868800356D56068002853D10120F8BD94
:1054F000FFF7B8FAC01B642801D90320F8BD28685B
:105500008003F5D46068012813D0002815D0052841
:105510001DD029682846B143296001680122920400
:10552000914301606068002826D0FFF79BFA064689
:105530001EE0296831432960F4E729682846B14311
:1055400029600268012189048A430260EAE72A6827
:105550002846012189040A432A6001683143016019
:10556000E0E7FFF77FFA801B642801D90320F8BD2C
:1055700028688003F5D50DE0FFF774FA064606E0CB
:10558000FFF770FA801B642801D90320F8BD286852
:105590008003F5D420780126800700284BDA68685C
:1055A0000007800F13D068680007800F022804D11D
:1055B0006868C003800F012809D0E068002828D05F
:1055C000286830432860FFF74DFA074616E0286840
:1055D000800704D5E068012801D00120F8BD2868C3
:1055E000F82188432169C9000843286023E0FFF7B8
:1055F00039FAC01B642801D90320F8BD2868800748
:10560000F5D52868F82188432169C9000843286036
:1056100011E02868400840002860FFF723FA074699
:1056200006E0FFF71FFAC01B642801D90320F8BD6C
:1056300028688007F5D42078000726D5206A00283E
:1056400011D0686A30436862FFF70CFA074606E03B
:10565000FFF708FAC01B642801D90320F8BD686A67
:105660008007F5D511E0686A400840006862FFF7DE
:10567000F9F9074606E0FFF7F5F9C01B642801D9E0
:105680000320F8BD686A8007F5D4207840077BD5F1
:10569000E969012000070143E961E96901400091DE
:1056A0007B480168821511430160FFF7DBF907466B
:1056B00006E0FFF7D7F9C01B642801D90320F8BD25
:1056C00073480068C005F4D5286A40084000286285
:1056D000296A042081432962FFF7C4F9074607E0DD
:1056E000FFF7C0F9C11B6B48814201D90320F8BD07
:1056F000286A8007F4D4A068012813D0002815D0A8
:1057000005281DD0296A2846490849002962026AED
:1057100004218A430262A068002826D0FFF7A2F97C
:1057200007461EE0296A31432962F4E7296A2846C0
:10573000490849002962026A04218A430262EAE7B1
:10574000296A2846042211432962016A3143016211
:10575000E1E7FFF787F9C11B4E48814201D90320D9
:10576000F8BD286A8007F4D50EE0FFF77BF90746FD
:1057700007E0FFF777F9C11B4648814201D90320B2
:10578000F8BD286A8007F4D42078C00643D5606944
:1057900001280DD0401D28D0686B042108436863A0
:1057A000686B400840006863FFF75CF906462FE02D
:1057B000686B042108436863686B30436863FFF7D4
:1057C00051F9064606E0FFF74DF9801B642801D920
:1057D0000320F8BD686B8007F5D5686BF821884316
:1057E000A169C9000843686315E0686B0421884318
:1057F0006863686BF8218843A169C900084368633E
:1058000009E0FFF72FF9801B642801D90320F8BDB8
:10581000686B8007F5D42078800647D56868000754
:10582000800F032815D068680007800F022804D174
:105830006868C003800F03280BD0E06900281BD0E4
:10584000686B0121090408436863FFF70BF90646FA
:105850000EE0686BC00329D5E069012826D001203D
:10586000F8BDFFF7FFF8801B642801D90320F8BDBD
:10587000686BC003F5D519E0686B01210904884302
:105880006863FFF7EFF806460DE0000000100240E5
:105890000070004088130000FFF7E4F8801B6428C4
:1058A00001D90320F8BD686BC003F5D4606A0028F5
:1058B0004BD069680907890F022948D001273F06A4
:1058C000022806D02868B8432860FFF7CBF80446C2
:1058D00038E02868B8432860FFF7C4F8064606E0B9
:1058E000FFF7C0F8801B642801D90320F8BD2868A1
:1058F0008001F5D4E86A216B000900010843E862E1
:10590000A16AE06A084369687B22D2039143084395
:105910006860286838432860FFF7A4F8044606E06A
:10592000FFF7A0F8001B642801D90320F8BD286800
:105930008001F5D509E0FFF795F8001B642801D92F
:105940000320F8BD28688001F5D40020F8BD0120AF
:10595000F8BD00685030890008180068704700687A
:1059600050308900081802607047000010B50B46DF
:10597000006841680D480140080CD870CC04E40E62
:105980005C708C06A40E9C700904490F1970002AE3
:105990000AD103F0BFFBD870587803F0BBFB5870F6
:1059A000987803F0B7FB9870002010BD3FFFFF0010
:1059B00010B50B460168896A5960006801680F4894
:1059C00001408802800E18704C04640E5C704C0616
:1059D000640E9C70090C402421401972002A0AD1DF
:1059E00003F098FB1870587803F094FB587098787F
:1059F00003F090FB9870002010BD00007F7F7F00B7
:105A000070B50446002C03D0607F002802D006E069
:105A1000012070BD00202077204600F043F80220CE
:105A200060772168CA204862216853204862204676
:105A300003F006FCFF21002805D020684162042005
:105A40006077012070BD20688268154B1A40826023
:105A500020688268636865691A4323692B431A4387
:105A600082602268E06810612068026923891B0453
:105A70001A4302612068C26880239A43C26020688A
:105A8000026CDB029A4302642068026CA3691A4329
:105A900002642068416201206077002070BD000030
:105AA000BFFF8FFF70470000F8B504460B46207F0C
:105AB000012806D00120207702206077002A02D03A
:105AC00008E00220F8BD5878C10603D5EF21084050
:105AD0000A305870002A23D0587803F01BFB9878BE
