:020000040800F2
:1000000000800020E1DD00086DDE0008D1D200088C
:1000100000000000000000000000000000000000E0
:10002000000000000000000000000000B1E3000834
:10003000000000000000000049E40008C5D20008EC
:100040006DDE00086DDE00086DDE00086DDE000864
:100050006DDE00086DDE0008ADD400086DDE00081E
:100060006DDE000821D300082DD300086DD30008F1
:100070006DDE00086DDE00086DDE00086DDE000834
:100080006DDE00086DDE00086DDE00086DDE000824
:100090006DDE00086DDE00086DDE00086DDE000814
:1000A000C1D400086DDE00086DDE0008D5D200085E
:0C00B000E5D20008F5D200086DDE000863
:1000BC0010B5064C2378002B07D1054B002B02D032
:1000CC00044800E000BF0123237010BD9005002000
:1000DC000000000074A20108044B10B5002B03D0E3
:1000EC000349044800E000BF10BDC04600000000FA
:1000FC009405002074A2010802780B78002A03D022
:10010C00013001319A42F7D0D01A70470023C25CFB
:10011C000133002AFBD1581E7047000002B471460F
:10012C0049084900095C49008E4402BC7047C0462E
:10013C00002243088B4274D303098B425FD3030A1A
:10014C008B4244D3030B8B4228D3030C8B420DD32D
:10015C00FF22090212BA030C8B4202D312120902BB
:10016C0065D0030B8B4219D300E0090AC30B8B42F9
:10017C0001D3CB03C01A5241830B8B4201D38B03A7
:10018C00C01A5241430B8B4201D34B03C01A52414C
:10019C00030B8B4201D30B03C01A5241C30A8B428F
:1001AC0001D3CB02C01A5241830A8B4201D38B027A
:1001BC00C01A5241430A8B4201D34B02C01A52411E
:1001CC00030A8B4201D30B02C01A5241CDD2C30990
:1001DC008B4201D3CB01C01A524183098B4201D30C
:1001EC008B01C01A524143098B4201D34B01C01AF7
:1001FC00524103098B4201D30B01C01A5241C3086F
:10020C008B4201D3CB00C01A524183088B4201D3DD
:10021C008B00C01A524143088B4201D34B00C01AC9
:10022C005241411A00D20146524110467047FFE735
:10023C0001B5002000F0F0F802BDC0460029F7D04F
:10024C0076E7704703460B437FD4002243088B426A
:10025C0074D303098B425FD3030A8B4244D3030B41
:10026C008B4228D3030C8B420DD3FF22090212BA06
:10027C00030C8B4202D31212090265D0030B8B4282
:10028C0019D300E0090AC30B8B4201D3CB03C01A6C
:10029C005241830B8B4201D38B03C01A5241430B47
:1002AC008B4201D34B03C01A5241030B8B4201D337
:1002BC000B03C01A5241C30A8B4201D3CB02C01AA2
:1002CC005241830A8B4201D38B02C01A5241430A1A
:1002DC008B4201D34B02C01A5241030A8B4201D309
:1002EC000B02C01A5241CDD2C3098B4201D3CB01B0
:1002FC00C01A524183098B4201D38B01C01A52415F
:10030C0043098B4201D34B01C01A524103098B4262
:10031C0001D30B01C01A5241C3088B4201D3CB004D
:10032C00C01A524183088B4201D38B00C01A524130
:10033C0043088B4201D34B00C01A5241411A00D2E0
:10034C0001465241104670475DE0CA0F00D0494249
:10035C00031000D34042534000229C4603098B42B9
:10036C002DD3030A8B4212D3FC22890112BA030A41
:10037C008B420CD3890192118B4208D389019211C3
:10038C008B4204D389013AD0921100E08909C30948
:10039C008B4201D3CB01C01A524183098B4201D34A
:1003AC008B01C01A524143098B4201D34B01C01A35
:1003BC00524103098B4201D30B01C01A5241C308AD
:1003CC008B4201D3CB00C01A524183088B4201D31C
:1003DC008B00C01A5241D9D243088B4201D34B0037
:1003EC00C01A5241411A00D20146634652415B1079
:1003FC00104601D34042002B00D54942704763465A
:10040C005B1000D3404201B5002000F005F802BD9E
:10041C000029F8D016E770477047C0468446101C78
:10042C0062468C46191C634600E0C0461FB501F0BD
:10043C0079FB002801D40021C8421FBD10B501F082
:10044C00D1FA4042013010BD10B501F06BFB002811
:10045C0001DB002010BD012010BDC04610B501F01D
:10046C0061FB002801DD002010BD012010BDC0463D
:10047C0010B501F0F3FA002801DC002010BD0120BA
:10048C0010BDC04610B501F0E9FA002801DA0020D1
:10049C0010BD012010BDC0468446081C6146FFE714
:1004AC001FB500F0A7FB002801D40021C8421FBDD6
:1004BC0010B500F029FB4042013010BD10B500F022
:1004CC0099FB002801DB002010BD012010BDC046A7
:1004DC0010B500F08FFB002801DD002010BD0120BD
:1004EC0010BDC04610B500F037FB002801DC002021
:1004FC0010BD012010BDC04610B500F02DFB00282A
:10050C0001DA002010BD012010BDC046994201D176
:10051C00801A04D002D2012040427047012070475B
:10052C00F0B5CE46474615042D0C2E0080B50704B9
:10053C00140C3F0C9946030C7E435D4367436343A5
:10054C007F19340CE4199C46A54203D980235B0225
:10055C009846C4444B4643435143250C36046544EA
:10056C00360C2404A4195B19591820000CBC9046B5
:10057C009946F0BD70B500220C4B04000D00FFF73E
:10058C0081FF002804D12000290002F009F970BD78
:10059C00064B00222000290001F09EFD02F000F91C
:1005AC0080231B069C466044F1E7C0460000E041F6
:1005BC00F8B54746CE4643025B0A4400C20F9C4640
:1005CC004800DD004B02240E5B0A000E80B59846F5
:1005DC0026009146C90FDB00271A8A4229D0002F2A
:1005EC0015DD00284AD1002B00D095E0ED08FF2C3A
:1005FC0000D188E06B025B0AE6B25B02F605580A92
:10060C003043D20710430CBC90469946F8BD002FDE
:10061C0000D087E0601CC0B2012800DCB6E0EE1A06
:10062C00720100D5C5E0002E3DD10022002600232A
:10063C00E3E7002F00DC96E000285DD0FF2C60D0B3
:10064C008022D20413431B2F00DDECE02022D21BAE
:10065C0018009340F8405A1E93410343ED186B0168
:10066C007BD50134FF2C00D1B7E0012207262A40AC
:10067C006B089A4D1D4015432E4029E0FF2CB5D038
:10068C008022D20413431B2F00DDB2E02022D21BA8
:10069C0019009340F9405A1E93410B43ED1A6B011C
:1006AC005BD5AD01AE09300002F0F2F90538864099
:1006BC00844265DC041B330020200134E340041B1E
:1006CC00A640751EAE41334307261D0000241E4074
:1006DC0001224B461A40002E04D00F232B40042B32
:1006EC0000D004356B0100D480E70134E6B2FF2C56
:1006FC002FD1FF26002380E7002B52D1FF2C00D0F6
:10070C0074E70A00ED08002DF3D08023DB032B43A4
:10071C005B025B0AFF2670E7013F002FBED0FF2C67
:10072C00B1D163E7002C47D0FF2869D08024E404C2
:10073C007A4225431B2A00DDC5E02C002026D4403C
:10074C00B21A95406A1E954125435D1B04008946EB
:10075C00A5E7AB015B0A50E7002401224B461A4087
:10076C006B07BAD142E7002F3BD10134E0B201282C
:10077C004ADDFF2CBDD00726ED186D082E40A7E7EB
:10078C000723574D241A35401E40A1E7002C1BD1DE
:10079C00002D6ED1002B00D19AE00A001D003C0008
:1007AC0024E7013F002F00D158E7FF2C00D04AE787
:1007BC00A7E75E1B894676E7002D1CD10A00FF28AF
:1007CC001FD004001D0011E7002D5DD1002B17D1A7
:1007DC0080230022DB03FF260FE70A00FF260023FD
:1007EC000BE7002C21D1002D66D1FF28E9D11D008B
:1007FC0087E7012352E77A1CA7D0FA43FF2899D147
:10080C000A001D00FF24F1E6002E21D1002D4FD04F
:10081C00002B4CD0ED186B019ED5314B07362E407A
:10082C0001241D4054E7012318E7FF28DFD0802462
:10083C00E4047F4225431B2F4DDC2026F61B2C00A5
:10084C00B540FC406A1E95412543ED18040006E7AF
:10085C00002DCCD0002B00D153E780216046C9037A
:10086C00084203D04046084200D11D00012111402E
:10087C0047E7002B00D1B9E6EA1A500125D5072627
:10088C005D1B2E40894623E7FF24002B00D1ADE6EB
:10089C0080226046D203104204D04046104201D15F
:1008AC001D00894601224B46FF241A409EE62B0070
:1008BC00DD080A0000249DE67A1CC6D0FF43FF2801
:1008CC00B9D11D001DE701253FE7151E00D044E7F7
:1008DC000022002391E60125B7E7C046FFFFFF7D0C
:1008EC00FFFFFFFBF8B557464E464546DE46440231
:1008FC00E0B546008846640A360EC70F002E63D05A
:10090C00FF2E24D08023E400DB041C4300239946F3
:10091C009B467F3E434642465D02D20F5B006D0A0A
:10092C001B0E9046924665D0FF2B55D0802200219D
:10093C00ED00D2047F3B1543F61A43464A467B40F2
:10094C000F2A00D98DE06D48920082589746002CF2
:10095C0054D108239946063BFF269B46DAE700252F
:10096C00534602291BD0032900D1BFE0012928D00E
:10097C0030007F30002820DD6A0704D00F222A4087
:10098C00042A00D004352A0103D530005C4A80309B
:10099C001540FE2803DCAC01640AC2B201E0FF2260
:1009AC0000246402D205600ADB07104318433CBCE8
:1009BC0090469946A246AB46F8BD0122101A1B2858
:1009CC007CDD00220024ECE7002C1DD10423994689
:1009DC00033B00269B469DE7FF3E002D20D10221C4
:1009EC0043464A467B400A430F2AD8D845489200D2
:1009FC0082589746002D19D10121F1E70C23994615
:100A0C00093BFF269B4685E7200002F041F876263D
:100A1C00431F9C4000237642361A99469B4679E741
:100A2C004A4603231A439146032186E7280002F025
:100A3C002FF8431F36189D40763600217DE7802421
:100A4C000023E403FF22ACE700258023DB031C42D8
:100A5C0028D01D4226D12B435C02640A4346FF2258
:100A6C009FE762016C01A24224D21B210025013EAA
:100A7C00012710006D005200002801DB944201D8C0
:100A8C00121B3D4301390029F3D11400621E94411D
:100A9C0025436DE7BA46594625005346022900D036
:100AAC0061E77CE78023DB031C436402640A3B00A0
:100ABC00FF2276E7121B1A210125D9E79E362A0060
:100ACC00B5402C00C240651EAC411443620704D0F3
:100ADC000F222240042A00D00434620103D4A40162
:100AEC00640A00225DE7012200245AE78024E40313
:100AFC002C436402640AFF2253E7C046C4A20108D7
:100B0C00FFFFFFF704A3010870B542004E024C0032
:100B1C0045026D0A120EC30F760A240EC90FFF2A66
:100B2C000FD0FF2C11D00120A24200D070BDB542D5
:100B3C00FCD18B420DD0002AF8D12800451EA841CB
:100B4C00F4E70120002DF1D1EBE70120002EEDD1CF
:100B5C00E9E70020EAE7C04670B54A004E024502BC
:100B6C0044006D0A240EC30F760A120EC90FFF2C17
:100B7C0015D0FF2A0ED0002C15D1002A01D1002E41
:100B8C001CD0002D14D08B4227D00220013B1840E2
:100B9C00013870BD002EEED002204042F9E7002D46
:100BAC00FAD1FF2A0ED0002A0ED1002EEDD00BE088
:100BBC0001230139994308000130EAE70020002D98
:100BCC00E7D0E2E7002EE7D18B42DED1944205DD7F
:100BDC000221581E08400138DBE70024A24204DC45
:100BEC00B542D2D80020B542D3D2581E0123984327
:100BFC000130CEE730B5420044024D02C30F48002D
:100C0C00640A120E6D0A000EC90FFF2A12D0FF28BB
:100C1C000CD0002A12D1002819D1002D17D1002C8C
:100C2C002BD00220013B1840013826E0002DF0D0DB
:100C3C00022022E0002CFBD1FF281FD000281FD15E
:100C4C00002D1DD10220013B1840013815E0002C6D
:100C5C000ED08B42E5D10022904204DCAC42E0D8AD
:100C6C000020AC4209D2581E01239843013004E005
:100C7C000123013999430800013030BD002DD7D133
:100C8C008B42CED18242E7DD0221581E084001384A
:100C9C00F3E7C04670B500283DD0C317C5185D40BA
:100CAC00C40F280001F0F4FE9E22121A962A07DCCB
:100CBC00D2B2082833DD083885406802400A23E0A8
:100CCC00992A0BDD052329001B1AD94003001B337D
:100CDC009D402B005D1EAB4119430D00052801DD25
:100CEC00431F9D402B000F490B406E0709D00F2668
:100CFC003540042D05D004335D0102D59F220B40F5
:100D0C00121A9B01580AD2B24002D205400AE407DB
:100D1C001043204370BD002400220020F4E7680239
:100D2C00400AF1E7FFFFFFFB70B5041E34D001F061
:100D3C00AFFE9E22121A962A07DCD2B208282EDDAC
:100D4C00083884406002400A21E0992A09DD03003A
:100D5C0021001B3399404B1E994105231B1ADC4083
:100D6C000C43052801DD431F9C4023000D490B401B
:100D7C00650709D00F252C40042C05D004335C01E9
:100D8C0002D59F220B40121A9B01580AD2B2400284
:100D9C00D205400A104370BD00220020F7E7600224
:100DAC00400AF4E7FFFFFFFBF0B54F464646D64638
:100DBC000C000903C0B5490A470F5E0039431F03F5
:100DCC00DB0F9C4665007B0A570F1F436D0DE40F2C
:100DDC00760DA146C000B846D200AB1B64457BD053
:100DEC00002B5FDD002E00D0A4E03E00164300D1A6
:100DFC0012E15E1E002E00D09EE1871A4346B842D7
:100E0C0080410125C91A4042091A0B0200D431E174
:100E1C0049024E0A002E00D16EE1300001F038FE7E
:100E2C000300083B1F2B00DD61E120223900D21AA0
:100E3C009E40D1409F400E439D4200DD51E15D1B21
:100E4C006B1C1F2B00DD7CE12021C91A3D003000FA
:100E5C008F408840DD40791E8F41310007222843A6
:100E6C00D940002507433A40002A09D00F233B40C4
:100E7C00042B05D03B1DBB42BF417F42C9191F004B
:100E8C000B0200D426E26A1CC64B55056D0D9A4226
:100E9C0000D106E1C44AFF080A40530752023B4303
:100EAC00120B8EE0002B00D0B8E06B1C5B055B0DC9
:100EBC00012B00DC30E1871A4346B842B641CB1A0D
:100ECC0076429E1B330200D54CE13B003343A1D14B
:100EDC0000220024002570E0002B00DCE5E0002E51
:100EEC0000D183E0AF4EB54260D080263604374344
:100EFC00B846382B00DC3EE1434613431F007A1EF4
:100F0C0097413F1887428041404209180B0200D498
:100F1C00B0E0A44B01359D4200D1C3E0A24A7B084E
:100F2C000A4001210F401F435108D30707221F43DA
:100F3C003A4099E79B4EB54238D080263604374369
:100F4C00B846382B00DDDCE01F2B00DC30E11E0046
:100F5C004746203EF740BC46202B04D04026F31ACF
:100F6C0046469E403243170063467A1E97411F4304
:100F7C00CCE0002B00D104E24346134300D159E1ED
:100F8C004B07C00818438023C9081B03194208D01B
:100F9C004546ED081D4204D14346D0085907084385
:100FAC002900420FC9007F4D1143C0004B07CA08EE
:100FBC007C49C00803438D4268D012036D05120BA7
:100FCC006D0D002112031800130B0A0D12051A43A4
:100FDC00764B2D0513402B435B00E4075B08234342
:100FEC0019001CBC90469946A246F0BD3E00164323
:100FFC0012D05E1E002E00D000E18718874280417F
:10100C0041444042091801250B0233D5022585E7DE
:10101C0064463300414610001D00C7E7002D00D088
:10102C00DAE00C000443F3D05C1C00D19FE15D4C72
:10103C00A64200D12FE1DB43382B00DD66E11F2BEC
:10104C0000DD83E120240500E41A0F00DD40D940C7
:10105C00A0404346A7405B1A441EA04198462F432C
:10106C003843171ABA42924143465242991A64467F
:10107C003500CAE607223A40002A00D0F6E64B07B4
:10108C00CA084849FF083B438D4296D119001143C9
:10109C0000D19EE1802109030A431203120B414D3A
:1010AC008FE71500002200238BE7002B00D0C7E050
:1010BC006B1C5F057F0D012F00DCF1E0394DAB425D
:1010CC0000D1B9E085180A00854289414244494261
:1010DC0051180722CF076D082F4349083A401D00CD
:1010EC00C2E607223049ED1A31403A40BCE63E00D8
:1010FC002838864000279FE6380001F0C9FC2030D4
:10110C008EE6434613431F007A1E9741C71BB84215
:10111C0080414042091A78E60E003B000643134317
:10112C00002D61D1002E00D0F4E0002B00D11BE18A
:10113C0064463900100039E71A4FBB427AD03300AD
:10114C00FFE630001F3DE840202B03D04021CB1A96
:10115C009E4037437B1E9F41072207433A400021A4
:10116C00002589E7171A4346BA42B641591A764206
:10117C008E1B64464EE61F2B00DDADE02026474655
:10118C00F61AB740B9461700B246DF404E463E430A
:10119C0037005646B240561EB24117434246DA401B
:1011AC008918AEE6FF070000FFFF7FFFFFFF0F80EF
:1011BC0020264746F61AB740B9461700B246DF401C
:1011CC004E463E4337005646B240561EB241174378
:1011DC004246DA40891A99E77F4CA6425BD08024BC
:1011EC0024045B42214327E7002E0CD1002B00D1B5
:1011FC00CBE0644639001000774DD7E6764FBB4202
:10120C0018D0330075E6002B14D04B07C0081843D8
:10121C008023C9081B03194207D0FC081C4204D1C7
:10122C007907D0080843E14621004C46420FC9001B
:10123C001143C000684DB9E61D0000220023C0E632
:10124C00002D5BD10D00054300D1E2E65D1C00D101
:10125C00B0E0614DAE421FD0DB43382B71DC1F2B4D
:10126C0000DD96E020250F00ED1AAF40B9460700CF
:10127C00AA46DF404D463D432F005546A840D94075
:10128C00451EA84188440743BF18974292415142DA
:10129C00414435003AE6644635004146100085E687
:1012AC000B000343002D00D063E6002BF5D0434622
:1012BC00134300D17AE687188742804107224144C4
:1012CC00404209183A400B0200D4D5E6434B013595
:1012DC001940C9E5380069E61E004746203EF74034
:1012EC00BC46202B04D04026F31A46469E4032437F
:1012FC00170063467A1E97411F4302E6364DAE42F5
:10130C00CAD080252D045B422943A6E70843411E21
:10131C008841A6E6002B00D148E6871A4346B8421E
:10132C00B641CB1A76429E1B33024BD5171A434655
:10133C00BA429241591A5242891A072264463A40DB
:10134C0092E501430F00791E8F419DE71C000F00B1
:10135C00203CE740202B03D04024E31A994008435B
:10136C00411E884138437CE60022002425E6171AEA
:10137C004346BA429241591A5242891A6446350080
:10138C0043E541461000144D10E680220024120360
:10139C0080E61D000F00203DEF40BC46202B03D003
:1013AC004025EB1A9940084307006346781E874195
:1013BC001F4369E7871897429B4141445B42C91818
:1013CC003500A3E53B003343CED0072231003A4031
:1013DC0052E600231A00F4E5FF070000FFFF7FFF31
:1013EC00F0B55746DE464E464546E0B58346070007
:1013FC000E03480085B092461C00360B400DCD0FF5
:10140C00002800D19DE0954B984239D08023F600FE
:10141C001B041E43924A7B0F3343994694460300A8
:10142C006344009300230026FF00029323031B0B4D
:10143C0098466300E40F52465B0D019400D1B3E073
:10144C0086498B4200D19EE04246D1008022120494
:10145C000A435146490F11438B46814952468C46EB
:10146C0000996344CB1A0021D20000932B006340F7
:10147C009A460F2E00D905E17A4BB6009B599F4630
:10148C005B463343994600D0B8E002230826002778
:10149C0000900293CAE7CB463A0002990195019B52
:1014AC009A46022927D0032900D180E2012944D091
:1014BC006D49009B8C4663441C00002C38DD53079F
:1014CC0000D013E2D2085B46DB0109D55946674BC5
:1014DC0019408B468021C9008C46009B63441C003C
:1014EC00634B9C4207DC5B4664055F075B0217435A
:1014FC001B0B620D02E000230027584A00211B033E
:10150C001C0B0B0D1B05234314055A4A38001340C2
:10151C001C4353466400DB0764081C43210005B0E0
:10152C003CBC90469946A246AB46F0BD01225242C5
:10153C0001231B1B382B00DCADE10022002300270C
:10154C00DCE75B46334399465ED0002E00D18AE13E
:10155C00300001F09DFA03000B3B1C2B00DD7BE1FE
:10156C001D22D31A5A460100DA4008398E40130066
:10157C005F46334399468F403F4B00261B1A00931E
:10158C000023029352E7414653460B433B499B468B
:10159C008C46009B634400935B46002B3BD102239B
:1015AC0000221E43022161E7434613439B4637D07A
:1015BC004346002B00D162E1404601F069FA03007A
:1015CC000B3B1C2B00DD53E102004146083A9140D5
:1015DC0088461D21CB1A5146D9400B0041460B437E
:1015EC009B46534693401A00009B25499C466044F9
:1015FC0003008C4663440093002137E70323B14674
:10160C0000900C26029311E700230093013304266B
:10161C00002702930AE70323C3461E43032125E751
:10162C0001331E430022012120E700239A46802328
:10163C0000271B03094A61E7802349461B03194213
:10164C0000D1E2E05946194200D0DEE00B431B0307
:10165C0017001B0BA246014A50E7C046FF070000CB
:10166C0001FCFFFF44A30108FF030000FFFFFFFE86
:10167C00FE070000FFFF0F800DFCFFFF01F8FFFFCE
:10168C00F3030000D94500D9CBE000D1C6E03C0003
:10169C0048460027009B013B00935B46160E1B023D
:1016AC001E431302984633041B0C9946310C0191CE
:1016BC00FEF7C4FD4A4642430B04210C05001943B6
:1016CC008A4207D98919013D8E4203D88A4201D931
:1016DC00851E8919881A0199FEF7B0FD09048C46FC
:1016EC004A46210464464243090C030021438A42C2
:1016FC0004D98919013B8E4200D8F1E02D041D4319
:10170C00AB464346891A4246280C12041D0C5B4614
:10171C00140C22001B041B0C5A4303946B434443CC
:10172C00029568431B19150CEB189C4203D98024B5
:10173C006402A44660441C0C15041B042D0C2018D8
:10174C005D19814277D373D00C1AA24A7D1BAF422C
:10175C00BF419446009B7F426344E01B1C008642C1
:10176C0000D1DBE00199FEF769FD4A4642430B04C8
:10177C00290C070019438A4207D98919013F8E4267
:10178C0003D88A4201D9871E8919881A0199FEF754
:10179C0055FD09044A46894629044D464243090C25
:1017AC00030029438A4207D98919013B8E4203D889
:1017BC008A4201D9831E89193F04891A3A00039F72
:1017CC001A43380013041B0C584381460298150C1D
:1017DC006F43434345434846000C8446DB1963443E
:1017EC009F4203D9802040028446654448461F0C22
:1017FC0000041B04000C7D191818A94200D284E0C7
:10180C0000D17FE001231A4357E680234A461B038D
:10181C0013431B031B0BAA466F4A6FE6BA4200D94F
:10182C0035E74B46DC0758087B081C43FF0734E7B9
:10183C000024AF4289D247444745A4415B466442E9
:10184C00A4196418013BA6421ED2A0426DD800D147
:10185C00B6E0241A9B4678E703005A46283B9A4088
:10186C000027914688E6584601F012F9203072E6BE
:10187C0003005246283B9A4093460022B4E6504659
:10188C0001F006F920309AE6A642E2D1B845DCD93F
:10189C00341A9B4659E71F2B65DC504C0099A44623
:1018AC005C46614408008C4011008240D940501EB7
:1018BC0082410C4314435A46DA401300620709D0A4
:1018CC000F222240042A05D02200141D9442894183
:1018DC0049425B181A0262D50122002300270DE64B
:1018EC008A4200D80AE7831E891907E70F231340A1
:1018FC00042B00D1E6E5171D9742924153429B44BD
:10190C00FA08E0E5002800D1D7E57118531EB14262
:10191C0027D3A94215D358D01A0073E7002B00DC4B
:10192C0004E6012300229B44CDE5022347444745AE
:10193C0089415B429C46494289190C19E344241A9B
:10194C0003E743465F0047459B41B8465B429E19FF
:10195C00023A8919A94200D054E7404500D051E71A
:10196C00ABE51A00F6E71F215F4649420C1BE74026
:10197C00202B07D01A49009B8C46634418005B4609
:10198C0083401A43501E82413A43072700231740D5
:10199C0009D00F21002311401400042995D12200F5
:1019AC005F075B021B0BD20817430022A6E58023BE
:1019BC0059461B030B431B0317001B0B064A9DE5E3
:1019CC00BD42B2D89B460024BFE68045B9D31A006D
:1019DC00C3E7C046FF030000FF0700001E04000021
:1019EC003E040000F0B54F464646D6468446C0B588
:1019FC008046194E18030F034D00000B5C00824605
:101A0C003F0B6D0DC90F9146640DDB0F0120B542E4
:101A1C000AD0B44203D0A54201D157450CD01CBC0E
:101A2C0090469946A246F0BD66463E43F7D1AC427D
:101A3C00F5D154461443F2D10120C845EFD1994257
:101A4C0007D0002DEBD163461F433800471EB84129
:101A5C00E5E70020E3E7C046FF070000F0B54F467E
:101A6C004646D6464D00C0B50E03C90F8A462C49D2
:101A7C001F035C008046360B6D0D91463F0B640DC9
:101A8C00DB0F8D421ED08C4216D0002D1ED1304360
:101A9C008446002C01D13A4323D06246002A1AD046
:101AAC009A4529D0514602200139084001381CBC06
:101ABC0090469946A246F0BD39001143E5D002206C
:101ACC004042F4E73043FAD1AC420FD0002C0FD196
:101ADC003A43E7D00CE00122013B9343180001305C
:101AEC00E5E763460020002BE1D0DBE73A43E6D183
:101AFC009A45D7D1A542D5DCA54205DBBE42D1D84B
:101B0C0008D00020BE42D2D250460123013898435F
:101B1C000130CCE7C845C5D80020C845F4D3C6E78A
:101B2C00FF070000F0B54F464646D6464D00C0B5FF
:101B3C000E03C90F8A462E491F035C008046360BE4
:101B4C006D0D91463F0B640DDB0F8D4218D08C420E
:101B5C0011D0002D18D130438446002C1ED13A43AD
:101B6C001CD163460020002B30D051460220013995
:101B7C00084001382AE039001143EAD0022025E060
:101B8C003043FBD1AC4226D0002C26D13A4324D191
:101B9C005146022001390840013817E06246002AFC
:101BAC000FD09A45E1D1A54205DBBE42DDD819D054
:101BBC000020BE420AD2504601230138984301301E
:101BCC0004E00122013B9343180001301CBC9046F9
:101BDC009946A246F0BD3A43D0D19A45C5D1A5420B
:101BEC00C3DCE0E7C845C0D80020C845E3D3EDE727
:101BFC00FF070000F0B55746DE464E464546E0B5B9
:101C0C00834606000F03480087B092461D003F0B29
:101C1C00400DCC0F002800D16FE0DE4B984238D03D
:101C2C008023FF001B041F43730F3B430193DA4BCC
:101C3C000027994600239B46F60081442B0369003C
:101C4C001B0B52469846490DED0F002900D185E03B
:101C5C00D04B994200D173E04346DA0080231B0439
:101C6C0013435246CC48520F84461343524600202D
:101C7C006144D20089442100694000918C460121C5
:101C8C0049448A460F2F00D990E0C449BF00CF5970
:101C9C00BF465B463B43019300D06AE10223082711
:101CAC00002681469B46C9E732005846019B614697
:101CBC000091022800D175E0032800D1FEE1012833
:101CCC0000D02CE100230027002600253F032A0D1D
:101CDC003F0BB34812053A4302401B051343009ACD
:101CEC005B00D1075B080B433000190007B03CBC0C
:101CFC0090469946A246AB46F0BD5B463B430193EA
:101D0C0000D12FE1002F00D1A5E1380000F0C0FE7A
:101D1C0003000B3B1C2B00DD96E11D22D31A5A4607
:101D2C000100DA405E4608398F4013008E403B4379
:101D3C0001939C4B00271B1A994600239B467DE779
:101D4C00414653460B4393498C46E144002B00D04B
:101D5C001AE102220220174300228CE7134300D120
:101D6C000DE14346002B00D181E1404600F090FE8E
:101D7C0002000B3A1C2A00DD72E1010043460839CF
:101D8C008B4098461D239A1A5346D3401A0043465B
:101D9C00134352468A404946081A8249894681446F
:101DAC00002068E77B4B002700268EE7140C1204FA
:101DBC00120C1100370C3604350C794328008C4674
:101DCC002E0060436044834656432100300C80460D
:101DDC005846794340440291844506D9884680216F
:101DEC0049028C46E044414602913604010C360C03
:101DFC0000048B4681191E0C1B041B0C039119004B
:101E0C0079438C46280075436544A8465843050C15
:101E1C0045447743A94203D9802149028C46674443
:101E2C00290C8C4639000004000C2D042D1861443B
:101E3C00AB4405915946049101990F043F0C080CD1
:101E4C00390051434243904602008C46090C8B46A4
:101E5C0062437C4344445C44A04503D9802149023D
:101E6C0088464244210C884661460904090C8C467C
:101E7C0039005943434370437E430F0CF618240436
:101E8C00BE19644442448C46B34203D980235B029E
:101E9C0098464044029B61469846049B3704434451
:101EAC009B46AB45AD416B420D0405992D0C8C4600
:101EBC007F196744FD18A8465D462D19A542A4411B
:101ECC0093466442A446C344DC448F42BF419845C8
:101EDC009B4193459241A445A4415B427F421F43E1
:101EEC00360C52426442BF192243BF18624638185E
:101EFC004302D20D039913436A020A43501E8241D6
:101F0C006146ED0D2A434E023243D90100D4B3E0B1
:101F1C000126500832400243DE0732435B08224C54
:101F2C005444002C62DD510709D00F2010400428C6
:101F3C0005D0101D9042924152429B180200D901CB
:101F4C0004D580241948E4000340544418488442C2
:101F5C0000DD27E75E075B02D2081F0B6305164303
:101F6C005B0DB2E6002399460133042700269B46FD
:101F7C0064E60323019781460C279B465EE601220B
:101F8C0001201743002276E6032303201F43434618
:101F9C0071E6C046FF07000001FCFFFF84A30108A7
:101FAC00FFFF0F800DFCFFFFFF030000FFFFFFFE94
:101FBC00FE0700000023802700933F030026434BBD
:101FCC0083E6019B3200A446584670E6AC466EE6AA
:101FDC00802701993F0339422DD03B422BD11F431F
:101FEC003F033F0B00951600384B6EE601252D1B69
:101FFC00382D00DD66E61F2D40DC35481C005044B2
:10200C00160082408440EE40501E824134431443FB
:10201C00EB40620709D00F222240042A05D022008F
:10202C00141D9442804140421B181A023ED50123D4
:10203C000027002649E68027019B3F031F433F03EF
:10204C003F0B0094214B40E603005A46283B9A4034
:10205C00002601926DE6584600F01AFD203057E636
:10206C0003005246283B9A401300002293E6504648
:10207C0000F00EFD20307BE6CA4650E71F201E0004
:10208C004042041BE640202D03D0124C5444A34084
:10209C001A43501E8241324307260027164009D0AE
:1020AC000F200023104014000428B9D122005E0731
:1020BC005B021F0BD2081643002306E680273F0362
:1020CC001F433F033F0B1600004BFEE5FF070000CC
:1020DC001E0400003E040000F8B557464E46454627
:1020EC00DE460C000903E0B5490A460F5F00314398
:1020FC001E03DB0F760A9B46530F3343C84E650015
:10210C00C000E40FD2006D0DA24681467F0D9C46A7
:10211C009046B74200D1B9E05B46012673409B461E
:10212C00EE1BA34500D183E0002E63DD002F00D011
:10213C00B1E06346134300D123E1731E002B00D0A2
:10214C00BAE1861A6346B04280410125C91A404261
:10215C00091A0B0200D447E149024B0A9846434640
:10216C00002B00D189E1404600F092FC0300083BB3
:10217C001F2B00DD7CE120223000D21A4146D040DA
:10218C00994002009E400A439D4200DD6AE15D1BBE
:10219C006B1C1F2B00DD94E1202110003500C91AA7
:1021AC008E40DA408840DD40711E8E4111000722BE
:1021BC002843002506433240002A09D00F23334020
:1021CC00042B05D0331DB342B641764289191E004B
:1021DC000B0200D43DE26A1C914B55056D0D9A42E1
:1021EC0000D119E18F4AF6080A40570752023743CB
:1021FC00120B9BE0002E00D0C5E06E1C7605760D10
:10220C00012E00DC48E16746861ACB1BB042BF4169
:10221C007F42B8461F004346FF1A3B00B8461B02DC
:10222C0000D55FE137439AD100220024002579E0E4
:10223C00002E00DCFAE0002F00D18DE0784B9D429F
:10224C0067D0802367461B041F43BC46382E00DC36
:10225C0052E1634613435A1E93411E188642804135
:10226C00404209180B0200D4BEE06D4B01359D4273
:10227C0000D1D2E06B4A73080A4001210E401E4384
:10228C005108D30707221E43324095E71E00164320
:10229C0000D045E740E7624B9D423AD08023674629
:1022AC001B041F43BC46382E00DDEBE01F2E00DC68
:1022BC003AE133006746203BDF403B00202E05D03F
:1022CC004027BF1B6646BE40324390464646721EB0
:1022DC0096413343DAE0002B00D114E263461343FA
:1022EC0000D168E180234E07C008C9081B030643D0
:1022FC00194208D06046C008184204D16346010058
:10230C00D2085E071643F3009946C900720F444D7C
:10231C0011434B46DE08424B4F073743CA089D42D8
:10232C0000D16EE012036D05120B6D0D002112032E
:10233C00130B0A0D12051A433B4B2D0513402B436F
:10234C005B00E4075B082343380019003CBC904653
:10235C009946A246AB46F8BD6346134311D0731E93
:10236C00002B00D007E18618864280416144404230
:10237C00091801250B0237D502257BE73E00614683
:10238C0091463500C5E75C46002D00D0E1E00B001E
:10239C000343F3D0731C00D1ACE1214B9F4200D11D
:1023AC003AE1F343382B00DD6FE11F2B00DD8CE1AC
:1023BC0020250E00ED1AAE40B0460600AA46DE40BF
:1023CC00454635432E005546D940A8406346451E28
:1023DC00A8415B1A9C463043161AB242924163469E
:1023EC005242991A3D00B4E607223240002A00D02E
:1023FC00E4E60B4BF6084F073743CA089D4200D062
:10240C0090E73B00134300D1A6E180231B031A4342
:10241C001203120B024D89E715000022002785E7F5
:10242C00FF070000FFFF7FFFFFFF0F80002E00D093
:10243C00C7E06B1C5E05760D012E00DCF0E0C84D8C
:10244C00AB4200D1B9E085180A008542894162444B
:10245C00494251180722CE076D082E4349083240D5
:10246C001D00A9E6BF49ED1A114007223240A3E630
:10247C00320028388240002686E6300000F008FB47
:10248C00203073E6634613435A1E9341C61AB0427A
:10249C0080414042091A5CE60E006746064317432A
:1024AC00002D5ED1002E00D0F3E0002F00D11EE1F4
:1024BC005C46614691462CE7A94FBE427BD01E007C
:1024CC00F1E610001F3DE840202B03D04021CB1A31
:1024DC009A401643731E9E41072206433240002148
:1024EC00002583E7161A6346B2428041591A4042CE
:1024FC000B1A98465C4632E61F2E00DDABE0202717
:10250C00BB1B9A4663465746BB40994613004F4641
:10251C00F3401F433B005746BA40571EBA41134382
:10252C006246F240891898E62027BB1B9A46634600
:10253C005746BB40994613004F46F3401F433B00A0
:10254C005746BA40571EBA4113436246F240891AA5
:10255C009CE7834B9F425FD080252D047342294317
:10256C0020E7002E0CD1002F00D1D0E05C46614654
:10257C0091467B4DCDE67A4FBE421CD01E0065E6DF
:10258C00002F18D0C0084E0706438020C90800034E
:10259C00014208D06346DC08044204D12100DA462B
:1025AC00D2085E071643F300994601245346C9002E
:1025BC00720F11431C406A4DABE61D000022002730
:1025CC00B4E6002D59D10B00034300D1D6E6731CA1
:1025DC0000D1B2E0624B9F421ED0F343382B6FDC2C
:1025EC001F2B00DD97E020250E00ED1AAE40B04603
:1025FC000600AA46DE40454635432E005546A84007
:10260C00D940451EA8418C440643B61896429241C7
:10261C00514261443D0025E63D006146914678E615
:10262C000B000343002D00D055E6002BF5D063467C
:10263C00134300D16DE686188642804161444042C6
:10264C00091800220B0200D4D0E6464B0135194084
:10265C00B2E5B1465DE633006746203BDF403B0008
:10266C00202E05D04027BF1B6646BE403243904605
:10267C004646721E96413343EFE5394B9F42CBD011
:10268C0080252D0473422943A8E70843411E884145
:10269C00A2E6002F00D13CE66346861ACF1AB04260
:1026AC009B415B42FB1A98461B024ED5161A634699
:1026BC00B2429241591A5242891A5C4600227BE579
:1026CC0001430E00711E8E419FE71D000E00203D40
:1026DC00EE40B046202B04D04025EB1A994008431D
:1026EC00814648464346411E8841184374E6002201
:1026FC00002417E6161A6346B2429241591A524206
:10270C00891A3D0025E561469146154D01E680226A
:10271C000024120379E61D000E00203DEE40B04669
:10272C00202B04D04025EB1A9940084381464E4695
:10273C004346711E8E411E4367E7861896429B41A5
:10274C0061445B42C9183D008CE547463743CED007
:10275C0007224146324049E600273A00E6E5C046EA
:10276C00FF070000FFFF7FFF70B50C4E0D031C032D
:10277C0049005B002D0B490D240B5B0DB14208D0B9
:10278C00064900208B4203D114432000441EA04173
:10279C0070BD05430120002DFAD1F1E7FF070000C1
:1027AC0030B5144D0A034B00120B5B0DC90F0024FE
:1027BC00AB4211DD104CA34210DC80246403224395
:1027CC000E4CE41A1F2C0CDD0D48C31ADA40130012
:1027DC005C42002900D11C00200030BD094BCC18F4
:1027EC00FAE7094DE040AC4663449A4013000343BA
:1027FC00EEE7C046FE0300001D0400003304000099
:10280C0013040000FFFFFF7FEDFBFFFF70B50028F6
:10281C002DD0C317C5185D40C40F280000F038F93F
:10282C00154B1B1A5B055B0D0A2815DD0B38854013
:10283C0000222D032D0B002110002D030A0D2D0B52
:10284C0012052A430D4D1B052A4013435B00E40778
:10285C005B082343190070BD02002900153291401A
:10286C000A000B21081AC5402D032D0BE3E70024A9
:10287C00002300250022DEE71E040000FFFF0F806E
:10288C0010B5041E25D000F003F9144B1B1A5B0580
:10289C005B0D0A2812DD0B38844000222403240B24
:1028AC000021100024030A0D240B120522430C4CAA
:1028BC001B05224013435B00590810BD0200210088
:1028CC00153291400A000B21081AC4402403240B32
:1028DC00E6E7002300240022E2E7C0461E040000C5
:1028EC00FFFF0F804100090E4B1C70B5DBB2460296
:1028FC00750AC40F012B14DDE0239B006D07360B0A
:10290C00CB1800210A0D280012051C4D32435B0523
:10291C002A405B0813435B00E4075B082343190060
:10292C0070BD002914D1002D1ED0280000F0B0F885
:10293C000A281CDC0B232A001B1ADA40030015336F
:10294C009D400F4B12031B1A5B05160B5B0DD8E752
:10295C00002D06D0320B802636036D071643094B2B
:10296C00CFE7084B0026CCE700230026C9E703007D
:10297C002A000B3B9A400025E3E7C046FFFF0F807F
:10298C0089030000FF070000F0B54C00640D0B0339
:10299C00621C5B0A460F5205C90F1E43C500520D3F
:1029AC00012A29DD374BE718FE2F1CDC002F3BDDFD
:1029BC008001431E98410722F3006D0F03432B4304
:1029CC001A40002A04D00F221A40042A00D00433E3
:1029DC008022D2041A4024D00137FAB2FF2F02D041
:1029EC009B01580A01E0FF2200204002D205400A58
:1029FC00C90710430843F0BD3543002C04D1002D0A
:102A0C000AD100220020F0E7002DECD08020C0037A
:102A1C003043FF22E9E7002400235B02580AE2B2AC
:102A2C00E3E7DB083C00F8E73B001733F3DB8023DC
:102A3C001B0433431E26F61B1F2E14DD02225242AA
:102A4C00D71B1A00FA401700202E04D00E4A9446C9
:102A5C006444A3401D432B005D1EAB4107223B4346
:102A6C001A400027ADE7094A2800A2189540934068
:102A7C006C1EA541F04007222B4303431A4000274C
:102A8C009FE7C04680FCFFFFA2FCFFFF82FCFFFF1C
:102A9C001C2101231B04984201D3000C10391B0A82
:102AAC00984201D3000A08391B09984201D3000946
:102ABC00043902A2105C40187047C046040302029D
:102ACC0001010101000000000000000070B50B784E
:102ADC00002B03D104780023002602E0FF24FAE740
:102AEC000133074A12789A4208DDC25CA242F7D23F
:102AFC00CD5C002DF4D1DEB21400F1E7300070BDD6
:102B0C001C0000200023012202E0C15C0A400133BA
:102B1C00024909789942F8DC100070471C0000202B
:102B2C00F0B5D6464F4680B583B0322013F0C4FCC6
:102B3C00071E65D0364B1B78FE2B63D10026344C18
:102B4C004BE02278FA540133DBB20134132BF8D961
:102B5C00B246B3009B199A002E4B91469944791CAE
:102B6C001422484613F0DDFC14220021380013F027
:102B7C00E1FC002503E07A5501340135EDB20194F6
:102B8C002278931CDBB2012B01D9312DF3D97B199F
:102B9C00013B1B78002B01D00135EDB2280013F05E
:102BAC008BFC53469B0053449A001A4B9B18D860DD
:102BBC00002816D02A00390013F0B3FC164A1378FB
:102BCC00013313702A000021380013F0B3FC019B71
:102BDC001B78FE2B0FD10136F6B2042E0BD8002336
:102BEC00B4E714220021484613F0A4FC380013F07B
:102BFC006DFC0E2007E0380013F068FC002002E0AA
:102C0C00FB2000E0FF2003B00CBC91469A46F0BDBF
:102C1C0000DC0108E46000209F09002070B501244D
:102C2C00002605E0601C04F0EFFA0CE00134E4B27D
:102C3C00084B1B78A3420BD32500631E5B00064A8E
:102C4C00995A0029EED102351B2DEFDD0A26EDE74E
:102C5C00300070BD1C0000209C66002070B5042262
:102C6C0000210F4813F066FC0124002605E0601CCF
:102C7C0004F0CAFA0CE00134E4B20A4B1B78A3420C
:102C8C000BD32500631E5B00054A995A0029EED12F
:102C9C0002351B2DEFDD0A26EDE7300070BDC04676
:102CAC009C6600201C00002070B50124002501E06A
:102CBC000134E4B2084B1B78A3420BD3611E4900CC
:102CCC00064BC918601C04F0EDF9A31C1B2BEFDD9F
:102CDC000A25EDE7280070BD1C0000209C66002032
:102CEC00F8B50026002517E0601EBA00D219510075
:102CFC00114B5B18195C09021B5DC91889B22800BD
:102D0C001C3080B204F080FA0135ADB20234E4B26A
:102D1C00092CE9D90136F6B2084B1B78B34209D31A
:102D2C003700B3009B195A00034BD35C002BF1D036
:102D3C000124EDE70020F8BD1C0800201C00002039
:102D4C00F0B583B06B460022DA800026002523E024
:102D5C006B469F1D28001C3080B2390004F0A2F98C
:102D6C003988124AB3009F19780010180155671E54
:102D7C00090A9B1958001218D1550135ADB202340D
:102D8C00E4B2092CE4D9B3009B195A00074B9B18E9
:102D9C0000225A720136F6B2054B1B78B34201D3AE
:102DAC000124EEE7002003B0F0BDC0461C08002053
:102DBC001C000020F0B583B06B460022DA800024A2
:102DCC0000250BE063001E49C9182800CB3080B2E7
:102DDC0004F068F90135ADB20134E4B2194B1B783B
:102DEC00A342EFD8002623E06B469F1D28009930A4
:102DFC0080B2390004F056F93988134AB3009F1990
:102E0C00780010180155671E090A9B1958001218F2
:102E1C00D1550135ADB20234E4B2092CE4D9B3007A
:102E2C009B195A00084B9B1800225A720136F6B2B5
:102E3C00092E01D80124F0E7002003B0F0BDC046F4
:102E4C00A40700201C0000204007002070B584B0AF
:102E5C000E21694400230B8003AA1380E42004F0A4
:102E6C0021F9002800D075E00E236B441E780E214A
:102E7C006944E52004F016F9040003A9E62004F0E7
:102E8C0011F90443A4B2002C00D065E00E236B446E
:102E9C001D882D0403AB1B88ED180E216944E72017
:102EAC0004F000F9040003A9E82004F0FBF8044343
:102EBC00A4B2002C52D10E236B441C88240403AB07
:102ECC001B88E4180E216944E92004F0EBF8002873
:102EDC0007D10E236B441B88190A2C4A11702C4AFB
:102EEC0013700E216944EA2004F0DCF8002807D1A5
:102EFC000E236B441B88190A264A1170264A13703C
:102F0C000E216944EB2004F0CDF8002807D10E23E4
:102F1C006B441B88190A214A1170214A13701B4BF0
:102F2C001B78002B03D01A4A1278002A18D1194B9F
:102F3C001B78002B03D0184A1278002A17D1174B94
:102F4C001B78002B03D0164A1278002A16D10020C9
:102F5C0004B070BD00268AE700259EE70024B1E787
:102F6C00009222002900300005F078FADFE7009289
:102F7C0022002900300005F071FAE0E700922200EF
:102F8C002900300005F06AFAE1E7C046CA080020C3
:102F9C003D070020CB0800203E070020CC08002075
:102FAC003F070020F8B5DE4657464E464546E0B58D
:102FBC000F00160099460AAB1B789B460BAB1D788D
:102FCC000CAB1B789A460DAB1C780EAB1B78984655
:102FDC0081B2E42004F018F9390A89B2E52004F032
:102FEC0013F9B9B2E62004F00FF9310A89B2E720DF
:102FFC0004F00AF9B1B2E82004F006F94B461902C4
:10300C00594489B2E92004F0FFF82D025544A9B2C5
:10301C00EA2004F0F9F824024444A1B2EB2004F0B5
:10302C00F3F800203CBC90469946A246AB46F8BD4E
:10303C0010B582B08A206B46991D400004F032F81E
:10304C00002800D064E06B4606331B88494A937114
:10305C001B0AD37116206B46991DFF3004F022F821
:10306C0000285CD16B46DA88424B1A808B206B4669
:10307C00991D400004F016F8002855D16B46DA88EB
:10308C003C4B5A8018206B46991DFF3004F00AF80F
:10309C0000284ED16B4606331B88364A13711B0A27
:1030AC0053718C206B46991D400003F0FBFF04000C
:1030BC001A2001A9FF3003F0F5FF0443A4B2002C41
:1030CC003ED16B4606331B8801AA128812041343A7
:1030DC00284A93608D206B46991D400003F0E2FF57
:1030EC0000283BD16B4606331B88224A13731B0AFC
:1030FC0053731C206B46991DFF3003F0D3FF00283F
:10310C0032D01D4BDA7E1B4BDA76002002B010BD9C
:10311C00194A9179174B9971D279DA719AE7164B52
:10312C001A88144B1A80A1E7134B5A88114B5A80FA
:10313C00A8E7114A11790F4B197152795A71B0E7FE
:10314C000E4B1B78002B04D00A4BE12252029A60E2
:10315C00C0E7094B9A68074B9A60BBE7054B1822EE
:10316C005A7300221A73C4E76B469A79014BDA76CC
:10317C00CBE7C046C860002000000020AE05002050
:10318C0010B51A4CE3795B01A17919438A204000F0
:10319C0004F03AF821881620FF3004F035F86188E5
:1031AC008B20400004F030F863791B02217B19431B
:1031BC001820FF3004F028F821898C20400004F0FE
:1031CC0023F861891A20FF3004F01EF8637B1B0280
:1031DC00217919438D20400004F016F8E17E1C2063
:1031EC00FF3004F011F8002010BDC046C86000206C
:1031FC00F0B589B01E236B4400221A80002401E034
:10320C000134E4B2062C54D825003B35AD00ADB2E8
:10321C001E216944280003F045FF0028F0D11E232D
:10322C006B4419880B0A1809621C9042E8D10F20D4
:10323C000340E5D0D700BA181F4FBF187B70397206
:10324C001E266E44681C80B2310003F02BFF3388BD
:10325C001A0ABA707B71A81C80B2310003F022FFED
:10326C0033881A0AFA70BB710335A8B2310003F027
:10327C0019FF33881A0A3A71FB71651CEDB2787824
:10328C00290004F041FE397A4A08BB78012002403B
:10329C00014000200590F8790490B8790390787972
:1032AC00029038790190F8780090280004F046FFDD
:1032BC00A6E7002009B0F0BD880C002010B5FFF780
:1032CC00F3FCFFF73DFDFFF775FDFFF7BFFDFFF7C3
:1032DC00AFFEFFF78DFFFFF723FC10BD70B58EB06E
:1032EC0012256D4404AB009307AB2A0008A90120FA
:1032FC0009F094FD03AC009405AB0E226A4406A9B8
:10330C00022009F08BFD01230A9300260B962B88D3
:10331C00099309A908980DF0FBFD0A9602230B935B
:10332C002388099309A905980DF0F2FD298800223C
:10333C0008980DF0BCFE05200AF09EFA218805982D
:10334C000DF0AEFE002802D000200EB070BD12238E
:10335C006B441988012208980DF0A9FE05200AF08B
:10336C008BFA03AB198805980DF09AFE0128ECD066
:10337C000020EAE710B5064B1A68064B9A4206D0B5
:10338C0003F058FF002802D1014B024A1A6010BD0D
:10339C00F07F0020ADDEEFBE10B50AF047FC040054
:1033AC00E1231B0243608023DB00036180235B016C
:1033BC00836010F007F82268136820210B43136018
:1033CC0010BD000070B505000024002C01D00020B9
:1033DC0070BD63001B199A00064B9B189968280056
:1033EC00FCF78AFE002802D00134E4B2EDE7013488
:1033FC00E0B2EDE7E000002070B50400002501E02C
:10340C000135EDB2052D25D818492000FCF774FEC6
:10341C00002821D016492000FCF76EFE00281DD094
:10342C0014492000FCF768FE002819D0124920002E
:10343C00FCF762FE002815D010492000FCF75CFE5A
:10344C00002811D00E492000FCF756FE0028D7D1D9
:10345C00062000E0002070BD0120FCE70220FAE706
:10346C000320F8E70420F6E70520F4E730A601086E
:10347C0034A6010838A601083CA6010840A601089C
:10348C0044A6010870B50AF0AFF80AF04DF903F044
:10349C0035FF09F08BFC08F0ADF90AF079F909F069
:1034AC00DFFB0AF0A7F909F025FD002811D1FFF781
:1034BC0015FF002861D03D4B01221A7032200AF012
:1034CC00DBF907F0D7FC3A4BE12252029A60012457
:1034DC0011E0FFF74FFFBFF34F8F364B364ADA60E0
:1034EC00BFF34F8FC046FDE7314B996820000AF0BF
:1034FC002FFC0134E4B2062CF6D9FFF7DFFE08F0FE
:10350C00E7FE2E4B1B78002B3DD080252D019024FF
:10351C00E4050122290020000DF0C9FDFA2040002D
:10352C000AF0AAF90022290020000DF0C0FD642049
:10353C000AF0A2F90122290020000DF0B8FD642048
:10354C000AF09AF90022290020000DF0B0FD642049
:10355C000AF092F90122290020000DF0A8FD642048
:10356C000AF08AF90022290020000DF0A0FD03F0DA
:10357C00F5FC134B01221A7070BD32200AF07CF955
:10358C0007F078FCB9E780252D019024E405012291
:10359C00290020000DF08BFDFA2040000AF06CF998
:1035AC000022290020000DF082FDE0E7AE0500208E
:1035BC00C860002000ED00E00400FA057000002057
:1035CC00AD050020F0B5DE4657464E464546E0B503
:1035DC0083B000AF424B1B780733DB08DB006A4635
:1035EC00D31A9D466C46002306E00022E2545D008F
:1035FC003C496A520133DBB2394A12789342F4D314
:10360C00013801232354012201E00132D2B2062AEF
:10361C0017D8C3001B1A9B185B0033495B5A002B4D
:10362C00F3D0551E0121A9400D002E4E41008C46B1
:10363C00895B29436546A953DB08013B0221E15410
:10364C00E3E702239B465E460136F3B29B4600231A
:10365C009C4600212CE00132D2B2062A26D8EB007F
:10366C005B1B9B185B0020481B5A002BF3D0DB081C
:10367C00013B7B60E05C0028EDD110000138012695
:10368C008640B046174881466800824648465646F2
:10369C00305A464630434E46534698537B685846FC
:1036AC00E05463460133DBB29C46D4E70131C9B226
:1036BC000B4B1B78994207D20D00625C5B46013BB9
:1036CC009A42F3D10122C8E76346002BBBD10020FC
:1036DC00BD4603B03CBC90469946A246AB46F0BDF5
:1036EC001C000020B405002020000020F0B58FB095
:1036FC0005000E003222002101A812F01BFF02224D
:10370C000021454812F016FF2900013D0023434AD1
:10371C005355434A5355012000E00130062814DC70
:10372C00EB005B1B1B185B003E4A9B5A002BF4D032
:10373C00DB08B2B29342F0D1731E384A0121D15446
:10374C00354B1E70C0B20FB0F0BD012300E0013349
:10375C00354A12789A4209DB9942F8D05A1E2F4802
:10376C00FF2484542E4800248454F0E7002401A83C
:10377C00FFF7C8F900280CD101A92848FFF7A6F9D2
:10378C000130C4B2B44204D0611E01AB01225A54C0
:10379C0003E0002223E00132D2B2062AE7D8CB00A4
:1037AC005B1A9B185B001F481B5A002BF3D0DB08DD
:1037BC00DBB2013B01A8C05C0028ECD1174F785C50
:1037CC000130C0B2FF5C8742E5D9144FF85414485D
:1037DC00C454E0E7531C10498C54DAB20400631E45
:1037EC000F49C85C0028F5D1012200E00132062AFD
:1037FC00A9DCEB005B1B9B185B000A495B5A002B96
:10380C00F4D0DB08711E054C615C0139024C615C23
:10381C008B42EBD1D0B296E780610020C408002027
:10382C00C8080020200000201C000020F0B587B044
:10383C0007000E0005921C00314B1878FFF756FF5D
:10384C000490002C03D02E4B1D78B5420DD0002CCB
:10385C000DD1731E2B4AD35C012B03D0013B2A4A9A
:10386C00D55C05E0264B1D7802E0049400E00025B1
:10387C00234B1B78BB4219D00598FFF78DFD04989C
:10388C00FFF78AFD1E4B1B78AB4232D01C4B1978CC
:10389C0000230393013B02930193033300930B002A
:1038AC00049A059805F02EF907B0F0BD0AF036FC25
:1038BC000700002C16D1154B1968320013F098FD37
:1038CC00134B1968380013F0B3FD3800FCF71EFCDD
:1038DC0082B23223390005980AF0F8F964200CF012
:1038EC0083FBC9E70B4B19682300320013F080FDF2
:1038FC00E6E704980AF09AF901210AF033FAC5E7D1
:10390C0070000020C4080020806100209800002076
:10391C00A00000209C000020F0B585B004000390AE
:10392C00544D554B2A0043CB43C219001B681360FE
:10393C008B8893802800FCF7E9FB82B201235B4261
:10394C0000933333290020000AF092F9012513E08B
:10395C00484E2A004949300013F04AFD3000FCF76C
:10396C00D5FB82B201235B420093333331000398C1
:10397C000AF07EF90135EDB2062DE9D901235B423F
:10398C000093333303223E4903980AF071F9002463
:10399C002FE007231340D2083A49364813F028FD8C
:1039AC00344E3000FCF7B2FB82B201235B42009331
:1039BC003333310003980AF05BF90135EDB2062D73
:1039CC000CD8FB00DB1B5B195B002F4A9A5A002AB0
:1039DC00DFD12E49274813F00BFDE1E701235B42B1
:1039EC000093333302222A4903980AF041F9013437
:1039FC00E4B2284B1B78A34231D92700621C1D4D21
:103A0C002549280013F0F4FC2800FCF77FFB82B258
:103A1C000126764200963223290003980AF028F9F1
:103A2C00E3001B1B5A00184BD25A53009B18590029
:103A3C001A4BC9180522280013F02FFD00963223CB
:103A4C0005222900039D28000AF012F90096322362
:103A5C000122134928000AF00BF90125AFE70123D5
:103A6C005B420093333301220E4903980AF000F9AC
:103A7C0005B0F0BD54080020F4A5010808A6010803
:103A8C0000AE010820A60108200000201CA6010899
:103A9C009CA401081C00002010A601085CA60108CB
:103AAC0004A60108CCC10108F0B583B005002D4C6B
:103ABC002D4923000A0043CA43C343CA43C31268B7
:103ACC001A602000FCF722FB82B201235B420093B8
:103ADC003333210028000AF0CBF8012623E001340F
:103AEC00E4B20A2C1DD8731E5B00204A9A5A611E40
:103AFC0080231B020B411342F1D01A4F23003200DA
:103B0C001B49380013F074FC3800FCF7FFFA82B242
:103B1C0001235B4200933333390028000AF0A8F8E4
:103B2C00DDE70136F6B2134B1B78B34201D3012407
:103B3C00D7E70C4C104923000A0043CA43C343CABD
:103B4C0043C303CA03C32000FCF7E0FA82B201238B
:103B5C005B4200933333210028000AF089F803B04C
:103B6C00F0BDC04654080020A4A501089C660020A6
:103B7C00C0A501081C000020D4A50108F0B5C6465C
:103B8C0000B584B007000AF0C9FA040000230370E2
:103B9C00934B1A78934D9449280013F029FC290073
:103BAC00200013F045FC914B1A789149280013F032
:103BBC001FFC2900200013F03BFC04230093023B64
:103BCC0000228C49280013F013FC2900200013F06C
:103BDC002FFC894A8949280013F00AFC290020008F
:103BEC0013F026FC864A8749280013F001FC2900B3
:103BFC00200013F01DFC844B2A0043CB43C2190058
:103C0C001B6813608B8893808B799371290020003B
:103C1C0013F00EFC01250DE0724B7C4A1168196003
:103C2C009188998092799A716E49200013F000FC6A
:103C3C000135EDB2062D3BD86A4E2A00744930008E
:103C4C0013F0D6FB3100200013F0F2FB714B5B5DDF
:103C5C00042BE9D89B00704AD3589F4661496F48A2
:103C6C000B00020043CA43C303CA03C312781A7081
:103C7C00DAE75C4A6A4B43CB43C2D5E759496948FA
:103C8C000B00020043CA43C343CA43C312881A80C1
:103C9C00CAE7544964480B00020043CA43C343CAF1
:103CAC0043C3116819609188998092799A71BBE726
:103CBC004C495E480B00020061CA61C361CA61C312
:103CCC00200013F0B5FB01260BE0464D320058499D
:103CDC00280013F08DFB2900200013F0A9FB0136FE
:103CEC00F6B2062E22D8751EEB005B1BDA00514B88
:103CFC00D358002BE9D0EB005B1BDA004D4B9B1823
:103D0C00586A07F0F7F90390AD004B4BE85807F0F1
:103D1C00F1F9344D0090039B32004849280013F010
:103D2C0067FB2900200013F083FBD8E72000FCF789
:103D3C00EDF920180322424912F0F3FB2000FCF7A6
:103D4C00E5F920181D223F4912F0EBFB2000FCF78F
:103D5C00DDF98046012501E00135EDB2062D16D8BE
:103D6C001F4B1B78013B5B00374A9A5A691E802314
:103D7C001B020B411342EFD01A4E2A00334930007C
:103D8C0013F036FB3100200013F052FBE4E7200067
:103D9C00FCF7BCF943461B041B0C98420DD02000C9
:103DAC00FCF7B4F920180322254912F0BAFB002FB6
:103DBC0009D104B004BC9046F0BD2018052224495A
:103DCC0012F0AFFBEBE72000FCF7A0F982B2012365
:103DDC005B42009333332100380009F049FFE8E7D8
:103DEC007000002054080020E8A30108AF05002053
:103DFC0004A4010820A4010840A401084CA4010853
:103E0C0064A4010870A401088CA40108A8A40108EA
:103E1C00A0A40108A4080020C4A30108B0A40108B0
:103E2C00C8A40108D4A40108F0A4010810A5010835
:103E3C0028A50108C4100020280C002044A5010866
:103E4C009CA4010874A501089C66002094A5010897
:103E5C009CA5010870B505002949FCF74DF900280F
:103E6C000AD028492800FCF747F9002844D02E78BE
:103E7C00232E04D0002416E0234B187870BD681C48
:103E8C0012F0DEFAC0B2002803D0204B1B7883421C
:103E9C0005D21D4B1C78844230D120B2EEE700B223
:103EAC00ECE70134E4B2194B1B78A3420DD9A30003
:103EBC001B195A00164989182800FCF71DF900280F
:103ECC00EFD1002EEDD020B2D8E70026092E11D864
:103EDC00B3009B195A000F4989182800FCF70CF9FC
:103EEC00002802D00136F6B2F0E73402FE2020435F
:103EFC0000B2C3E76420C1E7FF20BFE76620BDE73F
:103F0C0028A601082CA60108700000201C00002027
:103F1C001C08002040070020F8B506000D00002406
:103F2C00032C09DCA3002949C9182800FCF7E4F884
:103F3C00002843D00134F3E70124254B1B78A3421E
:103F4C000BDDA3001B195A00224989182800FCF725
:103F5C00D3F8002834D00134EFE70024092C0BDC13
:103F6C00A3001B195A001C4989182800FCF7C4F837
:103F7C00002827D00134F1E7184B194A1A60174B67
:103F8C001C68002C0FD023681F683800FCF7BEF8A3
:103F9C0002003900280013F06FFA002814D0626870
:103FAC000E4B1A60EBE7B3009E1973000948C0185A
:103FBC00290013F059FAFEF793FE02E0062000E008
:103FCC000720F8BD0720FCE70820FAE7D8A3010872
:103FDC001C0000201C08002040070020B008002016
:103FEC00F4000020F8B506000D000024092C14DCA8
:103FFC00A3001B195A00334989182800FCF77CF8D8
:10400C00002801D00134F1E7013E0122A2402E49E3
:10401C007600735A13437352F8BD0024032C09DC49
:10402C00A3002A49C9182800FCF766F8002845D0D7
:10403C000134F3E70124264B1B78A3420BDDA300CC
:10404C001B195A00234989182800FCF755F8002839
:10405C0036D00134EFE7204B204A1A6002E0626848
:10406C001D4B1A601C4B1C68002C1CD023681F684D
:10407C003800FCF74BF802003900280013F0FCF96B
:10408C000028ECD10820C7E70E488018290013F04F
:10409C00EBF9013E0122A2400B497600735A1343FF
:1040AC0073520020B8E7092CF3DCA3001B195A004B
:1040BC00044BD35C002BE7D00134F4E70620ABE7CC
:1040CC000720A9E740070020A4070020D8A3010877
:1040DC001C0000201C080020AC080020F40000206C
:1040EC0070B5012600251DE00134E4B2062C17D86A
:1040FC00200009F09BFD426B80231B029A42F3D1F6
:10410C00144B1B78013B611E802212020A411100E4
:10411C0011485B001A5A0A431A52E5E70124E5E7F5
:10412C000136F6B20D4B1B78B34211D3094B1B78F9
:10413C00B342F3D000221321300004F0BDFC322036
:10414C0009F09AFB064B1B78002BE9D00225E7E718
:10415C00280070BD700000209C6600201C00002010
:10416C00C008002030B583B01E2012F0A5F9040061
:10417C001E22002112F0DEF908490A7D013A8B7DDE
:10418C00487D098B9200064D5259019100900549CA
:10419C00200013F02DF9200003B030BDC8600020C2
:1041AC0010A9010848A6010800B585B00A00074B04
:1041BC00197801230393023B029301930333009379
:1041CC000B0004F09FFC05B000BDC0467000002041
:1041DC0030B587B004000D000023049303930293C1
:1041EC0001930093002200210020FEF7DBFE621EEB
:1041FC00D3009B1ADA00154BD258002A07D0691E3F
:10420C00CB005B1AD900114BCB58002B0ED1002AD6
:10421C0015D16A1ED3009B1ADA000C4BD358002B15
:10422C0012D0280002F00AFE002006E0200002F066
:10423C0005FE280002F002FE002007B030BD200071
:10424C0002F0FCFD0020F8E76820F6E7C41000201F
:10425C00F8B50700002501E0347001357E1934787B
:10426C00002C09D012F01AF90019427803231340DC
:10427C00012BF1D12034EFE7F8BD0000F0B5C646B4
:10428C0000B588B00500D74B1C78052C00D10DE289
:10429C00D548A3001A19910000220A544018427004
:1042AC0002300432002112F045F92B78622B02D136
:1042BC00AB782E2B4FD0CD4E2900300013F0D4F814
:1042CC00CB4C2100300013F05DFF050021000020D5
:1042DC0013F058FF06002100002013F053FF0400D8
:1042EC00002D00D1E9E12800FFF76CF8051E02D083
:1042FC00002E00D1ACE1002E00D1E0E1002C00D169
:10430C00DFE12000FFF75EF8002800D1B1E1B54BEA
:10431C001978B54A8B005F18BC000427A7541419F0
:10432C00E570E071AF4D2C783000FFF765F8AE4AC0
:10433C00A10009198B00D31858702B789900C91853
:10434C00880012185278002A00D1BCE10133A54A2A
:10435C0013700020ABE16E78303EF6B2062E00D919
:10436C00A9E1A14BA200101981000120C8545B18CF
:10437C0000225A709E70EF1C07329E49380013F0D1
:10438C007BF8002822D1A3001C19A200964B9B1885
:10439C000522DA70F2009219974B9B181B7ADB07F7
:1043AC0005D500208F4A1378013313707FE1012368
:1043BC00059300230493039302930193009300222B
:1043CC000121300003F0BAFE0020EBE70E228B49EE
:1043DC00380013F051F800281ED1A3001C19A200BC
:1043EC00814B9B180622DA70F2009219824B9B18B3
:1043FC001B7A9B0701D50020D4E7012305930023EA
:10440C000493039302930193009301220021300043
:10441C0003F094FE0020C5E70C227949380013F014
:10442C002BF800287BD1F2009219734B9B189B78C8
:10443C00002B0FD0F20092196F4B9B18DB78002BDE
:10444C0029D0F20092196C4B9B181B79002B44D08D
:10445C000C20A7E7644FA3001C19A300FB1809222A
:10446C00DA7028000F3011F0E5FF5E4B1978C3B2FB
:10447C008A00521891007F183B710122059200228C
:10448C00049203920292019200920021300003F0F8
:10449C0055FE002086E7544FA3001C19A300FB18FF
:1044AC000A22DA7028000F3011F0C4FF4D4B1A7835
:1044BC00C0B293009B189A00BF1838710123059362
:1044CC000023049303930293019300900022002194
:1044DC00300003F033FE002064E7434FA3001C19A7
:1044EC00A300FB180B22DA7028000F3011F0A2FF8A
:1044FC003C4B1A78C0B293009B189A00BF183871C5
:10450C0001230593002304930393029301900093DA
:10451C0000220021300003F011FE002042E70D22A2
:10452C003849380012F0A8FF002800D08EE0F200C5
:10453C009219314B9B185B79002B0FD0F20092191A
:10454C002D4B9B189B79002B2AD0F20092192A4BE9
:10455C009B18DB79002B57D00D2023E7224FA300AB
:10456C001C19A300FB180C22DA702800103011F073
:10457C0061FF1C4B1A78C0B293009B189A00BF18AD
:10458C003871012305930023049303930290019344
:10459C00009300220021300003F0D0FD002001E741
:1045AC00114FA3001C19A300FB180D22DA70280070
:1045BC00103011F03FFF0B4B1A78C0B293009B18D0
:1045CC009A00BF18387101230593002304930390BC
:1045DC0002930193009300220021300003F0AEFD02
:1045EC000020DFE69F090020E46000200409002081
:1045FC00A4A4010894B90108880C002014AB01088C
:10460C0024AB010834AB0108304F143398465C439B
:10461C003C19063BE3702800103011F00BFF2C4BBB
:10462C001B78C0B242465343FF18387101230593DF
:10463C00049000240394029401940094230022001B
:10464C002100300003F07AFD2000ABE60020A9E643
:10465C00002C00D04FE61E4803781C499A00D6184F
:10466C00B400022666540919CD7001330370002082
:10467C001DE0174B98461A78144F93009818810038
:10468C000320C8557A18D570200011F0CEFEFEF725
:10469C007BF9079043461A7893009B189800C01931
:1046AC000630042207A911F03CFF3BE60E2008B0AF
:1046BC0004BC9046F0BD0020F9E76720F7E76720BF
:1046CC00F5E76720F3E76720F1E7C046E4600020D8
:1046DC009F090020F8B50C00022817D0032803D03E
:1046EC0001280FD000200CE0344B1A78013A9300CB
:1046FC009B189A00324B9B1801221A7406F0E8FBA7
:10470C000020F8BD0800FFF7B9FDFAE72B4B1D7828
:10471C00013DAB005B199A00294B9B18DE68002EFB
:10472C0034D03000FBF7F2FC07002000FBF7EEFC66
:10473C0039180231300012F03BFE214EAB005D19EE
:10474C00AB00F318D8601D4D2B78013B9A00D218A2
:10475C009300F318D8687B1CC018210012F084FE5B
:10476C002A78013A93009B189A00B618F368132222
:10477C00DA55124B1B78013B9A00D2189100104A63
:10478C005218D268002A11D00020BAE70800FBF7B3
:10479C00BDFC013011F090FEAB005D19AA00084B76
:1047AC009B18D860210012F05FFEE2E7044BC8189A
:1047BC001422002111F0BEFE0E20A2E79F0900205A
:1047CC00E4600020F0B5DE4657464E464546E0B55F
:1047DC008BB00490039115001C000922002107A83E
:1047EC0011F0A8FE60E1E91C0130FFF773FF00280F
:1047FC0006D1CF4B02221A700D232370002784E1BF
:10480C005222CC49200011F08CFEC94B00221A70A8
:10481C0000277AE1C64B00221A70C7490330FFF714
:10482C0059FF4122C549200011F07BFE00276CE1A5
:10483C0029000220FFF74EFF002803D10D2323701F
:10484C00002762E15222BB49200011F06AFE0027CA
:10485C005BE111F023FE7378C01843785B0700D539
:10486C004CE1721B290007A812F017FE07A8FFF7EE
:10487C00F1FA0590B24A1278914690422CD06428F5
:10488C0032D0662837D0FF283CD06B461B7D9A4629
:10489C00FE2B68D001360622AA49300012F0ECFD3E
:1048AC00002800D0A3E0A84B00229A711921504691
:1048BC0004F002F9642009F00FFBA44B1A78A04B0A
:1048CC00187800235146FEF7B1FF9F4B9B79602B64
:1048DC0000D1C8E0002718E1701C99229200210039
:1048EC0009F0B6FB070010E127229949200011F0CE
:1048FC0018FE002709E125229649200011F011FE2F
:10490C00002702E102220021934811F013FE013628
:10491C002800FBF7FBFB070007A8FBF7F7FB3A1A8D
:10492C00013A31008D4812F0B8FD2800FBF7EEFB80
:10493C00070007A8FBF7EAFB3B1A9BB21722FF21E3
:10494C00484604F091F8992292002100300009F0B9
:10495C007FFB07002000FBF7D9FB20181D228049A4
:10496C0011F0DFFDD1E0059B1B12DBB29A467D4BAB
:10497C009B4652461A7002220021774811F0DAFD4C
:10498C00731C98462800FBF7C1FB060007A8FBF731
:10499C00BDFB321A013A4146704812F07EFD2800E8
:1049AC00FBF7B4FB060007A8FBF7B0FB331A9BB26E
:1049BC0017225146484604F057F8614B1B78013BCF
:1049CC005B00694A9B5A5A4612781341DB0706D49E
:1049DC0007AB22006549200012F00AFD95E09922F0
:1049EC0092002100404609F033FB0700F0E7280055
:1049FC00FBF78CFB070007A8FBF788FB3A1A013A78
:104A0C003100564812F049FD2800FBF77FFB0600E9
:104A1C0007A8FBF77BFB321A92B2013A92B217212C
:104A2C00504604F049F8059A5149200012F0E0FC78
:104A3C002378002B02D0039B002B08D12000FBF71E
:104A4C0065FB02000021200011F074FD3DE7200001
:104A5C00FBF75CFB82B201230093313321000498F5
:104A6C0009F006F9EAE7FA21890001200AF0F2FFC1
:104A7C00404B1B78002B0BD03F4A1388013313801B
:104A8C00059B22003D49200012F0B2FC00273CE0BF
:104A9C0000273AE02000FBF739FB02000021200040
:104AAC0011F048FD002F71D02800FFF7D1FB204BEF
:104ABC001E78002E07D103223149280012F0DCFCAD
:104ACC00002800D18FE6002E07D006222D492800A1
:104ADC0012F0D2FC002800D19CE6022E00D1A7E6F1
:104AEC002E21280012F0B2FC061E07D00338032238
:104AFC00254912F0C1FC002800D0AAE699229200A8
:104B0C002100280009F0A4FA07002378002BC1D05B
:104B1C00039B002BBED02000FBF7F8FA82B20123D6
:104B2C005B42009333332100049809F0A1F8B1E7FC
:104B3C00CC0900204CA901080CA60108A8A9010861
:104B4C00700000208CAA0108C8600020AF0500206E
:104B5C00F0A9010818AA0108E8050020EC070020BC
:104B6C0040AA01089E090020A407002060AA0108A1
:104B7C0094AA0108C0080020AE0E0020B8AA0108B3
:104B8C0048A90108A0A90108ECA9010809220021E3
:104B9C0007A811F0CFFC0C4B1B78002B02D1039B08
:104BAC00002B06D10BB03CBC90469946A246AB46B6
:104BBC00F0BD01235B420093333338220349049840
:104BCC0009F056F8EEE7C046CC090020D8AA010837
:104BDC0070B584B00121494201200AF03BFF0F233C
:104BEC006B4400221A7009F099FA0500524B9A682E
:104BFC00E1231B039A4230D1504B1B885A00D21828
:104C0C0053004F4A9B184F4A12784F4C4F4E3178F5
:104C1C0000914F49200012F0EBFB30780A234D4AEB
:104C2C004D4909F053F82000FBF770FA82B2307846
:104C3C000A23210009F04AF8002669E0434B1B784F
:104C4C00A34204D10134E4B2062CF7D9D4E7E12114
:104C5C000903200009F07CF8F4E70124F4E70F20A5
:104C6C006844027098013D4A1218002010553C4AC5
:104C7C00D4540F246C44354B18780A23012221009C
:104C8C0009F024F823780D2B25D00A2B3ED0082BC5
:104C9C0049D01A00203AD2B25E2A37D8312E35DCF0
:104CAC00304A9355013676B230E009F097FB013467
:104CBC00A4B23F2CDDD8254B1B78013B9801274A29
:104CCC001218125D002ACAD13F2CEED1244A0021C1
:104CDC00D1540024E9E71D4B18780A2302222249FB
:104CEC0008F0F4FF002E19D01E4C184B18782B002E
:104CFC0022000121FFF766FD21001C4812F0B4FBD5
:104D0C0032220021200011F015FC002609F066FB70
:104D1C000E4B1B78013B124AD45CCAE7134911486D
:104D2C0012F0A2FBE0E7002EF0DD013E76B20D4B57
:104D3C0000229A55EAE7C046C860002072000020A5
:104D4C005CA6010870000020A0090020AF0500201F
:104D5C0044AB01089302000070AB0108500A00201C
:104D6C00D00B0020D008002040BF01086C090020A7
:104D7C0070B50C001C4B1A78013A93009B189A00E2
:104D8C001A4B9B18DB68002B2CD0194B1B68002B83
:104D9C0014D0174B1D682B78002B12D01321280030
:104DAC0012F054FB061E11D0421B2900200012F0F9
:104DBC0074FB01360E4B1E60012006E00C4B186094
:104DCC00E7E70B4B00221A60002070BD2900200081
:104DDC0012F04AFB2000FBF799F92D18044B1D60CB
:104DEC000120F2E70020F0E79F090020E46000209A
:104DFC00C8090020F0B583B0040083001B189A008A
:104E0C00464BD35C012B04D0032B15D0002003B0F0
:104E1C00F0BD424A830018188100080051188978A7
:104E2C001218D278CB005B183D495B5C9A4201D0DA
:104E3C000020ECE70120EAE7384E85002B1899009A
:104E4C007118CA78013A53009B189A00354BD35805
:104E5C001F680631042201A811F063FB2C19A30072
:104E6C00F6187378062B47D89B002F4AD3589F46C9
:104E7C00391C0198FBF71CFB00283FD00120C6E72A
:104E8C00391C0198FBF71AFB002801D10020BEE762
:104E9C000120BCE7391C0198FBF724FB00282FD01C
:104EAC000021381CFBF704FB00282BD10130AEE7A6
:104EBC00391C0198FBF70CFB002825D00120A6E734
:104ECC00391C0198FBF718FB00281FD00021381C57
:104EDC00FBF7EEFA00281BD1013098E7391C01983A
:104EEC00FBF7E6FA002815D10021381CFBF7E0FA95
:104EFC00002811D101308AE7002088E7002086E7DE
:104F0C00002084E7002082E7002080E700207EE775
:104F1C0000207CE700207AE7002078E7E46000209E
:104F2C00880C0020E00000202CA9010870B509F0C5
:104F3C00F5F8050000241BE0194B18782B00194AD2
:104F4C000021FFF73FFC2800FBF7E0F802000021EE
:104F5C00280011F0EFFAB3009B199A00124B9B1822
:104F6C00D8681049FFF704FF0028E5D10134A4B23A
:104F7C000E4B1B78A34211D92600A3001B199A00D3
:104F8C00094B9B181B7C002BF0D0E0B2FFF732FFD3
:104F9C000028EBD0064B20229A71DCE7002070BD74
:104FAC00AF05002038090020E46000209F09002094
:104FBC00C8600020F0B583B00500160000230193F3
:104FCC000093002801D172B6FEE701AA012130003E
:104FDC0009F0A8F80023C356702B17D068276A462F
:104FEC000221300009F09EF811F02AFA0600682F11
:104FFC0012D00100200008F0ABFE2300320009495A
:10500C00280012F0F5F9002003B0F0BD013011F0CA
:10501C0017FAC4B20027E2E713220349280011F063
:10502C0080FAF0E7FCB60108E8B6010810B50028D4
:10503C0001D172B6FEE7044B1A681204120C034934
:10504C0012F0D6F9002010BDCCF7FF1FC0B001083C
:10505C00F0B585B004001000002303935D4B1A7863
:10506C0002AB1A70002C01D172B6FEE703AA012123
:10507C0009F058F805005849FBF73EF8002866D1AE
:10508C00564B1B78013B564AD65C012514E02A008E
:10509C005449200012F0ACF92000FBF737F882B22B
:1050AC004E4B1878642300935A3B210008F0E0FD26
:1050BC002EE00E000135EDB2062D75D8474B1B784E
:1050CC00AB42F7D012F042F902AF38706423009370
:1050DC005A3B01223900280008F0CAFD280008F0CC
:1050EC00A5FD03689B8CDBB23A789342CFD02A00A3
:1050FC003D49200012F07CF92000FBF707F882B242
:10510C00364B1878642300935A3B210008F0B0FD0D
:10511C0054223649200011F004FA2000FAF7F6FF69
:10512C0082B22E4B1878642300935A3B210008F06E
:10513C009FFD2A4B1B78013B711C9B012C4AD318F9
:10514C005B5C002BB5D101200AF04EFFF1E7002388
:10515C00EB56702B05D00F222649200011F0E1F9F7
:10516C0022E0681C11F06CF90500C7B27B1EDBB2A3
:10517C00052B1CD812F0EAF802AE307064230093B1
:10518C00323B01223100380008F072FD380008F083
:10519C004DFD03689B8CDBB23278934210D1EAB29E
:1051AC001049200012F024F9002005B0F0BD662350
:1051BC00662B07D11B221049200011F0B2F9F3E73E
:1051CC000623F5E7062BEFD1EAB20749200012F0CF
:1051DC000FF9E9E790A201082CA60108AF05002001
:1051EC00D00B0020E0C70108FCC7010810C801085B
:1051FC00500A002080C8010864C80108F0B585B0C9
:10520C0004000192002303930293002801D172B68B
:10521C00FEE703AA0121019808F084FF0023C3567E
:10522C00702B16D0672702AA0221019808F07AFF8A
:10523C000023C356702B12D0672000281AD0672881
:10524C0021D019221349200011F06BF9002005B070
:10525C00F0BD013011F0F4F8C5B20027E3E70130DE
:10526C0011F0EEF8C6B2002F0BD131002800FEF77A
:10527C00AFFFE2E733002A000749200012F0B8F82C
:10528C00E4E76720DBE70F220449200011F049F91D
:10529C00DCE7C0462CC901080CC9010880C801080C
:1052AC00F0B585B00400019200230393029300280B
:1052BC0001D172B6FEE703AA0121019808F032FF72
:1052CC000023C356702B16D0672702AA022101981F
:1052DC0008F028FF0023C356702B12D0672000283B
:1052EC001AD0672821D017221349200011F019F980
:1052FC00002005B0F0BD013011F0A2F8C5B20027B6
:10530C00E3E7013011F09CF8C6B2002F0BD131004D
:10531C002800FEF749FFE2E733002A000749200086
:10532C0012F066F8E4E76720DBE70F22044920005F
:10533C0011F0F7F8DCE7C0466CAF010848AF010884
:10534C0080C80108F0B583B006001000002301935B
:10535C00002E01D172B6FEE701AA012108F0E2FE8F
:10536C0011F068F8C4B2002C3FD0284B1B78A34234
:10537C0001D2FF233AE0C0B20138254D1423584323
:10538C00002747552D186F70A81C0422390011F006
:10539C00D1F82F74E86811F099F8EF6008E0A300D9
:1053AC001B199A001A4BD35C002B0CD10134E4B2BC
:1053BC00164B1B78A342F2D8013B144A137005F02C
:1053CC0087FD002312E0601E14277843104BC01891
:1053DC003D006543ED183A00290011F0A2F83A009F
:1053EC000021280011F0A6F8E0E7FF23002B05D0E0
:1053FC0023220849300011F094F804E036220649C3
:10540C00300011F08EF8002003B0F0BD9F09002091
:10541C00E46000208CB0010854B0010810B582B0D3
:10542C000400100000230193002C01D172B6FEE79A
:10543C0001AA012108F076FE10F0FCFFC3B2002B8C
:10544C0003D00E4A12789A4207D223220C4920002C
:10545C0011F067F8002002B010BDC0B2013814235F
:10546C0043430848C0180023037405F031FD35226E
:10547C000549200011F055F8ECE7C0469F090020C3
:10548C008CB00108E46000208CB4010810B582B027
:10549C000400100000230193002C01D172B6FEE72A
:1054AC0001AA012108F03EFE10F0C4FFC3B2002B8C
:1054BC0003D00E4A12789A4207D223220C492000BC
:1054CC0011F02FF8002002B010BDC0B20138142327
:1054DC0043430848C0180123037405F0F9FC382233
:1054EC000549200011F01DF8ECE7C0469F0900208B
:1054FC008CB00108E460002050AE0108F0B5CE4637
:10550C00474680B58BB0040006AA744B043323CBFA
:10551C0023C21B881380002C01D172B6FEE7704B9E
:10552C00187801235B420093333337226D4908F01E
:10553C009FFB00270123984688E06B4B9B181A7C35
:10554C00D3009B1A06AA944663444246674920003E
:10555C0011F04EFF87E0AB005B199A00624B9B1871
:10556C00DB78053BDAB2092A4AD89300604AD35853
:10557C009F4614236B435C4AD2189378D2680092EE
:10558C0022005C49200011F033FF39E014236B43F7
:10559C00554AD2189378D2680092220056492000BE
:1055AC0011F026FF2CE014236B434F4AD21893784A
:1055BC001179D2680192009122005049200011F01B
:1055CC0017FF1DE014236B43474AD21893781179C7
:1055DC00D2680192009122004949200011F008FF85
:1055EC000EE0484E330022004749200011F000FF26
:1055FC003000FAF78BFD02000021300010F09AFF0A
:10560C00AB005B199A00384B9B18D8683D49FFF7E3
:10561C00AFFB0028E5D12000FAF778FD20180C220A
:10562C003A4910F07EFF2000FAF770FD82B22C4B45
:10563C00187801235B4200933333210008F018FBE8
:10564C0043460133DBB298460137FFB2304B1B782F
:10565C00BB4238D93D00BB00DB199A00224BD35C0E
:10566C00002B00D069E7AB005B199A001E4BD35C92
:10567C00012B00D16FE7032BC2D1AB005B199E004D
:10568C00194BF618B11D042205A810F04AFFF27848
:10569C00013A7378013B5E00F3181E4EF618530066
:1056AC009B189A001C4B9B189B6899460598FDF714
:1056BC0019F90290039100964B46220017492000DD
:1056CC0011F096FE9CE7A7221549200010F029FF47
:1056DC0000200BB00CBC90469946F0BD90A201087E
:1056EC00AF0500202CB90108E460002064B9010862
:1056FC0004AE010870B9010884B901089CB901080D
:10570C00B4B90108D0090020E0B90108E8B90108D2
:10571C009F09002050B40108E0000020D0B9010816
:10572C00F4B9010810B5041E01D172B6FEE70AF0F7
:10573C006FFC03041B0C1B4A94466344082B2AD8A9
:10574C009B00194AD3589F46184A1949200011F05A
:10575C004FFE0AF057FC030B22001649200011F0F3
:10576C0047FE002010BD144A1149200011F040FEE4
:10577C00EFE7124A0E49200011F03AFEE9E7104A11
:10578C000B49200011F034FEE3E70E4A08492000D3
:10579C0011F02EFEDDE70C4A0549200011F028FE21
:1057AC00D7E7C046C0FBFFFF2CAE01084CB3010885
:1057BC0058B30108A4B301086CB3010878B301080D
:1057CC0084B3010890B301089CB3010870B5041EA2
:1057DC0001D172B6FEE70E220D4910F0A2FE002593
:1057EC00022D0BD80B4BEB189B001B6822000A49AF
:1057FC00200011F0FDFD0135EDB2F1E72000FAF7C4
:10580C0085FC20180322054910F08BFE002070BD8A
:10581C0058C90108EBFDFF0768C9010840BF010822
:10582C0030B585B0041E01D172B6FEE707F07CFFDF
:10583C001B4B5B7B182B04D00C2B0ED0002005B01F
:10584C0030BD17498A7C4B7C087CC989019100903A
:10585C001449200011F0CCFDF0E7114BDB7C012B3F
:10586C000DD10F498A7C4B7C087CC9890E4D029561
:10587C00019100900D49200011F0BAFDDEE7022BDA
:10588C00DCD107498A7C4B7C087CC989084D029580
:10589C00019100900549200011F0AAFDCEE7C04609
:1058AC00C8600020A0C80108F4C80108C8C80108D5
:1058BC00F8C8010810B5041E01D172B6FEE707F056
:1058CC0033FFFEF74FFC02000249200011F090FD5F
:1058DC00002010BD94AF0108F0B583B00400160091
:1058EC00002301930093002801D172B6FEE701AAB0
:1058FC000121300008F016FC05007D4B18600422D5
:10590C007C4911F0B9FD002800D09CE00435019BC6
:10591C001E1F32007849280011F0AEFD002822D15C
:10592C00764B9B79602B0BD1754A7649200011F090
:10593C005FFD0023682B00D1D3E0002003B0F0BD45
:10594C00202B06D1704A6F49200011F051FD002325
:10595C00F0E7002B00D0C0E06C4A6A49200011F03F
:10596C0047FD0023E6E732006949280011F084FD69
:10597C0000281DD1614BDB79032B06D1604A6149AC
:10598C00200011F035FD0023D4E7012B06D15E4A2F
:10599C005C49200011F02CFD0023CBE7002B00D03C
:1059AC009DE05A4A5749200011F022FD0023C1E71F
:1059BC0032005849280011F05FFD002807D14F4BE9
:1059CC009A685549200011F013FD0023B2E732000C
:1059DC005249280011F050FD002807D1474B1A8876
:1059EC004D49200011F004FD0023A3E732004C497F
:1059FC00280011F041FD002807D1404B5A88464938
:105A0C00200011F0F5FC002394E7320045492800F2
:105A1C0011F032FD002807D1384B1A793E4920008D
:105A2C0011F0E6FC002385E732003F49280011F015
:105A3C0023FD00280ED1314B5A793749200011F043
:105A4C00D7FC002376E705223849280011F014FD15
:105A5C00002805D013223649200010F062FD6CE7B7
:105A6C006A460221300008F05DFB070000260BE0BF
:105A7C00B3009B1959002F4BC9183800FAF73CFB9F
:105A8C0000280CD00136F6B2092EF1D90025002DD4
:105A9C0007D13A002849200011F0AAFC4DE7012556
:105AAC00F5E73A002549200011F0A2FC08E06B1E36
:105ABC005B00234A9B5A3341DB0707D40135EDB217
:105ACC00204B1B78AB42F2D2002333E72B00220091
