:020000040800F2
:10000000008000206DD40008F9D4000881CA0008DF
:1000100000000000000000000000000000000000E0
:1000200000000000000000000000000071D900087E
:10003000000000000000000025DA000875CA000872
:10004000F9D40008F9D40008F9D40008F9D400085C
:10005000F9D40008F9D400083DCC0008F9D4000810
:10006000F9D40008D1CA0008DDCA000815CB000881
:10007000F9D40008F9D40008F9D40008F9D400082C
:10008000F9D40008F9D40008F9D40008F9D400081C
:10009000F9D40008F9D40008F9D40008F9D400080C
:1000A00051CC0008F9D40008F9D4000885CA00082A
:0C00B00095CA0008A5CA0008F9D4000891
:1000BC0010B5064C2378002B07D1054B002B02D032
:1000CC00044800E000BF0123237010BD400D002048
:1000DC0000000000989A0108044B10B5002B03D0C7
:1000EC000349044800E000BF10BDC04600000000FA
:1000FC00440D0020989A010802780B78002A03D04E
:10010C00013001319A42F7D0D01A70470023C25CFB
:10011C000133002AFBD1581E7047000002B471460F
:10012C0049084900095649008E4402BC7047C04634
:10013C0002B4714649084900095C49008E4402BC6E
:10014C007047C04603B47146490840004900095E37
:10015C0049008E4403BC704703B471464908400003
:10016C004900095A49008E4403BC704700224308D9
:10017C008B4274D303098B425FD3030A8B4244D363
:10018C00030B8B4228D3030C8B420DD3FF220902A5
:10019C0012BA030C8B4202D31212090265D0030B64
:1001AC008B4219D300E0090AC30B8B4201D3CB035A
:1001BC00C01A5241830B8B4201D38B03C01A52419C
:1001CC00430B8B4201D34B03C01A5241030B8B429E
:1001DC0001D30B03C01A5241C30A8B4201D3CB0289
:1001EC00C01A5241830A8B4201D38B02C01A52416E
:1001FC00430A8B4201D34B02C01A5241030A8B4271
:10020C0001D30B02C01A5241CDD2C3098B4201D388
:10021C00CB01C01A524183098B4201D38B01C01A06
:10022C00524143098B4201D34B01C01A524103097D
:10023C008B4201D30B01C01A5241C3088B4201D32C
:10024C00CB00C01A524183088B4201D38B00C01AD9
:10025C00524143088B4201D34B00C01A5241411A00
:10026C0000D20146524110467047FFE701B500200D
:10027C0000F0F0F802BDC0460029F7D076E77047D1
:10028C0003460B437FD4002243088B4274D30309EB
:10029C008B425FD3030A8B4244D3030B8B4228D38C
:1002AC00030C8B420DD3FF22090212BA030C8B42B2
:1002BC0002D31212090265D0030B8B4219D300E052
:1002CC00090AC30B8B4201D3CB03C01A5241830BD7
:1002DC008B4201D38B03C01A5241430B8B4201D387
:1002EC004B03C01A5241030B8B4201D30B03C01AB0
:1002FC005241C30A8B4201D3CB02C01A5241830A2A
:10030C008B4201D38B02C01A5241430A8B4201D358
:10031C004B02C01A5241030A8B4201D30B02C01A82
:10032C005241CDD2C3098B4201D3CB01C01A5241E9
:10033C0083098B4201D38B01C01A524143098B4272
:10034C0001D34B01C01A524103098B4201D30B015B
:10035C00C01A5241C3088B4201D3CB00C01A524180
:10036C0083088B4201D38B00C01A524143088B4245
:10037C0001D34B00C01A5241411A00D201465241DE
:10038C00104670475DE0CA0F00D04942031000D3FD
:10039C004042534000229C4603098B422DD3030A52
:1003AC008B4212D3FC22890112BA030A8B420CD362
:1003BC00890192118B4208D3890192118B4204D38B
:1003CC0089013AD0921100E08909C3098B4201D30B
:1003DC00CB01C01A524183098B4201D38B01C01A45
:1003EC00524143098B4201D34B01C01A52410309BC
:1003FC008B4201D30B01C01A5241C3088B4201D36B
:10040C00CB00C01A524183088B4201D38B00C01A17
:10041C005241D9D243088B4201D34B00C01A5241EE
:10042C00411A00D20146634652415B10104601D37B
:10043C004042002B00D54942704763465B1000D305
:10044C00404201B5002000F005F802BD0029F8D0AB
:10045C0016E770477047C046D0400B1CD1409C46F5
:10046C00203AD34018435242634693401843704796
:10047C008446101C62468C46191C634600E0C0463C
:10048C001FB501F035FF002801D40021C8421FBD63
:10049C0010B501F08DFE4042013010BD10B501F0D9
:1004AC0027FF002801DB002010BD012010BDC04635
:1004BC0010B501F01DFF002801DD002010BD01204A
:1004CC0010BDC04610B501F0AFFE002801DC0020C5
:1004DC0010BD012010BDC04610B501F0A5FE0028CE
:1004EC0001DA002010BD012010BDC0468446081C56
:1004FC006146FFE71FB500F097FC002801D40021EE
:10050C00C8421FBD10B500F019FC4042013010BDAF
:10051C0010B500F089FC002801DB002010BD012083
:10052C0010BDC04610B500F07FFC002801DD002096
:10053C0010BD012010BDC04610B500F027FC0028EE
:10054C0001DC002010BD012010BDC04610B500F02C
:10055C001DFC002801DA002010BD012010BDC04692
:10056C00002B11D1002A0FD1002900D1002802D074
:10057C000021C943081C07B4024802A1401802908C
:10058C0003BDC046D1FEFFFF03B4684601B5029817
:10059C0000F066F8019B9E4602B00CBC7047C0464A
:1005AC00F0B5CE46474615042D0C2E0080B5070439
:1005BC00140C3F0C9946030C7E435D436743634325
:1005CC007F19340CE4199C46A54203D980235B02A5
:1005DC009846C4444B4643435143250C360465446A
:1005EC00360C2404A4195B19591820000CBC904635
:1005FC009946F0BD9E2110B5C905041CFFF7A6FF56
:10060C00002803D1201C00F055FF10BD9E21201C9A
:10061C00C90500F08BFD00F04DFF80231B069C46A6
:10062C006044F2E770B500220C4B04000D00FFF79C
:10063C0053FF002804D12000290002F097FC70BD64
:10064C00064B00222000290002F02CF902F08EFC4F
:10065C0080231B069C466044F1E7C0460000E04145
:10066C00F0B54F464646D646C0B5040082B00D00E4
:10067C00914698468B422FD82CD04146484602F0E2
:10068C000BFE29000600200002F006FE331A9C46E1
:10069C00203B9A4600D576E04B46524693401F00CD
:1006AC004B46624693401E00AF4228D825D0534695
:1006BC00A41BBD41002B00DA7BE00022002300923A
:1006CC0001930123524693400193012362469340C8
:1006DC00009318E08242D0D90022002300920193AB
:1006EC000A9B002B01D01C605D600098019902B040
:1006FC001CBC90469946A246F0BDA342D7D9002215
:10070C000023009201936346002BE9D0FB07984627
:10071C00414672080A437B0866460EE0AB4201D1A3
:10072C00A2420CD8A41A9D41012024196D4100212C
:10073C00013E24184D41002E06D0AB42EED9013EAD
:10074C0024196D41002EF8D10098019953460019D7
:10075C006941002B23DB2B005246D3402A00644610
:10076C00E2401C0053461500002B2DDB260057469B
:10077C00BE40330026006746BE403200801A9941C5
:10078C0000900191ACE7624620239B1A4A46DA405E
:10079C006146130042468A4017001F4380E76246B9
:1007AC0020239B1A2A0066469A402300F3401343E9
:1007BC00D4E76246202300219B1A0022009101926B
:1007CC000122DA40019280E72023624626009B1A20
:1007DC00DE402F00B0466646B74046463B003343EA
:1007EC00C8E7C046F8B54746CE4643025B0A44000C
:1007FC00C20F9C464800DD004B02240E5B0A000E23
:10080C0080B5984626009146C90FDB00271A8A420C
:10081C0029D0002F15DD00284AD1002B00D095E0FF
:10082C00ED08FF2C00D188E06B025B0AE6B25B029C
:10083C00F605580A3043D20710430CBC9046994633
:10084C00F8BD002F00D087E0601CC0B2012800DC8E
:10085C00B6E0EE1A720100D5C5E0002E3DD10022A3
:10086C0000260023E3E7002F00DC96E000285DD093
:10087C00FF2C60D08022D20413431B2F00DDECE050
:10088C002022D21B18009340F8405A1E9341034378
:10089C00ED186B017BD50134FF2C00D1B7E00122A0
:1008AC0007262A406B089A4D1D4015432E4029E01F
:1008BC00FF2CB5D08022D20413431B2F00DDB2E0F5
:1008CC002022D21B19009340F9405A1E93410B432E
:1008DC00ED1A6B015BD5AD01AE09300002F0BEFC28
:1008EC0005388640844265DC041B3300202001342B
:1008FC00E340041BA640751EAE41334307261D0082
:10090C0000241E4001224B461A40002E04D00F2317
:10091C002B40042B00D004356B0100D480E701344C
:10092C00E6B2FF2C2FD1FF26002380E7002B52D1FB
:10093C00FF2C00D074E70A00ED08002DF3D08023C3
:10094C00DB032B435B025B0AFF2670E7013F002FA2
:10095C00BED0FF2CB1D163E7002C47D0FF2869D063
:10096C008024E4047A4225431B2A00DDC5E02C00D8
:10097C002026D440B21A95406A1E954125435D1B32
:10098C0004008946A5E7AB015B0A50E7002401226D
:10099C004B461A406B07BAD142E7002F3BD10134CA
:1009AC00E0B201284ADDFF2CBDD00726ED186D08FA
:1009BC002E40A7E70723574D241A35401E40A1E7C8
:1009CC00002C1BD1002D6ED1002B00D19AE00A0017
:1009DC001D003C0024E7013F002F00D158E7FF2CFD
:1009EC0000D04AE7A7E75E1B894676E7002D1CD1AD
:1009FC000A00FF281FD004001D0011E7002D5DD157
:100A0C00002B17D180230022DB03FF260FE70A00FF
:100A1C00FF2600230BE7002C21D1002D66D1FF28E7
:100A2C00E9D11D0087E7012352E77A1CA7D0FA43CE
:100A3C00FF2899D10A001D00FF24F1E6002E21D1D8
:100A4C00002D4FD0002B4CD0ED186B019ED5314BA7
:100A5C0007362E4001241D4054E7012318E7FF28D8
:100A6C00DFD08024E4047F4225431B2F4DDC20265D
:100A7C00F61B2C00B540FC406A1E95412543ED1831
:100A8C00040006E7002DCCD0002B00D153E78021C9
:100A9C006046C903084203D04046084200D11D00FD
:100AAC000121114047E7002B00D1B9E6EA1A5001A9
:100ABC0025D507265D1B2E40894623E7FF24002BF6
:100ACC0000D1ADE680226046D203104204D04046ED
:100ADC00104201D11D00894601224B46FF241A40C9
:100AEC009EE62B00DD080A0000249DE67A1CC6D089
:100AFC00FF43FF28B9D11D001DE701253FE7151E57
:100B0C0000D044E70022002391E60125B7E7C04658
:100B1C00FFFFFF7DFFFFFFFBF8B557464E464546EE
:100B2C00DE464402E0B546008846640A360EC70F1E
:100B3C00002E63D0FF2E24D08023E400DB041C4362
:100B4C00002399469B467F3E434642465D02D20FA8
:100B5C005B006D0A1B0E9046924665D0FF2B55D05C
:100B6C0080220021ED00D2047F3B1543F61A434648
:100B7C004A467B400F2A00D98DE06D48920082587E
:100B8C009746002C54D108239946063BFF269B46DA
:100B9C00DAE70025534602291BD0032900D1BFE018
:100BAC00012928D030007F30002820DD6A0704D0CE
:100BBC000F222A40042A00D004352A0103D5300024
:100BCC005C4A80301540FE2803DCAC01640AC2B2DA
:100BDC0001E0FF2200246402D205600ADB07104307
:100BEC0018433CBC90469946A246AB46F8BD012240
:100BFC00101A1B287CDD00220024ECE7002C1DD1F0
:100C0C0004239946033B00269B469DE7FF3E002D9F
:100C1C0020D1022143464A467B400A430F2AD8D8AA
:100C2C004548920082589746002D19D10121F1E7D1
:100C3C000C239946093BFF269B4685E7200002F0D2
:100C4C000DFB7626431F9C4000237642361A9946AC
:100C5C009B4679E74A4603231A439146032186E7CC
:100C6C00280002F0FBFA431F36189D40763600210F
:100C7C007DE780240023E403FF22ACE700258023DA
:100C8C00DB031C4228D01D4226D12B435C02640A94
:100C9C004346FF229FE762016C01A24224D21B2132
:100CAC000025013E012710006D005200002801DBD9
:100CBC00944201D8121B3D4301390029F3D1140091
:100CCC00621E944125436DE7BA46594625005346AA
:100CDC00022900D061E77CE78023DB031C4364021C
:100CEC00640A3B00FF2276E7121B1A210125D9E783
:100CFC009E362A00B5402C00C240651EAC41144300
:100D0C00620704D00F222240042A00D0043462016E
:100D1C0003D4A401640A00225DE7012200245AE7EF
:100D2C008024E4032C436402640AFF2253E7C04688
:100D3C00AC9E0108FFFFFFF7EC9E010870B5420066
:100D4C004E024C0045026D0A120EC30F760A240E99
:100D5C00C90FFF2A0FD0FF2C11D00120A24200D0C6
:100D6C0070BDB542FCD18B420DD0002AF8D12800C1
:100D7C00451EA841F4E70120002DF1D1EBE701203D
:100D8C00002EEDD1E9E70020EAE7C04670B54A0035
:100D9C004E02450244006D0A240EC30F760A120E51
:100DAC00C90FFF2C15D0FF2A0ED0002C15D1002A0C
:100DBC0001D1002E1CD0002D14D08B4227D0022044
:100DCC00013B1840013870BD002EEED0022040428D
:100DDC00F9E7002DFAD1FF2A0ED0002A0ED1002EF1
:100DEC00EDD00BE001230139994308000130EAE70B
:100DFC000020002DE7D0E2E7002EE7D18B42DED1B8
:100E0C00944205DD0221581E08400138DBE700241E
:100E1C00A24204DCB542D2D80020B542D3D2581E2F
:100E2C00012398430130CEE730B5420044024D0215
:100E3C00C30F4800640A120E6D0A000EC90FFF2A78
:100E4C0012D0FF280CD0002A12D1002819D1002D65
:100E5C0017D1002C2BD00220013B1840013826E082
:100E6C00002DF0D0022022E0002CFBD1FF281FD057
:100E7C0000281FD1002D1DD10220013B1840013844
:100E8C0015E0002C0ED08B42E5D10022904204DC00
:100E9C00AC42E0D80020AC4209D2581E0123984342
:100EAC00013004E00123013999430800013030BDC1
:100EBC00002DD7D18B42CED18242E7DD0221581EC4
:100ECC0008400138F3E7C046F0B54E465746454654
:100EDC00DE46E0B543025B0A450083B00F1C994621
:100EEC002D0EC60F002D57D0FF2D24D08020DB00F7
:100EFC00C0041843002381469A469B467F3D7C02E2
:100F0C007A00FB0F640A120E984623D0FF2A4BD0AE
:100F1C00E30080240020E4047F3A1C43AD186B1CD2
:100F2C0047460193534677403A000F2B48D87D49EA
:100F3C009B00CB589F46002B00D085E008339A4687
:100F4C00063B9B467C027A00FB0FFF25640A120EBF
:100F5C009846DBD1002C00D090E0524601231A4376
:100F6C0092460120DBE74C4658461700022824D055
:100F7C00032800D1CFE00022002301284DD15802D4
:100F8C00D205400AFF071043384303B03CBC9046DF
:100F9C009946A246AB46F0BD002B5BD104239A4682
:100FAC00033B00259B46AAE7FF35002C60D1524637
:100FBC0002231A4392460220B1E7FF220023DEE708
:100FCC004B461B0C9C464B462604360C18046146BB
:100FDC003300220C6446000C43434E4350435443AD
:100FEC0080191A0C1218964203D9802149028C469A
:100FFC0064441B041B0C1004C01883015E1EB34117
:10100C00800E1843130C1B199B0103431C00230176
:10101C0079D5012362081C401443019A7F32002ABF
:10102C004DDD630704D00F232340042B00D0043480
:10103C00230103D53C4B019A1C408032FE2ABCDCB8
:10104C00A3015B0AD2B29AE70C239A46093BFF250F
:10105C009B4654E7180002F001F94A46431F7625D7
:10106C009A4000236D4291462D1A9A469B4646E7BC
:10107C00524603231A439246032050E7200002F005
:10108C00EDF8431F2D1A9C40763D002047E7802346
:10109C000027DB03FF2272E7424666E74C4632002C
:1010AC00584662E780234A46DB031A4222D01C4290
:1010BC0020D123435B025B0A4746FF225FE70123F3
:1010CC009A1A1B2A21DC23000199D3409E318C40B3
:1010DC001A0023005C1EA34113435A0704D00F22AD
:1010EC001A40042A00D004335A0111D49B015B0A24
:1010FC00002244E780234A46DB0313435B025B0A6E
:10110C003700FF223BE7019587E70022002336E7F3
:10111C000122002333E78023DB0323435B025B0ABA
:10112C00FF222CE72C9F0108FFFFFFF7F8B547467D
:10113C00CE464400C20F80B547024802400A84469E
:10114C00664648007F0A240EF60025009046FB00F8
:10115C00000EC90FB146FF2800D185E00126714071
:10116C00261A914257D0002E43DD002800D07FE094
:10117C004946002900D1AAE0013E002E00D0F7E03C
:10118C005B1A5A0100D48BE09B019C09200002F0F1
:10119C0065F805388440854200DDD3E0451B23000B
:1011AC0020200135EB40451BAC40621E944123438B
:1011BC00072400251C40012241460A40002C04D083
:1011CC000F211940042900D00433590100D480E0C8
:1011DC000135ECB2FF2D00D0A3E0FF2400235B020D
:1011EC00E405580AD207204310430CBC904699469C
:1011FC00F8BD002E74D1601CC0B2012800DCA7E041
:10120C004A469C1A620100D5B6E0002CBED10022E1
:10121C0000240023E3E7002E00DC85E0002846D004
:10122C00FF2C49D080224846D2041043814601222B
:10123C001B2E09DC20204C46801B84404A46200093
:10124C00F240441EA04102439B185A0128D5013597
:10125C00FF2D00D1A8E00122072494491A405B0815
:10126C000B4013431C40A6E7002E00D078E775E72F
:10127C00FF2C54D080224946D204114389460122C6
:10128C001B2E09DC20214846891B88404A46010058
:10129C00F240481E81410A439B1A5A0100D573E75C
:1012AC00012241460A40590700D089E711E048461F
:1012BC00002858D1FF2C0CD1DB08002B00D18CE777
:1012CC008020C00303435B025B0AFF2487E7FF2CEB
:1012DC0025D0DB08FF2DF0D05B025B0AECB27EE779
:1012EC00002C4DD0FF2818D08024E40472422343F4
:1012FC001B2A00DDC4E01C002025D440AA1A934010
:10130C005A1E934123434A460500D31A884638E7B0
:10131C00721CF8D0F243FF28EAD10A004B46FF2595
:10132C00D7E79B015B0A5AE7002E41D1651CE9B255
:10133C00012945DDFF2D00D14FE707244B445B0805
:10134C001C4038E707225A4B2D1A2340144032E731
:10135C00002C1DD1002B7AD14B46002B00D191E0F3
:10136C000A000025B5E7013E002E19D14B446CE76D
:10137C00FF2C84D1FF25ACE74A468846D41A05E7F2
:10138C00002BC5D10A00FF28C8D005004B46A0E7AA
:10139C00002B49D14B46002B77D00A00FF2598E74C
:1013AC00FF2C00D043E787E70A00FF24002316E751
:1013BC00002C15D1002B57D1FF28E6D14B467BE7EB
:1013CC00002C20D1002B57D04946002953D04B4438
:1013DC005A0168D50724364A1C4001251340EAE619
:1013EC00FF28EBD08022D204764213431B2E53DC11
:1013FC002025AD1B1A00AB40F2405C1EA3411343E9
:10140C004B44050021E7002BD8D04946002900D1D8
:10141C0052E78021C9030F4200D14DE760460842D4
:10142C0000D049E74B4647E74846FF25002800D146
:10143C004FE78022D203174204D06046104201D1FC
:10144C004B46884601224146FF250A4041E7484663
:10145C0000281FD01A1A500120D54A460724D31A47
:10146C001C4088460025A6E6741CC9D0F643FF280C
:10147C00BCD14B4620E799464B460025DB082BE7B1
:10148C00012340E700220023A9E680230022DB038E
:10149C00FF24A4E600251CE70123B1E7002AF1D0C4
:1014AC0013000025FCE60025FAE6C046FFFFFF7D91
:1014BC00FFFFFFFB41024200C30F490A120E00203E
:1014CC007E2A0DD99D2A0CD8802000040143952A30
:1014DC000ADC9620821AD1404842002B00D1080029
:1014EC007047034A9818FBE7963A9140F4E7C046D8
:1014FC00FFFFFF7F70B5041E34D001F0AFFE9E22BB
:10150C00121A962A07DCD2B208282EDD083884403D
:10151C006002400A21E0992A09DD030021001B33F7
:10152C0099404B1E994105231B1ADC400C4305289E
:10153C0001DD431F9C4023000D490B40650709D07A
:10154C000F252C40042C05D004335C0102D59F22BE
:10155C000B40121A9B01580AD2B24002D205400A23
:10156C00104370BD00220020F7E76002400AF4E748
:10157C00FFFFFFFBF0B54F464646D6460C0009036D
:10158C00C0B5490A470F5E0039431F03DB0F9C4669
:10159C0065007B0A570F1F436D0DE40F760DA146B6
:1015AC00C000B846D200AB1B64457BD0002B5FDD7E
:1015BC00002E00D0A4E03E00164300D112E15E1EC6
:1015CC00002E00D09EE1871A4346B8428041012587
:1015DC00C91A4042091A0B0200D431E149024E0AE1
:1015EC00002E00D16EE1300001F038FE0300083B04
:1015FC001F2B00DD61E120223900D21A9E40D14020
:10160C009F400E439D4200DD51E15D1B6B1C1F2B67
:10161C0000DD7CE12021C91A3D0030008F4088405C
:10162C00DD40791E8F41310007222843D940002527
:10163C0007433A40002A09D00F233B40042B05D026
:10164C003B1DBB42BF417F42C9191F000B0200D496
:10165C0026E26A1CC64B55056D0D9A4200D106E177
:10166C00C44AFF080A40530752023B43120B8EE058
:10167C00002B00D0B8E06B1C5B055B0D012B00DC74
:10168C0030E1871A4346B842B641CB1A76429E1BCC
:10169C00330200D54CE13B003343A1D1002200249E
:1016AC00002570E0002B00DCE5E0002E00D183E08B
:1016BC00AF4EB54260D0802636043743B846382B3F
:1016CC0000DC3EE1434613431F007A1E97413F184E
:1016DC0087428041404209180B0200D4B0E0A44B71
:1016EC0001359D4200D1C3E0A24A7B080A4001218A
:1016FC000F401F435108D30707221F433A4099E775
:10170C009B4EB54238D0802636043743B846382B2A
:10171C0000DDDCE01F2B00DC30E11E004746203EE4
:10172C00F740BC46202B04D04026F31A46469E4078
:10173C003243170063467A1E97411F43CCE0002BBF
:10174C0000D104E24346134300D159E14B07C008D2
:10175C0018438023C9081B03194208D04546ED08DD
:10176C001D4204D14346D008590708432900420FB3
:10177C00C9007F4D1143C0004B07CA087C49C00803
:10178C0003438D4268D012036D05120B6D0D0021C1
:10179C0012031800130B0A0D12051A43764B2D0574
:1017AC0013402B435B00E4075B08234319001CBC6C
:1017BC0090469946A246F0BD3E00164312D05E1EDE
:1017CC00002E00D000E187188742804141444042FE
:1017DC00091801250B0233D5022585E76446330031
:1017EC00414610001D00C7E7002D00D0DAE00C00C8
:1017FC000443F3D05C1C00D19FE15D4CA64200D1A8
:10180C002FE1DB43382B00DD66E11F2B00DD83E18C
:10181C0020240500E41A0F00DD40D940A0404346C7
:10182C00A7405B1A441EA04198462F433843171A11
:10183C00BA42924143465242991A64463500CAE66E
:10184C0007223A40002A00D0F6E64B07CA0848495E
:10185C00FF083B438D4296D11900114300D19EE104
:10186C00802109030A431203120B414D8FE7150027
:10187C00002200238BE7002B00D0C7E06B1C5F0518
:10188C007F0D012F00DCF1E0394DAB4200D1B9E006
:10189C0085180A0085428941424449425118072261
:1018AC00CF076D082F4349083A401D00C2E60722B6
:1018BC003049ED1A31403A40BCE63E0028388640AB
:1018CC0000279FE6380001F0C9FC20308EE6434625
:1018DC0013431F007A1E9741C71BB84280414042F8
:1018EC00091A78E60E003B0006431343002D61D124
:1018FC00002E00D0F4E0002B00D11BE1644639002F
:10190C00100039E71A4FBB427AD03300FFE63000A3
:10191C001F3DE840202B03D04021CB1A9E4037437B
:10192C007B1E9F41072207433A400021002589E78F
:10193C00171A4346BA42B641591A76428E1B644670
:10194C004EE61F2B00DDADE020264746F61AB740C9
:10195C00B9461700B246DF404E463E433700564666
:10196C00B240561EB24117434246DA408918AEE6E1
:10197C00FF070000FFFF7FFFFFFF0F802026474679
:10198C00F61AB740B9461700B246DF404E463E4302
:10199C0037005646B240561EB24117434246DA4013
:1019AC00891A99E77F4CA6425BD0802424045B42C1
:1019BC00214327E7002E0CD1002B00D1CBE064464D
:1019CC0039001000774DD7E6764FBB4218D0330064
:1019DC0075E6002B14D04B07C00818438023C908A8
:1019EC001B03194207D0FC081C4204D17907D0080C
:1019FC000843E14621004C46420FC9001143C00088
:101A0C00684DB9E61D0000220023C0E6002D5BD115
:101A1C000D00054300D1E2E65D1C00D1B0E0614D44
:101A2C00AE421FD0DB43382B71DC1F2B00DD96E060
:101A3C0020250F00ED1AAF40B9460700AA46DF403B
:101A4C004D463D432F005546A840D940451EA84160
:101A5C0088440743BF189742924151424144350094
:101A6C003AE6644635004146100085E60B00034318
:101A7C00002D00D063E6002BF5D04346134300D174
:101A8C007AE6871887428041072241444042091870
:101A9C003A400B0200D4D5E6434B01351940C9E559
:101AAC00380069E61E004746203EF740BC46202B16
:101ABC0004D04026F31A46469E4032431700634634
:101ACC007A1E97411F4302E6364DAE42CAD080259E
:101ADC002D045B422943A6E70843411E8841A6E634
:101AEC00002B00D148E6871A4346B842B641CB1AC0
:101AFC0076429E1B33024BD5171A4346BA4292418B
:101B0C00591A5242891A072264463A4092E5014317
:101B1C000F00791E8F419DE71C000F00203CE74011
:101B2C00202B03D04024E31A99400843411E8841DE
:101B3C0038437CE60022002425E6171A4346BA42B5
:101B4C009241591A5242891A6446350043E541467E
:101B5C001000144D10E680220024120380E61D00B4
:101B6C000F00203DEF40BC46202B03D04025EB1A44
:101B7C009940084307006346781E87411F4369E775
:101B8C00871897429B4141445B42C9183500A3E535
:101B9C003B003343CED0072231003A4052E60023BB
:101BAC001A00F4E5FF070000FFFF7FFFF0B5574672
:101BBC00DE464E464546E0B5834607000E03480018
:101BCC0085B092461C00360B400DCD0F002800D17D
:101BDC009DE0954B984239D08023F6001B041E43A0
:101BEC00924A7B0F33439946944603006344009317
:101BFC0000230026FF00029323031B0B984663006F
:101C0C00E40F52465B0D019400D1B3E086498B4240
:101C1C0000D19EE04246D100802212040A43514674
:101C2C00490F11438B46814952468C4600996344B7
:101C3C00CB1A0021D20000932B0063409A460F2E42
:101C4C0000D905E17A4BB6009B599F465B4633435E
:101C5C00994600D0B8E00223082600270090029392
:101C6C00CAE7CB463A0002990195019B9A46022994
:101C7C0027D0032900D180E2012944D06D49009B73
:101C8C008C4663441C00002C38DD530700D013E253
:101C9C00D2085B46DB0109D55946674B19408B4688
:101CAC008021C9008C46009B63441C00634B9C4202
:101CBC0007DC5B4664055F075B0217431B0B620D79
:101CCC0002E000230027584A00211B031C0B0B0DBC
:101CDC001B05234314055A4A380013401C43534632
:101CEC006400DB0764081C43210005B03CBC904633
:101CFC009946A246AB46F0BD0122524201231B1B62
:101D0C00382B00DCADE1002200230027DCE75B462A
:101D1C00334399465ED0002E00D18AE1300001F0A9
:101D2C009DFA03000B3B1C2B00DD7BE11D22D31A1B
:101D3C005A460100DA4008398E4013005F4633439F
:101D4C0099468F403F4B00261B1A009300230293A9
:101D5C0052E7414653460B433B499B468C46009BFE
:101D6C00634400935B46002B3BD1022300221E43AD
:101D7C00022161E7434613439B4637D04346002B71
:101D8C0000D162E1404601F069FA03000B3B1C2BC9
:101D9C0000DD53E102004146083A914088461D217E
:101DAC00CB1A5146D9400B0041460B439B46534638
:101DBC0093401A00009B25499C46604403008C46C6
:101DCC0063440093002137E70323B14600900C26AF
:101DDC00029311E70023009301330426002702939A
:101DEC000AE70323C3461E43032125E701331E43A1
:101DFC000022012120E700239A46802300271B03A1
:101E0C00094A61E7802349461B03194200D1E2E0ED
:101E1C005946194200D0DEE00B431B0317001B0B85
:101E2C00A246014A50E7C046FF07000001FCFFFF35
:101E3C006C9F0108FF030000FFFFFFFEFE07000080
:101E4C00FFFF0F800DFCFFFF01F8FFFFF303000005
:101E5C00D94500D9CBE000D1C6E03C00484600276C
:101E6C00009B013B00935B46160E1B021E431302A4
:101E7C00984633041B0C9946310C0191FEF7FCF982
:101E8C004A4642430B04210C050019438A4207D9E8
:101E9C008919013D8E4203D88A4201D9851E8919C0
:101EAC00881A0199FEF7E8F909048C464A46210480
:101EBC0064464243090C030021438A4204D9891920
:101ECC00013B8E4200D8F1E02D041D43AB46434646
:101EDC00891A4246280C12041D0C5B46140C220075
:101EEC001B041B0C5A4303946B43444302956843F5
:101EFC001B19150CEB189C4203D980246402A446D0
:101F0C0060441C0C15041B042D0C20185D19814217
:101F1C0077D373D00C1AA24A7D1BAF42BF419446B3
:101F2C00009B7F426344E01B1C00864200D1DBE037
:101F3C000199FEF7A1F94A4642430B04290C07000C
:101F4C0019438A4207D98919013F8E4203D88A4224
:101F5C0001D9871E8919881A0199FEF78DF9090490
:101F6C004A46894629044D464243090C030029433D
:101F7C008A4207D98919013B8E4203D88A4201D97A
:101F8C00831E89193F04891A3A00039F1A433800AB
:101F9C0013041B0C584381460298150C6F434343A2
:101FAC0045434846000C8446DB1963449F4203D9E1
:101FBC00802040028446654448461F0C00041B04E4
:101FCC00000C7D191818A94200D284E000D17FE0E2
:101FDC0001231A4357E680234A461B0313431B0372
:101FEC001B0BAA466F4A6FE6BA4200D935E74B463F
:101FFC00DC0758087B081C43FF0734E70024AF427A
:10200C0089D247444745A4415B466442A4196418ED
:10201C00013BA6421ED2A0426DD800D1B6E0241AD4
:10202C009B4678E703005A46283B9A400027914686
:10203C0088E6584601F012F9203072E60300524649
:10204C00283B9A4093460022B4E6504601F006F92C
:10205C0020309AE6A642E2D1B845DCD9341A9B4628
:10206C0059E71F2B65DC504C0099A4465C46614433
:10207C0008008C4011008240D940501E82410C4314
:10208C0014435A46DA401300620709D00F2222404B
:10209C00042A05D02200141D9442894149425B1840
:1020AC001A0262D50122002300270DE68A4200D8CD
:1020BC000AE7831E891907E70F231340042B00D16D
:1020CC00E6E5171D9742924153429B44FA08E0E51E
:1020DC00002800D1D7E57118531EB14227D3A9426D
:1020EC0015D358D01A0073E7002B00DC04E601234B
:1020FC0000229B44CDE502234744474589415B427E
:10210C009C46494289190C19E344241A03E74346B7
:10211C005F0047459B41B8465B429E19023A8919BC
:10212C00A94200D054E7404500D051E7ABE51A0076
:10213C00F6E71F215F4649420C1BE740202B07D0D6
:10214C001A49009B8C46634418005B4683401A4333
:10215C00501E82413A4307270023174009D00F2114
:10216C00002311401400042995D122005F075B0263
:10217C001B0BD20817430022A6E5802359461B03EC
:10218C000B431B0317001B0B064A9DE5BD42B2D83F
:10219C009B460024BFE68045B9D31A00C3E7C0466E
:1021AC00FF030000FF0700001E0400003E040000B7
:1021BC00F0B54F464646D6468446C0B58046194EC5
:1021CC0018030F034D00000B5C0082463F0B6D0D96
:1021DC00C90F9146640DDB0F0120B5420AD0B44201
:1021EC0003D0A54201D157450CD01CBC9046994652
:1021FC00A246F0BD66463E43F7D1AC42F5D15446FB
:10220C001443F2D10120C845EFD1994207D0002DDB
:10221C00EBD163461F433800471EB841E5E7002069
:10222C00E3E7C046FF070000F0B54F464646D646EA
:10223C004D00C0B50E03C90F8A462C491F035C0024
:10224C008046360B6D0D91463F0B640DDB0F8D42B6
:10225C001ED08C4216D0002D1ED130438446002C4B
:10226C0001D13A4323D06246002A1AD09A4529D08C
:10227C00514602200139084001381CBC9046994651
:10228C00A246F0BD39001143E5D002204042F4E7EC
:10229C003043FAD1AC420FD0002C0FD13A43E7D0E7
:1022AC000CE00122013B934318000130E5E7634643
:1022BC000020002BE1D0DBE73A43E6D19A45D7D199
:1022CC00A542D5DCA54205DBBE42D1D808D0002002
:1022DC00BE42D2D250460123013898430130CCE79C
:1022EC00C845C5D80020C845F4D3C6E7FF07000091
:1022FC00F0B54F464646D6464D00C0B50E03C90F45
:10230C008A462E491F035C008046360B6D0D9146A4
:10231C003F0B640DDB0F8D4218D08C4211D0002D79
:10232C0018D130438446002C1ED13A431CD163464D
:10233C000020002B30D051460220013908400138D2
:10234C002AE039001143EAD0022025E03043FBD1CA
:10235C00AC4226D0002C26D13A4324D1514602203F
:10236C0001390840013817E06246002A0FD09A451F
:10237C00E1D1A54205DBBE42DDD819D00020BE421A
:10238C000AD25046012301389843013004E001225F
:10239C00013B9343180001301CBC90469946A24661
:1023AC00F0BD3A43D0D19A45C5D1A542C3DCE0E794
:1023BC00C845C0D80020C845E3D3EDE7FF070000AF
:1023CC00F0B55746DE464E464546E0B58346060018
:1023DC000F03480087B092461D003F0B400DCC0FF9
:1023EC00002800D16FE0DE4B984238D08023FF00EC
:1023FC001B041F43730F3B430193DA4B0027994691
:10240C0000239B46F60081442B0369001B0B5246AC
:10241C009846490DED0F002900D185E0D04B99422B
:10242C0000D173E04346DA0080231B041343524669
:10243C00CC48520F84461343524600206144D200CC
:10244C0089442100694000918C46012149448A4607
:10245C000F2F00D990E0C449BF00CF59BF465B464F
:10246C003B43019300D06AE10223082700268146F2
:10247C009B46C9E732005846019B614600910228F1
:10248C0000D175E0032800D1FEE1012800D02CE139
:10249C0000230027002600253F032A0D3F0BB348DD
:1024AC0012053A4302401B051343009A5B00D10707
:1024BC005B080B433000190007B03CBC90469946B2
:1024CC00A246AB46F0BD5B463B43019300D12FE1E6
:1024DC00002F00D1A5E1380000F0C0FE03000B3B3B
:1024EC001C2B00DD96E11D22D31A5A460100DA405E
:1024FC005E4608398F4013008E403B4301939C4B42
:10250C0000271B1A994600239B467DE741465346FC
:10251C000B4393498C46E144002B00D01AE1022274
:10252C000220174300228CE7134300D10DE14346F0
:10253C00002B00D181E1404600F090FE02000B3AE6
:10254C001C2A00DD72E10100434608398B40984695
:10255C001D239A1A5346D3401A004346134352463E
:10256C008A404946081A824989468144002068E716
:10257C007B4B002700268EE7140C1204120C110062
:10258C00370C3604350C794328008C462E006043FA
:10259C006044834656432100300C804658467943AC
:1025AC0040440291844506D98846802149028C46D4
:1025BC00E044414602913604010C360C00048B4673
:1025CC0081191E0C1B041B0C0391190079438C46BA
:1025DC00280075436544A8465843050C4544774389
:1025EC00A94203D9802149028C466744290C8C46A8
:1025FC0039000004000C2D042D186144AB440591E6
:10260C005946049101990F043F0C080C39005143B1
:10261C004243904602008C46090C8B4662437C4335
:10262C0044445C44A04503D9802149028846424475
:10263C00210C884661460904090C8C463900594323
:10264C00434370437E430F0CF6182404BE196444B4
:10265C0042448C46B34203D980235B0298464044E3
:10266C00029B61469846049B370443449B46AB450A
:10267C00AD416B420D0405992D0C8C467F196744B6
:10268C00FD18A8465D462D19A542A4419346644207
:10269C00A446C344DC448F42BF4198459B419345BB
:1026AC009241A445A4415B427F421F43360C5242E7
:1026BC006442BF192243BF18624638184302D20D38
:1026CC00039913436A020A43501E82416146ED0D81
:1026DC002A434E023243D90100D4B3E001265008FC
:1026EC0032400243DE0732435B08224C5444002C38
:1026FC0062DD510709D00F201040042805D0101DB1
:10270C009042924152429B180200D90104D5802478
:10271C001948E400034054441848844200DD27E77C
:10272C005E075B02D2081F0B630516435B0DB2E616
:10273C00002399460133042700269B4664E60323B5
:10274C00019781460C279B465EE601220120174328
:10275C00002276E6032303201F43434671E6C0465E
:10276C00FF07000001FCFFFFAC9F0108FFFF0F807B
:10277C000DFCFFFFFF030000FFFFFFFEFE07000044
:10278C000023802700933F030026434B83E6019BE5
:10279C003200A446584670E6AC466EE68027019996
:1027AC003F0339422DD03B422BD11F433F033F0BFC
:1027BC0000951600384B6EE601252D1B382D00DDDB
:1027CC0066E61F2D40DC35481C0050441600824044
:1027DC008440EE40501E824134431443EB40620768
:1027EC0009D00F222240042A05D02200141D944245
:1027FC00804140421B181A023ED5012300270026B7
:10280C0049E68027019B3F031F433F033F0B009486
:10281C00214B40E603005A46283B9A400026019281
:10282C006DE6584600F01AFD203057E6030052467C
:10283C00283B9A401300002293E6504600F00EFD10
:10284C0020307BE6CA4650E71F201E004042041B86
:10285C00E640202D03D0124C5444A3401A43501E82
:10286C008241324307260027164009D00F2000234F
:10287C00104014000428B9D122005E075B021F0B24
:10288C00D2081643002306E680273F031F433F036D
:10289C003F0B1600004BFEE5FF0700001E04000076
:1028AC003E040000F8B557464E464546DE460C0041
:1028BC000903E0B5490A460F5F0031431E03DB0FE5
:1028CC00760A9B46530F3343C84E6500C000E40F95
:1028DC00D2006D0DA24681467F0D9C469046B742B4
:1028EC0000D1B9E05B46012673409B46EE1BA34525
:1028FC0000D183E0002E63DD002F00D0B1E06346F1
:10290C00134300D123E1731E002B00D0BAE1861AC9
:10291C006346B04280410125C91A4042091A0B0294
:10292C0000D447E149024B0A98464346002B00D19C
:10293C0089E1404600F092FC0300083B1F2B00DDB0
:10294C007CE120223000D21A4146D040994002004E
:10295C009E400A439D4200DD6AE15D1B6B1C1F2BF0
:10296C0000DD94E1202110003500C91A8E40DA40B8
:10297C008840DD40711E8E4111000722284300253E
:10298C0006433240002A09D00F233340042B05D0D4
:10299C00331DB342B641764289191E000B0200D496
:1029AC003DE26A1C914B55056D0D9A4200D119E11F
:1029BC008F4AF6080A40570752023743120B9BE026
:1029CC00002E00D0C5E06E1C7605760D012E00DCC5
:1029DC0048E16746861ACB1BB042BF417F42B846DE
:1029EC001F004346FF1A3B00B8461B0200D55FE1AF
:1029FC0037439AD100220024002579E0002E00DC18
:102A0C00FAE0002F00D18DE0784B9D4267D08023F7
:102A1C0067461B041F43BC46382E00DC52E163465C
:102A2C0013435A1E93411E18864280414042091896
:102A3C000B0200D4BEE06D4B01359D4200D1D2E0BB
:102A4C006B4A73080A4001210E401E435108D307FC
:102A5C0007221E43324095E71E00164300D045E77F
:102A6C0040E7624B9D423AD0802367461B041F43CC
:102A7C00BC46382E00DDEBE01F2E00DC3AE13300C3
:102A8C006746203BDF403B00202E05D04027BF1B74
:102A9C006646BE40324390464646721E96413343CC
:102AAC00DAE0002B00D114E26346134300D168E155
:102ABC0080234E07C008C9081B030643194208D0DF
:102ACC006046C008184204D163460100D2085E0774
:102ADC001643F3009946C900720F444D11434B46FF
:102AEC00DE08424B4F073743CA089D4200D16EE0C7
:102AFC0012036D05120B6D0D00211203130B0A0D41
:102B0C0012051A433B4B2D0513402B435B00E40786
:102B1C005B082343380019003CBC90469946A246FA
:102B2C00AB46F8BD6346134311D0731E002B00D087
:102B3C0007E186188642804161444042091801250C
:102B4C000B0237D502257BE73E00614691463500E6
:102B5C00C5E75C46002D00D0E1E00B000343F3D049
:102B6C00731C00D1ACE1214B9F4200D13AE1F343FD
:102B7C00382B00DD6FE11F2B00DD8CE120250E00D2
:102B8C00ED1AAE40B0460600AA46DE404546354337
:102B9C002E005546D940A8406346451EA8415B1AF5
:102BAC009C463043161AB242924163465242991ADD
:102BBC003D00B4E607223240002A00D0E4E60B4B7D
:102BCC00F6084F073743CA089D4200D090E73B00F8
:102BDC00134300D1A6E180231B031A431203120BEB
:102BEC00024D89E715000022002785E7FF0700004A
:102BFC00FFFF7FFFFFFF0F80002E00D0C7E06B1C94
:102C0C005E05760D012E00DCF0E0C84DAB4200D124
:102C1C00B9E085180A00854289416244494251183D
:102C2C000722CE076D082E43490832401D00A9E645
:102C3C00BF49ED1A114007223240A3E63200283872
:102C4C008240002686E6300000F008FB203073E658
:102C5C00634613435A1E9341C61AB0428041404208
:102C6C00091A5CE60E00674606431743002D5ED139
:102C7C00002E00D0F3E0002F00D11EE15C4661462F
:102C8C0091462CE7A94FBE427BD01E00F1E6100006
:102C9C001F3DE840202B03D04021CB1A9A4016430D
:102CAC00731E9E410722064332400021002583E714
:102CBC00161A6346B2428041591A40420B1A984682
:102CCC005C4632E61F2E00DDABE02027BB1B9A468C
:102CDC0063465746BB40994613004F46F3401F438B
:102CEC003B005746BA40571EBA4113436246F24066
:102CFC00891898E62027BB1B9A4663465746BB406B
:102D0C00994613004F46F3401F433B005746BA40C9
:102D1C00571EBA4113436246F240891A9CE7834B13
:102D2C009F425FD080252D047342294320E7002E5B
:102D3C000CD1002F00D1D0E05C46614691467B4D12
:102D4C00CDE67A4FBE421CD01E0065E6002F18D08F
:102D5C00C0084E0706438020C9080003014208D072
:102D6C006346DC08044204D12100DA46D2085E072F
:102D7C001643F300994601245346C900720F1143C0
:102D8C001C406A4DABE61D0000220027B4E6002D66
:102D9C0059D10B00034300D1D6E6731C00D1B2E02D
:102DAC00624B9F421ED0F343382B6FDC1F2B00DD90
:102DBC0097E020250E00ED1AAE40B0460600AA465C
:102DCC00DE40454635432E005546A840D940451EA9
:102DDC00A8418C440643B618964292415142614434
:102DEC003D0025E63D006146914678E60B00034325
:102DFC00002D00D055E6002BF5D06346134300D1CF
:102E0C006DE68618864280416144404209180022D2
:102E1C000B0200D4D0E6464B01351940B2E5B14661
:102E2C005DE633006746203BDF403B00202E05D09B
:102E3C004027BF1B6646BE40324390464646721E34
:102E4C0096413343EFE5394B9F42CBD080252D047F
:102E5C0073422943A8E70843411E8841A2E6002F8C
:102E6C0000D13CE66346861ACF1AB0429B415B42C6
:102E7C00FB1A98461B024ED5161A6346B242924173
:102E8C00591A5242891A5C4600227BE501430E0016
:102E9C00711E8E419FE71D000E00203DEE40B04696
:102EAC00202B04D04025EB1A994008438146484614
:102EBC004346411E8841184374E60022002417E65D
:102ECC00161A6346B2429241591A5242891A3D006F
:102EDC0025E561469146154D01E68022002412033A
:102EEC0079E61D000E00203DEE40B046202B04D0AC
:102EFC004025EB1A9940084381464E464346711EC5
:102F0C008E411E4367E7861896429B4161445B42A3
:102F1C00C9183D008CE547463743CED007224146C1
:102F2C00324049E600273A00E6E5C046FF070000BC
:102F3C00FFFF7FFF70B50C4E0D031C0349005B00B7
:102F4C002D0B490D240B5B0DB14208D00649002016
:102F5C008B4203D114432000441EA04170BD054395
:102F6C000120002DFAD1F1E7FF07000030B5144D18
:102F7C000A034B00120B5B0DC90F0024AB4211DD91
:102F8C00104CA34210DC8024640322430E4CE41A40
:102F9C001F2C0CDD0D48C31ADA4013005C420029CB
:102FAC0000D11C00200030BD094BCC18FAE7094DAC
:102FBC00E040AC4663449A4013000343EEE7C0463E
:102FCC00FE0300001D040000330400001304000085
:102FDC00FFFFFF7FEDFBFFFF70B500282DD0C3175F
:102FEC00C5185D40C40F280000F038F9154B1B1AAA
:102FFC005B055B0D0A2815DD0B38854000222D037F
:10300C002D0B002110002D030A0D2D0B12052A4348
:10301C000D4D1B052A4013435B00E4075B0823435B
:10302C00190070BD02002900153291400A000B21D5
:10303C00081AC5402D032D0BE3E7002400230025BF
:10304C000022DEE71E040000FFFF0F8010B5041EF7
:10305C0025D000F003F9144B1B1A5B055B0D0A28F5
:10306C0012DD0B38844000222403240B00211000B5
:10307C0024030A0D240B120522430C4C1B05224081
:10308C0013435B00590810BD02002100153291401A
:10309C000A000B21081AC4402403240BE6E7002382
:1030AC0000240022E2E7C0461E040000FFFF0F8050
:1030BC004100090E4B1C70B5DBB24602750AC40FF9
:1030CC00012B14DDE0239B006D07360BCB18002180
:1030DC000A0D280012051C4D32435B052A405B0883
:1030EC0013435B00E4075B082343190070BD002900
:1030FC0014D1002D1ED0280000F0B0F80A281CDCDA
:10310C000B232A001B1ADA40030015339D400F4B8A
:10311C0012031B1A5B05160B5B0DD8E7002D06D0AE
:10312C00320B802636036D071643094BCFE7084B4D
:10313C000026CCE700230026C9E703002A000B3B3E
:10314C009A400025E3E7C046FFFF0F80890300008B
:10315C00FF070000F0B54C00640D0B03621C5B0A0A
:10316C00460F5205C90F1E43C500520D012A29DD19
:10317C00374BE718FE2F1CDC002F3BDD8001431E74
:10318C0098410722F3006D0F03432B431A40002A8A
:10319C0004D00F221A40042A00D004338022D20417
:1031AC001A4024D00137FAB2FF2F02D09B01580AE3
:1031BC0001E0FF2200204002D205400AC90710435B
:1031CC000843F0BD3543002C04D1002D0AD1002258
:1031DC000020F0E7002DECD08020C0033043FF220C
:1031EC00E9E7002400235B02580AE2B2E3E7DB08BC
:1031FC003C00F8E73B001733F3DB80231B0433431D
:10320C001E26F61B1F2E14DD02225242D71B1A005B
:10321C00FA401700202E04D00E4A94466444A34072
:10322C001D432B005D1EAB4107223B431A40002778
:10323C00ADE7094A2800A218954093406C1EA541A1
:10324C00F04007222B4303431A4000279FE7C04658
:10325C0080FCFFFFA2FCFFFF82FCFFFF1C2101236F
:10326C001B04984201D3000C10391B0A984201D35D
:10327C00000A08391B09984201D30009043902A23B
:10328C00105C40187047C0460403020201010101A2
:10329C00000000000000000010B5002903D1FFF76A
:1032AC00DDFF203002E0081CFFF7D8FF10BDC04640
:1032BC00F0B51E4B1E481B8885B09BB21D4A1E499B
:1032CC00834206D1012313700023FA200B7005B042
:1032DC00F0BD180A0DD010700B7013780B260193EB
:1032EC000222012302A907310198834203D900204D
:1032FC00EDE70120EFE700205C1E744308700878AE
:10330C000A2802D90133DBB2EEE70848171808780F
:10331C003F882018BC466546084F40003D5208784F
:10332C0002320130C0B292B20870E8E700D801084E
:10333C00FFFF000010000020600D0020C4110020D1
:10334C00F8B5012400250A27094B1B78A34201D2AA
:10335C002800F8BD611E074B4900661CC918B0B2A5
:10336C0003F040FF192C00D93D00F4B2ECE7C04645
:10337C0010000020C0770020F0B585B002AB00240F
:10338C009F1D1C233C800093144B1B78A34202D23C
:10339C00002005B0F0BD0A2300256343104A009EAF
:1033AC009B1801933000390003F01CFF019A3B88F5
:1033BC0052195370019A1B0A535501360235B6B295
:1033CC000A2DEFD16543064B01345D1900236B7256
:1033DC00009BE4B205339BB2D5E7C0461000002039
:1033EC00B61000200020F0B585B002AB1A4E9F1D20
:1033FC003880B41C194B451C1B78C1B2ADB28B4242
:10340C0021D8350099309A36363584B2019600268B
:10341C0000943900009803F0E5FE3B88AA1953701C
:10342C001B0AAB55009B023601339BB200930A2E4C
:10343C00EFD10020019B687205340A35A4B29D427D
:10344C00E5D105B0F0BD4900CB30611880B203F076
:10345C00C9FE2800CEE7C046600D002010000020F9
:10346C00F0B50E25002687B005AC02ABED18210097
:10347C00E42026802E8003F0B5FE0396B04201D1E5
:10348C00237803932100E52003F0ACFE290006000D
:10349C00E62003F0A7FE3043002680B2B04203D1F1
:1034AC0026882B883604F6182100E72003F09AFEB4
:1034BC0029000700E82003F095FE3843002780B26E
:1034CC00B84203D127882B883F04FF182100E9203C
:1034DC0003F088FE204D002803D123881A0AAA760F
:1034EC00EB762100EA2003F07DFE002803D123882F
:1034FC001A0A2A776B772100EB2003F073FE002861
:10350C0003D123881A0AAA77EB77AB7E002B08D05D
:10351C00EA7E002A05D0009231003A00039805F0AB
:10352C00C1FA2B7F002B08D06A7F002A05D00092AD
:10353C0031003A00039805F0B5FAAB7F002B08D0A8
:10354C00EA7F002A05D0009231003A00039805F07A
:10355C00A9FA002007B0F0BDE00D0020F7B58A20D5
:10356C0001AD2900400003F03DFE434C002859D129
:10357C002B8823701B0A8E2029004000637003F0F7
:10358C0031FE002853D12B88DA0B22715B081620F0
:10359C002900FF30E38003F025FE384C00284CD185
:1035AC002B888B2029004000238003F01BFE002871
:1035BC0046D12B8818202900FF30638003F012FEBF
:1035CC00002840D12B8823711B0A8C202900400035
:1035DC00637103F007FE6B4606001A209F1D39002D
:1035EC00FF3003F0FFFD0643B6B2002E30D13B880E
:1035FC002A881B0413438D2029004000A36003F08C
:10360C00F1FD00282FD12B8823731B0A63731C2018
:10361C002900FF3003F0E6FD002828D12B8800207C
:10362C00A376FEBD164B9A782270DB78A3E7144B79
:10363C009A7902332271DB88A9E7114B9B89B0E799
:10364C000F4BDB89B6E70E4B1A7C22715B7CBCE717
:10365C000C4B0133DB7F002B02D0E1235B02CAE76A
:10366C00074B5B69C7E7C0235B01A381CFE7044B22
:10367C000733DB7FD3E7C046F6700020787100205B
:10368C0010000020E00D00201E23F0B58BB002AA24
:10369C009B18002201271A80BDB228001E2602ABFF
:1036AC003A30F618800080B2310003F09BFDFBB27B
:1036BC0006900793002845D13288130A1909B9429C
:1036CC0040D10F210B403DD0AD00ADB228000639E2
:1036DC0079431F4CE930641863702272310080B258
:1036EC0003F080FD28003388EA301A0AA270637157
:1036FC00310080B203F076FD3388EB351A0AE270A4
:10370C00A3713100A8B203F06DFD3388F9B21A0A27
:10371C002271E371607804F0E1FA0121207AA37838
:10372C0042100A40014006980590E0790490A07977
:10373C0003906079029020790190E0780090F8B2C3
:10374C0004F0D8FB0137082FA6D100200BB0F0BD38
:10375C00CC1B0020F7B5322011F056FB0600FB20E5
:10376C00002E05D02F4C043023780027FE2B1BD0C5
:10377C00FEBD23000099143B0135CA540134EDB24F
:10378C002AE02A00310011F08CFD274A0021137821
:10379C003000013313702A0011F08CFD2378FE2BBE
:1037AC003AD11437642F37D02300321B14330092D4
:1037BC00227800990A5501349C42F9D11B4B711C9B
:1037CC00FB1814221800019311F06BFD1422002138
:1037DC00300011F06FFD00252278931CDBB2012B19
:1037EC0001D9322DC5D17319013B1B78002B01D0A7
:1037FC000135EDB2280011F007FB0C4BDB19D8603A
:10380C000028BED101001422019811F053FD3000A4
:10381C0011F004FB0E20ABE7300011F0FFFA002092
:10382C00A6E7C04600DC0108381400209471002083
:10383C0010B5FFF73DFDFFF783FDFFF79DFDFFF78B
:10384C00D1FDFFF70DFEFFF789FEFFF71DFFFFF718
:10385C0081FF10BDF8B5012400250A270A4B1B78FF
:10386C00A34201D22800F8BD631E084A5B00995A96
:10387C00661C002902D0B0B203F0DEFC192C00D972
:10388C003D00F4B2EAE7C04610000020C0770020EB
:10389C00F7B500252F00134B1B78AB4201D200204B
:1038AC00FEBD0A266E43104BF25C002A17D0F618A8
:1038BC003B003C0021331C349BB2A4B201933378FF
:1038CC0071781B02C918200089B203F0B5FC0134D1
:1038DC00019BA4B202369C42F1D10537BFB201352F
:1038EC00EDB2D8E710000020B6100020F0B50E00A5
:1038FC0015001C0085B00AAB1F780BAB1B7881B28E
:10390C0000930CAB1B78E42001930DAB1B78029356
:10391C000EAB1B78039303F08FFC310A89B2E520C0
:10392C0003F08AFCB1B2E62003F086FC290A89B2C6
:10393C00E72003F081FCA9B2E82003F07DFC210212
:10394C00C91989B2E92003F077FC009BEA2019021F
:10395C00019BC91889B203F06FFC029BEB20190282
:10396C00039BC91889B203F067FC002005B0F0BDB9
:10397C008A2010B51F4C4000637821785B011943F5
:10398C0003F05AFC8E202179E388C903194389B2CC
:10399C00400003F051FC1620174CFF30218803F037
:1039AC004BFC8B206188400003F046FC18206379A7
:1039BC00217B1B021943FF3003F03EFC8C20A368D3
:1039CC00400099B203F038FC1A20A368FF30190CA0
:1039DC0003F032FC8D20637B21791B0219434000DC
:1039EC0003F02AFC1C20A17EFF3003F025FC0020F4
:1039FC0010BDC046F670002078710020F8B50E4E50
:103A0C0034220021300011F055FC012400250B4B11
:103A1C001B78A34201D22800F8BD631E5B00F15A4B
:103A2C00671C002902D0B8B203F006FC192C00D98F
:103A3C000A25FCB2EBE7C046C0770020100000203E
:103A4C0070B5054C054D2368AB4204D003F084FCE3
:103A5C00002800D1256070BDF07F0020ADDEEFBEE8
:103A6C000E23F0B51225002401278FB003AE6B4452
:103A7C006D440093320006AB05A9012008F0BEFD91
:103A8C0004AA08AB07A90095022008F0B7FD3388FB
:103A9C0009A9059809930A970B940CF089FC022349
:103AAC000B932B8809A9089809930A940CF080FCB5
:103ABC003188220005980CF0B7FD052009F07EFA3C
:103ACC00298808980CF0AAFDA0420FD131883A0041
:103ADC0005980CF0A9FD052009F070FA29880898C2
:103AEC000CF09CFD013844424441E4B220000FB07C
:103AFC00F0BD10B509F008FCE1231B0243608023E4
:103B0C00DB000361802304005B0183600EF0E8FCA2
:103B1C002023226811680B43136010BD044B10B5B1
:103B2C009968FCF7E9FA43425841C0B210BDC0464F
:103B3C00A0000020F8B51C490500FCF7DDFA0624AE
:103B4C0006001A4F002E23D019492800FCF7D4FA8E
:103B5C0000281FD017492800FCF7CEFA00281BD0EC
:103B6C0015492800FCF7C8FA002817D0390028009E
:103B7C00FCF7C2FA002813D010492800FCF7BCFA55
:103B8C0000280FD0013CE4B2002CDBD12000F8BDA2
:103B9C000120FCE70220FAE70320F8E70420F6E70F
:103BAC000520F4E70620F2E7F59F0108F19F0108D4
:103BBC0018A60108EC9F0108EE9F0108F49F01086C
:103BCC0073B5050001240326A54211D00B4B200030
:103BDC001A8D0B4B110A21335A70002219709C70EC
:103BEC00110000960A2305F03FF80A2009F0B5FCF5
:103BFC000134E4B2072CE7D1002076BD1000002080
:103C0C00E00D0020F0B587B06A463C4B00AF1B7846
:103C1C003B610733DB08DB00D31A9D467B61002335
:103C2C001900374A50323D69DCB2A54231D8012324
:103C3C007A690138135416224243324952183049DA
:103C4C00FA605031FC685A00A25A002A0DD00126A5
:103C5C005D1EAE4035004400665AD20835436552AD
:103C6C007C69A2180224013A14700133072BE9D1A4
:103C7C000221234B5033BB60002318000131C9B221
:103C8C003C69DAB294420AD80028F5D1BD4607B097
:103C9C00F0BD7C69E1545C00A1520133C3E77A6941
:103CAC00D45C4A1E944226D116245C43154AA218B1
:103CBC007A605A00944601247D686200AA5A002A50
:103CCC0016D0D208013AFA60FD687A69555D002D6C
:103CDC000ED10126651EAE4065463200BE6801302D
:103CEC00AD5BC0B21543624695537A69FD68515578
:103CFC000134072CE0D10133C2E7C046100000208C
:103D0C00E00D0020C41100200B78F0B5FF22040058
:103D1C00002B00D10278084B1E78002318009E421D
:103D2C0000DCF0BDE55C954204D2CF5C002F01D1E4
:103D3C002A00D8B20133F2E71000002010B5064B70
:103D4C0001221C780300191A8C4201DC100010BDF2
:103D5C00197801330A40F6E710000020F0B5050091
:103D6C0091B00C003222002103A811F0A3FA1A2200
:103D7C000021494811F09EFA484B6A1E99180023FD
:103D8C0001200B7145491E318B5416335343444A61
:103D9C009B180093A2B200994300CB5A002B0BD076
:103DAC00DB08934208D101223C4BC0B21F193A4B9D
:103DBC00FA701C7011B0F0BD01300728EBD1394BF3
:103DCC00364A18780123161D1E3298422ADA00252D
:103DDC0003AE3000FFF7B2FF002808D12F4B3100A3
:103DEC00181DFFF791FF0130C5B2A54224D1002167
:103DFC002A4A294E1E325319013B1878002842D109
:103E0C000122264B1C1900995300C95A00293FD096
:103E1C00E378214DC908EB18013B1B788B4237D155
:103E2C00D0B2C7E79D4205D0FF27591E7754002713
:103E3C0051180F700133C8E701226B1EF254162281
:103E4C005A43174952180192144A012194469C4432
:103E5C00019A4B00D35A002B11D0DB08DBB2013B8B
:103E6C00F25C002A0BD162460C481279C018013260
:103E7C000779D2B2974202D902710B4AD55401315B
:103E8C000729E5D1A4E74B1C7554D9B20500B2E75C
:103E9C000132072AB7D18DE78C720020600E00200A
:103EAC00C4110020100000207E0E0020F0B5314E11
:103EBC0089B0050030780C0007921F00FFF74EFF09
:103ECC0031780590002F05D00023A1420CD1069427
:103EDC0005970AE0284B06911B19DA78012A04D0C1
:103EEC00264B9B18013B1B7806933378AB421AD1B7
:103EFC0009F02CFC0500002F34D1214B220019684D
:103F0C0011F0D2FB1F4B2800196811F0EDFB2800B3
:103F1C00FCF7FCF8322382B22900079809F026FA44
:103F2C0064200BF035F90798FFF7E3FD0598FFF7D0
:103F3C00E0FD3378069A934205D1059809F0E4F92F
:103F4C00012109F057FA002331780393013B0293C6
:103F5C00019303330093059A0B00079805F0B6F80C
:103F6C0009B0F0BD08493B002200096811F09CFB28
:103F7C00C8E7C046600D0020600E00208C72002047
:103F8C00980000209000002094000020F0B5524DC5
:103F9C0085B0383551490600280011F0C1FB0124C9
:103FAC002800FCF7B3F8644282B229000094322353
:103FBC00300009F0B5F90125474F2A003837484938
:103FCC00380011F071FB3800FCF7A0F8013582B213
:103FDC00009432233900300009F0A2F9072DEBD1FF
:103FEC003223009403223F49300009F099F901274C
:103FFC0000237F4202933C4B029A1B7893420AD8CF
:10400C0001235B420093012233333849300009F01D
:10401C0087F905B0F0BD304C029B38345A1C34493A
:10402C00200011F041FB2000FCF770F8322382B223
:10403C0021000097300009F073F916230621029A2B
:10404C002C4D534303935B5B052259432A4B2000B1
:10405C00C91811F07EFB3223052221000097300095
:10406C0009F05EF93223009701222449300009F04F
:10407C0057F9039B5B1901250393039A6B00D25AE2
:10408C00154C002A1ED120001D49383011F00CFBB4
:10409C0038342000FCF73AF8013582B2009732230D
:1040AC002100300009F03CF9072DE6D132230097AE
:1040BC0002221449300009F033F9029B0133DBB2C0
:1040CC00029398E7200007230F4913403830D20899
:1040DC0011F0EAFADCE7C046600E0020F79F0108F9
:1040EC0009A00108D2A8010810000020C0BA0108DC
:1040FC000EA00108C4110020FD9A010807A00108B8
:10410C001DA00108D3A801081AA00108F0B52A4C7B
:10411C0087B02500383529490600280011F000FB2E
:10412C0001272800FBF7F2FF290001257F4282B20C
:10413C0000973223300009F0F3F80597204B1B78D9
:10414C00AB4212D238341F49200011F0E9FA20009A
:10415C00FBF7DCFF01235B4282B200932100333377
:10416C00300009F0DDF807B0F0BD00236A1E5200E4
:10417C0004925A1C04990392134A8A5A8021090208
:10418C001941114212D027003837039B2A000F49DE
:10419C00380011F089FA3800FBF7B8FF059B82B2A2
:1041AC00009339003223300009F0BAF8039B0A2B34
:1041BC00DFD10135EDB2C1E7600E002021A001086E
:1041CC00100000204FA00108C07700203DA001087E
:1041DC00F0B585B0039009F0B9FA04006F4911F0FD
:1041EC009FFA6F4D6F4B38351A786F49280011F0D4
:1041FC005BFA2900200011F077FA6C4F6C493A7A7F
:10420C00280011F051FA2900200011F06DFA052355
:10421C00002200936749033B280011F045FA29005E
:10422C00200011F061FA644A6449280011F03CFA4C
:10423C002900200011F058FA614A6249280011F057
:10424C0033FA2900200011F04FFA5F49280011F0D1
:10425C0067FA2900200011F047FA012609373200CD
:10426C005A49280011F020FA2900200011F03CFADC
:10427C00F05D042808D8FBF75BFF037476787A00AE
:10428C005349280011F04CFA29002000013611F096
:10429C002BFA072EE3D14F49280011F041FA2900DF
:1042AC00200011F021FA012538236B434A4A9B1850
:1042BC001A00383A1268002A5BD1394E2A00383677
:1042CC004649300011F0F0F931002000013511F0B1
:1042DC000BFA072DE8D14249200011F005FA4149AB
:1042EC00200011F001FA2000FBF710FF002206005D
:1042FC002C4B3D491B78571C013B5B005B5A8021C2
:10430C000902114119420AD0254D384938353A0075
:10431C00280011F0C9F92900200011F0E5F93A0044
:10432C00062FE5D12000FBF7F1FEB6B2B04203D167
:10433C002F49200011F0D8F92949200011F0D4F9A7
:10434C00039B002B0BD02000FBF7E0FE01235B420C
:10435C0082B2009321003333039808F0E1FF05B0DB
:10436C00F0BD24498DE724498BE7244989E724498A
:10437C0087E7143B186806F0F7FE224AAB00043BB3
:10438C000700D05806F0F0FE054E009038363B0082
:10439C002A001D49300011F087F995E708A00108A3
:1043AC00600E0020600D00206FA00108E00E0020C0
:1043BC008BA00108A7A00108C4A00108D0A0010887
:1043CC00E7A00108F0A0010809A101081CA101083F
:1043DC0022A1010883A10108481F00209BA101080C
:1043EC00D3A80108E6A10108C077002003A20108A8
:1043FC0008A2010829A101083EA101084AA101084F
:10440C0064A10108E0150020B6A10108F7B52949FF
:10441C000500FBF771FE002803D1274B1C78200008
:10442C00FEBD26492800FBF767FEFF240028F6D0C6
:10443C002F78232F17D00026214B1B780193019B3B
:10444C00F4B2A34221D800240A271B4E3636390079
:10445C00614328007118FBF74FFE002824D120027D
:10446C00FE2404431CE0681C10F091FCC0B2002830
:10447C0005D0134B1B78834201D304B2CFE70E4B0C
:10448C0066241B788342F8D0C9E70A2171430D4B8F
:10449C002800C918FBF730FE002803D1002F01D0EB
:1044AC0024B2BCE70136CAE701340A2CCFD15A3406
:1044BC00B5E7C046C1BD0108600D00200DA2010882
:1044CC0010000020B6100020F7B50C000025294E76
:1044DC000190A90071182000FBF70EFE002843D0B4
:1044EC000135042DF5D10A27234B244E1B78033DAF
:1044FC000093009BAB421FDC00250A27204E36366A
:10450C003900694320007118FBF7F6FD00282DD007
:10451C0001350A2DF4D11B4E1B4B33613569002D2F
:10452C0014D10A20019B21005843144BC01811F0E0
:10453C00F7F8FFF7ADF9FEBD390069432000891982
:10454C00FBF7DAFD002811D00135D2E72B681F6884
:10455C003800FBF7DBFD39000200200011F0E8F811
:10456C00002805D06B68D8E70620E4E70720E2E7CF
:10457C000820E0E7B09A010810000020B6100020D7
:10458C00600D0020E00E0020C4000020F7B50D00E7
:10459C0000240A27364E0090363639006143280035
:1045AC007118FBF7A9FD00280AD10121A140009B3D
:1045BC002F4A013B951C5B005A5B0A435A53FEBDC4
:1045CC0001340A2CE9D100242A4EA10071182800CC
:1045DC00FBF792FD002845D00134042CF5D10A27B5
:1045EC00254B264E1B78033C0193019BA3421DDCFB
:1045FC00234E244B73617469002C21D10A221C4870
:10460C00363013006343195C002927D1C0182900E8
:10461C0011F086F80120A040009A154B013A0233A4
:10462C005200D15A0143D1520020C8E739006143EE
:10463C0028008919FBF760FD002815D00134D4E758
:10464C0023681F683800FBF761FD39000200280061
:10465C0011F06EF8002809D06368CBE701340A2CFE
:10466C00CFD1D7E70620AAE70720A8E70820A6E7BE
:10467C00600D0020B09A010810000020B610002038
:10468C00E00E0020C4000020F7B501240026194BD1
:10469C001B78A34201D23000FEBD174F3B78A342DA
:1046AC000FD000221321200004F0EEFC322008F081
:1046BC0085FC124B1B7E002B00D002260134E4B289
:1046CC00E5E700256B1C01936B46187908F01CFE7E
:1046DC008022436B1202934208D1100028413B7890
:1046EC000749013B5B005A5A02435A52019D062D61
:1046FC00E8D1E3E710000020600D0020E00E002060
:10470C00C077002070B5802500222D022E001641A6
:10471C000B4B0C491B78541C013B5B005B5AE0B201
:10472C001E4009D108F0F0FD310008F063FE2200B4
:10473C00062CEBD1002070BD08F0E6FD0121F4E75A
:10474C00600D0020C077002070B508F003FB08F066
:10475C008FFB02F051FE07F019FF07F031F808F05B
:10476C00B9FB07F06FFE08F0E7FB07F0A5FF002888
:10477C000AD0FFF765F9BFF34F8F304B304ADA6040
:10478C00BFF34F8FC046FDE7FFF76AF9002836D01C
:10479C0001242C4B32201B19DC7708F00FFC06F09F
:1047AC0041FBE123284D5B02AB6020000134A9687A
:1047BC00E4B208F015FE072CF7D1FFF739F8FFF734
:1047CC00A1FF07F071FB80219020204B01221C7867
:1047DC000901C005002C18D10BF026FFFA2040006F
:1047EC0008F0ECFB8021902000220901C0050BF0A1
:1047FC001BFF02F07BFC0122154B5A7670BD322058
:10480C0008F0DCFB06F00EFBD7E70BF00DFFFA20EF
:10481C00400008F0D3FB8021902000220901C00544
:10482C000BF002FF642008F0C9FB802190200122CC
:10483C00C00509010BF0F8FE6420D1E700ED00E0A3
:10484C000400FA05E00D002078710020600D0020B6
:10485C00E00E002010B50AF07DFC06F08BFAFFF795
:10486C0073FF02F00DFF08F073FE10BD37B51E206C
:10487C0010F0CAFA04001E22002110F01BFD09489A
:10488C000949058B027D837D013A0195407D92009B
:10489C008A1800902C311269200010F005FF2000BE
:1048AC003EBDC04678710020B09A01081FB5074B79
:1048BC000A00197801230393023B029301930333FB
:1048CC0000930B0004F002FC05B000BD600D00204D
:1048DC00F0B5002487B007000D0023002200210052
:1048EC00049403940294019400942000FEF7FEFFBC
:1048FC003823791E59430D4A681E8E584343A642ED
:10490C000BD0D6583800A6420CD002F075FB28000C
:10491C0002F072FB200007B0F0BDD3586820002BCA
:10492C00F9D0280002F068FB3000F4E7481F0020A3
:10493C001423F7B5224D234A2C780600013C5C4326
:10494C001419FBF7E3FBE7680190002F2FD0380018
:10495C00FBF7DCFB0199009002310918380010F0CC
:10496C00DBFCE06014242B78164A013B6343D3181C
:10497C00009AD86801328018310010F0D1FE2B78E3
:10498C00104A013B6343D3181322DB6800995A5435
:10499C001422002128780B4B013850431818C36897
:1049AC008B4202D110F086FC0E210800FEBD01984E
:1049BC00013010F029FA3100E06010F0B1FEE7E7A9
:1049CC00381400209471002070B5050003262C7853
:1049DC00002C00D170BD10F009FA00194278324059
:1049EC00012A00D120342C700135F0E7F0B5CD4B05
:1049FC008DB01B78069008930E24052B00D13CE15A
:104A0C00142000245843C84F0422C31902301C80C0
:104A1C00C0192100079310F04DFC069B1B78622BEC
:104A2C0000D011E1069B9B782E2B00D00CE1069B4D
:104A3C005E78303EF6B2062E00D91EE10125079BAA
:104A4C0007221D809E70069BB849033318000993FA
:104A5C0010F06EFEA0421CD10523079AD3700922D8
:104A6C007243B34B9B181B7A2B4205D00024AD4AE2
:104A7C0013780133137000E12300220029000595FF
:104A8C0004940394029401940094300003F032FADD
:104A9C00EDE70E22A749099810F04AFE002813D121
:104AAC000623079AD37009227243A14B9B181B7AD9
:104ABC009B07DBD423002A000595049403940294ED
:104ACC00019400942100E0E70C229B49099810F016
:104ADC002FFE002852D1092211007143944B5B1810
:104AEC009978002914D1079B0698DA700F3010F0D2
:104AFC0048F98C4AC3B21078142250433818037109
:104B0C000595049403940294019400942200D9E72F
:104B1C00DA78002A15D10A23079A0698D3700F3039
:104B2C0010F02FF97F4AC3B2107814225043381872
:104B3C00037105950494039402940194009323004B
:104B4C00E4E71B790C24002B91D114250B22089B34
:104B5C0006986B43FB18DA700F3010F012F9714B9A
:104B6C0000241B78C0B25D4301237D192871059385
:104B7C0004940394029401900094E0E70D226F4991
:104B8C00099810F0D5FD002800D06FE70923190013
:104B9C007143674A51184879002813D1079A06982F
:104BAC000333D370103010F0ECF85E4AC3B21078B7
:104BBC0014225043381803710595049403940293FE
:104BCC000194D9E78979002917D114250D22089B66
:104BDC00554C6B430698E318DA70103010F0D1F88E
:104BEC00504BC0B21B785D43641920710123002423
:104BFC000593049403900294E2E77343D318DD7990
:104C0C000D24002D00D032E714270E22089B464CB1
:104C1C007B430698E318DA70103010F0B2F8414B71
:104C2C00C0B21B782A005F430123E41920712900CC
:104C3C000593049003950295019500952B00300087
:104C4C0003F058F92C0012E7364B06995D1C28002E
:104C5C0010F066FD3A4C2800210011F0E1FB210018
:104C6C000500002011F0DCFB21000690002011F063
:104C7C00D7FB0400002D03D1672420000DB0F0BD3C
:104C8C002800FEF74BFF069B061E0ED0002B0ED104
:104C9C00002CF1D114200222224B1B7858433A5499
:104CAC003818C67001331F4AE4E6002BE4D0002C00
:104CBC00E2D02000FEF732FF1A4B14251B78002897
:104CCC001BD05D4304237B557D19EE70E871154BA9
:104CDC0006981C78FEF72EFF1421124B4C431B78C0
:104CEC00114A59431419607052185278002AC3D0D3
:104CFC000C4A013313700024BFE703226B43FA54B0
:104D0C00FB18DE70200010F037F8FEF723FA054B85
:104D1C000B90187804226843063038180BA910F051
:104D2C00C0FAD4E738140020947100201CAC0108A0
:104D3C00CC1B002015AC010847A4010854A40108A1
:104D4C005DB20108030010B50800022B13D0032B31
:104D5C0004D0012B0DD1FFF749FE10BD074B1A787B
:104D6C001423013A5A43064B9B1801221A7406F07D
:104D7C00F7F80020F1E7FFF7DBFDEEE73814002031
:104D8C0094710020F0B58FB0079008910292002129
:104D9C0009220BA81C0010F08DFAC64B3333059377
:104DAC000298FFF711FE059B1F78002F4ED10322AE
:104DBC00C149029810F0BCFC061E62D1029BD81CA3
:104DCC00FFF714FE00283AD0BC49200010F0A8FCD4
:104DDC00059B1E7000252000FBF798F92378002B0B
:104DEC000BD0089B002B08D001235B4282B20093AE
:104DFC0021003333079808F093FA2000FBF786F96B
:104E0C0000210200200010F055FA002DC8D1092213
:104E1C0029000BA810F04EFAA64B33331B78002B4D
:104E2C000BD1089B002B08D001235B420093382246
:104E3C003333A349079808F073FA0FB0F0BD02237F
:104E4C00059A13700D2323700500C4E706229D49B3
:104E5C00029810F06DFC00280AD1059B9A49187035
:104E6C000320FFF76FFF9949200010F059FCB1E7C0
:104E7C00022F06D10298FFF75BFD0028E2D08F4984
:104E8C00F2E72E21029810F03DFC061E00D10CE139
:104E9C00033803228E4910F04BFC002800D104E1AA
:104EAC000FF0A4FF7378C018042347781F400497B1
:104EBC0000D0FAE0029B0BA8F21A190010F049FC82
:104ECC000BA8FFF7A3FA834B07001B7806939842B5
:104EDC0006D199222100701C920008F0CBFBB3E79D
:104EEC007D496428C0D07D496628BDD0731C0393CE
:104EFC00FF282BD104991A22794810F0DBF902987B
:104F0C00FBF704F905000BA8FBF700F9013D2A1A81
:104F1C000399744810F01DFC0298FBF7F7F8050094
:104F2C000BA8FBF7F3F82B1A9BB239001722069843
:104F3C0004F08CF8992221009200039808F09AFB57
:104F4C0069490500200010F0CFFB44E7C6B2FE2EE5
:104F5C003ED1584B071234331A220499FEB26048E2
:104F6C0009931E7010F0A6F90298FBF7CFF8070012
:104F7C000BA8FBF7CBF8013F3A1A0399594810F0EC
:104F8C00E8FB0298FBF7C2F807000BA8FBF7BEF88A
:104F9C003B1A9BB217223100069804F057F84D4B80
:104FAC00524A1B78013B5B009B5A099A12781341B9
:104FBC00DB0706D5992221009200039808F05AFBD2
:104FCC0005000BAB22004A49200010F06DFB02E7F4
:104FDC0006224849039810F0ABFB051E2BD1464B1B
:104FEC00020018701921300004F04EF8642008F00B
:104FFC00B4FA424B31001A78364B18782B00FEF776
:10500C0055FF3D4B1B78602B00D0E3E6FA210120C5
:10501C00890009F06FFE3A4B1B78002B00D1D9E6C2
:10502C00384A394913882000013313803B00220091
:10503C0010F03AFBCEE60298FBF768F805000BA8D7
:10504C00FBF764F8013D2A1A0399264810F081FBFE
:10505C000298FBF75BF805000BA8FBF757F8013D2E
:10506C002A1A92B21721300004F00EF83A002749A0
:10507C00200010F019FB2378002B0DD02000FBF73B
:10508C0045F8089B002B07D0012382B20093210026
:10509C003133079808F044F92000FBF737F800216A
:1050AC000200200010F006F9ABE7992221009200D3
:1050BC00029812E73814002062A4010866A40108C3
:1050CC00E1A50108B8A4010808A00108BFA40108C3
:1050DC0000A50108600D002004A501082BA50108FE
:1050EC009C100020010E002050A50108620D00202C
:1050FC006DA5010899A50108F6700020E80E0020A6
:10510C00F80E0020721E0020C1A50108A0A5010800
:10511C0001210023F0B587B002AA49420120D373C4
:10512C00E12509F0E7FD08F011FB4D4B03909B685E
:10513C002D034C4EAB420BD001243378A34203D049
:10514C002900200008F04CF90134E4B2072CF4D10A
:10515C00454B464C1A8806235343454A31789B18D5
:10516C00444A3534127820000091434910F09CFADF
:10517C00A4220A2392004149307808F0F7F8200065
:10518C00FAF7C4FF210082B20A23307808F0EEF857
:10519C000024C02130783A4D421E5143394FAB5C4C
:1051AC007918BF2B08D8CF5C002F35D002ADEF7328
:1051BC000025CD5432498B540F2102AD0A23012214
:1051CC00491908F0D3F802ABDB7B0D2B2BD13078CF
:1051DC00033B02222C4908F0C9F8244F2B4D002C1C
:1051EC0005D1390028005D310F3010F099FA0F35D8
:1051FC00039B2A0030780121FFF7C4FD38002900F9
:10520C005D3010F08DFA32220021280010F052F897
:10521C00002408F0D3FBBCE7BF2B01D13B00AF54FB
:10522C0001339BB2BDE70A2BF3D0082B01D07F2BA7
:10523C0009D1002CEDD00021144A013CE3B20F320D
:10524C005CB2D154E5E71A00203A5E2AE1D8312C41
:10525C00DFDC0E4A0F321355013464B2D9E7C04675
:10526C0078710020E80E002038000020381400204F
:10527C00FD9A0108600D00201AA6010845A6010838
:10528C00FE1500203C160020BFBA0108B8140020FF
:10529C00F8B5184B04001A781423013A5A43164BEC
:1052AC000D009B18DB68181E09D0144E736C002B74
:1052BC0000D17464746C2078002801D17064F8BD3E
:1052CC001321200010F01EFA071E08D0021B21002B
:1052DC002800013710F03DFA77640120EFE7210038
:1052EC00280010F01DFA2800FAF710FF2418746437
:1052FC00F3E7C0463814002094710020B814002045
:10530C00142337B558432D490B5C012B03D0032BC9
:10531C000DD000200AE0092309188A785343284A43
:10532C00985CCB78C01A43425841C0B23EBD0C23A6
:10533C000C18E2780630013A5343224A41189B5824
:10534C0001A804221D680FF0ACFF60780138052815
:10535C00DFD8FAF7EDFE030C1221272C291C01983B
:10536C000124FBF7CFF8002814D1002412E0291CEB
:10537C0001980124FBF7CCF8F5E7291C0198FBF701
:10538C00DBF80028C5D00021281C0124FBF7BAF853
:10539C000028EAD1E0B2C9E7291C01980124FBF7E7
:1053AC00C1F8E0E7291C0198FBF7D0F8E9E7291CC4
:1053BC000198FBF7A7F80028E5D0AAE79471002024
:1053CC00CC1B0020A0000020F8B508F0BFF9002489
:1053DC000700184B1A78A3B29A4201D80020F8BDE6
:1053EC0014256543144BED182B7C002B01D1013493
:1053FC00EFE7E0B2FFF784FF0028F8D020220F4B34
:10540C000F4E1A7048363100E868FFF741FF00284C
:10541C00EDD00C4B3200187800213B00FFF7B2FCAA
:10542C003800FAF773FE0021020038000FF042FF3B
:10543C00E9E7C0463814002094710020F670002073
:10544C00B8140020E80E002000207047F0B50025AD
:10545C0085B00400170002950395A84201D172B6DD
:10546C00FEE702AA0121380008F074F90023C356A4
:10547C006826702B05D101300FF089FC2E00C3B2C9
:10548C00019303AA0221380008F064F90FF07FFCA5
:10549C000500682E06D10949200010F041F90020C2
:1054AC0005B0F0BD0100019807F09AFF019B2A009E
:1054BC000349200010F0F8F8F1E7C046D6A801081F
:1054CC00E9A8010810B5002801D172B6FEE7044B1B
:1054DC0004491A6892B210F0E7F8002010BDC046DB
:1054EC00CCF7FF1F0FA90108002313B5009300236D
:1054FC00040001931000002C01D172B6FEE76A463D
:10550C00012108F027F90378323B012B10D80FF05A
:10551C003EFC01A9C0B202F093FF0198FDF7C8FD53
:10552C0002000B002000054910F0BEF8002016BD4B
:10553C000349200010F0F4F8F8E7C0462DA9010843
:10554C0050A90108002313B5041E0093019301D147
:10555C0072B6FEE701A9684602F0ACFE694620006F
:10556C0010F0DEF80198FDF7A3FD02000B002000FF
:10557C00024910F099F8002016BDC04665A9010833
:10558C00002313B5041E0093019301D172B6FEE7FC
:10559C0001A9684602F08EFE6946200010F0C0F8A2
:1055AC000098FDF785FD02000B002000024910F069
:1055BC007BF8002016BDC0468CA901080023F0B56D
:1055CC0085B0019302930023040016000393002876
:1055DC0001D172B6FEE701AA0121300008F0BAF839
:1055EC000500022102AA300008F0B4F82B7807005D
:1055FC00323B1849012B29D828000FF0C8FB164E56
:10560C00C5B231003800FAF777FD002805D01349F0
:10561C003800FAF771FD002817D13100280002F08C
:10562C00D1FF03AA3100280002F0F6FF03A92000E5
:10563C0010F076F80398FAF7DDFF094982B22000E2
:10564C0010F032F8002005B0F0BD0649200010F033
:10565C0067F8F7E750A9010813C70108ADA90108BD
:10566C00B4A90108C4A901080023F0B587B00593BB
:10567C004E4B04AE1B78040033701000002C01D18B
:10568C0072B6FEE7012105AA08F064F84849050046
:10569C00FAF732FD00285BD101256427454B1A78B7
:1056AC00454B9B18013B1B780293EBB20393414B88
:1056BC00EAB21B7893423ED00FF014FE04AE307069
:1056CC000A23012231000097E8B207F029FEE8B264
:1056DC0007F01AFE036832789B8CDBB29A4230D109
:1056EC002A00364920000FF0DFFF2000FAF70EFDEC
:1056FC00304B82B2210018780A23009707F010FE75
:10570C002F49200010F00CF82000FAF7FFFC294E6E
:10571C0082B20A2330782100009707F001FEC021E5
:10572C00029B5A1C3378013B4B432649CB189B5C9C
:10573C00002B09D002920135072DB6D1002007B0FD
:10574C00F0BD2A002049CDE7012009F021FDE6E754
:10575C000023EB561D49702B24D1681C0FF017FB4E
:10576C00C7B27B1E05001A49052B1BD80FF0BAFDDA
:10577C00642330700122310000933800323B07F073
:10578C00CFFD380007F0C0FD036831789B8CEAB27E
:10579C00DBB2994204D1094920000FF085FFCDE717
:1057AC000949F9E720000FF0BBFFC7E7949B0108FC
:1057BC000DA20108E80E0020FE150020D6A9010854
:1057CC0003AA01083C160020F1A9010872AA0108DD
:1057DC0057AA0108F0B5002685B004001700029600
:1057EC000396B04201D172B6FEE702AA012138003D
:1057FC0007F0B0FF00236722C3560192702B04D12F
:10580C0001300FF0C4FA0196C5B203AA0221380088
:10581C0007F0A0FF0023C356702B04D00F492000C3
:10582C000FF07EFF12E001300FF0B1FA019B060081
:10583C00C1B2002BF2D12800FFF74AF8002808D19A
:10584C00F3B22A00064920000FF02EFF002005B00D
:10585C00F0BD6728E2D00349E1E7C04672AA01080F
:10586C0081AA01089EAA0108F0B5002685B00400A3
:10587C00170002960396B04201D172B6FEE702AA57
:10588C000121380007F066FF00236722C3560192FE
:10589C00702B04D101300FF07AFA0196C5B203AA2D
:1058AC000221380007F056FF0023C356702B04D09A
:1058BC000F4920000FF034FF12E001300FF067FAAF
:1058CC00019B0600C1B2002BF2D12800FEF7EEFFBF
:1058DC00002808D1F3B22A00064920000FF0E4FE9C
:1058EC00002005B0F0BD6728E2D00349E1E7C046CF
:1058FC0072AA0108B7AA0108DAAA0108F0B50025B6
:10590C0085B00190019B10000395AB4201D172B69A
:10591C00FEE703AA012107F01DFF0FF032FAC4B213
:10592C00002C40D0214B1B78A3423CD31423C0B293
:10593C00013858431E4F2900C61902303580042205
:10594C00C0190FF0B7FC3574F0680FF067FAF5600A
:10595C001425164B1B78A3420BD8144A013B137029
:10596C0005F0FEFA134901980FF0DAFE002005B09D
:10597C00F0BD2B006343FB5C002B11D0631E6B430B
:10598C00180014303A181100FB18944645C945C349
:10599C001A0009C909C22A00002160460FF08AFCCE
:1059AC000134E4B2D5E70449DDE7C04638140020E1
:1059BC0094710020F1AA010827AB010837B5002526
:1059CC00040001951000AC4201D172B6FEE701AAA9
:1059DC00012107F0BFFE0FF0D4F9C3B2002B12D097
:1059EC000A4A12789A420ED31423C0B201384343A8
:1059FC000748C018057405F0B3FA064920000FF0EB
:105A0C008FFE00203EBD0449F8E7C0463814002044
:105A1C00947100204AAB010827AB0108002313B591
:105A2C000400019310009C4201D172B6FEE701AA5A
:105A3C00012107F08FFE0FF0A4F9C3B2002B13D095
:105A4C000A4A12789A420FD31423C0B20138434346
:105A5C000748C0180123037405F082FA0549200099
:105A6C000FF05EFE002016BD0349F8E73814002045
:105A7C00947100207FAB010827AB0108F0B5624997
:105A8C008DB004000E22023108A80FF00AFC002C85
:105A9C0001D172B6FEE75D4B3722187801235B42C9
:105AAC0000935B49333307F03BFC0026731CDBB2DD
:105ABC000593584B1B78B34206D8574920000FF07A
:105ACC002FFE00200DB0F0BD14237343534D5A5DCF
